{
	"data": {
		"bytecode": {
			"linkReferences": {},
			"object": "60806040526000600960006101000a81548160ff021916908360ff1602179055506001600960016101000a81548160ff021916908360ff1602179055506000600960026101000a81548160ff021916908360ff1602179055506001600960036101000a81548160ff021916908360ff1602179055506000600960046101000a81548160ff021916908360ff1602179055506001600960056101000a81548160ff021916908360ff1602179055506003600960066101000a81548160ff021916908360ff16021790555061dead600960076101000a81548173ffffffffffffffffffffffffffffffffffffffff021916908373ffffffffffffffffffffffffffffffffffffffff1602179055506000600f60006101000a81548160ff021916908360ff1602179055506001600f60016101000a81548160ff021916908360ff1602179055506002600f60026101000a81548160ff021916908360ff16021790555034801561016b57600080fd5b50336000806101000a81548173ffffffffffffffffffffffffffffffffffffffff021916908373ffffffffffffffffffffffffffffffffffffffff16021790555060008054906101000a900473ffffffffffffffffffffffffffffffffffffffff1673ffffffffffffffffffffffffffffffffffffffff16600073ffffffffffffffffffffffffffffffffffffffff167f342827c97908e5e2f71151c08502a66d44b6f758e3ac2f1de95f02eb95f0a73560405160405180910390a361270f600f60036101000a81548163ffffffff021916908363ffffffff160217905550612710600f60076101000a81548163ffffffff021916908363ffffffff1602179055506063600f600b6101000a81548163ffffffff021916908363ffffffff1602179055506064600f806101000a81548163ffffffff021916908363ffffffff160217905550614b01806102bf6000396000f3fe6080604052600436106100fe5760003560e01c80638a521c6011610095578063c26a649011610064578063c26a649014610382578063c843a8a4146103bf578063cad68b04146103f5578063d11574511461041e578063d9f5b9dc1461045b576100fe565b80638a521c601461029a578063a25dbe5c146102df578063a6f9dae11461031c578063b162144d14610345576100fe565b80633bf91428116100d15780633bf91428146101ed5780633e4db85d1461021d57806372e402c514610246578063893d20e81461026f576100fe565b806306e2335d1461010357806322a023aa14610136578063295731431461016c5780632a69d6af146101b0575b600080fd5b34801561010f57600080fd5b50610118610498565b60405161012d99989796959493929190614136565b60405180910390f35b34801561014257600080fd5b5061014b610583565b6040516101639c9b9a99989796959493929190613e52565b60405180910390f35b34801561017857600080fd5b50610193600480360381019061018e9190613a37565b610730565b6040516101a79897969594939291906141c3565b60405180910390f35b3480156101bc57600080fd5b506101d760048036038101906101d29190613a37565b6107ef565b6040516101e49190613e30565b60405180910390f35b610207600480360381019061020291906139db565b610dc1565b6040516102149190613e30565b60405180910390f35b34801561022957600080fd5b50610244600480360381019061023f9190613ae4565b6113b3565b005b34801561025257600080fd5b5061026d60048036038101906102689190613aa4565b61165d565b005b34801561027b57600080fd5b50610284611766565b6040516102919190613dfa565b60405180910390f35b3480156102a657600080fd5b506102c160048036038101906102bc9190613a37565b61178f565b6040516102d699989796959493929190614241565b60405180910390f35b3480156102eb57600080fd5b5061030660048036038101906103019190613a37565b611874565b6040516103139190613e15565b60405180910390f35b34801561032857600080fd5b50610343600480360381019061033e91906139ae565b611da9565b005b34801561035157600080fd5b5061036c60048036038101906103679190613a37565b611ef4565b6040516103799190613e30565b60405180910390f35b34801561038e57600080fd5b506103a960048036038101906103a49190613a37565b61241c565b6040516103b69190613e30565b60405180910390f35b3480156103cb57600080fd5b506103d4612997565b6040516103ec9c9b9a99989796959493929190613e52565b60405180910390f35b34801561040157600080fd5b5061041c60048036038101906104179190613a64565b612b4b565b005b34801561042a57600080fd5b50610445600480360381019061044091906139db565b612cf8565b6040516104529190613e30565b60405180910390f35b34801561046757600080fd5b50610482600480360381019061047d9190613a37565b61333f565b60405161048f9190613e15565b60405180910390f35b60008060008060008060008060008060006104c06007546003546137e890919063ffffffff16565b91506104d96008546004546137e890919063ffffffff16565b90506104ee81836137fe90919063ffffffff16565b8282600c54600d54600f60039054906101000a900463ffffffff16600f60079054906101000a900463ffffffff16600f600b9054906101000a900463ffffffff16600f8054906101000a900463ffffffff168363ffffffff1693508263ffffffff1692508163ffffffff1691508063ffffffff1690509a509a509a509a509a509a509a509a509a505050909192939495969798565b6060600060606000606060006060600060606000606060006001546105b56002546001546137fe90919063ffffffff16565b6002546004546003546105c89190614421565b6003546004546040518060400160405280601981526020017f546f74616c204345207469636b65747320637265617465643a000000000000008152509594939291906040518060400160405280601881526020017f546f74616c20616374697665204345207469636b6574733a000000000000000081525094939291906040518060400160405280601a81526020017f546f74616c20696e616374697665204345207469636b6574733a00000000000081525093929190604051806060016040528060228152602001614aaa602291399291906040518060400160405280601e81526020017f546f74616c2076616c75652065766572206c6f636b6564206f6e2043453a000081525091906040518060400160405280601b81526020017f546f74616c2076616c756520756e6c6f636b6564206f6e2043453a0000000000815250909b509b509b509b509b509b509b509b509b509b509b509b50909192939495969798999a9b565b600b818154811061074057600080fd5b90600052602060002090600502016000915090508060000154908060010154908060020160009054906101000a900460ff16908060020160019054906101000a900460ff16908060020160029054906101000a900460ff16908060020160039054906101000a900473ffffffffffffffffffffffffffffffffffffffff16908060030160009054906101000a900473ffffffffffffffffffffffffffffffffffffffff16908060040154905088565b6060600960009054906101000a900460ff1682600960019054906101000a900460ff1660ff168260ff1614806108395750600960009054906101000a900460ff1660ff168260ff16145b610878576040517f08c379a000000000000000000000000000000000000000000000000000000000815260040161086f90614036565b60405180910390fd5b60008110156108bc576040517f08c379a00000000000000000000000000000000000000000000000000000000081526004016108b390614096565b60405180910390fd5b600960009054906101000a900460ff1660ff168260ff16141561092257600154811061091d576040517f08c379a000000000000000000000000000000000000000000000000000000000815260040161091490614016565b60405180910390fd5b610967565b6005548110610966576040517f08c379a000000000000000000000000000000000000000000000000000000000815260040161095d90613f36565b60405180910390fd5b5b600a848154811061097b5761097a614597565b5b906000526020600020906006020160020160039054906101000a900473ffffffffffffffffffffffffffffffffffffffff163373ffffffffffffffffffffffffffffffffffffffff168173ffffffffffffffffffffffffffffffffffffffff1614610a1b576040517f08c379a0000000000000000000000000000000000000000000000000000000008152600401610a12906140d6565b60405180910390fd5b600a8581548110610a2f57610a2e614597565b5b906000526020600020906006020160020160009054906101000a900460ff16600960009054906101000a900460ff16600960009054906101000a900460ff1660ff168160ff161480610a955750600960019054906101000a900460ff1660ff168160ff16145b610ad4576040517f08c379a0000000000000000000000000000000000000000000000000000000008152600401610acb906140b6565b60405180910390fd5b60008260ff161480610b09575060018260ff16148015610b085750600960009054906101000a900460ff1660ff168160ff16145b5b610b48576040517f08c379a0000000000000000000000000000000000000000000000000000000008152600401610b3f90613ff6565b60405180910390fd5b600080600a8981548110610b5f57610b5e614597565b5b906000526020600020906006020160020160019054906101000a900460ff1660ff161415610be057610bd9600f600b9054906101000a900463ffffffff16600a8a81548110610bb157610bb0614597565b5b906000526020600020906006020160000154600f8054906101000a900463ffffffff16613814565b9050610c49565b610c46600a8981548110610bf757610bf6614597565b5b906000526020600020906006020160020160019054906101000a900460ff1660ff16600a8a81548110610c2d57610c2c614597565b5b9060005260206000209060060201600001546064613814565b90505b60001515610c5689611874565b151514610c9b576040518060400160405280601581526020017f5469636b65742069732074696d656c6f636b6564210000000000000000000000815250965050610db7565b60011515600a8981548110610cb357610cb2614597565b5b906000526020600020906006020160020160029054906101000a900460ff1615151415610cf157610cee6002826138be90919063ffffffff16565b90505b600a8881548110610d0557610d04614597565b5b906000526020600020906006020160020160039054906101000a900473ffffffffffffffffffffffffffffffffffffffff1673ffffffffffffffffffffffffffffffffffffffff166108fc829081150290604051600060405180830381858888f19350505050158015610d7c573d6000803e3d6000fd5b506040518060400160405280601581526020017f5469636b6574206973206e6f77206c6f636b65642e00000000000000000000008152509650505b5050505050919050565b6060600960009054906101000a900460ff1682600960019054906101000a900460ff1660ff168260ff161480610e0b5750600960009054906101000a900460ff1660ff168260ff16145b610e4a576040517f08c379a0000000000000000000000000000000000000000000000000000000008152600401610e4190614036565b60405180910390fd5b6000811015610e8e576040517f08c379a0000000000000000000000000000000000000000000000000000000008152600401610e8590614096565b60405180910390fd5b600960009054906101000a900460ff1660ff168260ff161415610ef4576001548110610eef576040517f08c379a0000000000000000000000000000000000000000000000000000000008152600401610ee690614016565b60405180910390fd5b610f39565b6005548110610f38576040517f08c379a0000000000000000000000000000000000000000000000000000000008152600401610f2f90613f36565b60405180910390fd5b5b600a8481548110610f4d57610f4c614597565b5b906000526020600020906006020160020160009054906101000a900460ff16600960009054906101000a900460ff16600960009054906101000a900460ff1660ff168160ff161480610fb35750600960019054906101000a900460ff1660ff168160ff16145b610ff2576040517f08c379a0000000000000000000000000000000000000000000000000000000008152600401610fe9906140b6565b60405180910390fd5b60008260ff161480611027575060018260ff161480156110265750600960009054906101000a900460ff1660ff168160ff16145b5b611066576040517f08c379a000000000000000000000000000000000000000000000000000000000815260040161105d90613ff6565b60405180910390fd5b86600a878154811061107b5761107a614597565b5b906000526020600020906006020160050154818051906020012081146110d6576040517f08c379a00000000000000000000000000000000000000000000000000000000081526004016110cd90613fd6565b60405180910390fd5b60008061112d600f60039054906101000a900463ffffffff16600a8c8154811061110357611102614597565b5b906000526020600020906006020160000154600f60079054906101000a900463ffffffff16613814565b90506000151561113c8b611874565b151514611182576040518060400160405280601581526020017f5469636b65742069732074696d656c6f636b6564210000000000000000000000815250985050506113a7565b600a8a8154811061119657611195614597565b5b9060005260206000209060060201600001543373ffffffffffffffffffffffffffffffffffffffff163111611200576040517f08c379a00000000000000000000000000000000000000000000000000000000081526004016111f790613f96565b60405180910390fd5b33600a8b8154811061121557611214614597565b5b906000526020600020906006020160020160036101000a81548173ffffffffffffffffffffffffffffffffffffffff021916908373ffffffffffffffffffffffffffffffffffffffff16021790555060011515600a8b8154811061127c5761127b614597565b5b906000526020600020906006020160020160029054906101000a900460ff161515141561135957600f60029054906101000a900460ff169150600a8a815481106112c9576112c8614597565b5b906000526020600020906006020160030160009054906101000a900473ffffffffffffffffffffffffffffffffffffffff1673ffffffffffffffffffffffffffffffffffffffff166108fc6113286002846138be90919063ffffffff16565b9081150290604051600060405180830381858888f19350505050158015611353573d6000803e3d6000fd5b5061136c565b600960039054906101000a900460ff1691505b6040518060400160405280601581526020017f5469636b6574206973206e6f772066696c6c65642e0000000000000000000000815250985050505b50505050505092915050565b60008054906101000a900473ffffffffffffffffffffffffffffffffffffffff1673ffffffffffffffffffffffffffffffffffffffff163373ffffffffffffffffffffffffffffffffffffffff1614611441576040517f08c379a000000000000000000000000000000000000000000000000000000000815260040161143890613f56565b60405180910390fd5b600f60009054906101000a900460ff1660ff168360ff1614806114785750600f60019054906101000a900460ff1660ff168360ff16145b806114975750600f60029054906101000a900460ff1660ff168360ff16145b6114d6576040517f08c379a00000000000000000000000000000000000000000000000000000000081526004016114cd90613fb6565b60405180910390fd5b600f60009054906101000a900460ff1660ff168360ff161415611540578160ff16600f60036101000a81548163ffffffff021916908363ffffffff1602179055508060ff16600f60076101000a81548163ffffffff021916908363ffffffff160217905550611658565b600f60019054906101000a900460ff1660ff168360ff1614156115a9578160ff16600f600b6101000a81548163ffffffff021916908363ffffffff1602179055508060ff16600f806101000a81548163ffffffff021916908363ffffffff160217905550611657565b600f60029054906101000a900460ff1660ff168360ff161415611656578160ff16600f60036101000a81548163ffffffff021916908363ffffffff1602179055508060ff16600f60076101000a81548163ffffffff021916908363ffffffff1602179055508160ff16600f600b6101000a81548163ffffffff021916908363ffffffff1602179055508060ff16600f806101000a81548163ffffffff021916908363ffffffff1602179055505b5b5b505050565b60008054906101000a900473ffffffffffffffffffffffffffffffffffffffff1673ffffffffffffffffffffffffffffffffffffffff163373ffffffffffffffffffffffffffffffffffffffff16146116eb576040517f08c379a00000000000000000000000000000000000000000000000000000000081526004016116e290613f56565b60405180910390fd5b620186a082118015611701575060008160ff1610155b611740576040517f08c379a000000000000000000000000000000000000000000000000000000000815260040161173790614076565b60405180910390fd5b8160108190555080601160006101000a81548160ff021916908360ff1602179055505050565b60008060009054906101000a900473ffffffffffffffffffffffffffffffffffffffff16905090565b600a818154811061179f57600080fd5b90600052602060002090600602016000915090508060000154908060010154908060020160009054906101000a900460ff16908060020160019054906101000a900460ff16908060020160029054906101000a900460ff16908060020160039054906101000a900473ffffffffffffffffffffffffffffffffffffffff16908060030160009054906101000a900473ffffffffffffffffffffffffffffffffffffffff16908060040160009054906101000a900473ffffffffffffffffffffffffffffffffffffffff16908060050154905089565b6000600960009054906101000a900460ff1682600960019054906101000a900460ff1660ff168260ff1614806118be5750600960009054906101000a900460ff1660ff168260ff16145b6118fd576040517f08c379a00000000000000000000000000000000000000000000000000000000081526004016118f490614036565b60405180910390fd5b6000811015611941576040517f08c379a000000000000000000000000000000000000000000000000000000000815260040161193890614096565b60405180910390fd5b600960009054906101000a900460ff1660ff168260ff1614156119a75760015481106119a2576040517f08c379a000000000000000000000000000000000000000000000000000000000815260040161199990614016565b60405180910390fd5b6119ec565b60055481106119eb576040517f08c379a00000000000000000000000000000000000000000000000000000000081526004016119e290613f36565b60405180910390fd5b5b600a8481548110611a00576119ff614597565b5b906000526020600020906006020160020160009054906101000a900460ff16600960009054906101000a900460ff16600960009054906101000a900460ff1660ff168160ff161480611a665750600960019054906101000a900460ff1660ff168160ff16145b611aa5576040517f08c379a0000000000000000000000000000000000000000000000000000000008152600401611a9c906140b6565b60405180910390fd5b60008260ff161480611ada575060018260ff16148015611ad95750600960009054906101000a900460ff1660ff168160ff16145b5b611b19576040517f08c379a0000000000000000000000000000000000000000000000000000000008152600401611b1090613ff6565b60405180910390fd5b6000600a8781548110611b2f57611b2e614597565b5b90600052602060002090600602016001015411611b81576040517f08c379a0000000000000000000000000000000000000000000000000000000008152600401611b7890614116565b60405180910390fd5b600080600a8881548110611b9857611b97614597565b5b906000526020600020906006020160020160019054906101000a900460ff1660ff161415611c1957611c12600f600b9054906101000a900463ffffffff16600a8981548110611bea57611be9614597565b5b906000526020600020906006020160000154600f8054906101000a900463ffffffff16613814565b9050611c82565b611c7f600a8881548110611c3057611c2f614597565b5b906000526020600020906006020160020160019054906101000a900460ff1660ff16600a8981548110611c6657611c65614597565b5b9060005260206000209060060201600001546064613814565b90505b42600a8881548110611c9757611c96614597565b5b90600052602060002090600602016001015411611d9a5760011515600a8881548110611cc657611cc5614597565b5b906000526020600020906006020160020160029054906101000a900460ff1615151415611d0457611d016002826138be90919063ffffffff16565b90505b600a8781548110611d1857611d17614597565b5b906000526020600020906006020160020160039054906101000a900473ffffffffffffffffffffffffffffffffffffffff1673ffffffffffffffffffffffffffffffffffffffff166108fc829081150290604051600060405180830381858888f19350505050158015611d8f573d6000803e3d6000fd5b506001955050611da0565b60009550505b50505050919050565b60008054906101000a900473ffffffffffffffffffffffffffffffffffffffff1673ffffffffffffffffffffffffffffffffffffffff163373ffffffffffffffffffffffffffffffffffffffff1614611e37576040517f08c379a0000000000000000000000000000000000000000000000000000000008152600401611e2e90613f56565b60405180910390fd5b8073ffffffffffffffffffffffffffffffffffffffff1660008054906101000a900473ffffffffffffffffffffffffffffffffffffffff1673ffffffffffffffffffffffffffffffffffffffff167f342827c97908e5e2f71151c08502a66d44b6f758e3ac2f1de95f02eb95f0a73560405160405180910390a3806000806101000a81548173ffffffffffffffffffffffffffffffffffffffff021916908373ffffffffffffffffffffffffffffffffffffffff16021790555050565b6060600a8281548110611f0a57611f09614597565b5b906000526020600020906006020160020160039054906101000a900473ffffffffffffffffffffffffffffffffffffffff163373ffffffffffffffffffffffffffffffffffffffff168173ffffffffffffffffffffffffffffffffffffffff1614611faa576040517f08c379a0000000000000000000000000000000000000000000000000000000008152600401611fa1906140d6565b60405180910390fd5b600960009054906101000a900460ff1683600960019054906101000a900460ff1660ff168260ff161480611ff25750600960009054906101000a900460ff1660ff168260ff16145b612031576040517f08c379a000000000000000000000000000000000000000000000000000000000815260040161202890614036565b60405180910390fd5b6000811015612075576040517f08c379a000000000000000000000000000000000000000000000000000000000815260040161206c90614096565b60405180910390fd5b600960009054906101000a900460ff1660ff168260ff1614156120db5760015481106120d6576040517f08c379a00000000000000000000000000000000000000000000000000000000081526004016120cd90614016565b60405180910390fd5b612120565b600554811061211f576040517f08c379a000000000000000000000000000000000000000000000000000000000815260040161211690613f36565b60405180910390fd5b5b600a858154811061213457612133614597565b5b906000526020600020906006020160020160009054906101000a900460ff16600960009054906101000a900460ff16600960009054906101000a900460ff1660ff168160ff16148061219a5750600960019054906101000a900460ff1660ff168160ff16145b6121d9576040517f08c379a00000000000000000000000000000000000000000000000000000000081526004016121d0906140b6565b60405180910390fd5b60008260ff16148061220e575060018260ff1614801561220d5750600960009054906101000a900460ff1660ff168160ff16145b5b61224d576040517f08c379a000000000000000000000000000000000000000000000000000000000815260040161224490613ff6565b60405180910390fd5b6000151561225a88611874565b15151461229e576040518060400160405280601581526020017f5469636b65742069732074696d656c6f636b65642100000000000000000000008152509550612412565b60006122f4600f60039054906101000a900463ffffffff16600a8a815481106122ca576122c9614597565b5b906000526020600020906006020160000154600f60079054906101000a900463ffffffff16613814565b905060011515600a898154811061230e5761230d614597565b5b906000526020600020906006020160020160029054906101000a900460ff161515141561234c576123496002826138be90919063ffffffff16565b90505b600a88815481106123605761235f614597565b5b906000526020600020906006020160030160009054906101000a900473ffffffffffffffffffffffffffffffffffffffff1673ffffffffffffffffffffffffffffffffffffffff166108fc829081150290604051600060405180830381858888f193505050501580156123d7573d6000803e3d6000fd5b506040518060400160405280601581526020017f5469636b6574206973206e6f7720636c6f7365642e00000000000000000000008152509650505b5050505050919050565b6060600960019054906101000a900460ff1682600960019054906101000a900460ff1660ff168260ff1614806124665750600960009054906101000a900460ff1660ff168260ff16145b6124a5576040517f08c379a000000000000000000000000000000000000000000000000000000000815260040161249c90614036565b60405180910390fd5b60008110156124e9576040517f08c379a00000000000000000000000000000000000000000000000000000000081526004016124e090614096565b60405180910390fd5b600960009054906101000a900460ff1660ff168260ff16141561254f57600154811061254a576040517f08c379a000000000000000000000000000000000000000000000000000000000815260040161254190614016565b60405180910390fd5b612594565b6005548110612593576040517f08c379a000000000000000000000000000000000000000000000000000000000815260040161258a90613f36565b60405180910390fd5b5b600b84815481106125a8576125a7614597565b5b906000526020600020906005020160030160009054906101000a900473ffffffffffffffffffffffffffffffffffffffff163373ffffffffffffffffffffffffffffffffffffffff168173ffffffffffffffffffffffffffffffffffffffff1614612648576040517f08c379a000000000000000000000000000000000000000000000000000000000815260040161263f906140d6565b60405180910390fd5b600b858154811061265c5761265b614597565b5b906000526020600020906005020160020160009054906101000a900460ff16600960019054906101000a900460ff16600960009054906101000a900460ff1660ff168160ff1614806126c25750600960019054906101000a900460ff1660ff168160ff16145b612701576040517f08c379a00000000000000000000000000000000000000000000000000000000081526004016126f8906140b6565b60405180910390fd5b60008260ff161480612736575060018260ff161480156127355750600960009054906101000a900460ff1660ff168160ff16145b5b612775576040517f08c379a000000000000000000000000000000000000000000000000000000000815260040161276c90613ff6565b60405180910390fd5b600015156127828861333f565b1515146127c6576040518060400160405280601581526020017f5469636b65742069732074696d656c6f636b6564210000000000000000000000815250955061298d565b600080600b89815481106127dd576127dc614597565b5b906000526020600020906005020160020160019054906101000a900460ff1660ff16141561285e57612857600f600b9054906101000a900463ffffffff16600b8a8154811061282f5761282e614597565b5b906000526020600020906005020160000154600f8054906101000a900463ffffffff16613814565b90506128c7565b6128c4600b898154811061287557612874614597565b5b906000526020600020906005020160020160019054906101000a900460ff1660ff16600b8a815481106128ab576128aa614597565b5b9060005260206000209060050201600001546064613814565b90505b600b88815481106128db576128da614597565b5b906000526020600020906005020160030160009054906101000a900473ffffffffffffffffffffffffffffffffffffffff1673ffffffffffffffffffffffffffffffffffffffff166108fc829081150290604051600060405180830381858888f19350505050158015612952573d6000803e3d6000fd5b506040518060400160405280601481526020017f5469636b6574206973206e6f77206c6f7365642e0000000000000000000000008152509650505b5050505050919050565b6060600060606000606060006060600060606000606060006005546129c96006546005546137fe90919063ffffffff16565b6006546129e36008546007546137fe90919063ffffffff16565b6007546008546040518060400160405280601a81526020017f546f74616c20544d4d207469636b65747320637265617465643a0000000000008152509594939291906040518060400160405280601981526020017f546f74616c2061637469766520544d4d207469636b6574733a0000000000000081525094939291906040518060400160405280601b81526020017f546f74616c20696e61637469766520544d4d207469636b6574733a000000000081525093929190604051806060016040528060238152602001614a5d602391399291906040518060400160405280601f81526020017f546f74616c2076616c75652065766572206c6f636b6564206f6e20544d4d3a0081525091906040518060400160405280601c81526020017f546f74616c2076616c756520756e6c6f636b6564206f6e20544d4d3a00000000815250909b509b509b509b509b509b509b509b509b509b509b509b50909192939495969798999a9b565b60008054906101000a900473ffffffffffffffffffffffffffffffffffffffff1673ffffffffffffffffffffffffffffffffffffffff163373ffffffffffffffffffffffffffffffffffffffff1614612bd9576040517f08c379a0000000000000000000000000000000000000000000000000000000008152600401612bd090613f56565b60405180910390fd5b6000600e541415612c0257612bfb600d54600c546137fe90919063ffffffff16565b600e819055505b600082118015612c145750600e548211155b612c53576040517f08c379a0000000000000000000000000000000000000000000000000000000008152600401612c4a906140f6565b60405180910390fd5b600960079054906101000a900473ffffffffffffffffffffffffffffffffffffffff1673ffffffffffffffffffffffffffffffffffffffff168173ffffffffffffffffffffffffffffffffffffffff161415612cad573390505b8073ffffffffffffffffffffffffffffffffffffffff166108fc839081150290604051600060405180830381858888f19350505050158015612cf3573d6000803e3d6000fd5b505050565b6060600960019054906101000a900460ff1682600960019054906101000a900460ff1660ff168260ff161480612d425750600960009054906101000a900460ff1660ff168260ff16145b612d81576040517f08c379a0000000000000000000000000000000000000000000000000000000008152600401612d7890614036565b60405180910390fd5b6000811015612dc5576040517f08c379a0000000000000000000000000000000000000000000000000000000008152600401612dbc90614096565b60405180910390fd5b600960009054906101000a900460ff1660ff168260ff161415612e2b576001548110612e26576040517f08c379a0000000000000000000000000000000000000000000000000000000008152600401612e1d90614016565b60405180910390fd5b612e70565b6005548110612e6f576040517f08c379a0000000000000000000000000000000000000000000000000000000008152600401612e6690613f36565b60405180910390fd5b5b600b8481548110612e8457612e83614597565b5b906000526020600020906005020160020160039054906101000a900473ffffffffffffffffffffffffffffffffffffffff16600b8581548110612eca57612ec9614597565b5b906000526020600020906005020160020160029054906101000a900460ff1685600015158215151480612f2857503373ffffffffffffffffffffffffffffffffffffffff168373ffffffffffffffffffffffffffffffffffffffff16145b612f67576040517f08c379a0000000000000000000000000000000000000000000000000000000008152600401612f5e90614056565b60405180910390fd5b600b8781548110612f7b57612f7a614597565b5b906000526020600020906005020160020160009054906101000a900460ff16600960019054906101000a900460ff16600960009054906101000a900460ff1660ff168160ff161480612fe15750600960019054906101000a900460ff1660ff168160ff16145b613020576040517f08c379a0000000000000000000000000000000000000000000000000000000008152600401613017906140b6565b60405180910390fd5b60008260ff161480613055575060018260ff161480156130545750600960009054906101000a900460ff1660ff168160ff16145b5b613094576040517f08c379a000000000000000000000000000000000000000000000000000000000815260040161308b90613ff6565b60405180910390fd5b89600b8a815481106130a9576130a8614597565b5b90600052602060002090600502016004015481805190602001208114613104576040517f08c379a00000000000000000000000000000000000000000000000000000000081526004016130fb90613fd6565b60405180910390fd5b600015156131118c61333f565b151514613155576040518060400160405280601581526020017f5469636b65742069732074696d656c6f636b65642100000000000000000000008152509950613330565b60006131ab600f60039054906101000a900463ffffffff16600b8e8154811061318157613180614597565b5b906000526020600020906005020160000154600f60079054906101000a900463ffffffff16613814565b905060001515600b8d815481106131c5576131c4614597565b5b906000526020600020906005020160020160029054906101000a900460ff16151514156132af5733600b8d8154811061320157613200614597565b5b906000526020600020906005020160020160036101000a81548173ffffffffffffffffffffffffffffffffffffffff021916908373ffffffffffffffffffffffffffffffffffffffff1602179055506001600b8d8154811061326657613265614597565b5b906000526020600020906005020160020160026101000a81548160ff0219169083151502179055506040518060600160405280602a8152602001614a80602a91399a5050613330565b3373ffffffffffffffffffffffffffffffffffffffff166108fc829081150290604051600060405180830381858888f193505050501580156132f5573d6000803e3d6000fd5b506040518060400160405280601481526020017f5469636b6574206973206e6f7720636c6f7365640000000000000000000000008152509a50505b50505050505050505092915050565b6000600960019054906101000a900460ff1682600960019054906101000a900460ff1660ff168260ff1614806133895750600960009054906101000a900460ff1660ff168260ff16145b6133c8576040517f08c379a00000000000000000000000000000000000000000000000000000000081526004016133bf90614036565b60405180910390fd5b600081101561340c576040517f08c379a000000000000000000000000000000000000000000000000000000000815260040161340390614096565b60405180910390fd5b600960009054906101000a900460ff1660ff168260ff16141561347257600154811061346d576040517f08c379a000000000000000000000000000000000000000000000000000000000815260040161346490614016565b60405180910390fd5b6134b7565b60055481106134b6576040517f08c379a00000000000000000000000000000000000000000000000000000000081526004016134ad90613f36565b60405180910390fd5b5b600b84815481106134cb576134ca614597565b5b906000526020600020906005020160020160009054906101000a900460ff16600960019054906101000a900460ff16600960009054906101000a900460ff1660ff168160ff1614806135315750600960019054906101000a900460ff1660ff168160ff16145b613570576040517f08c379a0000000000000000000000000000000000000000000000000000000008152600401613567906140b6565b60405180910390fd5b60008260ff1614806135a5575060018260ff161480156135a45750600960009054906101000a900460ff1660ff168160ff16145b5b6135e4576040517f08c379a00000000000000000000000000000000000000000000000000000000081526004016135db90613ff6565b60405180910390fd5b6000600b87815481106135fa576135f9614597565b5b90600052602060002090600502016001015411801561363e575042600b878154811061362957613628614597565b5b90600052602060002090600502016001015411155b156137da57600080600b888154811061365a57613659614597565b5b906000526020600020906005020160020160019054906101000a900460ff1660ff1614156136db576136d4600f600b9054906101000a900463ffffffff16600b89815481106136ac576136ab614597565b5b906000526020600020906005020160000154600f8054906101000a900463ffffffff16613814565b9050613744565b613741600b88815481106136f2576136f1614597565b5b906000526020600020906005020160020160019054906101000a900460ff1660ff16600b898154811061372857613727614597565b5b9060005260206000209060050201600001546064613814565b90505b600b878154811061375857613757614597565b5b906000526020600020906005020160030160009054906101000a900473ffffffffffffffffffffffffffffffffffffffff1673ffffffffffffffffffffffffffffffffffffffff166108fc829081150290604051600060405180830381858888f193505050501580156137cf573d6000803e3d6000fd5b5060019550506137df565b600094505b50505050919050565b600081836137f69190614340565b905092915050565b6000818361380c9190614421565b905092915050565b6000808463ffffffff1611801561382d5750620186a083115b801561383f575060008263ffffffff16115b61387e576040517f08c379a000000000000000000000000000000000000000000000000000000000815260040161387590613f76565b60405180910390fd5b60006138b18363ffffffff166138a3868863ffffffff166138d490919063ffffffff16565b6138be90919063ffffffff16565b9050809150509392505050565b600081836138cc9190614396565b905092915050565b600081836138e291906143c7565b905092915050565b60006138fd6138f8846142f3565b6142ce565b905082815260208101848484011115613919576139186145fa565b5b6139248482856144c6565b509392505050565b60008135905061393b81614a00565b92915050565b60008135905061395081614a17565b92915050565b600082601f83011261396b5761396a6145f5565b5b813561397b8482602086016138ea565b91505092915050565b60008135905061399381614a2e565b92915050565b6000813590506139a881614a45565b92915050565b6000602082840312156139c4576139c3614604565b5b60006139d28482850161392c565b91505092915050565b600080604083850312156139f2576139f1614604565b5b600083013567ffffffffffffffff811115613a1057613a0f6145ff565b5b613a1c85828601613956565b9250506020613a2d85828601613984565b9150509250929050565b600060208284031215613a4d57613a4c614604565b5b6000613a5b84828501613984565b91505092915050565b60008060408385031215613a7b57613a7a614604565b5b6000613a8985828601613984565b9250506020613a9a85828601613941565b9150509250929050565b60008060408385031215613abb57613aba614604565b5b6000613ac985828601613984565b9250506020613ada85828601613999565b9150509250929050565b600080600060608486031215613afd57613afc614604565b5b6000613b0b86828701613999565b9350506020613b1c86828701613999565b9250506040613b2d86828701613999565b9150509250925092565b613b4081614467565b82525050565b613b4f81614455565b82525050565b613b5e81614479565b82525050565b613b6d81614485565b82525050565b6000613b7e82614324565b613b88818561432f565b9350613b988185602086016144d5565b613ba181614609565b840191505092915050565b6000613bb960188361432f565b9150613bc48261461a565b602082019050919050565b6000613bdc60138361432f565b9150613be782614643565b602082019050919050565b6000613bff60338361432f565b9150613c0a8261466c565b604082019050919050565b6000613c2260218361432f565b9150613c2d826146bb565b604082019050919050565b6000613c4560238361432f565b9150613c508261470a565b604082019050919050565b6000613c6860178361432f565b9150613c7382614759565b602082019050919050565b6000613c8b60248361432f565b9150613c9682614782565b604082019050919050565b6000613cae60178361432f565b9150613cb9826147d1565b602082019050919050565b6000613cd1601b8361432f565b9150613cdc826147fa565b602082019050919050565b6000613cf460428361432f565b9150613cff82614823565b606082019050919050565b6000613d17601f8361432f565b9150613d2282614898565b602082019050919050565b6000613d3a60188361432f565b9150613d45826148c1565b602082019050919050565b6000613d5d60178361432f565b9150613d68826148ea565b602082019050919050565b6000613d8060298361432f565b9150613d8b82614913565b604082019050919050565b6000613da3603a8361432f565b9150613dae82614962565b604082019050919050565b6000613dc660368361432f565b9150613dd1826149b1565b604082019050919050565b613de5816144af565b82525050565b613df4816144b9565b82525050565b6000602082019050613e0f6000830184613b46565b92915050565b6000602082019050613e2a6000830184613b55565b92915050565b60006020820190508181036000830152613e4a8184613b73565b905092915050565b6000610180820190508181036000830152613e6d818f613b73565b9050613e7c602083018e613ddc565b8181036040830152613e8e818d613b73565b9050613e9d606083018c613ddc565b8181036080830152613eaf818b613b73565b9050613ebe60a083018a613ddc565b81810360c0830152613ed08189613b73565b9050613edf60e0830188613ddc565b818103610100830152613ef28187613b73565b9050613f02610120830186613ddc565b818103610140830152613f158185613b73565b9050613f25610160830184613ddc565b9d9c50505050505050505050505050565b60006020820190508181036000830152613f4f81613bac565b9050919050565b60006020820190508181036000830152613f6f81613bcf565b9050919050565b60006020820190508181036000830152613f8f81613bf2565b9050919050565b60006020820190508181036000830152613faf81613c15565b9050919050565b60006020820190508181036000830152613fcf81613c38565b9050919050565b60006020820190508181036000830152613fef81613c5b565b9050919050565b6000602082019050818103600083015261400f81613c7e565b9050919050565b6000602082019050818103600083015261402f81613ca1565b9050919050565b6000602082019050818103600083015261404f81613cc4565b9050919050565b6000602082019050818103600083015261406f81613ce7565b9050919050565b6000602082019050818103600083015261408f81613d0a565b9050919050565b600060208201905081810360008301526140af81613d2d565b9050919050565b600060208201905081810360008301526140cf81613d50565b9050919050565b600060208201905081810360008301526140ef81613d73565b9050919050565b6000602082019050818103600083015261410f81613d96565b9050919050565b6000602082019050818103600083015261412f81613db9565b9050919050565b60006101208201905061414c600083018c613ddc565b614159602083018b613ddc565b614166604083018a613ddc565b6141736060830189613ddc565b6141806080830188613ddc565b61418d60a0830187613ddc565b61419a60c0830186613ddc565b6141a760e0830185613ddc565b6141b5610100830184613ddc565b9a9950505050505050505050565b6000610100820190506141d9600083018b613ddc565b6141e6602083018a613ddc565b6141f36040830189613deb565b6142006060830188613deb565b61420d6080830187613b55565b61421a60a0830186613b37565b61422760c0830185613b46565b61423460e0830184613b64565b9998505050505050505050565b600061012082019050614257600083018c613ddc565b614264602083018b613ddc565b614271604083018a613deb565b61427e6060830189613deb565b61428b6080830188613b55565b61429860a0830187613b46565b6142a560c0830186613b46565b6142b260e0830185613b46565b6142c0610100830184613b64565b9a9950505050505050505050565b60006142d86142e9565b90506142e48282614508565b919050565b6000604051905090565b600067ffffffffffffffff82111561430e5761430d6145c6565b5b61431782614609565b9050602081019050919050565b600081519050919050565b600082825260208201905092915050565b600061434b826144af565b9150614356836144af565b9250827fffffffffffffffffffffffffffffffffffffffffffffffffffffffffffffffff0382111561438b5761438a614539565b5b828201905092915050565b60006143a1826144af565b91506143ac836144af565b9250826143bc576143bb614568565b5b828204905092915050565b60006143d2826144af565b91506143dd836144af565b9250817fffffffffffffffffffffffffffffffffffffffffffffffffffffffffffffffff048311821515161561441657614415614539565b5b828202905092915050565b600061442c826144af565b9150614437836144af565b92508282101561444a57614449614539565b5b828203905092915050565b60006144608261448f565b9050919050565b60006144728261448f565b9050919050565b60008115159050919050565b6000819050919050565b600073ffffffffffffffffffffffffffffffffffffffff82169050919050565b6000819050919050565b600060ff82169050919050565b82818337600083830152505050565b60005b838110156144f35780820151818401526020810190506144d8565b83811115614502576000848401525b50505050565b61451182614609565b810181811067ffffffffffffffff821117156145305761452f6145c6565b5b80604052505050565b7f4e487b7100000000000000000000000000000000000000000000000000000000600052601160045260246000fd5b7f4e487b7100000000000000000000000000000000000000000000000000000000600052601260045260246000fd5b7f4e487b7100000000000000000000000000000000000000000000000000000000600052603260045260246000fd5b7f4e487b7100000000000000000000000000000000000000000000000000000000600052604160045260246000fd5b600080fd5b600080fd5b600080fd5b600080fd5b6000601f19601f8301169050919050565b7f4964436865636b3a20496e76616c696420544d4d205f69640000000000000000600082015250565b7f43616c6c6572206973206e6f74206f776e657200000000000000000000000000600082015250565b7f53696b6b65724d6174682f50657263656e746167653a206f6e65206f6620746860008201527f6520617267756d656e7473206973206e756c6c00000000000000000000000000602082015250565b7f5f55736543453a204e6f7420656e6f7567682076616c7565207761732073656e60008201527f7400000000000000000000000000000000000000000000000000000000000000602082015250565b7f4368616e6765466565733a205f7768656e206973206e6569746865722030206f60008201527f7220310000000000000000000000000000000000000000000000000000000000602082015250565b7f57726f6e672070617373776f726420656e74657265642e000000000000000000600082015250565b7f537461747573206572726f722c2074686973207469636b657420697320636c6f60008201527f7365642e00000000000000000000000000000000000000000000000000000000602082015250565b7f4964436865636b3a20496e76616c6964204345205f6964000000000000000000600082015250565b7f4964436865636b3a2057726f6e67207479706520656e74657265640000000000600082015250565b7f4f6e6c7952656365697665723a20596f7520617265206e6f7420746865206c6560008201527f676974696d61746520726563656976657220666f722074686973207469636b6560208201527f742e000000000000000000000000000000000000000000000000000000000000604082015250565b7f4368616e6765446973636f756e743a2077726f6e6720617267756d656e747300600082015250565b7f4964436865636b3a205f6964206d757374206265203e20300000000000000000600082015250565b7f537461747573436865636b3a2057726f6e672074797065000000000000000000600082015250565b7f4f6e6c7950617965723a20596f752068617665206e6f2072696768747320746f60008201527f20646f20746869732e0000000000000000000000000000000000000000000000602082015250565b7f506179546865446576733a205f616d6f756e74206973206e756c6c206f72206860008201527f6967686572207468616e2053696b6b657227732070726f666974000000000000602082015250565b7f5f4c6f636b43453a2043616e206e6f74206c6f636b2061207469636b6574207460008201527f686174206973206e6f742074696d656c6f636b65642e00000000000000000000602082015250565b614a0981614455565b8114614a1457600080fd5b50565b614a2081614467565b8114614a2b57600080fd5b50565b614a37816144af565b8114614a4257600080fd5b50565b614a4e816144b9565b8114614a5957600080fd5b5056fe546f74616c2076616c75652061637475616c6c79206c6f636b6564206f6e20544d4d3a6d73672e73656e646572206973206e6f77207468652064657369676e617465642072656365697665722e546f74616c2076616c75652061637475616c6c79206c6f636b6564206f6e2043453aa2646970667358221220462229dacc7b973b8f77f71e270fa070a14064cfdc0e91d3c03aa33eafb2d5cb64736f6c63430008070033",
			"opcodes": "PUSH1 0x80 PUSH1 0x40 MSTORE PUSH1 0x0 PUSH1 0x9 PUSH1 0x0 PUSH2 0x100 EXP DUP2 SLOAD DUP2 PUSH1 0xFF MUL NOT AND SWAP1 DUP4 PUSH1 0xFF AND MUL OR SWAP1 SSTORE POP PUSH1 0x1 PUSH1 0x9 PUSH1 0x1 PUSH2 0x100 EXP DUP2 SLOAD DUP2 PUSH1 0xFF MUL NOT AND SWAP1 DUP4 PUSH1 0xFF AND MUL OR SWAP1 SSTORE POP PUSH1 0x0 PUSH1 0x9 PUSH1 0x2 PUSH2 0x100 EXP DUP2 SLOAD DUP2 PUSH1 0xFF MUL NOT AND SWAP1 DUP4 PUSH1 0xFF AND MUL OR SWAP1 SSTORE POP PUSH1 0x1 PUSH1 0x9 PUSH1 0x3 PUSH2 0x100 EXP DUP2 SLOAD DUP2 PUSH1 0xFF MUL NOT AND SWAP1 DUP4 PUSH1 0xFF AND MUL OR SWAP1 SSTORE POP PUSH1 0x0 PUSH1 0x9 PUSH1 0x4 PUSH2 0x100 EXP DUP2 SLOAD DUP2 PUSH1 0xFF MUL NOT AND SWAP1 DUP4 PUSH1 0xFF AND MUL OR SWAP1 SSTORE POP PUSH1 0x1 PUSH1 0x9 PUSH1 0x5 PUSH2 0x100 EXP DUP2 SLOAD DUP2 PUSH1 0xFF MUL NOT AND SWAP1 DUP4 PUSH1 0xFF AND MUL OR SWAP1 SSTORE POP PUSH1 0x3 PUSH1 0x9 PUSH1 0x6 PUSH2 0x100 EXP DUP2 SLOAD DUP2 PUSH1 0xFF MUL NOT AND SWAP1 DUP4 PUSH1 0xFF AND MUL OR SWAP1 SSTORE POP PUSH2 0xDEAD PUSH1 0x9 PUSH1 0x7 PUSH2 0x100 EXP DUP2 SLOAD DUP2 PUSH20 0xFFFFFFFFFFFFFFFFFFFFFFFFFFFFFFFFFFFFFFFF MUL NOT AND SWAP1 DUP4 PUSH20 0xFFFFFFFFFFFFFFFFFFFFFFFFFFFFFFFFFFFFFFFF AND MUL OR SWAP1 SSTORE POP PUSH1 0x0 PUSH1 0xF PUSH1 0x0 PUSH2 0x100 EXP DUP2 SLOAD DUP2 PUSH1 0xFF MUL NOT AND SWAP1 DUP4 PUSH1 0xFF AND MUL OR SWAP1 SSTORE POP PUSH1 0x1 PUSH1 0xF PUSH1 0x1 PUSH2 0x100 EXP DUP2 SLOAD DUP2 PUSH1 0xFF MUL NOT AND SWAP1 DUP4 PUSH1 0xFF AND MUL OR SWAP1 SSTORE POP PUSH1 0x2 PUSH1 0xF PUSH1 0x2 PUSH2 0x100 EXP DUP2 SLOAD DUP2 PUSH1 0xFF MUL NOT AND SWAP1 DUP4 PUSH1 0xFF AND MUL OR SWAP1 SSTORE POP CALLVALUE DUP1 ISZERO PUSH2 0x16B JUMPI PUSH1 0x0 DUP1 REVERT JUMPDEST POP CALLER PUSH1 0x0 DUP1 PUSH2 0x100 EXP DUP2 SLOAD DUP2 PUSH20 0xFFFFFFFFFFFFFFFFFFFFFFFFFFFFFFFFFFFFFFFF MUL NOT AND SWAP1 DUP4 PUSH20 0xFFFFFFFFFFFFFFFFFFFFFFFFFFFFFFFFFFFFFFFF AND MUL OR SWAP1 SSTORE POP PUSH1 0x0 DUP1 SLOAD SWAP1 PUSH2 0x100 EXP SWAP1 DIV PUSH20 0xFFFFFFFFFFFFFFFFFFFFFFFFFFFFFFFFFFFFFFFF AND PUSH20 0xFFFFFFFFFFFFFFFFFFFFFFFFFFFFFFFFFFFFFFFF AND PUSH1 0x0 PUSH20 0xFFFFFFFFFFFFFFFFFFFFFFFFFFFFFFFFFFFFFFFF AND PUSH32 0x342827C97908E5E2F71151C08502A66D44B6F758E3AC2F1DE95F02EB95F0A735 PUSH1 0x40 MLOAD PUSH1 0x40 MLOAD DUP1 SWAP2 SUB SWAP1 LOG3 PUSH2 0x270F PUSH1 0xF PUSH1 0x3 PUSH2 0x100 EXP DUP2 SLOAD DUP2 PUSH4 0xFFFFFFFF MUL NOT AND SWAP1 DUP4 PUSH4 0xFFFFFFFF AND MUL OR SWAP1 SSTORE POP PUSH2 0x2710 PUSH1 0xF PUSH1 0x7 PUSH2 0x100 EXP DUP2 SLOAD DUP2 PUSH4 0xFFFFFFFF MUL NOT AND SWAP1 DUP4 PUSH4 0xFFFFFFFF AND MUL OR SWAP1 SSTORE POP PUSH1 0x63 PUSH1 0xF PUSH1 0xB PUSH2 0x100 EXP DUP2 SLOAD DUP2 PUSH4 0xFFFFFFFF MUL NOT AND SWAP1 DUP4 PUSH4 0xFFFFFFFF AND MUL OR SWAP1 SSTORE POP PUSH1 0x64 PUSH1 0xF DUP1 PUSH2 0x100 EXP DUP2 SLOAD DUP2 PUSH4 0xFFFFFFFF MUL NOT AND SWAP1 DUP4 PUSH4 0xFFFFFFFF AND MUL OR SWAP1 SSTORE POP PUSH2 0x4B01 DUP1 PUSH2 0x2BF PUSH1 0x0 CODECOPY PUSH1 0x0 RETURN INVALID PUSH1 0x80 PUSH1 0x40 MSTORE PUSH1 0x4 CALLDATASIZE LT PUSH2 0xFE JUMPI PUSH1 0x0 CALLDATALOAD PUSH1 0xE0 SHR DUP1 PUSH4 0x8A521C60 GT PUSH2 0x95 JUMPI DUP1 PUSH4 0xC26A6490 GT PUSH2 0x64 JUMPI DUP1 PUSH4 0xC26A6490 EQ PUSH2 0x382 JUMPI DUP1 PUSH4 0xC843A8A4 EQ PUSH2 0x3BF JUMPI DUP1 PUSH4 0xCAD68B04 EQ PUSH2 0x3F5 JUMPI DUP1 PUSH4 0xD1157451 EQ PUSH2 0x41E JUMPI DUP1 PUSH4 0xD9F5B9DC EQ PUSH2 0x45B JUMPI PUSH2 0xFE JUMP JUMPDEST DUP1 PUSH4 0x8A521C60 EQ PUSH2 0x29A JUMPI DUP1 PUSH4 0xA25DBE5C EQ PUSH2 0x2DF JUMPI DUP1 PUSH4 0xA6F9DAE1 EQ PUSH2 0x31C JUMPI DUP1 PUSH4 0xB162144D EQ PUSH2 0x345 JUMPI PUSH2 0xFE JUMP JUMPDEST DUP1 PUSH4 0x3BF91428 GT PUSH2 0xD1 JUMPI DUP1 PUSH4 0x3BF91428 EQ PUSH2 0x1ED JUMPI DUP1 PUSH4 0x3E4DB85D EQ PUSH2 0x21D JUMPI DUP1 PUSH4 0x72E402C5 EQ PUSH2 0x246 JUMPI DUP1 PUSH4 0x893D20E8 EQ PUSH2 0x26F JUMPI PUSH2 0xFE JUMP JUMPDEST DUP1 PUSH4 0x6E2335D EQ PUSH2 0x103 JUMPI DUP1 PUSH4 0x22A023AA EQ PUSH2 0x136 JUMPI DUP1 PUSH4 0x29573143 EQ PUSH2 0x16C JUMPI DUP1 PUSH4 0x2A69D6AF EQ PUSH2 0x1B0 JUMPI JUMPDEST PUSH1 0x0 DUP1 REVERT JUMPDEST CALLVALUE DUP1 ISZERO PUSH2 0x10F JUMPI PUSH1 0x0 DUP1 REVERT JUMPDEST POP PUSH2 0x118 PUSH2 0x498 JUMP JUMPDEST PUSH1 0x40 MLOAD PUSH2 0x12D SWAP10 SWAP9 SWAP8 SWAP7 SWAP6 SWAP5 SWAP4 SWAP3 SWAP2 SWAP1 PUSH2 0x4136 JUMP JUMPDEST PUSH1 0x40 MLOAD DUP1 SWAP2 SUB SWAP1 RETURN JUMPDEST CALLVALUE DUP1 ISZERO PUSH2 0x142 JUMPI PUSH1 0x0 DUP1 REVERT JUMPDEST POP PUSH2 0x14B PUSH2 0x583 JUMP JUMPDEST PUSH1 0x40 MLOAD PUSH2 0x163 SWAP13 SWAP12 SWAP11 SWAP10 SWAP9 SWAP8 SWAP7 SWAP6 SWAP5 SWAP4 SWAP3 SWAP2 SWAP1 PUSH2 0x3E52 JUMP JUMPDEST PUSH1 0x40 MLOAD DUP1 SWAP2 SUB SWAP1 RETURN JUMPDEST CALLVALUE DUP1 ISZERO PUSH2 0x178 JUMPI PUSH1 0x0 DUP1 REVERT JUMPDEST POP PUSH2 0x193 PUSH1 0x4 DUP1 CALLDATASIZE SUB DUP2 ADD SWAP1 PUSH2 0x18E SWAP2 SWAP1 PUSH2 0x3A37 JUMP JUMPDEST PUSH2 0x730 JUMP JUMPDEST PUSH1 0x40 MLOAD PUSH2 0x1A7 SWAP9 SWAP8 SWAP7 SWAP6 SWAP5 SWAP4 SWAP3 SWAP2 SWAP1 PUSH2 0x41C3 JUMP JUMPDEST PUSH1 0x40 MLOAD DUP1 SWAP2 SUB SWAP1 RETURN JUMPDEST CALLVALUE DUP1 ISZERO PUSH2 0x1BC JUMPI PUSH1 0x0 DUP1 REVERT JUMPDEST POP PUSH2 0x1D7 PUSH1 0x4 DUP1 CALLDATASIZE SUB DUP2 ADD SWAP1 PUSH2 0x1D2 SWAP2 SWAP1 PUSH2 0x3A37 JUMP JUMPDEST PUSH2 0x7EF JUMP JUMPDEST PUSH1 0x40 MLOAD PUSH2 0x1E4 SWAP2 SWAP1 PUSH2 0x3E30 JUMP JUMPDEST PUSH1 0x40 MLOAD DUP1 SWAP2 SUB SWAP1 RETURN JUMPDEST PUSH2 0x207 PUSH1 0x4 DUP1 CALLDATASIZE SUB DUP2 ADD SWAP1 PUSH2 0x202 SWAP2 SWAP1 PUSH2 0x39DB JUMP JUMPDEST PUSH2 0xDC1 JUMP JUMPDEST PUSH1 0x40 MLOAD PUSH2 0x214 SWAP2 SWAP1 PUSH2 0x3E30 JUMP JUMPDEST PUSH1 0x40 MLOAD DUP1 SWAP2 SUB SWAP1 RETURN JUMPDEST CALLVALUE DUP1 ISZERO PUSH2 0x229 JUMPI PUSH1 0x0 DUP1 REVERT JUMPDEST POP PUSH2 0x244 PUSH1 0x4 DUP1 CALLDATASIZE SUB DUP2 ADD SWAP1 PUSH2 0x23F SWAP2 SWAP1 PUSH2 0x3AE4 JUMP JUMPDEST PUSH2 0x13B3 JUMP JUMPDEST STOP JUMPDEST CALLVALUE DUP1 ISZERO PUSH2 0x252 JUMPI PUSH1 0x0 DUP1 REVERT JUMPDEST POP PUSH2 0x26D PUSH1 0x4 DUP1 CALLDATASIZE SUB DUP2 ADD SWAP1 PUSH2 0x268 SWAP2 SWAP1 PUSH2 0x3AA4 JUMP JUMPDEST PUSH2 0x165D JUMP JUMPDEST STOP JUMPDEST CALLVALUE DUP1 ISZERO PUSH2 0x27B JUMPI PUSH1 0x0 DUP1 REVERT JUMPDEST POP PUSH2 0x284 PUSH2 0x1766 JUMP JUMPDEST PUSH1 0x40 MLOAD PUSH2 0x291 SWAP2 SWAP1 PUSH2 0x3DFA JUMP JUMPDEST PUSH1 0x40 MLOAD DUP1 SWAP2 SUB SWAP1 RETURN JUMPDEST CALLVALUE DUP1 ISZERO PUSH2 0x2A6 JUMPI PUSH1 0x0 DUP1 REVERT JUMPDEST POP PUSH2 0x2C1 PUSH1 0x4 DUP1 CALLDATASIZE SUB DUP2 ADD SWAP1 PUSH2 0x2BC SWAP2 SWAP1 PUSH2 0x3A37 JUMP JUMPDEST PUSH2 0x178F JUMP JUMPDEST PUSH1 0x40 MLOAD PUSH2 0x2D6 SWAP10 SWAP9 SWAP8 SWAP7 SWAP6 SWAP5 SWAP4 SWAP3 SWAP2 SWAP1 PUSH2 0x4241 JUMP JUMPDEST PUSH1 0x40 MLOAD DUP1 SWAP2 SUB SWAP1 RETURN JUMPDEST CALLVALUE DUP1 ISZERO PUSH2 0x2EB JUMPI PUSH1 0x0 DUP1 REVERT JUMPDEST POP PUSH2 0x306 PUSH1 0x4 DUP1 CALLDATASIZE SUB DUP2 ADD SWAP1 PUSH2 0x301 SWAP2 SWAP1 PUSH2 0x3A37 JUMP JUMPDEST PUSH2 0x1874 JUMP JUMPDEST PUSH1 0x40 MLOAD PUSH2 0x313 SWAP2 SWAP1 PUSH2 0x3E15 JUMP JUMPDEST PUSH1 0x40 MLOAD DUP1 SWAP2 SUB SWAP1 RETURN JUMPDEST CALLVALUE DUP1 ISZERO PUSH2 0x328 JUMPI PUSH1 0x0 DUP1 REVERT JUMPDEST POP PUSH2 0x343 PUSH1 0x4 DUP1 CALLDATASIZE SUB DUP2 ADD SWAP1 PUSH2 0x33E SWAP2 SWAP1 PUSH2 0x39AE JUMP JUMPDEST PUSH2 0x1DA9 JUMP JUMPDEST STOP JUMPDEST CALLVALUE DUP1 ISZERO PUSH2 0x351 JUMPI PUSH1 0x0 DUP1 REVERT JUMPDEST POP PUSH2 0x36C PUSH1 0x4 DUP1 CALLDATASIZE SUB DUP2 ADD SWAP1 PUSH2 0x367 SWAP2 SWAP1 PUSH2 0x3A37 JUMP JUMPDEST PUSH2 0x1EF4 JUMP JUMPDEST PUSH1 0x40 MLOAD PUSH2 0x379 SWAP2 SWAP1 PUSH2 0x3E30 JUMP JUMPDEST PUSH1 0x40 MLOAD DUP1 SWAP2 SUB SWAP1 RETURN JUMPDEST CALLVALUE DUP1 ISZERO PUSH2 0x38E JUMPI PUSH1 0x0 DUP1 REVERT JUMPDEST POP PUSH2 0x3A9 PUSH1 0x4 DUP1 CALLDATASIZE SUB DUP2 ADD SWAP1 PUSH2 0x3A4 SWAP2 SWAP1 PUSH2 0x3A37 JUMP JUMPDEST PUSH2 0x241C JUMP JUMPDEST PUSH1 0x40 MLOAD PUSH2 0x3B6 SWAP2 SWAP1 PUSH2 0x3E30 JUMP JUMPDEST PUSH1 0x40 MLOAD DUP1 SWAP2 SUB SWAP1 RETURN JUMPDEST CALLVALUE DUP1 ISZERO PUSH2 0x3CB JUMPI PUSH1 0x0 DUP1 REVERT JUMPDEST POP PUSH2 0x3D4 PUSH2 0x2997 JUMP JUMPDEST PUSH1 0x40 MLOAD PUSH2 0x3EC SWAP13 SWAP12 SWAP11 SWAP10 SWAP9 SWAP8 SWAP7 SWAP6 SWAP5 SWAP4 SWAP3 SWAP2 SWAP1 PUSH2 0x3E52 JUMP JUMPDEST PUSH1 0x40 MLOAD DUP1 SWAP2 SUB SWAP1 RETURN JUMPDEST CALLVALUE DUP1 ISZERO PUSH2 0x401 JUMPI PUSH1 0x0 DUP1 REVERT JUMPDEST POP PUSH2 0x41C PUSH1 0x4 DUP1 CALLDATASIZE SUB DUP2 ADD SWAP1 PUSH2 0x417 SWAP2 SWAP1 PUSH2 0x3A64 JUMP JUMPDEST PUSH2 0x2B4B JUMP JUMPDEST STOP JUMPDEST CALLVALUE DUP1 ISZERO PUSH2 0x42A JUMPI PUSH1 0x0 DUP1 REVERT JUMPDEST POP PUSH2 0x445 PUSH1 0x4 DUP1 CALLDATASIZE SUB DUP2 ADD SWAP1 PUSH2 0x440 SWAP2 SWAP1 PUSH2 0x39DB JUMP JUMPDEST PUSH2 0x2CF8 JUMP JUMPDEST PUSH1 0x40 MLOAD PUSH2 0x452 SWAP2 SWAP1 PUSH2 0x3E30 JUMP JUMPDEST PUSH1 0x40 MLOAD DUP1 SWAP2 SUB SWAP1 RETURN JUMPDEST CALLVALUE DUP1 ISZERO PUSH2 0x467 JUMPI PUSH1 0x0 DUP1 REVERT JUMPDEST POP PUSH2 0x482 PUSH1 0x4 DUP1 CALLDATASIZE SUB DUP2 ADD SWAP1 PUSH2 0x47D SWAP2 SWAP1 PUSH2 0x3A37 JUMP JUMPDEST PUSH2 0x333F JUMP JUMPDEST PUSH1 0x40 MLOAD PUSH2 0x48F SWAP2 SWAP1 PUSH2 0x3E15 JUMP JUMPDEST PUSH1 0x40 MLOAD DUP1 SWAP2 SUB SWAP1 RETURN JUMPDEST PUSH1 0x0 DUP1 PUSH1 0x0 DUP1 PUSH1 0x0 DUP1 PUSH1 0x0 DUP1 PUSH1 0x0 DUP1 PUSH1 0x0 PUSH2 0x4C0 PUSH1 0x7 SLOAD PUSH1 0x3 SLOAD PUSH2 0x37E8 SWAP1 SWAP2 SWAP1 PUSH4 0xFFFFFFFF AND JUMP JUMPDEST SWAP2 POP PUSH2 0x4D9 PUSH1 0x8 SLOAD PUSH1 0x4 SLOAD PUSH2 0x37E8 SWAP1 SWAP2 SWAP1 PUSH4 0xFFFFFFFF AND JUMP JUMPDEST SWAP1 POP PUSH2 0x4EE DUP2 DUP4 PUSH2 0x37FE SWAP1 SWAP2 SWAP1 PUSH4 0xFFFFFFFF AND JUMP JUMPDEST DUP3 DUP3 PUSH1 0xC SLOAD PUSH1 0xD SLOAD PUSH1 0xF PUSH1 0x3 SWAP1 SLOAD SWAP1 PUSH2 0x100 EXP SWAP1 DIV PUSH4 0xFFFFFFFF AND PUSH1 0xF PUSH1 0x7 SWAP1 SLOAD SWAP1 PUSH2 0x100 EXP SWAP1 DIV PUSH4 0xFFFFFFFF AND PUSH1 0xF PUSH1 0xB SWAP1 SLOAD SWAP1 PUSH2 0x100 EXP SWAP1 DIV PUSH4 0xFFFFFFFF AND PUSH1 0xF DUP1 SLOAD SWAP1 PUSH2 0x100 EXP SWAP1 DIV PUSH4 0xFFFFFFFF AND DUP4 PUSH4 0xFFFFFFFF AND SWAP4 POP DUP3 PUSH4 0xFFFFFFFF AND SWAP3 POP DUP2 PUSH4 0xFFFFFFFF AND SWAP2 POP DUP1 PUSH4 0xFFFFFFFF AND SWAP1 POP SWAP11 POP SWAP11 POP SWAP11 POP SWAP11 POP SWAP11 POP SWAP11 POP SWAP11 POP SWAP11 POP SWAP11 POP POP POP SWAP1 SWAP2 SWAP3 SWAP4 SWAP5 SWAP6 SWAP7 SWAP8 SWAP9 JUMP JUMPDEST PUSH1 0x60 PUSH1 0x0 PUSH1 0x60 PUSH1 0x0 PUSH1 0x60 PUSH1 0x0 PUSH1 0x60 PUSH1 0x0 PUSH1 0x60 PUSH1 0x0 PUSH1 0x60 PUSH1 0x0 PUSH1 0x1 SLOAD PUSH2 0x5B5 PUSH1 0x2 SLOAD PUSH1 0x1 SLOAD PUSH2 0x37FE SWAP1 SWAP2 SWAP1 PUSH4 0xFFFFFFFF AND JUMP JUMPDEST PUSH1 0x2 SLOAD PUSH1 0x4 SLOAD PUSH1 0x3 SLOAD PUSH2 0x5C8 SWAP2 SWAP1 PUSH2 0x4421 JUMP JUMPDEST PUSH1 0x3 SLOAD PUSH1 0x4 SLOAD PUSH1 0x40 MLOAD DUP1 PUSH1 0x40 ADD PUSH1 0x40 MSTORE DUP1 PUSH1 0x19 DUP2 MSTORE PUSH1 0x20 ADD PUSH32 0x546F74616C204345207469636B65747320637265617465643A00000000000000 DUP2 MSTORE POP SWAP6 SWAP5 SWAP4 SWAP3 SWAP2 SWAP1 PUSH1 0x40 MLOAD DUP1 PUSH1 0x40 ADD PUSH1 0x40 MSTORE DUP1 PUSH1 0x18 DUP2 MSTORE PUSH1 0x20 ADD PUSH32 0x546F74616C20616374697665204345207469636B6574733A0000000000000000 DUP2 MSTORE POP SWAP5 SWAP4 SWAP3 SWAP2 SWAP1 PUSH1 0x40 MLOAD DUP1 PUSH1 0x40 ADD PUSH1 0x40 MSTORE DUP1 PUSH1 0x1A DUP2 MSTORE PUSH1 0x20 ADD PUSH32 0x546F74616C20696E616374697665204345207469636B6574733A000000000000 DUP2 MSTORE POP SWAP4 SWAP3 SWAP2 SWAP1 PUSH1 0x40 MLOAD DUP1 PUSH1 0x60 ADD PUSH1 0x40 MSTORE DUP1 PUSH1 0x22 DUP2 MSTORE PUSH1 0x20 ADD PUSH2 0x4AAA PUSH1 0x22 SWAP2 CODECOPY SWAP3 SWAP2 SWAP1 PUSH1 0x40 MLOAD DUP1 PUSH1 0x40 ADD PUSH1 0x40 MSTORE DUP1 PUSH1 0x1E DUP2 MSTORE PUSH1 0x20 ADD PUSH32 0x546F74616C2076616C75652065766572206C6F636B6564206F6E2043453A0000 DUP2 MSTORE POP SWAP2 SWAP1 PUSH1 0x40 MLOAD DUP1 PUSH1 0x40 ADD PUSH1 0x40 MSTORE DUP1 PUSH1 0x1B DUP2 MSTORE PUSH1 0x20 ADD PUSH32 0x546F74616C2076616C756520756E6C6F636B6564206F6E2043453A0000000000 DUP2 MSTORE POP SWAP1 SWAP12 POP SWAP12 POP SWAP12 POP SWAP12 POP SWAP12 POP SWAP12 POP SWAP12 POP SWAP12 POP SWAP12 POP SWAP12 POP SWAP12 POP SWAP12 POP SWAP1 SWAP2 SWAP3 SWAP4 SWAP5 SWAP6 SWAP7 SWAP8 SWAP9 SWAP10 SWAP11 SWAP12 JUMP JUMPDEST PUSH1 0xB DUP2 DUP2 SLOAD DUP2 LT PUSH2 0x740 JUMPI PUSH1 0x0 DUP1 REVERT JUMPDEST SWAP1 PUSH1 0x0 MSTORE PUSH1 0x20 PUSH1 0x0 KECCAK256 SWAP1 PUSH1 0x5 MUL ADD PUSH1 0x0 SWAP2 POP SWAP1 POP DUP1 PUSH1 0x0 ADD SLOAD SWAP1 DUP1 PUSH1 0x1 ADD SLOAD SWAP1 DUP1 PUSH1 0x2 ADD PUSH1 0x0 SWAP1 SLOAD SWAP1 PUSH2 0x100 EXP SWAP1 DIV PUSH1 0xFF AND SWAP1 DUP1 PUSH1 0x2 ADD PUSH1 0x1 SWAP1 SLOAD SWAP1 PUSH2 0x100 EXP SWAP1 DIV PUSH1 0xFF AND SWAP1 DUP1 PUSH1 0x2 ADD PUSH1 0x2 SWAP1 SLOAD SWAP1 PUSH2 0x100 EXP SWAP1 DIV PUSH1 0xFF AND SWAP1 DUP1 PUSH1 0x2 ADD PUSH1 0x3 SWAP1 SLOAD SWAP1 PUSH2 0x100 EXP SWAP1 DIV PUSH20 0xFFFFFFFFFFFFFFFFFFFFFFFFFFFFFFFFFFFFFFFF AND SWAP1 DUP1 PUSH1 0x3 ADD PUSH1 0x0 SWAP1 SLOAD SWAP1 PUSH2 0x100 EXP SWAP1 DIV PUSH20 0xFFFFFFFFFFFFFFFFFFFFFFFFFFFFFFFFFFFFFFFF AND SWAP1 DUP1 PUSH1 0x4 ADD SLOAD SWAP1 POP DUP9 JUMP JUMPDEST PUSH1 0x60 PUSH1 0x9 PUSH1 0x0 SWAP1 SLOAD SWAP1 PUSH2 0x100 EXP SWAP1 DIV PUSH1 0xFF AND DUP3 PUSH1 0x9 PUSH1 0x1 SWAP1 SLOAD SWAP1 PUSH2 0x100 EXP SWAP1 DIV PUSH1 0xFF AND PUSH1 0xFF AND DUP3 PUSH1 0xFF AND EQ DUP1 PUSH2 0x839 JUMPI POP PUSH1 0x9 PUSH1 0x0 SWAP1 SLOAD SWAP1 PUSH2 0x100 EXP SWAP1 DIV PUSH1 0xFF AND PUSH1 0xFF AND DUP3 PUSH1 0xFF AND EQ JUMPDEST PUSH2 0x878 JUMPI PUSH1 0x40 MLOAD PUSH32 0x8C379A000000000000000000000000000000000000000000000000000000000 DUP2 MSTORE PUSH1 0x4 ADD PUSH2 0x86F SWAP1 PUSH2 0x4036 JUMP JUMPDEST PUSH1 0x40 MLOAD DUP1 SWAP2 SUB SWAP1 REVERT JUMPDEST PUSH1 0x0 DUP2 LT ISZERO PUSH2 0x8BC JUMPI PUSH1 0x40 MLOAD PUSH32 0x8C379A000000000000000000000000000000000000000000000000000000000 DUP2 MSTORE PUSH1 0x4 ADD PUSH2 0x8B3 SWAP1 PUSH2 0x4096 JUMP JUMPDEST PUSH1 0x40 MLOAD DUP1 SWAP2 SUB SWAP1 REVERT JUMPDEST PUSH1 0x9 PUSH1 0x0 SWAP1 SLOAD SWAP1 PUSH2 0x100 EXP SWAP1 DIV PUSH1 0xFF AND PUSH1 0xFF AND DUP3 PUSH1 0xFF AND EQ ISZERO PUSH2 0x922 JUMPI PUSH1 0x1 SLOAD DUP2 LT PUSH2 0x91D JUMPI PUSH1 0x40 MLOAD PUSH32 0x8C379A000000000000000000000000000000000000000000000000000000000 DUP2 MSTORE PUSH1 0x4 ADD PUSH2 0x914 SWAP1 PUSH2 0x4016 JUMP JUMPDEST PUSH1 0x40 MLOAD DUP1 SWAP2 SUB SWAP1 REVERT JUMPDEST PUSH2 0x967 JUMP JUMPDEST PUSH1 0x5 SLOAD DUP2 LT PUSH2 0x966 JUMPI PUSH1 0x40 MLOAD PUSH32 0x8C379A000000000000000000000000000000000000000000000000000000000 DUP2 MSTORE PUSH1 0x4 ADD PUSH2 0x95D SWAP1 PUSH2 0x3F36 JUMP JUMPDEST PUSH1 0x40 MLOAD DUP1 SWAP2 SUB SWAP1 REVERT JUMPDEST JUMPDEST PUSH1 0xA DUP5 DUP2 SLOAD DUP2 LT PUSH2 0x97B JUMPI PUSH2 0x97A PUSH2 0x4597 JUMP JUMPDEST JUMPDEST SWAP1 PUSH1 0x0 MSTORE PUSH1 0x20 PUSH1 0x0 KECCAK256 SWAP1 PUSH1 0x6 MUL ADD PUSH1 0x2 ADD PUSH1 0x3 SWAP1 SLOAD SWAP1 PUSH2 0x100 EXP SWAP1 DIV PUSH20 0xFFFFFFFFFFFFFFFFFFFFFFFFFFFFFFFFFFFFFFFF AND CALLER PUSH20 0xFFFFFFFFFFFFFFFFFFFFFFFFFFFFFFFFFFFFFFFF AND DUP2 PUSH20 0xFFFFFFFFFFFFFFFFFFFFFFFFFFFFFFFFFFFFFFFF AND EQ PUSH2 0xA1B JUMPI PUSH1 0x40 MLOAD PUSH32 0x8C379A000000000000000000000000000000000000000000000000000000000 DUP2 MSTORE PUSH1 0x4 ADD PUSH2 0xA12 SWAP1 PUSH2 0x40D6 JUMP JUMPDEST PUSH1 0x40 MLOAD DUP1 SWAP2 SUB SWAP1 REVERT JUMPDEST PUSH1 0xA DUP6 DUP2 SLOAD DUP2 LT PUSH2 0xA2F JUMPI PUSH2 0xA2E PUSH2 0x4597 JUMP JUMPDEST JUMPDEST SWAP1 PUSH1 0x0 MSTORE PUSH1 0x20 PUSH1 0x0 KECCAK256 SWAP1 PUSH1 0x6 MUL ADD PUSH1 0x2 ADD PUSH1 0x0 SWAP1 SLOAD SWAP1 PUSH2 0x100 EXP SWAP1 DIV PUSH1 0xFF AND PUSH1 0x9 PUSH1 0x0 SWAP1 SLOAD SWAP1 PUSH2 0x100 EXP SWAP1 DIV PUSH1 0xFF AND PUSH1 0x9 PUSH1 0x0 SWAP1 SLOAD SWAP1 PUSH2 0x100 EXP SWAP1 DIV PUSH1 0xFF AND PUSH1 0xFF AND DUP2 PUSH1 0xFF AND EQ DUP1 PUSH2 0xA95 JUMPI POP PUSH1 0x9 PUSH1 0x1 SWAP1 SLOAD SWAP1 PUSH2 0x100 EXP SWAP1 DIV PUSH1 0xFF AND PUSH1 0xFF AND DUP2 PUSH1 0xFF AND EQ JUMPDEST PUSH2 0xAD4 JUMPI PUSH1 0x40 MLOAD PUSH32 0x8C379A000000000000000000000000000000000000000000000000000000000 DUP2 MSTORE PUSH1 0x4 ADD PUSH2 0xACB SWAP1 PUSH2 0x40B6 JUMP JUMPDEST PUSH1 0x40 MLOAD DUP1 SWAP2 SUB SWAP1 REVERT JUMPDEST PUSH1 0x0 DUP3 PUSH1 0xFF AND EQ DUP1 PUSH2 0xB09 JUMPI POP PUSH1 0x1 DUP3 PUSH1 0xFF AND EQ DUP1 ISZERO PUSH2 0xB08 JUMPI POP PUSH1 0x9 PUSH1 0x0 SWAP1 SLOAD SWAP1 PUSH2 0x100 EXP SWAP1 DIV PUSH1 0xFF AND PUSH1 0xFF AND DUP2 PUSH1 0xFF AND EQ JUMPDEST JUMPDEST PUSH2 0xB48 JUMPI PUSH1 0x40 MLOAD PUSH32 0x8C379A000000000000000000000000000000000000000000000000000000000 DUP2 MSTORE PUSH1 0x4 ADD PUSH2 0xB3F SWAP1 PUSH2 0x3FF6 JUMP JUMPDEST PUSH1 0x40 MLOAD DUP1 SWAP2 SUB SWAP1 REVERT JUMPDEST PUSH1 0x0 DUP1 PUSH1 0xA DUP10 DUP2 SLOAD DUP2 LT PUSH2 0xB5F JUMPI PUSH2 0xB5E PUSH2 0x4597 JUMP JUMPDEST JUMPDEST SWAP1 PUSH1 0x0 MSTORE PUSH1 0x20 PUSH1 0x0 KECCAK256 SWAP1 PUSH1 0x6 MUL ADD PUSH1 0x2 ADD PUSH1 0x1 SWAP1 SLOAD SWAP1 PUSH2 0x100 EXP SWAP1 DIV PUSH1 0xFF AND PUSH1 0xFF AND EQ ISZERO PUSH2 0xBE0 JUMPI PUSH2 0xBD9 PUSH1 0xF PUSH1 0xB SWAP1 SLOAD SWAP1 PUSH2 0x100 EXP SWAP1 DIV PUSH4 0xFFFFFFFF AND PUSH1 0xA DUP11 DUP2 SLOAD DUP2 LT PUSH2 0xBB1 JUMPI PUSH2 0xBB0 PUSH2 0x4597 JUMP JUMPDEST JUMPDEST SWAP1 PUSH1 0x0 MSTORE PUSH1 0x20 PUSH1 0x0 KECCAK256 SWAP1 PUSH1 0x6 MUL ADD PUSH1 0x0 ADD SLOAD PUSH1 0xF DUP1 SLOAD SWAP1 PUSH2 0x100 EXP SWAP1 DIV PUSH4 0xFFFFFFFF AND PUSH2 0x3814 JUMP JUMPDEST SWAP1 POP PUSH2 0xC49 JUMP JUMPDEST PUSH2 0xC46 PUSH1 0xA DUP10 DUP2 SLOAD DUP2 LT PUSH2 0xBF7 JUMPI PUSH2 0xBF6 PUSH2 0x4597 JUMP JUMPDEST JUMPDEST SWAP1 PUSH1 0x0 MSTORE PUSH1 0x20 PUSH1 0x0 KECCAK256 SWAP1 PUSH1 0x6 MUL ADD PUSH1 0x2 ADD PUSH1 0x1 SWAP1 SLOAD SWAP1 PUSH2 0x100 EXP SWAP1 DIV PUSH1 0xFF AND PUSH1 0xFF AND PUSH1 0xA DUP11 DUP2 SLOAD DUP2 LT PUSH2 0xC2D JUMPI PUSH2 0xC2C PUSH2 0x4597 JUMP JUMPDEST JUMPDEST SWAP1 PUSH1 0x0 MSTORE PUSH1 0x20 PUSH1 0x0 KECCAK256 SWAP1 PUSH1 0x6 MUL ADD PUSH1 0x0 ADD SLOAD PUSH1 0x64 PUSH2 0x3814 JUMP JUMPDEST SWAP1 POP JUMPDEST PUSH1 0x0 ISZERO ISZERO PUSH2 0xC56 DUP10 PUSH2 0x1874 JUMP JUMPDEST ISZERO ISZERO EQ PUSH2 0xC9B JUMPI PUSH1 0x40 MLOAD DUP1 PUSH1 0x40 ADD PUSH1 0x40 MSTORE DUP1 PUSH1 0x15 DUP2 MSTORE PUSH1 0x20 ADD PUSH32 0x5469636B65742069732074696D656C6F636B6564210000000000000000000000 DUP2 MSTORE POP SWAP7 POP POP PUSH2 0xDB7 JUMP JUMPDEST PUSH1 0x1 ISZERO ISZERO PUSH1 0xA DUP10 DUP2 SLOAD DUP2 LT PUSH2 0xCB3 JUMPI PUSH2 0xCB2 PUSH2 0x4597 JUMP JUMPDEST JUMPDEST SWAP1 PUSH1 0x0 MSTORE PUSH1 0x20 PUSH1 0x0 KECCAK256 SWAP1 PUSH1 0x6 MUL ADD PUSH1 0x2 ADD PUSH1 0x2 SWAP1 SLOAD SWAP1 PUSH2 0x100 EXP SWAP1 DIV PUSH1 0xFF AND ISZERO ISZERO EQ ISZERO PUSH2 0xCF1 JUMPI PUSH2 0xCEE PUSH1 0x2 DUP3 PUSH2 0x38BE SWAP1 SWAP2 SWAP1 PUSH4 0xFFFFFFFF AND JUMP JUMPDEST SWAP1 POP JUMPDEST PUSH1 0xA DUP9 DUP2 SLOAD DUP2 LT PUSH2 0xD05 JUMPI PUSH2 0xD04 PUSH2 0x4597 JUMP JUMPDEST JUMPDEST SWAP1 PUSH1 0x0 MSTORE PUSH1 0x20 PUSH1 0x0 KECCAK256 SWAP1 PUSH1 0x6 MUL ADD PUSH1 0x2 ADD PUSH1 0x3 SWAP1 SLOAD SWAP1 PUSH2 0x100 EXP SWAP1 DIV PUSH20 0xFFFFFFFFFFFFFFFFFFFFFFFFFFFFFFFFFFFFFFFF AND PUSH20 0xFFFFFFFFFFFFFFFFFFFFFFFFFFFFFFFFFFFFFFFF AND PUSH2 0x8FC DUP3 SWAP1 DUP2 ISZERO MUL SWAP1 PUSH1 0x40 MLOAD PUSH1 0x0 PUSH1 0x40 MLOAD DUP1 DUP4 SUB DUP2 DUP6 DUP9 DUP9 CALL SWAP4 POP POP POP POP ISZERO DUP1 ISZERO PUSH2 0xD7C JUMPI RETURNDATASIZE PUSH1 0x0 DUP1 RETURNDATACOPY RETURNDATASIZE PUSH1 0x0 REVERT JUMPDEST POP PUSH1 0x40 MLOAD DUP1 PUSH1 0x40 ADD PUSH1 0x40 MSTORE DUP1 PUSH1 0x15 DUP2 MSTORE PUSH1 0x20 ADD PUSH32 0x5469636B6574206973206E6F77206C6F636B65642E0000000000000000000000 DUP2 MSTORE POP SWAP7 POP POP JUMPDEST POP POP POP POP POP SWAP2 SWAP1 POP JUMP JUMPDEST PUSH1 0x60 PUSH1 0x9 PUSH1 0x0 SWAP1 SLOAD SWAP1 PUSH2 0x100 EXP SWAP1 DIV PUSH1 0xFF AND DUP3 PUSH1 0x9 PUSH1 0x1 SWAP1 SLOAD SWAP1 PUSH2 0x100 EXP SWAP1 DIV PUSH1 0xFF AND PUSH1 0xFF AND DUP3 PUSH1 0xFF AND EQ DUP1 PUSH2 0xE0B JUMPI POP PUSH1 0x9 PUSH1 0x0 SWAP1 SLOAD SWAP1 PUSH2 0x100 EXP SWAP1 DIV PUSH1 0xFF AND PUSH1 0xFF AND DUP3 PUSH1 0xFF AND EQ JUMPDEST PUSH2 0xE4A JUMPI PUSH1 0x40 MLOAD PUSH32 0x8C379A000000000000000000000000000000000000000000000000000000000 DUP2 MSTORE PUSH1 0x4 ADD PUSH2 0xE41 SWAP1 PUSH2 0x4036 JUMP JUMPDEST PUSH1 0x40 MLOAD DUP1 SWAP2 SUB SWAP1 REVERT JUMPDEST PUSH1 0x0 DUP2 LT ISZERO PUSH2 0xE8E JUMPI PUSH1 0x40 MLOAD PUSH32 0x8C379A000000000000000000000000000000000000000000000000000000000 DUP2 MSTORE PUSH1 0x4 ADD PUSH2 0xE85 SWAP1 PUSH2 0x4096 JUMP JUMPDEST PUSH1 0x40 MLOAD DUP1 SWAP2 SUB SWAP1 REVERT JUMPDEST PUSH1 0x9 PUSH1 0x0 SWAP1 SLOAD SWAP1 PUSH2 0x100 EXP SWAP1 DIV PUSH1 0xFF AND PUSH1 0xFF AND DUP3 PUSH1 0xFF AND EQ ISZERO PUSH2 0xEF4 JUMPI PUSH1 0x1 SLOAD DUP2 LT PUSH2 0xEEF JUMPI PUSH1 0x40 MLOAD PUSH32 0x8C379A000000000000000000000000000000000000000000000000000000000 DUP2 MSTORE PUSH1 0x4 ADD PUSH2 0xEE6 SWAP1 PUSH2 0x4016 JUMP JUMPDEST PUSH1 0x40 MLOAD DUP1 SWAP2 SUB SWAP1 REVERT JUMPDEST PUSH2 0xF39 JUMP JUMPDEST PUSH1 0x5 SLOAD DUP2 LT PUSH2 0xF38 JUMPI PUSH1 0x40 MLOAD PUSH32 0x8C379A000000000000000000000000000000000000000000000000000000000 DUP2 MSTORE PUSH1 0x4 ADD PUSH2 0xF2F SWAP1 PUSH2 0x3F36 JUMP JUMPDEST PUSH1 0x40 MLOAD DUP1 SWAP2 SUB SWAP1 REVERT JUMPDEST JUMPDEST PUSH1 0xA DUP5 DUP2 SLOAD DUP2 LT PUSH2 0xF4D JUMPI PUSH2 0xF4C PUSH2 0x4597 JUMP JUMPDEST JUMPDEST SWAP1 PUSH1 0x0 MSTORE PUSH1 0x20 PUSH1 0x0 KECCAK256 SWAP1 PUSH1 0x6 MUL ADD PUSH1 0x2 ADD PUSH1 0x0 SWAP1 SLOAD SWAP1 PUSH2 0x100 EXP SWAP1 DIV PUSH1 0xFF AND PUSH1 0x9 PUSH1 0x0 SWAP1 SLOAD SWAP1 PUSH2 0x100 EXP SWAP1 DIV PUSH1 0xFF AND PUSH1 0x9 PUSH1 0x0 SWAP1 SLOAD SWAP1 PUSH2 0x100 EXP SWAP1 DIV PUSH1 0xFF AND PUSH1 0xFF AND DUP2 PUSH1 0xFF AND EQ DUP1 PUSH2 0xFB3 JUMPI POP PUSH1 0x9 PUSH1 0x1 SWAP1 SLOAD SWAP1 PUSH2 0x100 EXP SWAP1 DIV PUSH1 0xFF AND PUSH1 0xFF AND DUP2 PUSH1 0xFF AND EQ JUMPDEST PUSH2 0xFF2 JUMPI PUSH1 0x40 MLOAD PUSH32 0x8C379A000000000000000000000000000000000000000000000000000000000 DUP2 MSTORE PUSH1 0x4 ADD PUSH2 0xFE9 SWAP1 PUSH2 0x40B6 JUMP JUMPDEST PUSH1 0x40 MLOAD DUP1 SWAP2 SUB SWAP1 REVERT JUMPDEST PUSH1 0x0 DUP3 PUSH1 0xFF AND EQ DUP1 PUSH2 0x1027 JUMPI POP PUSH1 0x1 DUP3 PUSH1 0xFF AND EQ DUP1 ISZERO PUSH2 0x1026 JUMPI POP PUSH1 0x9 PUSH1 0x0 SWAP1 SLOAD SWAP1 PUSH2 0x100 EXP SWAP1 DIV PUSH1 0xFF AND PUSH1 0xFF AND DUP2 PUSH1 0xFF AND EQ JUMPDEST JUMPDEST PUSH2 0x1066 JUMPI PUSH1 0x40 MLOAD PUSH32 0x8C379A000000000000000000000000000000000000000000000000000000000 DUP2 MSTORE PUSH1 0x4 ADD PUSH2 0x105D SWAP1 PUSH2 0x3FF6 JUMP JUMPDEST PUSH1 0x40 MLOAD DUP1 SWAP2 SUB SWAP1 REVERT JUMPDEST DUP7 PUSH1 0xA DUP8 DUP2 SLOAD DUP2 LT PUSH2 0x107B JUMPI PUSH2 0x107A PUSH2 0x4597 JUMP JUMPDEST JUMPDEST SWAP1 PUSH1 0x0 MSTORE PUSH1 0x20 PUSH1 0x0 KECCAK256 SWAP1 PUSH1 0x6 MUL ADD PUSH1 0x5 ADD SLOAD DUP2 DUP1 MLOAD SWAP1 PUSH1 0x20 ADD KECCAK256 DUP2 EQ PUSH2 0x10D6 JUMPI PUSH1 0x40 MLOAD PUSH32 0x8C379A000000000000000000000000000000000000000000000000000000000 DUP2 MSTORE PUSH1 0x4 ADD PUSH2 0x10CD SWAP1 PUSH2 0x3FD6 JUMP JUMPDEST PUSH1 0x40 MLOAD DUP1 SWAP2 SUB SWAP1 REVERT JUMPDEST PUSH1 0x0 DUP1 PUSH2 0x112D PUSH1 0xF PUSH1 0x3 SWAP1 SLOAD SWAP1 PUSH2 0x100 EXP SWAP1 DIV PUSH4 0xFFFFFFFF AND PUSH1 0xA DUP13 DUP2 SLOAD DUP2 LT PUSH2 0x1103 JUMPI PUSH2 0x1102 PUSH2 0x4597 JUMP JUMPDEST JUMPDEST SWAP1 PUSH1 0x0 MSTORE PUSH1 0x20 PUSH1 0x0 KECCAK256 SWAP1 PUSH1 0x6 MUL ADD PUSH1 0x0 ADD SLOAD PUSH1 0xF PUSH1 0x7 SWAP1 SLOAD SWAP1 PUSH2 0x100 EXP SWAP1 DIV PUSH4 0xFFFFFFFF AND PUSH2 0x3814 JUMP JUMPDEST SWAP1 POP PUSH1 0x0 ISZERO ISZERO PUSH2 0x113C DUP12 PUSH2 0x1874 JUMP JUMPDEST ISZERO ISZERO EQ PUSH2 0x1182 JUMPI PUSH1 0x40 MLOAD DUP1 PUSH1 0x40 ADD PUSH1 0x40 MSTORE DUP1 PUSH1 0x15 DUP2 MSTORE PUSH1 0x20 ADD PUSH32 0x5469636B65742069732074696D656C6F636B6564210000000000000000000000 DUP2 MSTORE POP SWAP9 POP POP POP PUSH2 0x13A7 JUMP JUMPDEST PUSH1 0xA DUP11 DUP2 SLOAD DUP2 LT PUSH2 0x1196 JUMPI PUSH2 0x1195 PUSH2 0x4597 JUMP JUMPDEST JUMPDEST SWAP1 PUSH1 0x0 MSTORE PUSH1 0x20 PUSH1 0x0 KECCAK256 SWAP1 PUSH1 0x6 MUL ADD PUSH1 0x0 ADD SLOAD CALLER PUSH20 0xFFFFFFFFFFFFFFFFFFFFFFFFFFFFFFFFFFFFFFFF AND BALANCE GT PUSH2 0x1200 JUMPI PUSH1 0x40 MLOAD PUSH32 0x8C379A000000000000000000000000000000000000000000000000000000000 DUP2 MSTORE PUSH1 0x4 ADD PUSH2 0x11F7 SWAP1 PUSH2 0x3F96 JUMP JUMPDEST PUSH1 0x40 MLOAD DUP1 SWAP2 SUB SWAP1 REVERT JUMPDEST CALLER PUSH1 0xA DUP12 DUP2 SLOAD DUP2 LT PUSH2 0x1215 JUMPI PUSH2 0x1214 PUSH2 0x4597 JUMP JUMPDEST JUMPDEST SWAP1 PUSH1 0x0 MSTORE PUSH1 0x20 PUSH1 0x0 KECCAK256 SWAP1 PUSH1 0x6 MUL ADD PUSH1 0x2 ADD PUSH1 0x3 PUSH2 0x100 EXP DUP2 SLOAD DUP2 PUSH20 0xFFFFFFFFFFFFFFFFFFFFFFFFFFFFFFFFFFFFFFFF MUL NOT AND SWAP1 DUP4 PUSH20 0xFFFFFFFFFFFFFFFFFFFFFFFFFFFFFFFFFFFFFFFF AND MUL OR SWAP1 SSTORE POP PUSH1 0x1 ISZERO ISZERO PUSH1 0xA DUP12 DUP2 SLOAD DUP2 LT PUSH2 0x127C JUMPI PUSH2 0x127B PUSH2 0x4597 JUMP JUMPDEST JUMPDEST SWAP1 PUSH1 0x0 MSTORE PUSH1 0x20 PUSH1 0x0 KECCAK256 SWAP1 PUSH1 0x6 MUL ADD PUSH1 0x2 ADD PUSH1 0x2 SWAP1 SLOAD SWAP1 PUSH2 0x100 EXP SWAP1 DIV PUSH1 0xFF AND ISZERO ISZERO EQ ISZERO PUSH2 0x1359 JUMPI PUSH1 0xF PUSH1 0x2 SWAP1 SLOAD SWAP1 PUSH2 0x100 EXP SWAP1 DIV PUSH1 0xFF AND SWAP2 POP PUSH1 0xA DUP11 DUP2 SLOAD DUP2 LT PUSH2 0x12C9 JUMPI PUSH2 0x12C8 PUSH2 0x4597 JUMP JUMPDEST JUMPDEST SWAP1 PUSH1 0x0 MSTORE PUSH1 0x20 PUSH1 0x0 KECCAK256 SWAP1 PUSH1 0x6 MUL ADD PUSH1 0x3 ADD PUSH1 0x0 SWAP1 SLOAD SWAP1 PUSH2 0x100 EXP SWAP1 DIV PUSH20 0xFFFFFFFFFFFFFFFFFFFFFFFFFFFFFFFFFFFFFFFF AND PUSH20 0xFFFFFFFFFFFFFFFFFFFFFFFFFFFFFFFFFFFFFFFF AND PUSH2 0x8FC PUSH2 0x1328 PUSH1 0x2 DUP5 PUSH2 0x38BE SWAP1 SWAP2 SWAP1 PUSH4 0xFFFFFFFF AND JUMP JUMPDEST SWAP1 DUP2 ISZERO MUL SWAP1 PUSH1 0x40 MLOAD PUSH1 0x0 PUSH1 0x40 MLOAD DUP1 DUP4 SUB DUP2 DUP6 DUP9 DUP9 CALL SWAP4 POP POP POP POP ISZERO DUP1 ISZERO PUSH2 0x1353 JUMPI RETURNDATASIZE PUSH1 0x0 DUP1 RETURNDATACOPY RETURNDATASIZE PUSH1 0x0 REVERT JUMPDEST POP PUSH2 0x136C JUMP JUMPDEST PUSH1 0x9 PUSH1 0x3 SWAP1 SLOAD SWAP1 PUSH2 0x100 EXP SWAP1 DIV PUSH1 0xFF AND SWAP2 POP JUMPDEST PUSH1 0x40 MLOAD DUP1 PUSH1 0x40 ADD PUSH1 0x40 MSTORE DUP1 PUSH1 0x15 DUP2 MSTORE PUSH1 0x20 ADD PUSH32 0x5469636B6574206973206E6F772066696C6C65642E0000000000000000000000 DUP2 MSTORE POP SWAP9 POP POP POP JUMPDEST POP POP POP POP POP POP SWAP3 SWAP2 POP POP JUMP JUMPDEST PUSH1 0x0 DUP1 SLOAD SWAP1 PUSH2 0x100 EXP SWAP1 DIV PUSH20 0xFFFFFFFFFFFFFFFFFFFFFFFFFFFFFFFFFFFFFFFF AND PUSH20 0xFFFFFFFFFFFFFFFFFFFFFFFFFFFFFFFFFFFFFFFF AND CALLER PUSH20 0xFFFFFFFFFFFFFFFFFFFFFFFFFFFFFFFFFFFFFFFF AND EQ PUSH2 0x1441 JUMPI PUSH1 0x40 MLOAD PUSH32 0x8C379A000000000000000000000000000000000000000000000000000000000 DUP2 MSTORE PUSH1 0x4 ADD PUSH2 0x1438 SWAP1 PUSH2 0x3F56 JUMP JUMPDEST PUSH1 0x40 MLOAD DUP1 SWAP2 SUB SWAP1 REVERT JUMPDEST PUSH1 0xF PUSH1 0x0 SWAP1 SLOAD SWAP1 PUSH2 0x100 EXP SWAP1 DIV PUSH1 0xFF AND PUSH1 0xFF AND DUP4 PUSH1 0xFF AND EQ DUP1 PUSH2 0x1478 JUMPI POP PUSH1 0xF PUSH1 0x1 SWAP1 SLOAD SWAP1 PUSH2 0x100 EXP SWAP1 DIV PUSH1 0xFF AND PUSH1 0xFF AND DUP4 PUSH1 0xFF AND EQ JUMPDEST DUP1 PUSH2 0x1497 JUMPI POP PUSH1 0xF PUSH1 0x2 SWAP1 SLOAD SWAP1 PUSH2 0x100 EXP SWAP1 DIV PUSH1 0xFF AND PUSH1 0xFF AND DUP4 PUSH1 0xFF AND EQ JUMPDEST PUSH2 0x14D6 JUMPI PUSH1 0x40 MLOAD PUSH32 0x8C379A000000000000000000000000000000000000000000000000000000000 DUP2 MSTORE PUSH1 0x4 ADD PUSH2 0x14CD SWAP1 PUSH2 0x3FB6 JUMP JUMPDEST PUSH1 0x40 MLOAD DUP1 SWAP2 SUB SWAP1 REVERT JUMPDEST PUSH1 0xF PUSH1 0x0 SWAP1 SLOAD SWAP1 PUSH2 0x100 EXP SWAP1 DIV PUSH1 0xFF AND PUSH1 0xFF AND DUP4 PUSH1 0xFF AND EQ ISZERO PUSH2 0x1540 JUMPI DUP2 PUSH1 0xFF AND PUSH1 0xF PUSH1 0x3 PUSH2 0x100 EXP DUP2 SLOAD DUP2 PUSH4 0xFFFFFFFF MUL NOT AND SWAP1 DUP4 PUSH4 0xFFFFFFFF AND MUL OR SWAP1 SSTORE POP DUP1 PUSH1 0xFF AND PUSH1 0xF PUSH1 0x7 PUSH2 0x100 EXP DUP2 SLOAD DUP2 PUSH4 0xFFFFFFFF MUL NOT AND SWAP1 DUP4 PUSH4 0xFFFFFFFF AND MUL OR SWAP1 SSTORE POP PUSH2 0x1658 JUMP JUMPDEST PUSH1 0xF PUSH1 0x1 SWAP1 SLOAD SWAP1 PUSH2 0x100 EXP SWAP1 DIV PUSH1 0xFF AND PUSH1 0xFF AND DUP4 PUSH1 0xFF AND EQ ISZERO PUSH2 0x15A9 JUMPI DUP2 PUSH1 0xFF AND PUSH1 0xF PUSH1 0xB PUSH2 0x100 EXP DUP2 SLOAD DUP2 PUSH4 0xFFFFFFFF MUL NOT AND SWAP1 DUP4 PUSH4 0xFFFFFFFF AND MUL OR SWAP1 SSTORE POP DUP1 PUSH1 0xFF AND PUSH1 0xF DUP1 PUSH2 0x100 EXP DUP2 SLOAD DUP2 PUSH4 0xFFFFFFFF MUL NOT AND SWAP1 DUP4 PUSH4 0xFFFFFFFF AND MUL OR SWAP1 SSTORE POP PUSH2 0x1657 JUMP JUMPDEST PUSH1 0xF PUSH1 0x2 SWAP1 SLOAD SWAP1 PUSH2 0x100 EXP SWAP1 DIV PUSH1 0xFF AND PUSH1 0xFF AND DUP4 PUSH1 0xFF AND EQ ISZERO PUSH2 0x1656 JUMPI DUP2 PUSH1 0xFF AND PUSH1 0xF PUSH1 0x3 PUSH2 0x100 EXP DUP2 SLOAD DUP2 PUSH4 0xFFFFFFFF MUL NOT AND SWAP1 DUP4 PUSH4 0xFFFFFFFF AND MUL OR SWAP1 SSTORE POP DUP1 PUSH1 0xFF AND PUSH1 0xF PUSH1 0x7 PUSH2 0x100 EXP DUP2 SLOAD DUP2 PUSH4 0xFFFFFFFF MUL NOT AND SWAP1 DUP4 PUSH4 0xFFFFFFFF AND MUL OR SWAP1 SSTORE POP DUP2 PUSH1 0xFF AND PUSH1 0xF PUSH1 0xB PUSH2 0x100 EXP DUP2 SLOAD DUP2 PUSH4 0xFFFFFFFF MUL NOT AND SWAP1 DUP4 PUSH4 0xFFFFFFFF AND MUL OR SWAP1 SSTORE POP DUP1 PUSH1 0xFF AND PUSH1 0xF DUP1 PUSH2 0x100 EXP DUP2 SLOAD DUP2 PUSH4 0xFFFFFFFF MUL NOT AND SWAP1 DUP4 PUSH4 0xFFFFFFFF AND MUL OR SWAP1 SSTORE POP JUMPDEST JUMPDEST JUMPDEST POP POP POP JUMP JUMPDEST PUSH1 0x0 DUP1 SLOAD SWAP1 PUSH2 0x100 EXP SWAP1 DIV PUSH20 0xFFFFFFFFFFFFFFFFFFFFFFFFFFFFFFFFFFFFFFFF AND PUSH20 0xFFFFFFFFFFFFFFFFFFFFFFFFFFFFFFFFFFFFFFFF AND CALLER PUSH20 0xFFFFFFFFFFFFFFFFFFFFFFFFFFFFFFFFFFFFFFFF AND EQ PUSH2 0x16EB JUMPI PUSH1 0x40 MLOAD PUSH32 0x8C379A000000000000000000000000000000000000000000000000000000000 DUP2 MSTORE PUSH1 0x4 ADD PUSH2 0x16E2 SWAP1 PUSH2 0x3F56 JUMP JUMPDEST PUSH1 0x40 MLOAD DUP1 SWAP2 SUB SWAP1 REVERT JUMPDEST PUSH3 0x186A0 DUP3 GT DUP1 ISZERO PUSH2 0x1701 JUMPI POP PUSH1 0x0 DUP2 PUSH1 0xFF AND LT ISZERO JUMPDEST PUSH2 0x1740 JUMPI PUSH1 0x40 MLOAD PUSH32 0x8C379A000000000000000000000000000000000000000000000000000000000 DUP2 MSTORE PUSH1 0x4 ADD PUSH2 0x1737 SWAP1 PUSH2 0x4076 JUMP JUMPDEST PUSH1 0x40 MLOAD DUP1 SWAP2 SUB SWAP1 REVERT JUMPDEST DUP2 PUSH1 0x10 DUP2 SWAP1 SSTORE POP DUP1 PUSH1 0x11 PUSH1 0x0 PUSH2 0x100 EXP DUP2 SLOAD DUP2 PUSH1 0xFF MUL NOT AND SWAP1 DUP4 PUSH1 0xFF AND MUL OR SWAP1 SSTORE POP POP POP JUMP JUMPDEST PUSH1 0x0 DUP1 PUSH1 0x0 SWAP1 SLOAD SWAP1 PUSH2 0x100 EXP SWAP1 DIV PUSH20 0xFFFFFFFFFFFFFFFFFFFFFFFFFFFFFFFFFFFFFFFF AND SWAP1 POP SWAP1 JUMP JUMPDEST PUSH1 0xA DUP2 DUP2 SLOAD DUP2 LT PUSH2 0x179F JUMPI PUSH1 0x0 DUP1 REVERT JUMPDEST SWAP1 PUSH1 0x0 MSTORE PUSH1 0x20 PUSH1 0x0 KECCAK256 SWAP1 PUSH1 0x6 MUL ADD PUSH1 0x0 SWAP2 POP SWAP1 POP DUP1 PUSH1 0x0 ADD SLOAD SWAP1 DUP1 PUSH1 0x1 ADD SLOAD SWAP1 DUP1 PUSH1 0x2 ADD PUSH1 0x0 SWAP1 SLOAD SWAP1 PUSH2 0x100 EXP SWAP1 DIV PUSH1 0xFF AND SWAP1 DUP1 PUSH1 0x2 ADD PUSH1 0x1 SWAP1 SLOAD SWAP1 PUSH2 0x100 EXP SWAP1 DIV PUSH1 0xFF AND SWAP1 DUP1 PUSH1 0x2 ADD PUSH1 0x2 SWAP1 SLOAD SWAP1 PUSH2 0x100 EXP SWAP1 DIV PUSH1 0xFF AND SWAP1 DUP1 PUSH1 0x2 ADD PUSH1 0x3 SWAP1 SLOAD SWAP1 PUSH2 0x100 EXP SWAP1 DIV PUSH20 0xFFFFFFFFFFFFFFFFFFFFFFFFFFFFFFFFFFFFFFFF AND SWAP1 DUP1 PUSH1 0x3 ADD PUSH1 0x0 SWAP1 SLOAD SWAP1 PUSH2 0x100 EXP SWAP1 DIV PUSH20 0xFFFFFFFFFFFFFFFFFFFFFFFFFFFFFFFFFFFFFFFF AND SWAP1 DUP1 PUSH1 0x4 ADD PUSH1 0x0 SWAP1 SLOAD SWAP1 PUSH2 0x100 EXP SWAP1 DIV PUSH20 0xFFFFFFFFFFFFFFFFFFFFFFFFFFFFFFFFFFFFFFFF AND SWAP1 DUP1 PUSH1 0x5 ADD SLOAD SWAP1 POP DUP10 JUMP JUMPDEST PUSH1 0x0 PUSH1 0x9 PUSH1 0x0 SWAP1 SLOAD SWAP1 PUSH2 0x100 EXP SWAP1 DIV PUSH1 0xFF AND DUP3 PUSH1 0x9 PUSH1 0x1 SWAP1 SLOAD SWAP1 PUSH2 0x100 EXP SWAP1 DIV PUSH1 0xFF AND PUSH1 0xFF AND DUP3 PUSH1 0xFF AND EQ DUP1 PUSH2 0x18BE JUMPI POP PUSH1 0x9 PUSH1 0x0 SWAP1 SLOAD SWAP1 PUSH2 0x100 EXP SWAP1 DIV PUSH1 0xFF AND PUSH1 0xFF AND DUP3 PUSH1 0xFF AND EQ JUMPDEST PUSH2 0x18FD JUMPI PUSH1 0x40 MLOAD PUSH32 0x8C379A000000000000000000000000000000000000000000000000000000000 DUP2 MSTORE PUSH1 0x4 ADD PUSH2 0x18F4 SWAP1 PUSH2 0x4036 JUMP JUMPDEST PUSH1 0x40 MLOAD DUP1 SWAP2 SUB SWAP1 REVERT JUMPDEST PUSH1 0x0 DUP2 LT ISZERO PUSH2 0x1941 JUMPI PUSH1 0x40 MLOAD PUSH32 0x8C379A000000000000000000000000000000000000000000000000000000000 DUP2 MSTORE PUSH1 0x4 ADD PUSH2 0x1938 SWAP1 PUSH2 0x4096 JUMP JUMPDEST PUSH1 0x40 MLOAD DUP1 SWAP2 SUB SWAP1 REVERT JUMPDEST PUSH1 0x9 PUSH1 0x0 SWAP1 SLOAD SWAP1 PUSH2 0x100 EXP SWAP1 DIV PUSH1 0xFF AND PUSH1 0xFF AND DUP3 PUSH1 0xFF AND EQ ISZERO PUSH2 0x19A7 JUMPI PUSH1 0x1 SLOAD DUP2 LT PUSH2 0x19A2 JUMPI PUSH1 0x40 MLOAD PUSH32 0x8C379A000000000000000000000000000000000000000000000000000000000 DUP2 MSTORE PUSH1 0x4 ADD PUSH2 0x1999 SWAP1 PUSH2 0x4016 JUMP JUMPDEST PUSH1 0x40 MLOAD DUP1 SWAP2 SUB SWAP1 REVERT JUMPDEST PUSH2 0x19EC JUMP JUMPDEST PUSH1 0x5 SLOAD DUP2 LT PUSH2 0x19EB JUMPI PUSH1 0x40 MLOAD PUSH32 0x8C379A000000000000000000000000000000000000000000000000000000000 DUP2 MSTORE PUSH1 0x4 ADD PUSH2 0x19E2 SWAP1 PUSH2 0x3F36 JUMP JUMPDEST PUSH1 0x40 MLOAD DUP1 SWAP2 SUB SWAP1 REVERT JUMPDEST JUMPDEST PUSH1 0xA DUP5 DUP2 SLOAD DUP2 LT PUSH2 0x1A00 JUMPI PUSH2 0x19FF PUSH2 0x4597 JUMP JUMPDEST JUMPDEST SWAP1 PUSH1 0x0 MSTORE PUSH1 0x20 PUSH1 0x0 KECCAK256 SWAP1 PUSH1 0x6 MUL ADD PUSH1 0x2 ADD PUSH1 0x0 SWAP1 SLOAD SWAP1 PUSH2 0x100 EXP SWAP1 DIV PUSH1 0xFF AND PUSH1 0x9 PUSH1 0x0 SWAP1 SLOAD SWAP1 PUSH2 0x100 EXP SWAP1 DIV PUSH1 0xFF AND PUSH1 0x9 PUSH1 0x0 SWAP1 SLOAD SWAP1 PUSH2 0x100 EXP SWAP1 DIV PUSH1 0xFF AND PUSH1 0xFF AND DUP2 PUSH1 0xFF AND EQ DUP1 PUSH2 0x1A66 JUMPI POP PUSH1 0x9 PUSH1 0x1 SWAP1 SLOAD SWAP1 PUSH2 0x100 EXP SWAP1 DIV PUSH1 0xFF AND PUSH1 0xFF AND DUP2 PUSH1 0xFF AND EQ JUMPDEST PUSH2 0x1AA5 JUMPI PUSH1 0x40 MLOAD PUSH32 0x8C379A000000000000000000000000000000000000000000000000000000000 DUP2 MSTORE PUSH1 0x4 ADD PUSH2 0x1A9C SWAP1 PUSH2 0x40B6 JUMP JUMPDEST PUSH1 0x40 MLOAD DUP1 SWAP2 SUB SWAP1 REVERT JUMPDEST PUSH1 0x0 DUP3 PUSH1 0xFF AND EQ DUP1 PUSH2 0x1ADA JUMPI POP PUSH1 0x1 DUP3 PUSH1 0xFF AND EQ DUP1 ISZERO PUSH2 0x1AD9 JUMPI POP PUSH1 0x9 PUSH1 0x0 SWAP1 SLOAD SWAP1 PUSH2 0x100 EXP SWAP1 DIV PUSH1 0xFF AND PUSH1 0xFF AND DUP2 PUSH1 0xFF AND EQ JUMPDEST JUMPDEST PUSH2 0x1B19 JUMPI PUSH1 0x40 MLOAD PUSH32 0x8C379A000000000000000000000000000000000000000000000000000000000 DUP2 MSTORE PUSH1 0x4 ADD PUSH2 0x1B10 SWAP1 PUSH2 0x3FF6 JUMP JUMPDEST PUSH1 0x40 MLOAD DUP1 SWAP2 SUB SWAP1 REVERT JUMPDEST PUSH1 0x0 PUSH1 0xA DUP8 DUP2 SLOAD DUP2 LT PUSH2 0x1B2F JUMPI PUSH2 0x1B2E PUSH2 0x4597 JUMP JUMPDEST JUMPDEST SWAP1 PUSH1 0x0 MSTORE PUSH1 0x20 PUSH1 0x0 KECCAK256 SWAP1 PUSH1 0x6 MUL ADD PUSH1 0x1 ADD SLOAD GT PUSH2 0x1B81 JUMPI PUSH1 0x40 MLOAD PUSH32 0x8C379A000000000000000000000000000000000000000000000000000000000 DUP2 MSTORE PUSH1 0x4 ADD PUSH2 0x1B78 SWAP1 PUSH2 0x4116 JUMP JUMPDEST PUSH1 0x40 MLOAD DUP1 SWAP2 SUB SWAP1 REVERT JUMPDEST PUSH1 0x0 DUP1 PUSH1 0xA DUP9 DUP2 SLOAD DUP2 LT PUSH2 0x1B98 JUMPI PUSH2 0x1B97 PUSH2 0x4597 JUMP JUMPDEST JUMPDEST SWAP1 PUSH1 0x0 MSTORE PUSH1 0x20 PUSH1 0x0 KECCAK256 SWAP1 PUSH1 0x6 MUL ADD PUSH1 0x2 ADD PUSH1 0x1 SWAP1 SLOAD SWAP1 PUSH2 0x100 EXP SWAP1 DIV PUSH1 0xFF AND PUSH1 0xFF AND EQ ISZERO PUSH2 0x1C19 JUMPI PUSH2 0x1C12 PUSH1 0xF PUSH1 0xB SWAP1 SLOAD SWAP1 PUSH2 0x100 EXP SWAP1 DIV PUSH4 0xFFFFFFFF AND PUSH1 0xA DUP10 DUP2 SLOAD DUP2 LT PUSH2 0x1BEA JUMPI PUSH2 0x1BE9 PUSH2 0x4597 JUMP JUMPDEST JUMPDEST SWAP1 PUSH1 0x0 MSTORE PUSH1 0x20 PUSH1 0x0 KECCAK256 SWAP1 PUSH1 0x6 MUL ADD PUSH1 0x0 ADD SLOAD PUSH1 0xF DUP1 SLOAD SWAP1 PUSH2 0x100 EXP SWAP1 DIV PUSH4 0xFFFFFFFF AND PUSH2 0x3814 JUMP JUMPDEST SWAP1 POP PUSH2 0x1C82 JUMP JUMPDEST PUSH2 0x1C7F PUSH1 0xA DUP9 DUP2 SLOAD DUP2 LT PUSH2 0x1C30 JUMPI PUSH2 0x1C2F PUSH2 0x4597 JUMP JUMPDEST JUMPDEST SWAP1 PUSH1 0x0 MSTORE PUSH1 0x20 PUSH1 0x0 KECCAK256 SWAP1 PUSH1 0x6 MUL ADD PUSH1 0x2 ADD PUSH1 0x1 SWAP1 SLOAD SWAP1 PUSH2 0x100 EXP SWAP1 DIV PUSH1 0xFF AND PUSH1 0xFF AND PUSH1 0xA DUP10 DUP2 SLOAD DUP2 LT PUSH2 0x1C66 JUMPI PUSH2 0x1C65 PUSH2 0x4597 JUMP JUMPDEST JUMPDEST SWAP1 PUSH1 0x0 MSTORE PUSH1 0x20 PUSH1 0x0 KECCAK256 SWAP1 PUSH1 0x6 MUL ADD PUSH1 0x0 ADD SLOAD PUSH1 0x64 PUSH2 0x3814 JUMP JUMPDEST SWAP1 POP JUMPDEST TIMESTAMP PUSH1 0xA DUP9 DUP2 SLOAD DUP2 LT PUSH2 0x1C97 JUMPI PUSH2 0x1C96 PUSH2 0x4597 JUMP JUMPDEST JUMPDEST SWAP1 PUSH1 0x0 MSTORE PUSH1 0x20 PUSH1 0x0 KECCAK256 SWAP1 PUSH1 0x6 MUL ADD PUSH1 0x1 ADD SLOAD GT PUSH2 0x1D9A JUMPI PUSH1 0x1 ISZERO ISZERO PUSH1 0xA DUP9 DUP2 SLOAD DUP2 LT PUSH2 0x1CC6 JUMPI PUSH2 0x1CC5 PUSH2 0x4597 JUMP JUMPDEST JUMPDEST SWAP1 PUSH1 0x0 MSTORE PUSH1 0x20 PUSH1 0x0 KECCAK256 SWAP1 PUSH1 0x6 MUL ADD PUSH1 0x2 ADD PUSH1 0x2 SWAP1 SLOAD SWAP1 PUSH2 0x100 EXP SWAP1 DIV PUSH1 0xFF AND ISZERO ISZERO EQ ISZERO PUSH2 0x1D04 JUMPI PUSH2 0x1D01 PUSH1 0x2 DUP3 PUSH2 0x38BE SWAP1 SWAP2 SWAP1 PUSH4 0xFFFFFFFF AND JUMP JUMPDEST SWAP1 POP JUMPDEST PUSH1 0xA DUP8 DUP2 SLOAD DUP2 LT PUSH2 0x1D18 JUMPI PUSH2 0x1D17 PUSH2 0x4597 JUMP JUMPDEST JUMPDEST SWAP1 PUSH1 0x0 MSTORE PUSH1 0x20 PUSH1 0x0 KECCAK256 SWAP1 PUSH1 0x6 MUL ADD PUSH1 0x2 ADD PUSH1 0x3 SWAP1 SLOAD SWAP1 PUSH2 0x100 EXP SWAP1 DIV PUSH20 0xFFFFFFFFFFFFFFFFFFFFFFFFFFFFFFFFFFFFFFFF AND PUSH20 0xFFFFFFFFFFFFFFFFFFFFFFFFFFFFFFFFFFFFFFFF AND PUSH2 0x8FC DUP3 SWAP1 DUP2 ISZERO MUL SWAP1 PUSH1 0x40 MLOAD PUSH1 0x0 PUSH1 0x40 MLOAD DUP1 DUP4 SUB DUP2 DUP6 DUP9 DUP9 CALL SWAP4 POP POP POP POP ISZERO DUP1 ISZERO PUSH2 0x1D8F JUMPI RETURNDATASIZE PUSH1 0x0 DUP1 RETURNDATACOPY RETURNDATASIZE PUSH1 0x0 REVERT JUMPDEST POP PUSH1 0x1 SWAP6 POP POP PUSH2 0x1DA0 JUMP JUMPDEST PUSH1 0x0 SWAP6 POP POP JUMPDEST POP POP POP POP SWAP2 SWAP1 POP JUMP JUMPDEST PUSH1 0x0 DUP1 SLOAD SWAP1 PUSH2 0x100 EXP SWAP1 DIV PUSH20 0xFFFFFFFFFFFFFFFFFFFFFFFFFFFFFFFFFFFFFFFF AND PUSH20 0xFFFFFFFFFFFFFFFFFFFFFFFFFFFFFFFFFFFFFFFF AND CALLER PUSH20 0xFFFFFFFFFFFFFFFFFFFFFFFFFFFFFFFFFFFFFFFF AND EQ PUSH2 0x1E37 JUMPI PUSH1 0x40 MLOAD PUSH32 0x8C379A000000000000000000000000000000000000000000000000000000000 DUP2 MSTORE PUSH1 0x4 ADD PUSH2 0x1E2E SWAP1 PUSH2 0x3F56 JUMP JUMPDEST PUSH1 0x40 MLOAD DUP1 SWAP2 SUB SWAP1 REVERT JUMPDEST DUP1 PUSH20 0xFFFFFFFFFFFFFFFFFFFFFFFFFFFFFFFFFFFFFFFF AND PUSH1 0x0 DUP1 SLOAD SWAP1 PUSH2 0x100 EXP SWAP1 DIV PUSH20 0xFFFFFFFFFFFFFFFFFFFFFFFFFFFFFFFFFFFFFFFF AND PUSH20 0xFFFFFFFFFFFFFFFFFFFFFFFFFFFFFFFFFFFFFFFF AND PUSH32 0x342827C97908E5E2F71151C08502A66D44B6F758E3AC2F1DE95F02EB95F0A735 PUSH1 0x40 MLOAD PUSH1 0x40 MLOAD DUP1 SWAP2 SUB SWAP1 LOG3 DUP1 PUSH1 0x0 DUP1 PUSH2 0x100 EXP DUP2 SLOAD DUP2 PUSH20 0xFFFFFFFFFFFFFFFFFFFFFFFFFFFFFFFFFFFFFFFF MUL NOT AND SWAP1 DUP4 PUSH20 0xFFFFFFFFFFFFFFFFFFFFFFFFFFFFFFFFFFFFFFFF AND MUL OR SWAP1 SSTORE POP POP JUMP JUMPDEST PUSH1 0x60 PUSH1 0xA DUP3 DUP2 SLOAD DUP2 LT PUSH2 0x1F0A JUMPI PUSH2 0x1F09 PUSH2 0x4597 JUMP JUMPDEST JUMPDEST SWAP1 PUSH1 0x0 MSTORE PUSH1 0x20 PUSH1 0x0 KECCAK256 SWAP1 PUSH1 0x6 MUL ADD PUSH1 0x2 ADD PUSH1 0x3 SWAP1 SLOAD SWAP1 PUSH2 0x100 EXP SWAP1 DIV PUSH20 0xFFFFFFFFFFFFFFFFFFFFFFFFFFFFFFFFFFFFFFFF AND CALLER PUSH20 0xFFFFFFFFFFFFFFFFFFFFFFFFFFFFFFFFFFFFFFFF AND DUP2 PUSH20 0xFFFFFFFFFFFFFFFFFFFFFFFFFFFFFFFFFFFFFFFF AND EQ PUSH2 0x1FAA JUMPI PUSH1 0x40 MLOAD PUSH32 0x8C379A000000000000000000000000000000000000000000000000000000000 DUP2 MSTORE PUSH1 0x4 ADD PUSH2 0x1FA1 SWAP1 PUSH2 0x40D6 JUMP JUMPDEST PUSH1 0x40 MLOAD DUP1 SWAP2 SUB SWAP1 REVERT JUMPDEST PUSH1 0x9 PUSH1 0x0 SWAP1 SLOAD SWAP1 PUSH2 0x100 EXP SWAP1 DIV PUSH1 0xFF AND DUP4 PUSH1 0x9 PUSH1 0x1 SWAP1 SLOAD SWAP1 PUSH2 0x100 EXP SWAP1 DIV PUSH1 0xFF AND PUSH1 0xFF AND DUP3 PUSH1 0xFF AND EQ DUP1 PUSH2 0x1FF2 JUMPI POP PUSH1 0x9 PUSH1 0x0 SWAP1 SLOAD SWAP1 PUSH2 0x100 EXP SWAP1 DIV PUSH1 0xFF AND PUSH1 0xFF AND DUP3 PUSH1 0xFF AND EQ JUMPDEST PUSH2 0x2031 JUMPI PUSH1 0x40 MLOAD PUSH32 0x8C379A000000000000000000000000000000000000000000000000000000000 DUP2 MSTORE PUSH1 0x4 ADD PUSH2 0x2028 SWAP1 PUSH2 0x4036 JUMP JUMPDEST PUSH1 0x40 MLOAD DUP1 SWAP2 SUB SWAP1 REVERT JUMPDEST PUSH1 0x0 DUP2 LT ISZERO PUSH2 0x2075 JUMPI PUSH1 0x40 MLOAD PUSH32 0x8C379A000000000000000000000000000000000000000000000000000000000 DUP2 MSTORE PUSH1 0x4 ADD PUSH2 0x206C SWAP1 PUSH2 0x4096 JUMP JUMPDEST PUSH1 0x40 MLOAD DUP1 SWAP2 SUB SWAP1 REVERT JUMPDEST PUSH1 0x9 PUSH1 0x0 SWAP1 SLOAD SWAP1 PUSH2 0x100 EXP SWAP1 DIV PUSH1 0xFF AND PUSH1 0xFF AND DUP3 PUSH1 0xFF AND EQ ISZERO PUSH2 0x20DB JUMPI PUSH1 0x1 SLOAD DUP2 LT PUSH2 0x20D6 JUMPI PUSH1 0x40 MLOAD PUSH32 0x8C379A000000000000000000000000000000000000000000000000000000000 DUP2 MSTORE PUSH1 0x4 ADD PUSH2 0x20CD SWAP1 PUSH2 0x4016 JUMP JUMPDEST PUSH1 0x40 MLOAD DUP1 SWAP2 SUB SWAP1 REVERT JUMPDEST PUSH2 0x2120 JUMP JUMPDEST PUSH1 0x5 SLOAD DUP2 LT PUSH2 0x211F JUMPI PUSH1 0x40 MLOAD PUSH32 0x8C379A000000000000000000000000000000000000000000000000000000000 DUP2 MSTORE PUSH1 0x4 ADD PUSH2 0x2116 SWAP1 PUSH2 0x3F36 JUMP JUMPDEST PUSH1 0x40 MLOAD DUP1 SWAP2 SUB SWAP1 REVERT JUMPDEST JUMPDEST PUSH1 0xA DUP6 DUP2 SLOAD DUP2 LT PUSH2 0x2134 JUMPI PUSH2 0x2133 PUSH2 0x4597 JUMP JUMPDEST JUMPDEST SWAP1 PUSH1 0x0 MSTORE PUSH1 0x20 PUSH1 0x0 KECCAK256 SWAP1 PUSH1 0x6 MUL ADD PUSH1 0x2 ADD PUSH1 0x0 SWAP1 SLOAD SWAP1 PUSH2 0x100 EXP SWAP1 DIV PUSH1 0xFF AND PUSH1 0x9 PUSH1 0x0 SWAP1 SLOAD SWAP1 PUSH2 0x100 EXP SWAP1 DIV PUSH1 0xFF AND PUSH1 0x9 PUSH1 0x0 SWAP1 SLOAD SWAP1 PUSH2 0x100 EXP SWAP1 DIV PUSH1 0xFF AND PUSH1 0xFF AND DUP2 PUSH1 0xFF AND EQ DUP1 PUSH2 0x219A JUMPI POP PUSH1 0x9 PUSH1 0x1 SWAP1 SLOAD SWAP1 PUSH2 0x100 EXP SWAP1 DIV PUSH1 0xFF AND PUSH1 0xFF AND DUP2 PUSH1 0xFF AND EQ JUMPDEST PUSH2 0x21D9 JUMPI PUSH1 0x40 MLOAD PUSH32 0x8C379A000000000000000000000000000000000000000000000000000000000 DUP2 MSTORE PUSH1 0x4 ADD PUSH2 0x21D0 SWAP1 PUSH2 0x40B6 JUMP JUMPDEST PUSH1 0x40 MLOAD DUP1 SWAP2 SUB SWAP1 REVERT JUMPDEST PUSH1 0x0 DUP3 PUSH1 0xFF AND EQ DUP1 PUSH2 0x220E JUMPI POP PUSH1 0x1 DUP3 PUSH1 0xFF AND EQ DUP1 ISZERO PUSH2 0x220D JUMPI POP PUSH1 0x9 PUSH1 0x0 SWAP1 SLOAD SWAP1 PUSH2 0x100 EXP SWAP1 DIV PUSH1 0xFF AND PUSH1 0xFF AND DUP2 PUSH1 0xFF AND EQ JUMPDEST JUMPDEST PUSH2 0x224D JUMPI PUSH1 0x40 MLOAD PUSH32 0x8C379A000000000000000000000000000000000000000000000000000000000 DUP2 MSTORE PUSH1 0x4 ADD PUSH2 0x2244 SWAP1 PUSH2 0x3FF6 JUMP JUMPDEST PUSH1 0x40 MLOAD DUP1 SWAP2 SUB SWAP1 REVERT JUMPDEST PUSH1 0x0 ISZERO ISZERO PUSH2 0x225A DUP9 PUSH2 0x1874 JUMP JUMPDEST ISZERO ISZERO EQ PUSH2 0x229E JUMPI PUSH1 0x40 MLOAD DUP1 PUSH1 0x40 ADD PUSH1 0x40 MSTORE DUP1 PUSH1 0x15 DUP2 MSTORE PUSH1 0x20 ADD PUSH32 0x5469636B65742069732074696D656C6F636B6564210000000000000000000000 DUP2 MSTORE POP SWAP6 POP PUSH2 0x2412 JUMP JUMPDEST PUSH1 0x0 PUSH2 0x22F4 PUSH1 0xF PUSH1 0x3 SWAP1 SLOAD SWAP1 PUSH2 0x100 EXP SWAP1 DIV PUSH4 0xFFFFFFFF AND PUSH1 0xA DUP11 DUP2 SLOAD DUP2 LT PUSH2 0x22CA JUMPI PUSH2 0x22C9 PUSH2 0x4597 JUMP JUMPDEST JUMPDEST SWAP1 PUSH1 0x0 MSTORE PUSH1 0x20 PUSH1 0x0 KECCAK256 SWAP1 PUSH1 0x6 MUL ADD PUSH1 0x0 ADD SLOAD PUSH1 0xF PUSH1 0x7 SWAP1 SLOAD SWAP1 PUSH2 0x100 EXP SWAP1 DIV PUSH4 0xFFFFFFFF AND PUSH2 0x3814 JUMP JUMPDEST SWAP1 POP PUSH1 0x1 ISZERO ISZERO PUSH1 0xA DUP10 DUP2 SLOAD DUP2 LT PUSH2 0x230E JUMPI PUSH2 0x230D PUSH2 0x4597 JUMP JUMPDEST JUMPDEST SWAP1 PUSH1 0x0 MSTORE PUSH1 0x20 PUSH1 0x0 KECCAK256 SWAP1 PUSH1 0x6 MUL ADD PUSH1 0x2 ADD PUSH1 0x2 SWAP1 SLOAD SWAP1 PUSH2 0x100 EXP SWAP1 DIV PUSH1 0xFF AND ISZERO ISZERO EQ ISZERO PUSH2 0x234C JUMPI PUSH2 0x2349 PUSH1 0x2 DUP3 PUSH2 0x38BE SWAP1 SWAP2 SWAP1 PUSH4 0xFFFFFFFF AND JUMP JUMPDEST SWAP1 POP JUMPDEST PUSH1 0xA DUP9 DUP2 SLOAD DUP2 LT PUSH2 0x2360 JUMPI PUSH2 0x235F PUSH2 0x4597 JUMP JUMPDEST JUMPDEST SWAP1 PUSH1 0x0 MSTORE PUSH1 0x20 PUSH1 0x0 KECCAK256 SWAP1 PUSH1 0x6 MUL ADD PUSH1 0x3 ADD PUSH1 0x0 SWAP1 SLOAD SWAP1 PUSH2 0x100 EXP SWAP1 DIV PUSH20 0xFFFFFFFFFFFFFFFFFFFFFFFFFFFFFFFFFFFFFFFF AND PUSH20 0xFFFFFFFFFFFFFFFFFFFFFFFFFFFFFFFFFFFFFFFF AND PUSH2 0x8FC DUP3 SWAP1 DUP2 ISZERO MUL SWAP1 PUSH1 0x40 MLOAD PUSH1 0x0 PUSH1 0x40 MLOAD DUP1 DUP4 SUB DUP2 DUP6 DUP9 DUP9 CALL SWAP4 POP POP POP POP ISZERO DUP1 ISZERO PUSH2 0x23D7 JUMPI RETURNDATASIZE PUSH1 0x0 DUP1 RETURNDATACOPY RETURNDATASIZE PUSH1 0x0 REVERT JUMPDEST POP PUSH1 0x40 MLOAD DUP1 PUSH1 0x40 ADD PUSH1 0x40 MSTORE DUP1 PUSH1 0x15 DUP2 MSTORE PUSH1 0x20 ADD PUSH32 0x5469636B6574206973206E6F7720636C6F7365642E0000000000000000000000 DUP2 MSTORE POP SWAP7 POP POP JUMPDEST POP POP POP POP POP SWAP2 SWAP1 POP JUMP JUMPDEST PUSH1 0x60 PUSH1 0x9 PUSH1 0x1 SWAP1 SLOAD SWAP1 PUSH2 0x100 EXP SWAP1 DIV PUSH1 0xFF AND DUP3 PUSH1 0x9 PUSH1 0x1 SWAP1 SLOAD SWAP1 PUSH2 0x100 EXP SWAP1 DIV PUSH1 0xFF AND PUSH1 0xFF AND DUP3 PUSH1 0xFF AND EQ DUP1 PUSH2 0x2466 JUMPI POP PUSH1 0x9 PUSH1 0x0 SWAP1 SLOAD SWAP1 PUSH2 0x100 EXP SWAP1 DIV PUSH1 0xFF AND PUSH1 0xFF AND DUP3 PUSH1 0xFF AND EQ JUMPDEST PUSH2 0x24A5 JUMPI PUSH1 0x40 MLOAD PUSH32 0x8C379A000000000000000000000000000000000000000000000000000000000 DUP2 MSTORE PUSH1 0x4 ADD PUSH2 0x249C SWAP1 PUSH2 0x4036 JUMP JUMPDEST PUSH1 0x40 MLOAD DUP1 SWAP2 SUB SWAP1 REVERT JUMPDEST PUSH1 0x0 DUP2 LT ISZERO PUSH2 0x24E9 JUMPI PUSH1 0x40 MLOAD PUSH32 0x8C379A000000000000000000000000000000000000000000000000000000000 DUP2 MSTORE PUSH1 0x4 ADD PUSH2 0x24E0 SWAP1 PUSH2 0x4096 JUMP JUMPDEST PUSH1 0x40 MLOAD DUP1 SWAP2 SUB SWAP1 REVERT JUMPDEST PUSH1 0x9 PUSH1 0x0 SWAP1 SLOAD SWAP1 PUSH2 0x100 EXP SWAP1 DIV PUSH1 0xFF AND PUSH1 0xFF AND DUP3 PUSH1 0xFF AND EQ ISZERO PUSH2 0x254F JUMPI PUSH1 0x1 SLOAD DUP2 LT PUSH2 0x254A JUMPI PUSH1 0x40 MLOAD PUSH32 0x8C379A000000000000000000000000000000000000000000000000000000000 DUP2 MSTORE PUSH1 0x4 ADD PUSH2 0x2541 SWAP1 PUSH2 0x4016 JUMP JUMPDEST PUSH1 0x40 MLOAD DUP1 SWAP2 SUB SWAP1 REVERT JUMPDEST PUSH2 0x2594 JUMP JUMPDEST PUSH1 0x5 SLOAD DUP2 LT PUSH2 0x2593 JUMPI PUSH1 0x40 MLOAD PUSH32 0x8C379A000000000000000000000000000000000000000000000000000000000 DUP2 MSTORE PUSH1 0x4 ADD PUSH2 0x258A SWAP1 PUSH2 0x3F36 JUMP JUMPDEST PUSH1 0x40 MLOAD DUP1 SWAP2 SUB SWAP1 REVERT JUMPDEST JUMPDEST PUSH1 0xB DUP5 DUP2 SLOAD DUP2 LT PUSH2 0x25A8 JUMPI PUSH2 0x25A7 PUSH2 0x4597 JUMP JUMPDEST JUMPDEST SWAP1 PUSH1 0x0 MSTORE PUSH1 0x20 PUSH1 0x0 KECCAK256 SWAP1 PUSH1 0x5 MUL ADD PUSH1 0x3 ADD PUSH1 0x0 SWAP1 SLOAD SWAP1 PUSH2 0x100 EXP SWAP1 DIV PUSH20 0xFFFFFFFFFFFFFFFFFFFFFFFFFFFFFFFFFFFFFFFF AND CALLER PUSH20 0xFFFFFFFFFFFFFFFFFFFFFFFFFFFFFFFFFFFFFFFF AND DUP2 PUSH20 0xFFFFFFFFFFFFFFFFFFFFFFFFFFFFFFFFFFFFFFFF AND EQ PUSH2 0x2648 JUMPI PUSH1 0x40 MLOAD PUSH32 0x8C379A000000000000000000000000000000000000000000000000000000000 DUP2 MSTORE PUSH1 0x4 ADD PUSH2 0x263F SWAP1 PUSH2 0x40D6 JUMP JUMPDEST PUSH1 0x40 MLOAD DUP1 SWAP2 SUB SWAP1 REVERT JUMPDEST PUSH1 0xB DUP6 DUP2 SLOAD DUP2 LT PUSH2 0x265C JUMPI PUSH2 0x265B PUSH2 0x4597 JUMP JUMPDEST JUMPDEST SWAP1 PUSH1 0x0 MSTORE PUSH1 0x20 PUSH1 0x0 KECCAK256 SWAP1 PUSH1 0x5 MUL ADD PUSH1 0x2 ADD PUSH1 0x0 SWAP1 SLOAD SWAP1 PUSH2 0x100 EXP SWAP1 DIV PUSH1 0xFF AND PUSH1 0x9 PUSH1 0x1 SWAP1 SLOAD SWAP1 PUSH2 0x100 EXP SWAP1 DIV PUSH1 0xFF AND PUSH1 0x9 PUSH1 0x0 SWAP1 SLOAD SWAP1 PUSH2 0x100 EXP SWAP1 DIV PUSH1 0xFF AND PUSH1 0xFF AND DUP2 PUSH1 0xFF AND EQ DUP1 PUSH2 0x26C2 JUMPI POP PUSH1 0x9 PUSH1 0x1 SWAP1 SLOAD SWAP1 PUSH2 0x100 EXP SWAP1 DIV PUSH1 0xFF AND PUSH1 0xFF AND DUP2 PUSH1 0xFF AND EQ JUMPDEST PUSH2 0x2701 JUMPI PUSH1 0x40 MLOAD PUSH32 0x8C379A000000000000000000000000000000000000000000000000000000000 DUP2 MSTORE PUSH1 0x4 ADD PUSH2 0x26F8 SWAP1 PUSH2 0x40B6 JUMP JUMPDEST PUSH1 0x40 MLOAD DUP1 SWAP2 SUB SWAP1 REVERT JUMPDEST PUSH1 0x0 DUP3 PUSH1 0xFF AND EQ DUP1 PUSH2 0x2736 JUMPI POP PUSH1 0x1 DUP3 PUSH1 0xFF AND EQ DUP1 ISZERO PUSH2 0x2735 JUMPI POP PUSH1 0x9 PUSH1 0x0 SWAP1 SLOAD SWAP1 PUSH2 0x100 EXP SWAP1 DIV PUSH1 0xFF AND PUSH1 0xFF AND DUP2 PUSH1 0xFF AND EQ JUMPDEST JUMPDEST PUSH2 0x2775 JUMPI PUSH1 0x40 MLOAD PUSH32 0x8C379A000000000000000000000000000000000000000000000000000000000 DUP2 MSTORE PUSH1 0x4 ADD PUSH2 0x276C SWAP1 PUSH2 0x3FF6 JUMP JUMPDEST PUSH1 0x40 MLOAD DUP1 SWAP2 SUB SWAP1 REVERT JUMPDEST PUSH1 0x0 ISZERO ISZERO PUSH2 0x2782 DUP9 PUSH2 0x333F JUMP JUMPDEST ISZERO ISZERO EQ PUSH2 0x27C6 JUMPI PUSH1 0x40 MLOAD DUP1 PUSH1 0x40 ADD PUSH1 0x40 MSTORE DUP1 PUSH1 0x15 DUP2 MSTORE PUSH1 0x20 ADD PUSH32 0x5469636B65742069732074696D656C6F636B6564210000000000000000000000 DUP2 MSTORE POP SWAP6 POP PUSH2 0x298D JUMP JUMPDEST PUSH1 0x0 DUP1 PUSH1 0xB DUP10 DUP2 SLOAD DUP2 LT PUSH2 0x27DD JUMPI PUSH2 0x27DC PUSH2 0x4597 JUMP JUMPDEST JUMPDEST SWAP1 PUSH1 0x0 MSTORE PUSH1 0x20 PUSH1 0x0 KECCAK256 SWAP1 PUSH1 0x5 MUL ADD PUSH1 0x2 ADD PUSH1 0x1 SWAP1 SLOAD SWAP1 PUSH2 0x100 EXP SWAP1 DIV PUSH1 0xFF AND PUSH1 0xFF AND EQ ISZERO PUSH2 0x285E JUMPI PUSH2 0x2857 PUSH1 0xF PUSH1 0xB SWAP1 SLOAD SWAP1 PUSH2 0x100 EXP SWAP1 DIV PUSH4 0xFFFFFFFF AND PUSH1 0xB DUP11 DUP2 SLOAD DUP2 LT PUSH2 0x282F JUMPI PUSH2 0x282E PUSH2 0x4597 JUMP JUMPDEST JUMPDEST SWAP1 PUSH1 0x0 MSTORE PUSH1 0x20 PUSH1 0x0 KECCAK256 SWAP1 PUSH1 0x5 MUL ADD PUSH1 0x0 ADD SLOAD PUSH1 0xF DUP1 SLOAD SWAP1 PUSH2 0x100 EXP SWAP1 DIV PUSH4 0xFFFFFFFF AND PUSH2 0x3814 JUMP JUMPDEST SWAP1 POP PUSH2 0x28C7 JUMP JUMPDEST PUSH2 0x28C4 PUSH1 0xB DUP10 DUP2 SLOAD DUP2 LT PUSH2 0x2875 JUMPI PUSH2 0x2874 PUSH2 0x4597 JUMP JUMPDEST JUMPDEST SWAP1 PUSH1 0x0 MSTORE PUSH1 0x20 PUSH1 0x0 KECCAK256 SWAP1 PUSH1 0x5 MUL ADD PUSH1 0x2 ADD PUSH1 0x1 SWAP1 SLOAD SWAP1 PUSH2 0x100 EXP SWAP1 DIV PUSH1 0xFF AND PUSH1 0xFF AND PUSH1 0xB DUP11 DUP2 SLOAD DUP2 LT PUSH2 0x28AB JUMPI PUSH2 0x28AA PUSH2 0x4597 JUMP JUMPDEST JUMPDEST SWAP1 PUSH1 0x0 MSTORE PUSH1 0x20 PUSH1 0x0 KECCAK256 SWAP1 PUSH1 0x5 MUL ADD PUSH1 0x0 ADD SLOAD PUSH1 0x64 PUSH2 0x3814 JUMP JUMPDEST SWAP1 POP JUMPDEST PUSH1 0xB DUP9 DUP2 SLOAD DUP2 LT PUSH2 0x28DB JUMPI PUSH2 0x28DA PUSH2 0x4597 JUMP JUMPDEST JUMPDEST SWAP1 PUSH1 0x0 MSTORE PUSH1 0x20 PUSH1 0x0 KECCAK256 SWAP1 PUSH1 0x5 MUL ADD PUSH1 0x3 ADD PUSH1 0x0 SWAP1 SLOAD SWAP1 PUSH2 0x100 EXP SWAP1 DIV PUSH20 0xFFFFFFFFFFFFFFFFFFFFFFFFFFFFFFFFFFFFFFFF AND PUSH20 0xFFFFFFFFFFFFFFFFFFFFFFFFFFFFFFFFFFFFFFFF AND PUSH2 0x8FC DUP3 SWAP1 DUP2 ISZERO MUL SWAP1 PUSH1 0x40 MLOAD PUSH1 0x0 PUSH1 0x40 MLOAD DUP1 DUP4 SUB DUP2 DUP6 DUP9 DUP9 CALL SWAP4 POP POP POP POP ISZERO DUP1 ISZERO PUSH2 0x2952 JUMPI RETURNDATASIZE PUSH1 0x0 DUP1 RETURNDATACOPY RETURNDATASIZE PUSH1 0x0 REVERT JUMPDEST POP PUSH1 0x40 MLOAD DUP1 PUSH1 0x40 ADD PUSH1 0x40 MSTORE DUP1 PUSH1 0x14 DUP2 MSTORE PUSH1 0x20 ADD PUSH32 0x5469636B6574206973206E6F77206C6F7365642E000000000000000000000000 DUP2 MSTORE POP SWAP7 POP POP JUMPDEST POP POP POP POP POP SWAP2 SWAP1 POP JUMP JUMPDEST PUSH1 0x60 PUSH1 0x0 PUSH1 0x60 PUSH1 0x0 PUSH1 0x60 PUSH1 0x0 PUSH1 0x60 PUSH1 0x0 PUSH1 0x60 PUSH1 0x0 PUSH1 0x60 PUSH1 0x0 PUSH1 0x5 SLOAD PUSH2 0x29C9 PUSH1 0x6 SLOAD PUSH1 0x5 SLOAD PUSH2 0x37FE SWAP1 SWAP2 SWAP1 PUSH4 0xFFFFFFFF AND JUMP JUMPDEST PUSH1 0x6 SLOAD PUSH2 0x29E3 PUSH1 0x8 SLOAD PUSH1 0x7 SLOAD PUSH2 0x37FE SWAP1 SWAP2 SWAP1 PUSH4 0xFFFFFFFF AND JUMP JUMPDEST PUSH1 0x7 SLOAD PUSH1 0x8 SLOAD PUSH1 0x40 MLOAD DUP1 PUSH1 0x40 ADD PUSH1 0x40 MSTORE DUP1 PUSH1 0x1A DUP2 MSTORE PUSH1 0x20 ADD PUSH32 0x546F74616C20544D4D207469636B65747320637265617465643A000000000000 DUP2 MSTORE POP SWAP6 SWAP5 SWAP4 SWAP3 SWAP2 SWAP1 PUSH1 0x40 MLOAD DUP1 PUSH1 0x40 ADD PUSH1 0x40 MSTORE DUP1 PUSH1 0x19 DUP2 MSTORE PUSH1 0x20 ADD PUSH32 0x546F74616C2061637469766520544D4D207469636B6574733A00000000000000 DUP2 MSTORE POP SWAP5 SWAP4 SWAP3 SWAP2 SWAP1 PUSH1 0x40 MLOAD DUP1 PUSH1 0x40 ADD PUSH1 0x40 MSTORE DUP1 PUSH1 0x1B DUP2 MSTORE PUSH1 0x20 ADD PUSH32 0x546F74616C20696E61637469766520544D4D207469636B6574733A0000000000 DUP2 MSTORE POP SWAP4 SWAP3 SWAP2 SWAP1 PUSH1 0x40 MLOAD DUP1 PUSH1 0x60 ADD PUSH1 0x40 MSTORE DUP1 PUSH1 0x23 DUP2 MSTORE PUSH1 0x20 ADD PUSH2 0x4A5D PUSH1 0x23 SWAP2 CODECOPY SWAP3 SWAP2 SWAP1 PUSH1 0x40 MLOAD DUP1 PUSH1 0x40 ADD PUSH1 0x40 MSTORE DUP1 PUSH1 0x1F DUP2 MSTORE PUSH1 0x20 ADD PUSH32 0x546F74616C2076616C75652065766572206C6F636B6564206F6E20544D4D3A00 DUP2 MSTORE POP SWAP2 SWAP1 PUSH1 0x40 MLOAD DUP1 PUSH1 0x40 ADD PUSH1 0x40 MSTORE DUP1 PUSH1 0x1C DUP2 MSTORE PUSH1 0x20 ADD PUSH32 0x546F74616C2076616C756520756E6C6F636B6564206F6E20544D4D3A00000000 DUP2 MSTORE POP SWAP1 SWAP12 POP SWAP12 POP SWAP12 POP SWAP12 POP SWAP12 POP SWAP12 POP SWAP12 POP SWAP12 POP SWAP12 POP SWAP12 POP SWAP12 POP SWAP12 POP SWAP1 SWAP2 SWAP3 SWAP4 SWAP5 SWAP6 SWAP7 SWAP8 SWAP9 SWAP10 SWAP11 SWAP12 JUMP JUMPDEST PUSH1 0x0 DUP1 SLOAD SWAP1 PUSH2 0x100 EXP SWAP1 DIV PUSH20 0xFFFFFFFFFFFFFFFFFFFFFFFFFFFFFFFFFFFFFFFF AND PUSH20 0xFFFFFFFFFFFFFFFFFFFFFFFFFFFFFFFFFFFFFFFF AND CALLER PUSH20 0xFFFFFFFFFFFFFFFFFFFFFFFFFFFFFFFFFFFFFFFF AND EQ PUSH2 0x2BD9 JUMPI PUSH1 0x40 MLOAD PUSH32 0x8C379A000000000000000000000000000000000000000000000000000000000 DUP2 MSTORE PUSH1 0x4 ADD PUSH2 0x2BD0 SWAP1 PUSH2 0x3F56 JUMP JUMPDEST PUSH1 0x40 MLOAD DUP1 SWAP2 SUB SWAP1 REVERT JUMPDEST PUSH1 0x0 PUSH1 0xE SLOAD EQ ISZERO PUSH2 0x2C02 JUMPI PUSH2 0x2BFB PUSH1 0xD SLOAD PUSH1 0xC SLOAD PUSH2 0x37FE SWAP1 SWAP2 SWAP1 PUSH4 0xFFFFFFFF AND JUMP JUMPDEST PUSH1 0xE DUP2 SWAP1 SSTORE POP JUMPDEST PUSH1 0x0 DUP3 GT DUP1 ISZERO PUSH2 0x2C14 JUMPI POP PUSH1 0xE SLOAD DUP3 GT ISZERO JUMPDEST PUSH2 0x2C53 JUMPI PUSH1 0x40 MLOAD PUSH32 0x8C379A000000000000000000000000000000000000000000000000000000000 DUP2 MSTORE PUSH1 0x4 ADD PUSH2 0x2C4A SWAP1 PUSH2 0x40F6 JUMP JUMPDEST PUSH1 0x40 MLOAD DUP1 SWAP2 SUB SWAP1 REVERT JUMPDEST PUSH1 0x9 PUSH1 0x7 SWAP1 SLOAD SWAP1 PUSH2 0x100 EXP SWAP1 DIV PUSH20 0xFFFFFFFFFFFFFFFFFFFFFFFFFFFFFFFFFFFFFFFF AND PUSH20 0xFFFFFFFFFFFFFFFFFFFFFFFFFFFFFFFFFFFFFFFF AND DUP2 PUSH20 0xFFFFFFFFFFFFFFFFFFFFFFFFFFFFFFFFFFFFFFFF AND EQ ISZERO PUSH2 0x2CAD JUMPI CALLER SWAP1 POP JUMPDEST DUP1 PUSH20 0xFFFFFFFFFFFFFFFFFFFFFFFFFFFFFFFFFFFFFFFF AND PUSH2 0x8FC DUP4 SWAP1 DUP2 ISZERO MUL SWAP1 PUSH1 0x40 MLOAD PUSH1 0x0 PUSH1 0x40 MLOAD DUP1 DUP4 SUB DUP2 DUP6 DUP9 DUP9 CALL SWAP4 POP POP POP POP ISZERO DUP1 ISZERO PUSH2 0x2CF3 JUMPI RETURNDATASIZE PUSH1 0x0 DUP1 RETURNDATACOPY RETURNDATASIZE PUSH1 0x0 REVERT JUMPDEST POP POP POP JUMP JUMPDEST PUSH1 0x60 PUSH1 0x9 PUSH1 0x1 SWAP1 SLOAD SWAP1 PUSH2 0x100 EXP SWAP1 DIV PUSH1 0xFF AND DUP3 PUSH1 0x9 PUSH1 0x1 SWAP1 SLOAD SWAP1 PUSH2 0x100 EXP SWAP1 DIV PUSH1 0xFF AND PUSH1 0xFF AND DUP3 PUSH1 0xFF AND EQ DUP1 PUSH2 0x2D42 JUMPI POP PUSH1 0x9 PUSH1 0x0 SWAP1 SLOAD SWAP1 PUSH2 0x100 EXP SWAP1 DIV PUSH1 0xFF AND PUSH1 0xFF AND DUP3 PUSH1 0xFF AND EQ JUMPDEST PUSH2 0x2D81 JUMPI PUSH1 0x40 MLOAD PUSH32 0x8C379A000000000000000000000000000000000000000000000000000000000 DUP2 MSTORE PUSH1 0x4 ADD PUSH2 0x2D78 SWAP1 PUSH2 0x4036 JUMP JUMPDEST PUSH1 0x40 MLOAD DUP1 SWAP2 SUB SWAP1 REVERT JUMPDEST PUSH1 0x0 DUP2 LT ISZERO PUSH2 0x2DC5 JUMPI PUSH1 0x40 MLOAD PUSH32 0x8C379A000000000000000000000000000000000000000000000000000000000 DUP2 MSTORE PUSH1 0x4 ADD PUSH2 0x2DBC SWAP1 PUSH2 0x4096 JUMP JUMPDEST PUSH1 0x40 MLOAD DUP1 SWAP2 SUB SWAP1 REVERT JUMPDEST PUSH1 0x9 PUSH1 0x0 SWAP1 SLOAD SWAP1 PUSH2 0x100 EXP SWAP1 DIV PUSH1 0xFF AND PUSH1 0xFF AND DUP3 PUSH1 0xFF AND EQ ISZERO PUSH2 0x2E2B JUMPI PUSH1 0x1 SLOAD DUP2 LT PUSH2 0x2E26 JUMPI PUSH1 0x40 MLOAD PUSH32 0x8C379A000000000000000000000000000000000000000000000000000000000 DUP2 MSTORE PUSH1 0x4 ADD PUSH2 0x2E1D SWAP1 PUSH2 0x4016 JUMP JUMPDEST PUSH1 0x40 MLOAD DUP1 SWAP2 SUB SWAP1 REVERT JUMPDEST PUSH2 0x2E70 JUMP JUMPDEST PUSH1 0x5 SLOAD DUP2 LT PUSH2 0x2E6F JUMPI PUSH1 0x40 MLOAD PUSH32 0x8C379A000000000000000000000000000000000000000000000000000000000 DUP2 MSTORE PUSH1 0x4 ADD PUSH2 0x2E66 SWAP1 PUSH2 0x3F36 JUMP JUMPDEST PUSH1 0x40 MLOAD DUP1 SWAP2 SUB SWAP1 REVERT JUMPDEST JUMPDEST PUSH1 0xB DUP5 DUP2 SLOAD DUP2 LT PUSH2 0x2E84 JUMPI PUSH2 0x2E83 PUSH2 0x4597 JUMP JUMPDEST JUMPDEST SWAP1 PUSH1 0x0 MSTORE PUSH1 0x20 PUSH1 0x0 KECCAK256 SWAP1 PUSH1 0x5 MUL ADD PUSH1 0x2 ADD PUSH1 0x3 SWAP1 SLOAD SWAP1 PUSH2 0x100 EXP SWAP1 DIV PUSH20 0xFFFFFFFFFFFFFFFFFFFFFFFFFFFFFFFFFFFFFFFF AND PUSH1 0xB DUP6 DUP2 SLOAD DUP2 LT PUSH2 0x2ECA JUMPI PUSH2 0x2EC9 PUSH2 0x4597 JUMP JUMPDEST JUMPDEST SWAP1 PUSH1 0x0 MSTORE PUSH1 0x20 PUSH1 0x0 KECCAK256 SWAP1 PUSH1 0x5 MUL ADD PUSH1 0x2 ADD PUSH1 0x2 SWAP1 SLOAD SWAP1 PUSH2 0x100 EXP SWAP1 DIV PUSH1 0xFF AND DUP6 PUSH1 0x0 ISZERO ISZERO DUP3 ISZERO ISZERO EQ DUP1 PUSH2 0x2F28 JUMPI POP CALLER PUSH20 0xFFFFFFFFFFFFFFFFFFFFFFFFFFFFFFFFFFFFFFFF AND DUP4 PUSH20 0xFFFFFFFFFFFFFFFFFFFFFFFFFFFFFFFFFFFFFFFF AND EQ JUMPDEST PUSH2 0x2F67 JUMPI PUSH1 0x40 MLOAD PUSH32 0x8C379A000000000000000000000000000000000000000000000000000000000 DUP2 MSTORE PUSH1 0x4 ADD PUSH2 0x2F5E SWAP1 PUSH2 0x4056 JUMP JUMPDEST PUSH1 0x40 MLOAD DUP1 SWAP2 SUB SWAP1 REVERT JUMPDEST PUSH1 0xB DUP8 DUP2 SLOAD DUP2 LT PUSH2 0x2F7B JUMPI PUSH2 0x2F7A PUSH2 0x4597 JUMP JUMPDEST JUMPDEST SWAP1 PUSH1 0x0 MSTORE PUSH1 0x20 PUSH1 0x0 KECCAK256 SWAP1 PUSH1 0x5 MUL ADD PUSH1 0x2 ADD PUSH1 0x0 SWAP1 SLOAD SWAP1 PUSH2 0x100 EXP SWAP1 DIV PUSH1 0xFF AND PUSH1 0x9 PUSH1 0x1 SWAP1 SLOAD SWAP1 PUSH2 0x100 EXP SWAP1 DIV PUSH1 0xFF AND PUSH1 0x9 PUSH1 0x0 SWAP1 SLOAD SWAP1 PUSH2 0x100 EXP SWAP1 DIV PUSH1 0xFF AND PUSH1 0xFF AND DUP2 PUSH1 0xFF AND EQ DUP1 PUSH2 0x2FE1 JUMPI POP PUSH1 0x9 PUSH1 0x1 SWAP1 SLOAD SWAP1 PUSH2 0x100 EXP SWAP1 DIV PUSH1 0xFF AND PUSH1 0xFF AND DUP2 PUSH1 0xFF AND EQ JUMPDEST PUSH2 0x3020 JUMPI PUSH1 0x40 MLOAD PUSH32 0x8C379A000000000000000000000000000000000000000000000000000000000 DUP2 MSTORE PUSH1 0x4 ADD PUSH2 0x3017 SWAP1 PUSH2 0x40B6 JUMP JUMPDEST PUSH1 0x40 MLOAD DUP1 SWAP2 SUB SWAP1 REVERT JUMPDEST PUSH1 0x0 DUP3 PUSH1 0xFF AND EQ DUP1 PUSH2 0x3055 JUMPI POP PUSH1 0x1 DUP3 PUSH1 0xFF AND EQ DUP1 ISZERO PUSH2 0x3054 JUMPI POP PUSH1 0x9 PUSH1 0x0 SWAP1 SLOAD SWAP1 PUSH2 0x100 EXP SWAP1 DIV PUSH1 0xFF AND PUSH1 0xFF AND DUP2 PUSH1 0xFF AND EQ JUMPDEST JUMPDEST PUSH2 0x3094 JUMPI PUSH1 0x40 MLOAD PUSH32 0x8C379A000000000000000000000000000000000000000000000000000000000 DUP2 MSTORE PUSH1 0x4 ADD PUSH2 0x308B SWAP1 PUSH2 0x3FF6 JUMP JUMPDEST PUSH1 0x40 MLOAD DUP1 SWAP2 SUB SWAP1 REVERT JUMPDEST DUP10 PUSH1 0xB DUP11 DUP2 SLOAD DUP2 LT PUSH2 0x30A9 JUMPI PUSH2 0x30A8 PUSH2 0x4597 JUMP JUMPDEST JUMPDEST SWAP1 PUSH1 0x0 MSTORE PUSH1 0x20 PUSH1 0x0 KECCAK256 SWAP1 PUSH1 0x5 MUL ADD PUSH1 0x4 ADD SLOAD DUP2 DUP1 MLOAD SWAP1 PUSH1 0x20 ADD KECCAK256 DUP2 EQ PUSH2 0x3104 JUMPI PUSH1 0x40 MLOAD PUSH32 0x8C379A000000000000000000000000000000000000000000000000000000000 DUP2 MSTORE PUSH1 0x4 ADD PUSH2 0x30FB SWAP1 PUSH2 0x3FD6 JUMP JUMPDEST PUSH1 0x40 MLOAD DUP1 SWAP2 SUB SWAP1 REVERT JUMPDEST PUSH1 0x0 ISZERO ISZERO PUSH2 0x3111 DUP13 PUSH2 0x333F JUMP JUMPDEST ISZERO ISZERO EQ PUSH2 0x3155 JUMPI PUSH1 0x40 MLOAD DUP1 PUSH1 0x40 ADD PUSH1 0x40 MSTORE DUP1 PUSH1 0x15 DUP2 MSTORE PUSH1 0x20 ADD PUSH32 0x5469636B65742069732074696D656C6F636B6564210000000000000000000000 DUP2 MSTORE POP SWAP10 POP PUSH2 0x3330 JUMP JUMPDEST PUSH1 0x0 PUSH2 0x31AB PUSH1 0xF PUSH1 0x3 SWAP1 SLOAD SWAP1 PUSH2 0x100 EXP SWAP1 DIV PUSH4 0xFFFFFFFF AND PUSH1 0xB DUP15 DUP2 SLOAD DUP2 LT PUSH2 0x3181 JUMPI PUSH2 0x3180 PUSH2 0x4597 JUMP JUMPDEST JUMPDEST SWAP1 PUSH1 0x0 MSTORE PUSH1 0x20 PUSH1 0x0 KECCAK256 SWAP1 PUSH1 0x5 MUL ADD PUSH1 0x0 ADD SLOAD PUSH1 0xF PUSH1 0x7 SWAP1 SLOAD SWAP1 PUSH2 0x100 EXP SWAP1 DIV PUSH4 0xFFFFFFFF AND PUSH2 0x3814 JUMP JUMPDEST SWAP1 POP PUSH1 0x0 ISZERO ISZERO PUSH1 0xB DUP14 DUP2 SLOAD DUP2 LT PUSH2 0x31C5 JUMPI PUSH2 0x31C4 PUSH2 0x4597 JUMP JUMPDEST JUMPDEST SWAP1 PUSH1 0x0 MSTORE PUSH1 0x20 PUSH1 0x0 KECCAK256 SWAP1 PUSH1 0x5 MUL ADD PUSH1 0x2 ADD PUSH1 0x2 SWAP1 SLOAD SWAP1 PUSH2 0x100 EXP SWAP1 DIV PUSH1 0xFF AND ISZERO ISZERO EQ ISZERO PUSH2 0x32AF JUMPI CALLER PUSH1 0xB DUP14 DUP2 SLOAD DUP2 LT PUSH2 0x3201 JUMPI PUSH2 0x3200 PUSH2 0x4597 JUMP JUMPDEST JUMPDEST SWAP1 PUSH1 0x0 MSTORE PUSH1 0x20 PUSH1 0x0 KECCAK256 SWAP1 PUSH1 0x5 MUL ADD PUSH1 0x2 ADD PUSH1 0x3 PUSH2 0x100 EXP DUP2 SLOAD DUP2 PUSH20 0xFFFFFFFFFFFFFFFFFFFFFFFFFFFFFFFFFFFFFFFF MUL NOT AND SWAP1 DUP4 PUSH20 0xFFFFFFFFFFFFFFFFFFFFFFFFFFFFFFFFFFFFFFFF AND MUL OR SWAP1 SSTORE POP PUSH1 0x1 PUSH1 0xB DUP14 DUP2 SLOAD DUP2 LT PUSH2 0x3266 JUMPI PUSH2 0x3265 PUSH2 0x4597 JUMP JUMPDEST JUMPDEST SWAP1 PUSH1 0x0 MSTORE PUSH1 0x20 PUSH1 0x0 KECCAK256 SWAP1 PUSH1 0x5 MUL ADD PUSH1 0x2 ADD PUSH1 0x2 PUSH2 0x100 EXP DUP2 SLOAD DUP2 PUSH1 0xFF MUL NOT AND SWAP1 DUP4 ISZERO ISZERO MUL OR SWAP1 SSTORE POP PUSH1 0x40 MLOAD DUP1 PUSH1 0x60 ADD PUSH1 0x40 MSTORE DUP1 PUSH1 0x2A DUP2 MSTORE PUSH1 0x20 ADD PUSH2 0x4A80 PUSH1 0x2A SWAP2 CODECOPY SWAP11 POP POP PUSH2 0x3330 JUMP JUMPDEST CALLER PUSH20 0xFFFFFFFFFFFFFFFFFFFFFFFFFFFFFFFFFFFFFFFF AND PUSH2 0x8FC DUP3 SWAP1 DUP2 ISZERO MUL SWAP1 PUSH1 0x40 MLOAD PUSH1 0x0 PUSH1 0x40 MLOAD DUP1 DUP4 SUB DUP2 DUP6 DUP9 DUP9 CALL SWAP4 POP POP POP POP ISZERO DUP1 ISZERO PUSH2 0x32F5 JUMPI RETURNDATASIZE PUSH1 0x0 DUP1 RETURNDATACOPY RETURNDATASIZE PUSH1 0x0 REVERT JUMPDEST POP PUSH1 0x40 MLOAD DUP1 PUSH1 0x40 ADD PUSH1 0x40 MSTORE DUP1 PUSH1 0x14 DUP2 MSTORE PUSH1 0x20 ADD PUSH32 0x5469636B6574206973206E6F7720636C6F736564000000000000000000000000 DUP2 MSTORE POP SWAP11 POP POP JUMPDEST POP POP POP POP POP POP POP POP POP SWAP3 SWAP2 POP POP JUMP JUMPDEST PUSH1 0x0 PUSH1 0x9 PUSH1 0x1 SWAP1 SLOAD SWAP1 PUSH2 0x100 EXP SWAP1 DIV PUSH1 0xFF AND DUP3 PUSH1 0x9 PUSH1 0x1 SWAP1 SLOAD SWAP1 PUSH2 0x100 EXP SWAP1 DIV PUSH1 0xFF AND PUSH1 0xFF AND DUP3 PUSH1 0xFF AND EQ DUP1 PUSH2 0x3389 JUMPI POP PUSH1 0x9 PUSH1 0x0 SWAP1 SLOAD SWAP1 PUSH2 0x100 EXP SWAP1 DIV PUSH1 0xFF AND PUSH1 0xFF AND DUP3 PUSH1 0xFF AND EQ JUMPDEST PUSH2 0x33C8 JUMPI PUSH1 0x40 MLOAD PUSH32 0x8C379A000000000000000000000000000000000000000000000000000000000 DUP2 MSTORE PUSH1 0x4 ADD PUSH2 0x33BF SWAP1 PUSH2 0x4036 JUMP JUMPDEST PUSH1 0x40 MLOAD DUP1 SWAP2 SUB SWAP1 REVERT JUMPDEST PUSH1 0x0 DUP2 LT ISZERO PUSH2 0x340C JUMPI PUSH1 0x40 MLOAD PUSH32 0x8C379A000000000000000000000000000000000000000000000000000000000 DUP2 MSTORE PUSH1 0x4 ADD PUSH2 0x3403 SWAP1 PUSH2 0x4096 JUMP JUMPDEST PUSH1 0x40 MLOAD DUP1 SWAP2 SUB SWAP1 REVERT JUMPDEST PUSH1 0x9 PUSH1 0x0 SWAP1 SLOAD SWAP1 PUSH2 0x100 EXP SWAP1 DIV PUSH1 0xFF AND PUSH1 0xFF AND DUP3 PUSH1 0xFF AND EQ ISZERO PUSH2 0x3472 JUMPI PUSH1 0x1 SLOAD DUP2 LT PUSH2 0x346D JUMPI PUSH1 0x40 MLOAD PUSH32 0x8C379A000000000000000000000000000000000000000000000000000000000 DUP2 MSTORE PUSH1 0x4 ADD PUSH2 0x3464 SWAP1 PUSH2 0x4016 JUMP JUMPDEST PUSH1 0x40 MLOAD DUP1 SWAP2 SUB SWAP1 REVERT JUMPDEST PUSH2 0x34B7 JUMP JUMPDEST PUSH1 0x5 SLOAD DUP2 LT PUSH2 0x34B6 JUMPI PUSH1 0x40 MLOAD PUSH32 0x8C379A000000000000000000000000000000000000000000000000000000000 DUP2 MSTORE PUSH1 0x4 ADD PUSH2 0x34AD SWAP1 PUSH2 0x3F36 JUMP JUMPDEST PUSH1 0x40 MLOAD DUP1 SWAP2 SUB SWAP1 REVERT JUMPDEST JUMPDEST PUSH1 0xB DUP5 DUP2 SLOAD DUP2 LT PUSH2 0x34CB JUMPI PUSH2 0x34CA PUSH2 0x4597 JUMP JUMPDEST JUMPDEST SWAP1 PUSH1 0x0 MSTORE PUSH1 0x20 PUSH1 0x0 KECCAK256 SWAP1 PUSH1 0x5 MUL ADD PUSH1 0x2 ADD PUSH1 0x0 SWAP1 SLOAD SWAP1 PUSH2 0x100 EXP SWAP1 DIV PUSH1 0xFF AND PUSH1 0x9 PUSH1 0x1 SWAP1 SLOAD SWAP1 PUSH2 0x100 EXP SWAP1 DIV PUSH1 0xFF AND PUSH1 0x9 PUSH1 0x0 SWAP1 SLOAD SWAP1 PUSH2 0x100 EXP SWAP1 DIV PUSH1 0xFF AND PUSH1 0xFF AND DUP2 PUSH1 0xFF AND EQ DUP1 PUSH2 0x3531 JUMPI POP PUSH1 0x9 PUSH1 0x1 SWAP1 SLOAD SWAP1 PUSH2 0x100 EXP SWAP1 DIV PUSH1 0xFF AND PUSH1 0xFF AND DUP2 PUSH1 0xFF AND EQ JUMPDEST PUSH2 0x3570 JUMPI PUSH1 0x40 MLOAD PUSH32 0x8C379A000000000000000000000000000000000000000000000000000000000 DUP2 MSTORE PUSH1 0x4 ADD PUSH2 0x3567 SWAP1 PUSH2 0x40B6 JUMP JUMPDEST PUSH1 0x40 MLOAD DUP1 SWAP2 SUB SWAP1 REVERT JUMPDEST PUSH1 0x0 DUP3 PUSH1 0xFF AND EQ DUP1 PUSH2 0x35A5 JUMPI POP PUSH1 0x1 DUP3 PUSH1 0xFF AND EQ DUP1 ISZERO PUSH2 0x35A4 JUMPI POP PUSH1 0x9 PUSH1 0x0 SWAP1 SLOAD SWAP1 PUSH2 0x100 EXP SWAP1 DIV PUSH1 0xFF AND PUSH1 0xFF AND DUP2 PUSH1 0xFF AND EQ JUMPDEST JUMPDEST PUSH2 0x35E4 JUMPI PUSH1 0x40 MLOAD PUSH32 0x8C379A000000000000000000000000000000000000000000000000000000000 DUP2 MSTORE PUSH1 0x4 ADD PUSH2 0x35DB SWAP1 PUSH2 0x3FF6 JUMP JUMPDEST PUSH1 0x40 MLOAD DUP1 SWAP2 SUB SWAP1 REVERT JUMPDEST PUSH1 0x0 PUSH1 0xB DUP8 DUP2 SLOAD DUP2 LT PUSH2 0x35FA JUMPI PUSH2 0x35F9 PUSH2 0x4597 JUMP JUMPDEST JUMPDEST SWAP1 PUSH1 0x0 MSTORE PUSH1 0x20 PUSH1 0x0 KECCAK256 SWAP1 PUSH1 0x5 MUL ADD PUSH1 0x1 ADD SLOAD GT DUP1 ISZERO PUSH2 0x363E JUMPI POP TIMESTAMP PUSH1 0xB DUP8 DUP2 SLOAD DUP2 LT PUSH2 0x3629 JUMPI PUSH2 0x3628 PUSH2 0x4597 JUMP JUMPDEST JUMPDEST SWAP1 PUSH1 0x0 MSTORE PUSH1 0x20 PUSH1 0x0 KECCAK256 SWAP1 PUSH1 0x5 MUL ADD PUSH1 0x1 ADD SLOAD GT ISZERO JUMPDEST ISZERO PUSH2 0x37DA JUMPI PUSH1 0x0 DUP1 PUSH1 0xB DUP9 DUP2 SLOAD DUP2 LT PUSH2 0x365A JUMPI PUSH2 0x3659 PUSH2 0x4597 JUMP JUMPDEST JUMPDEST SWAP1 PUSH1 0x0 MSTORE PUSH1 0x20 PUSH1 0x0 KECCAK256 SWAP1 PUSH1 0x5 MUL ADD PUSH1 0x2 ADD PUSH1 0x1 SWAP1 SLOAD SWAP1 PUSH2 0x100 EXP SWAP1 DIV PUSH1 0xFF AND PUSH1 0xFF AND EQ ISZERO PUSH2 0x36DB JUMPI PUSH2 0x36D4 PUSH1 0xF PUSH1 0xB SWAP1 SLOAD SWAP1 PUSH2 0x100 EXP SWAP1 DIV PUSH4 0xFFFFFFFF AND PUSH1 0xB DUP10 DUP2 SLOAD DUP2 LT PUSH2 0x36AC JUMPI PUSH2 0x36AB PUSH2 0x4597 JUMP JUMPDEST JUMPDEST SWAP1 PUSH1 0x0 MSTORE PUSH1 0x20 PUSH1 0x0 KECCAK256 SWAP1 PUSH1 0x5 MUL ADD PUSH1 0x0 ADD SLOAD PUSH1 0xF DUP1 SLOAD SWAP1 PUSH2 0x100 EXP SWAP1 DIV PUSH4 0xFFFFFFFF AND PUSH2 0x3814 JUMP JUMPDEST SWAP1 POP PUSH2 0x3744 JUMP JUMPDEST PUSH2 0x3741 PUSH1 0xB DUP9 DUP2 SLOAD DUP2 LT PUSH2 0x36F2 JUMPI PUSH2 0x36F1 PUSH2 0x4597 JUMP JUMPDEST JUMPDEST SWAP1 PUSH1 0x0 MSTORE PUSH1 0x20 PUSH1 0x0 KECCAK256 SWAP1 PUSH1 0x5 MUL ADD PUSH1 0x2 ADD PUSH1 0x1 SWAP1 SLOAD SWAP1 PUSH2 0x100 EXP SWAP1 DIV PUSH1 0xFF AND PUSH1 0xFF AND PUSH1 0xB DUP10 DUP2 SLOAD DUP2 LT PUSH2 0x3728 JUMPI PUSH2 0x3727 PUSH2 0x4597 JUMP JUMPDEST JUMPDEST SWAP1 PUSH1 0x0 MSTORE PUSH1 0x20 PUSH1 0x0 KECCAK256 SWAP1 PUSH1 0x5 MUL ADD PUSH1 0x0 ADD SLOAD PUSH1 0x64 PUSH2 0x3814 JUMP JUMPDEST SWAP1 POP JUMPDEST PUSH1 0xB DUP8 DUP2 SLOAD DUP2 LT PUSH2 0x3758 JUMPI PUSH2 0x3757 PUSH2 0x4597 JUMP JUMPDEST JUMPDEST SWAP1 PUSH1 0x0 MSTORE PUSH1 0x20 PUSH1 0x0 KECCAK256 SWAP1 PUSH1 0x5 MUL ADD PUSH1 0x3 ADD PUSH1 0x0 SWAP1 SLOAD SWAP1 PUSH2 0x100 EXP SWAP1 DIV PUSH20 0xFFFFFFFFFFFFFFFFFFFFFFFFFFFFFFFFFFFFFFFF AND PUSH20 0xFFFFFFFFFFFFFFFFFFFFFFFFFFFFFFFFFFFFFFFF AND PUSH2 0x8FC DUP3 SWAP1 DUP2 ISZERO MUL SWAP1 PUSH1 0x40 MLOAD PUSH1 0x0 PUSH1 0x40 MLOAD DUP1 DUP4 SUB DUP2 DUP6 DUP9 DUP9 CALL SWAP4 POP POP POP POP ISZERO DUP1 ISZERO PUSH2 0x37CF JUMPI RETURNDATASIZE PUSH1 0x0 DUP1 RETURNDATACOPY RETURNDATASIZE PUSH1 0x0 REVERT JUMPDEST POP PUSH1 0x1 SWAP6 POP POP PUSH2 0x37DF JUMP JUMPDEST PUSH1 0x0 SWAP5 POP JUMPDEST POP POP POP POP SWAP2 SWAP1 POP JUMP JUMPDEST PUSH1 0x0 DUP2 DUP4 PUSH2 0x37F6 SWAP2 SWAP1 PUSH2 0x4340 JUMP JUMPDEST SWAP1 POP SWAP3 SWAP2 POP POP JUMP JUMPDEST PUSH1 0x0 DUP2 DUP4 PUSH2 0x380C SWAP2 SWAP1 PUSH2 0x4421 JUMP JUMPDEST SWAP1 POP SWAP3 SWAP2 POP POP JUMP JUMPDEST PUSH1 0x0 DUP1 DUP5 PUSH4 0xFFFFFFFF AND GT DUP1 ISZERO PUSH2 0x382D JUMPI POP PUSH3 0x186A0 DUP4 GT JUMPDEST DUP1 ISZERO PUSH2 0x383F JUMPI POP PUSH1 0x0 DUP3 PUSH4 0xFFFFFFFF AND GT JUMPDEST PUSH2 0x387E JUMPI PUSH1 0x40 MLOAD PUSH32 0x8C379A000000000000000000000000000000000000000000000000000000000 DUP2 MSTORE PUSH1 0x4 ADD PUSH2 0x3875 SWAP1 PUSH2 0x3F76 JUMP JUMPDEST PUSH1 0x40 MLOAD DUP1 SWAP2 SUB SWAP1 REVERT JUMPDEST PUSH1 0x0 PUSH2 0x38B1 DUP4 PUSH4 0xFFFFFFFF AND PUSH2 0x38A3 DUP7 DUP9 PUSH4 0xFFFFFFFF AND PUSH2 0x38D4 SWAP1 SWAP2 SWAP1 PUSH4 0xFFFFFFFF AND JUMP JUMPDEST PUSH2 0x38BE SWAP1 SWAP2 SWAP1 PUSH4 0xFFFFFFFF AND JUMP JUMPDEST SWAP1 POP DUP1 SWAP2 POP POP SWAP4 SWAP3 POP POP POP JUMP JUMPDEST PUSH1 0x0 DUP2 DUP4 PUSH2 0x38CC SWAP2 SWAP1 PUSH2 0x4396 JUMP JUMPDEST SWAP1 POP SWAP3 SWAP2 POP POP JUMP JUMPDEST PUSH1 0x0 DUP2 DUP4 PUSH2 0x38E2 SWAP2 SWAP1 PUSH2 0x43C7 JUMP JUMPDEST SWAP1 POP SWAP3 SWAP2 POP POP JUMP JUMPDEST PUSH1 0x0 PUSH2 0x38FD PUSH2 0x38F8 DUP5 PUSH2 0x42F3 JUMP JUMPDEST PUSH2 0x42CE JUMP JUMPDEST SWAP1 POP DUP3 DUP2 MSTORE PUSH1 0x20 DUP2 ADD DUP5 DUP5 DUP5 ADD GT ISZERO PUSH2 0x3919 JUMPI PUSH2 0x3918 PUSH2 0x45FA JUMP JUMPDEST JUMPDEST PUSH2 0x3924 DUP5 DUP3 DUP6 PUSH2 0x44C6 JUMP JUMPDEST POP SWAP4 SWAP3 POP POP POP JUMP JUMPDEST PUSH1 0x0 DUP2 CALLDATALOAD SWAP1 POP PUSH2 0x393B DUP2 PUSH2 0x4A00 JUMP JUMPDEST SWAP3 SWAP2 POP POP JUMP JUMPDEST PUSH1 0x0 DUP2 CALLDATALOAD SWAP1 POP PUSH2 0x3950 DUP2 PUSH2 0x4A17 JUMP JUMPDEST SWAP3 SWAP2 POP POP JUMP JUMPDEST PUSH1 0x0 DUP3 PUSH1 0x1F DUP4 ADD SLT PUSH2 0x396B JUMPI PUSH2 0x396A PUSH2 0x45F5 JUMP JUMPDEST JUMPDEST DUP2 CALLDATALOAD PUSH2 0x397B DUP5 DUP3 PUSH1 0x20 DUP7 ADD PUSH2 0x38EA JUMP JUMPDEST SWAP2 POP POP SWAP3 SWAP2 POP POP JUMP JUMPDEST PUSH1 0x0 DUP2 CALLDATALOAD SWAP1 POP PUSH2 0x3993 DUP2 PUSH2 0x4A2E JUMP JUMPDEST SWAP3 SWAP2 POP POP JUMP JUMPDEST PUSH1 0x0 DUP2 CALLDATALOAD SWAP1 POP PUSH2 0x39A8 DUP2 PUSH2 0x4A45 JUMP JUMPDEST SWAP3 SWAP2 POP POP JUMP JUMPDEST PUSH1 0x0 PUSH1 0x20 DUP3 DUP5 SUB SLT ISZERO PUSH2 0x39C4 JUMPI PUSH2 0x39C3 PUSH2 0x4604 JUMP JUMPDEST JUMPDEST PUSH1 0x0 PUSH2 0x39D2 DUP5 DUP3 DUP6 ADD PUSH2 0x392C JUMP JUMPDEST SWAP2 POP POP SWAP3 SWAP2 POP POP JUMP JUMPDEST PUSH1 0x0 DUP1 PUSH1 0x40 DUP4 DUP6 SUB SLT ISZERO PUSH2 0x39F2 JUMPI PUSH2 0x39F1 PUSH2 0x4604 JUMP JUMPDEST JUMPDEST PUSH1 0x0 DUP4 ADD CALLDATALOAD PUSH8 0xFFFFFFFFFFFFFFFF DUP2 GT ISZERO PUSH2 0x3A10 JUMPI PUSH2 0x3A0F PUSH2 0x45FF JUMP JUMPDEST JUMPDEST PUSH2 0x3A1C DUP6 DUP3 DUP7 ADD PUSH2 0x3956 JUMP JUMPDEST SWAP3 POP POP PUSH1 0x20 PUSH2 0x3A2D DUP6 DUP3 DUP7 ADD PUSH2 0x3984 JUMP JUMPDEST SWAP2 POP POP SWAP3 POP SWAP3 SWAP1 POP JUMP JUMPDEST PUSH1 0x0 PUSH1 0x20 DUP3 DUP5 SUB SLT ISZERO PUSH2 0x3A4D JUMPI PUSH2 0x3A4C PUSH2 0x4604 JUMP JUMPDEST JUMPDEST PUSH1 0x0 PUSH2 0x3A5B DUP5 DUP3 DUP6 ADD PUSH2 0x3984 JUMP JUMPDEST SWAP2 POP POP SWAP3 SWAP2 POP POP JUMP JUMPDEST PUSH1 0x0 DUP1 PUSH1 0x40 DUP4 DUP6 SUB SLT ISZERO PUSH2 0x3A7B JUMPI PUSH2 0x3A7A PUSH2 0x4604 JUMP JUMPDEST JUMPDEST PUSH1 0x0 PUSH2 0x3A89 DUP6 DUP3 DUP7 ADD PUSH2 0x3984 JUMP JUMPDEST SWAP3 POP POP PUSH1 0x20 PUSH2 0x3A9A DUP6 DUP3 DUP7 ADD PUSH2 0x3941 JUMP JUMPDEST SWAP2 POP POP SWAP3 POP SWAP3 SWAP1 POP JUMP JUMPDEST PUSH1 0x0 DUP1 PUSH1 0x40 DUP4 DUP6 SUB SLT ISZERO PUSH2 0x3ABB JUMPI PUSH2 0x3ABA PUSH2 0x4604 JUMP JUMPDEST JUMPDEST PUSH1 0x0 PUSH2 0x3AC9 DUP6 DUP3 DUP7 ADD PUSH2 0x3984 JUMP JUMPDEST SWAP3 POP POP PUSH1 0x20 PUSH2 0x3ADA DUP6 DUP3 DUP7 ADD PUSH2 0x3999 JUMP JUMPDEST SWAP2 POP POP SWAP3 POP SWAP3 SWAP1 POP JUMP JUMPDEST PUSH1 0x0 DUP1 PUSH1 0x0 PUSH1 0x60 DUP5 DUP7 SUB SLT ISZERO PUSH2 0x3AFD JUMPI PUSH2 0x3AFC PUSH2 0x4604 JUMP JUMPDEST JUMPDEST PUSH1 0x0 PUSH2 0x3B0B DUP7 DUP3 DUP8 ADD PUSH2 0x3999 JUMP JUMPDEST SWAP4 POP POP PUSH1 0x20 PUSH2 0x3B1C DUP7 DUP3 DUP8 ADD PUSH2 0x3999 JUMP JUMPDEST SWAP3 POP POP PUSH1 0x40 PUSH2 0x3B2D DUP7 DUP3 DUP8 ADD PUSH2 0x3999 JUMP JUMPDEST SWAP2 POP POP SWAP3 POP SWAP3 POP SWAP3 JUMP JUMPDEST PUSH2 0x3B40 DUP2 PUSH2 0x4467 JUMP JUMPDEST DUP3 MSTORE POP POP JUMP JUMPDEST PUSH2 0x3B4F DUP2 PUSH2 0x4455 JUMP JUMPDEST DUP3 MSTORE POP POP JUMP JUMPDEST PUSH2 0x3B5E DUP2 PUSH2 0x4479 JUMP JUMPDEST DUP3 MSTORE POP POP JUMP JUMPDEST PUSH2 0x3B6D DUP2 PUSH2 0x4485 JUMP JUMPDEST DUP3 MSTORE POP POP JUMP JUMPDEST PUSH1 0x0 PUSH2 0x3B7E DUP3 PUSH2 0x4324 JUMP JUMPDEST PUSH2 0x3B88 DUP2 DUP6 PUSH2 0x432F JUMP JUMPDEST SWAP4 POP PUSH2 0x3B98 DUP2 DUP6 PUSH1 0x20 DUP7 ADD PUSH2 0x44D5 JUMP JUMPDEST PUSH2 0x3BA1 DUP2 PUSH2 0x4609 JUMP JUMPDEST DUP5 ADD SWAP2 POP POP SWAP3 SWAP2 POP POP JUMP JUMPDEST PUSH1 0x0 PUSH2 0x3BB9 PUSH1 0x18 DUP4 PUSH2 0x432F JUMP JUMPDEST SWAP2 POP PUSH2 0x3BC4 DUP3 PUSH2 0x461A JUMP JUMPDEST PUSH1 0x20 DUP3 ADD SWAP1 POP SWAP2 SWAP1 POP JUMP JUMPDEST PUSH1 0x0 PUSH2 0x3BDC PUSH1 0x13 DUP4 PUSH2 0x432F JUMP JUMPDEST SWAP2 POP PUSH2 0x3BE7 DUP3 PUSH2 0x4643 JUMP JUMPDEST PUSH1 0x20 DUP3 ADD SWAP1 POP SWAP2 SWAP1 POP JUMP JUMPDEST PUSH1 0x0 PUSH2 0x3BFF PUSH1 0x33 DUP4 PUSH2 0x432F JUMP JUMPDEST SWAP2 POP PUSH2 0x3C0A DUP3 PUSH2 0x466C JUMP JUMPDEST PUSH1 0x40 DUP3 ADD SWAP1 POP SWAP2 SWAP1 POP JUMP JUMPDEST PUSH1 0x0 PUSH2 0x3C22 PUSH1 0x21 DUP4 PUSH2 0x432F JUMP JUMPDEST SWAP2 POP PUSH2 0x3C2D DUP3 PUSH2 0x46BB JUMP JUMPDEST PUSH1 0x40 DUP3 ADD SWAP1 POP SWAP2 SWAP1 POP JUMP JUMPDEST PUSH1 0x0 PUSH2 0x3C45 PUSH1 0x23 DUP4 PUSH2 0x432F JUMP JUMPDEST SWAP2 POP PUSH2 0x3C50 DUP3 PUSH2 0x470A JUMP JUMPDEST PUSH1 0x40 DUP3 ADD SWAP1 POP SWAP2 SWAP1 POP JUMP JUMPDEST PUSH1 0x0 PUSH2 0x3C68 PUSH1 0x17 DUP4 PUSH2 0x432F JUMP JUMPDEST SWAP2 POP PUSH2 0x3C73 DUP3 PUSH2 0x4759 JUMP JUMPDEST PUSH1 0x20 DUP3 ADD SWAP1 POP SWAP2 SWAP1 POP JUMP JUMPDEST PUSH1 0x0 PUSH2 0x3C8B PUSH1 0x24 DUP4 PUSH2 0x432F JUMP JUMPDEST SWAP2 POP PUSH2 0x3C96 DUP3 PUSH2 0x4782 JUMP JUMPDEST PUSH1 0x40 DUP3 ADD SWAP1 POP SWAP2 SWAP1 POP JUMP JUMPDEST PUSH1 0x0 PUSH2 0x3CAE PUSH1 0x17 DUP4 PUSH2 0x432F JUMP JUMPDEST SWAP2 POP PUSH2 0x3CB9 DUP3 PUSH2 0x47D1 JUMP JUMPDEST PUSH1 0x20 DUP3 ADD SWAP1 POP SWAP2 SWAP1 POP JUMP JUMPDEST PUSH1 0x0 PUSH2 0x3CD1 PUSH1 0x1B DUP4 PUSH2 0x432F JUMP JUMPDEST SWAP2 POP PUSH2 0x3CDC DUP3 PUSH2 0x47FA JUMP JUMPDEST PUSH1 0x20 DUP3 ADD SWAP1 POP SWAP2 SWAP1 POP JUMP JUMPDEST PUSH1 0x0 PUSH2 0x3CF4 PUSH1 0x42 DUP4 PUSH2 0x432F JUMP JUMPDEST SWAP2 POP PUSH2 0x3CFF DUP3 PUSH2 0x4823 JUMP JUMPDEST PUSH1 0x60 DUP3 ADD SWAP1 POP SWAP2 SWAP1 POP JUMP JUMPDEST PUSH1 0x0 PUSH2 0x3D17 PUSH1 0x1F DUP4 PUSH2 0x432F JUMP JUMPDEST SWAP2 POP PUSH2 0x3D22 DUP3 PUSH2 0x4898 JUMP JUMPDEST PUSH1 0x20 DUP3 ADD SWAP1 POP SWAP2 SWAP1 POP JUMP JUMPDEST PUSH1 0x0 PUSH2 0x3D3A PUSH1 0x18 DUP4 PUSH2 0x432F JUMP JUMPDEST SWAP2 POP PUSH2 0x3D45 DUP3 PUSH2 0x48C1 JUMP JUMPDEST PUSH1 0x20 DUP3 ADD SWAP1 POP SWAP2 SWAP1 POP JUMP JUMPDEST PUSH1 0x0 PUSH2 0x3D5D PUSH1 0x17 DUP4 PUSH2 0x432F JUMP JUMPDEST SWAP2 POP PUSH2 0x3D68 DUP3 PUSH2 0x48EA JUMP JUMPDEST PUSH1 0x20 DUP3 ADD SWAP1 POP SWAP2 SWAP1 POP JUMP JUMPDEST PUSH1 0x0 PUSH2 0x3D80 PUSH1 0x29 DUP4 PUSH2 0x432F JUMP JUMPDEST SWAP2 POP PUSH2 0x3D8B DUP3 PUSH2 0x4913 JUMP JUMPDEST PUSH1 0x40 DUP3 ADD SWAP1 POP SWAP2 SWAP1 POP JUMP JUMPDEST PUSH1 0x0 PUSH2 0x3DA3 PUSH1 0x3A DUP4 PUSH2 0x432F JUMP JUMPDEST SWAP2 POP PUSH2 0x3DAE DUP3 PUSH2 0x4962 JUMP JUMPDEST PUSH1 0x40 DUP3 ADD SWAP1 POP SWAP2 SWAP1 POP JUMP JUMPDEST PUSH1 0x0 PUSH2 0x3DC6 PUSH1 0x36 DUP4 PUSH2 0x432F JUMP JUMPDEST SWAP2 POP PUSH2 0x3DD1 DUP3 PUSH2 0x49B1 JUMP JUMPDEST PUSH1 0x40 DUP3 ADD SWAP1 POP SWAP2 SWAP1 POP JUMP JUMPDEST PUSH2 0x3DE5 DUP2 PUSH2 0x44AF JUMP JUMPDEST DUP3 MSTORE POP POP JUMP JUMPDEST PUSH2 0x3DF4 DUP2 PUSH2 0x44B9 JUMP JUMPDEST DUP3 MSTORE POP POP JUMP JUMPDEST PUSH1 0x0 PUSH1 0x20 DUP3 ADD SWAP1 POP PUSH2 0x3E0F PUSH1 0x0 DUP4 ADD DUP5 PUSH2 0x3B46 JUMP JUMPDEST SWAP3 SWAP2 POP POP JUMP JUMPDEST PUSH1 0x0 PUSH1 0x20 DUP3 ADD SWAP1 POP PUSH2 0x3E2A PUSH1 0x0 DUP4 ADD DUP5 PUSH2 0x3B55 JUMP JUMPDEST SWAP3 SWAP2 POP POP JUMP JUMPDEST PUSH1 0x0 PUSH1 0x20 DUP3 ADD SWAP1 POP DUP2 DUP2 SUB PUSH1 0x0 DUP4 ADD MSTORE PUSH2 0x3E4A DUP2 DUP5 PUSH2 0x3B73 JUMP JUMPDEST SWAP1 POP SWAP3 SWAP2 POP POP JUMP JUMPDEST PUSH1 0x0 PUSH2 0x180 DUP3 ADD SWAP1 POP DUP2 DUP2 SUB PUSH1 0x0 DUP4 ADD MSTORE PUSH2 0x3E6D DUP2 DUP16 PUSH2 0x3B73 JUMP JUMPDEST SWAP1 POP PUSH2 0x3E7C PUSH1 0x20 DUP4 ADD DUP15 PUSH2 0x3DDC JUMP JUMPDEST DUP2 DUP2 SUB PUSH1 0x40 DUP4 ADD MSTORE PUSH2 0x3E8E DUP2 DUP14 PUSH2 0x3B73 JUMP JUMPDEST SWAP1 POP PUSH2 0x3E9D PUSH1 0x60 DUP4 ADD DUP13 PUSH2 0x3DDC JUMP JUMPDEST DUP2 DUP2 SUB PUSH1 0x80 DUP4 ADD MSTORE PUSH2 0x3EAF DUP2 DUP12 PUSH2 0x3B73 JUMP JUMPDEST SWAP1 POP PUSH2 0x3EBE PUSH1 0xA0 DUP4 ADD DUP11 PUSH2 0x3DDC JUMP JUMPDEST DUP2 DUP2 SUB PUSH1 0xC0 DUP4 ADD MSTORE PUSH2 0x3ED0 DUP2 DUP10 PUSH2 0x3B73 JUMP JUMPDEST SWAP1 POP PUSH2 0x3EDF PUSH1 0xE0 DUP4 ADD DUP9 PUSH2 0x3DDC JUMP JUMPDEST DUP2 DUP2 SUB PUSH2 0x100 DUP4 ADD MSTORE PUSH2 0x3EF2 DUP2 DUP8 PUSH2 0x3B73 JUMP JUMPDEST SWAP1 POP PUSH2 0x3F02 PUSH2 0x120 DUP4 ADD DUP7 PUSH2 0x3DDC JUMP JUMPDEST DUP2 DUP2 SUB PUSH2 0x140 DUP4 ADD MSTORE PUSH2 0x3F15 DUP2 DUP6 PUSH2 0x3B73 JUMP JUMPDEST SWAP1 POP PUSH2 0x3F25 PUSH2 0x160 DUP4 ADD DUP5 PUSH2 0x3DDC JUMP JUMPDEST SWAP14 SWAP13 POP POP POP POP POP POP POP POP POP POP POP POP POP JUMP JUMPDEST PUSH1 0x0 PUSH1 0x20 DUP3 ADD SWAP1 POP DUP2 DUP2 SUB PUSH1 0x0 DUP4 ADD MSTORE PUSH2 0x3F4F DUP2 PUSH2 0x3BAC JUMP JUMPDEST SWAP1 POP SWAP2 SWAP1 POP JUMP JUMPDEST PUSH1 0x0 PUSH1 0x20 DUP3 ADD SWAP1 POP DUP2 DUP2 SUB PUSH1 0x0 DUP4 ADD MSTORE PUSH2 0x3F6F DUP2 PUSH2 0x3BCF JUMP JUMPDEST SWAP1 POP SWAP2 SWAP1 POP JUMP JUMPDEST PUSH1 0x0 PUSH1 0x20 DUP3 ADD SWAP1 POP DUP2 DUP2 SUB PUSH1 0x0 DUP4 ADD MSTORE PUSH2 0x3F8F DUP2 PUSH2 0x3BF2 JUMP JUMPDEST SWAP1 POP SWAP2 SWAP1 POP JUMP JUMPDEST PUSH1 0x0 PUSH1 0x20 DUP3 ADD SWAP1 POP DUP2 DUP2 SUB PUSH1 0x0 DUP4 ADD MSTORE PUSH2 0x3FAF DUP2 PUSH2 0x3C15 JUMP JUMPDEST SWAP1 POP SWAP2 SWAP1 POP JUMP JUMPDEST PUSH1 0x0 PUSH1 0x20 DUP3 ADD SWAP1 POP DUP2 DUP2 SUB PUSH1 0x0 DUP4 ADD MSTORE PUSH2 0x3FCF DUP2 PUSH2 0x3C38 JUMP JUMPDEST SWAP1 POP SWAP2 SWAP1 POP JUMP JUMPDEST PUSH1 0x0 PUSH1 0x20 DUP3 ADD SWAP1 POP DUP2 DUP2 SUB PUSH1 0x0 DUP4 ADD MSTORE PUSH2 0x3FEF DUP2 PUSH2 0x3C5B JUMP JUMPDEST SWAP1 POP SWAP2 SWAP1 POP JUMP JUMPDEST PUSH1 0x0 PUSH1 0x20 DUP3 ADD SWAP1 POP DUP2 DUP2 SUB PUSH1 0x0 DUP4 ADD MSTORE PUSH2 0x400F DUP2 PUSH2 0x3C7E JUMP JUMPDEST SWAP1 POP SWAP2 SWAP1 POP JUMP JUMPDEST PUSH1 0x0 PUSH1 0x20 DUP3 ADD SWAP1 POP DUP2 DUP2 SUB PUSH1 0x0 DUP4 ADD MSTORE PUSH2 0x402F DUP2 PUSH2 0x3CA1 JUMP JUMPDEST SWAP1 POP SWAP2 SWAP1 POP JUMP JUMPDEST PUSH1 0x0 PUSH1 0x20 DUP3 ADD SWAP1 POP DUP2 DUP2 SUB PUSH1 0x0 DUP4 ADD MSTORE PUSH2 0x404F DUP2 PUSH2 0x3CC4 JUMP JUMPDEST SWAP1 POP SWAP2 SWAP1 POP JUMP JUMPDEST PUSH1 0x0 PUSH1 0x20 DUP3 ADD SWAP1 POP DUP2 DUP2 SUB PUSH1 0x0 DUP4 ADD MSTORE PUSH2 0x406F DUP2 PUSH2 0x3CE7 JUMP JUMPDEST SWAP1 POP SWAP2 SWAP1 POP JUMP JUMPDEST PUSH1 0x0 PUSH1 0x20 DUP3 ADD SWAP1 POP DUP2 DUP2 SUB PUSH1 0x0 DUP4 ADD MSTORE PUSH2 0x408F DUP2 PUSH2 0x3D0A JUMP JUMPDEST SWAP1 POP SWAP2 SWAP1 POP JUMP JUMPDEST PUSH1 0x0 PUSH1 0x20 DUP3 ADD SWAP1 POP DUP2 DUP2 SUB PUSH1 0x0 DUP4 ADD MSTORE PUSH2 0x40AF DUP2 PUSH2 0x3D2D JUMP JUMPDEST SWAP1 POP SWAP2 SWAP1 POP JUMP JUMPDEST PUSH1 0x0 PUSH1 0x20 DUP3 ADD SWAP1 POP DUP2 DUP2 SUB PUSH1 0x0 DUP4 ADD MSTORE PUSH2 0x40CF DUP2 PUSH2 0x3D50 JUMP JUMPDEST SWAP1 POP SWAP2 SWAP1 POP JUMP JUMPDEST PUSH1 0x0 PUSH1 0x20 DUP3 ADD SWAP1 POP DUP2 DUP2 SUB PUSH1 0x0 DUP4 ADD MSTORE PUSH2 0x40EF DUP2 PUSH2 0x3D73 JUMP JUMPDEST SWAP1 POP SWAP2 SWAP1 POP JUMP JUMPDEST PUSH1 0x0 PUSH1 0x20 DUP3 ADD SWAP1 POP DUP2 DUP2 SUB PUSH1 0x0 DUP4 ADD MSTORE PUSH2 0x410F DUP2 PUSH2 0x3D96 JUMP JUMPDEST SWAP1 POP SWAP2 SWAP1 POP JUMP JUMPDEST PUSH1 0x0 PUSH1 0x20 DUP3 ADD SWAP1 POP DUP2 DUP2 SUB PUSH1 0x0 DUP4 ADD MSTORE PUSH2 0x412F DUP2 PUSH2 0x3DB9 JUMP JUMPDEST SWAP1 POP SWAP2 SWAP1 POP JUMP JUMPDEST PUSH1 0x0 PUSH2 0x120 DUP3 ADD SWAP1 POP PUSH2 0x414C PUSH1 0x0 DUP4 ADD DUP13 PUSH2 0x3DDC JUMP JUMPDEST PUSH2 0x4159 PUSH1 0x20 DUP4 ADD DUP12 PUSH2 0x3DDC JUMP JUMPDEST PUSH2 0x4166 PUSH1 0x40 DUP4 ADD DUP11 PUSH2 0x3DDC JUMP JUMPDEST PUSH2 0x4173 PUSH1 0x60 DUP4 ADD DUP10 PUSH2 0x3DDC JUMP JUMPDEST PUSH2 0x4180 PUSH1 0x80 DUP4 ADD DUP9 PUSH2 0x3DDC JUMP JUMPDEST PUSH2 0x418D PUSH1 0xA0 DUP4 ADD DUP8 PUSH2 0x3DDC JUMP JUMPDEST PUSH2 0x419A PUSH1 0xC0 DUP4 ADD DUP7 PUSH2 0x3DDC JUMP JUMPDEST PUSH2 0x41A7 PUSH1 0xE0 DUP4 ADD DUP6 PUSH2 0x3DDC JUMP JUMPDEST PUSH2 0x41B5 PUSH2 0x100 DUP4 ADD DUP5 PUSH2 0x3DDC JUMP JUMPDEST SWAP11 SWAP10 POP POP POP POP POP POP POP POP POP POP JUMP JUMPDEST PUSH1 0x0 PUSH2 0x100 DUP3 ADD SWAP1 POP PUSH2 0x41D9 PUSH1 0x0 DUP4 ADD DUP12 PUSH2 0x3DDC JUMP JUMPDEST PUSH2 0x41E6 PUSH1 0x20 DUP4 ADD DUP11 PUSH2 0x3DDC JUMP JUMPDEST PUSH2 0x41F3 PUSH1 0x40 DUP4 ADD DUP10 PUSH2 0x3DEB JUMP JUMPDEST PUSH2 0x4200 PUSH1 0x60 DUP4 ADD DUP9 PUSH2 0x3DEB JUMP JUMPDEST PUSH2 0x420D PUSH1 0x80 DUP4 ADD DUP8 PUSH2 0x3B55 JUMP JUMPDEST PUSH2 0x421A PUSH1 0xA0 DUP4 ADD DUP7 PUSH2 0x3B37 JUMP JUMPDEST PUSH2 0x4227 PUSH1 0xC0 DUP4 ADD DUP6 PUSH2 0x3B46 JUMP JUMPDEST PUSH2 0x4234 PUSH1 0xE0 DUP4 ADD DUP5 PUSH2 0x3B64 JUMP JUMPDEST SWAP10 SWAP9 POP POP POP POP POP POP POP POP POP JUMP JUMPDEST PUSH1 0x0 PUSH2 0x120 DUP3 ADD SWAP1 POP PUSH2 0x4257 PUSH1 0x0 DUP4 ADD DUP13 PUSH2 0x3DDC JUMP JUMPDEST PUSH2 0x4264 PUSH1 0x20 DUP4 ADD DUP12 PUSH2 0x3DDC JUMP JUMPDEST PUSH2 0x4271 PUSH1 0x40 DUP4 ADD DUP11 PUSH2 0x3DEB JUMP JUMPDEST PUSH2 0x427E PUSH1 0x60 DUP4 ADD DUP10 PUSH2 0x3DEB JUMP JUMPDEST PUSH2 0x428B PUSH1 0x80 DUP4 ADD DUP9 PUSH2 0x3B55 JUMP JUMPDEST PUSH2 0x4298 PUSH1 0xA0 DUP4 ADD DUP8 PUSH2 0x3B46 JUMP JUMPDEST PUSH2 0x42A5 PUSH1 0xC0 DUP4 ADD DUP7 PUSH2 0x3B46 JUMP JUMPDEST PUSH2 0x42B2 PUSH1 0xE0 DUP4 ADD DUP6 PUSH2 0x3B46 JUMP JUMPDEST PUSH2 0x42C0 PUSH2 0x100 DUP4 ADD DUP5 PUSH2 0x3B64 JUMP JUMPDEST SWAP11 SWAP10 POP POP POP POP POP POP POP POP POP POP JUMP JUMPDEST PUSH1 0x0 PUSH2 0x42D8 PUSH2 0x42E9 JUMP JUMPDEST SWAP1 POP PUSH2 0x42E4 DUP3 DUP3 PUSH2 0x4508 JUMP JUMPDEST SWAP2 SWAP1 POP JUMP JUMPDEST PUSH1 0x0 PUSH1 0x40 MLOAD SWAP1 POP SWAP1 JUMP JUMPDEST PUSH1 0x0 PUSH8 0xFFFFFFFFFFFFFFFF DUP3 GT ISZERO PUSH2 0x430E JUMPI PUSH2 0x430D PUSH2 0x45C6 JUMP JUMPDEST JUMPDEST PUSH2 0x4317 DUP3 PUSH2 0x4609 JUMP JUMPDEST SWAP1 POP PUSH1 0x20 DUP2 ADD SWAP1 POP SWAP2 SWAP1 POP JUMP JUMPDEST PUSH1 0x0 DUP2 MLOAD SWAP1 POP SWAP2 SWAP1 POP JUMP JUMPDEST PUSH1 0x0 DUP3 DUP3 MSTORE PUSH1 0x20 DUP3 ADD SWAP1 POP SWAP3 SWAP2 POP POP JUMP JUMPDEST PUSH1 0x0 PUSH2 0x434B DUP3 PUSH2 0x44AF JUMP JUMPDEST SWAP2 POP PUSH2 0x4356 DUP4 PUSH2 0x44AF JUMP JUMPDEST SWAP3 POP DUP3 PUSH32 0xFFFFFFFFFFFFFFFFFFFFFFFFFFFFFFFFFFFFFFFFFFFFFFFFFFFFFFFFFFFFFFFF SUB DUP3 GT ISZERO PUSH2 0x438B JUMPI PUSH2 0x438A PUSH2 0x4539 JUMP JUMPDEST JUMPDEST DUP3 DUP3 ADD SWAP1 POP SWAP3 SWAP2 POP POP JUMP JUMPDEST PUSH1 0x0 PUSH2 0x43A1 DUP3 PUSH2 0x44AF JUMP JUMPDEST SWAP2 POP PUSH2 0x43AC DUP4 PUSH2 0x44AF JUMP JUMPDEST SWAP3 POP DUP3 PUSH2 0x43BC JUMPI PUSH2 0x43BB PUSH2 0x4568 JUMP JUMPDEST JUMPDEST DUP3 DUP3 DIV SWAP1 POP SWAP3 SWAP2 POP POP JUMP JUMPDEST PUSH1 0x0 PUSH2 0x43D2 DUP3 PUSH2 0x44AF JUMP JUMPDEST SWAP2 POP PUSH2 0x43DD DUP4 PUSH2 0x44AF JUMP JUMPDEST SWAP3 POP DUP2 PUSH32 0xFFFFFFFFFFFFFFFFFFFFFFFFFFFFFFFFFFFFFFFFFFFFFFFFFFFFFFFFFFFFFFFF DIV DUP4 GT DUP3 ISZERO ISZERO AND ISZERO PUSH2 0x4416 JUMPI PUSH2 0x4415 PUSH2 0x4539 JUMP JUMPDEST JUMPDEST DUP3 DUP3 MUL SWAP1 POP SWAP3 SWAP2 POP POP JUMP JUMPDEST PUSH1 0x0 PUSH2 0x442C DUP3 PUSH2 0x44AF JUMP JUMPDEST SWAP2 POP PUSH2 0x4437 DUP4 PUSH2 0x44AF JUMP JUMPDEST SWAP3 POP DUP3 DUP3 LT ISZERO PUSH2 0x444A JUMPI PUSH2 0x4449 PUSH2 0x4539 JUMP JUMPDEST JUMPDEST DUP3 DUP3 SUB SWAP1 POP SWAP3 SWAP2 POP POP JUMP JUMPDEST PUSH1 0x0 PUSH2 0x4460 DUP3 PUSH2 0x448F JUMP JUMPDEST SWAP1 POP SWAP2 SWAP1 POP JUMP JUMPDEST PUSH1 0x0 PUSH2 0x4472 DUP3 PUSH2 0x448F JUMP JUMPDEST SWAP1 POP SWAP2 SWAP1 POP JUMP JUMPDEST PUSH1 0x0 DUP2 ISZERO ISZERO SWAP1 POP SWAP2 SWAP1 POP JUMP JUMPDEST PUSH1 0x0 DUP2 SWAP1 POP SWAP2 SWAP1 POP JUMP JUMPDEST PUSH1 0x0 PUSH20 0xFFFFFFFFFFFFFFFFFFFFFFFFFFFFFFFFFFFFFFFF DUP3 AND SWAP1 POP SWAP2 SWAP1 POP JUMP JUMPDEST PUSH1 0x0 DUP2 SWAP1 POP SWAP2 SWAP1 POP JUMP JUMPDEST PUSH1 0x0 PUSH1 0xFF DUP3 AND SWAP1 POP SWAP2 SWAP1 POP JUMP JUMPDEST DUP3 DUP2 DUP4 CALLDATACOPY PUSH1 0x0 DUP4 DUP4 ADD MSTORE POP POP POP JUMP JUMPDEST PUSH1 0x0 JUMPDEST DUP4 DUP2 LT ISZERO PUSH2 0x44F3 JUMPI DUP1 DUP3 ADD MLOAD DUP2 DUP5 ADD MSTORE PUSH1 0x20 DUP2 ADD SWAP1 POP PUSH2 0x44D8 JUMP JUMPDEST DUP4 DUP2 GT ISZERO PUSH2 0x4502 JUMPI PUSH1 0x0 DUP5 DUP5 ADD MSTORE JUMPDEST POP POP POP POP JUMP JUMPDEST PUSH2 0x4511 DUP3 PUSH2 0x4609 JUMP JUMPDEST DUP2 ADD DUP2 DUP2 LT PUSH8 0xFFFFFFFFFFFFFFFF DUP3 GT OR ISZERO PUSH2 0x4530 JUMPI PUSH2 0x452F PUSH2 0x45C6 JUMP JUMPDEST JUMPDEST DUP1 PUSH1 0x40 MSTORE POP POP POP JUMP JUMPDEST PUSH32 0x4E487B7100000000000000000000000000000000000000000000000000000000 PUSH1 0x0 MSTORE PUSH1 0x11 PUSH1 0x4 MSTORE PUSH1 0x24 PUSH1 0x0 REVERT JUMPDEST PUSH32 0x4E487B7100000000000000000000000000000000000000000000000000000000 PUSH1 0x0 MSTORE PUSH1 0x12 PUSH1 0x4 MSTORE PUSH1 0x24 PUSH1 0x0 REVERT JUMPDEST PUSH32 0x4E487B7100000000000000000000000000000000000000000000000000000000 PUSH1 0x0 MSTORE PUSH1 0x32 PUSH1 0x4 MSTORE PUSH1 0x24 PUSH1 0x0 REVERT JUMPDEST PUSH32 0x4E487B7100000000000000000000000000000000000000000000000000000000 PUSH1 0x0 MSTORE PUSH1 0x41 PUSH1 0x4 MSTORE PUSH1 0x24 PUSH1 0x0 REVERT JUMPDEST PUSH1 0x0 DUP1 REVERT JUMPDEST PUSH1 0x0 DUP1 REVERT JUMPDEST PUSH1 0x0 DUP1 REVERT JUMPDEST PUSH1 0x0 DUP1 REVERT JUMPDEST PUSH1 0x0 PUSH1 0x1F NOT PUSH1 0x1F DUP4 ADD AND SWAP1 POP SWAP2 SWAP1 POP JUMP JUMPDEST PUSH32 0x4964436865636B3A20496E76616C696420544D4D205F69640000000000000000 PUSH1 0x0 DUP3 ADD MSTORE POP JUMP JUMPDEST PUSH32 0x43616C6C6572206973206E6F74206F776E657200000000000000000000000000 PUSH1 0x0 DUP3 ADD MSTORE POP JUMP JUMPDEST PUSH32 0x53696B6B65724D6174682F50657263656E746167653A206F6E65206F66207468 PUSH1 0x0 DUP3 ADD MSTORE PUSH32 0x6520617267756D656E7473206973206E756C6C00000000000000000000000000 PUSH1 0x20 DUP3 ADD MSTORE POP JUMP JUMPDEST PUSH32 0x5F55736543453A204E6F7420656E6F7567682076616C7565207761732073656E PUSH1 0x0 DUP3 ADD MSTORE PUSH32 0x7400000000000000000000000000000000000000000000000000000000000000 PUSH1 0x20 DUP3 ADD MSTORE POP JUMP JUMPDEST PUSH32 0x4368616E6765466565733A205F7768656E206973206E6569746865722030206F PUSH1 0x0 DUP3 ADD MSTORE PUSH32 0x7220310000000000000000000000000000000000000000000000000000000000 PUSH1 0x20 DUP3 ADD MSTORE POP JUMP JUMPDEST PUSH32 0x57726F6E672070617373776F726420656E74657265642E000000000000000000 PUSH1 0x0 DUP3 ADD MSTORE POP JUMP JUMPDEST PUSH32 0x537461747573206572726F722C2074686973207469636B657420697320636C6F PUSH1 0x0 DUP3 ADD MSTORE PUSH32 0x7365642E00000000000000000000000000000000000000000000000000000000 PUSH1 0x20 DUP3 ADD MSTORE POP JUMP JUMPDEST PUSH32 0x4964436865636B3A20496E76616C6964204345205F6964000000000000000000 PUSH1 0x0 DUP3 ADD MSTORE POP JUMP JUMPDEST PUSH32 0x4964436865636B3A2057726F6E67207479706520656E74657265640000000000 PUSH1 0x0 DUP3 ADD MSTORE POP JUMP JUMPDEST PUSH32 0x4F6E6C7952656365697665723A20596F7520617265206E6F7420746865206C65 PUSH1 0x0 DUP3 ADD MSTORE PUSH32 0x676974696D61746520726563656976657220666F722074686973207469636B65 PUSH1 0x20 DUP3 ADD MSTORE PUSH32 0x742E000000000000000000000000000000000000000000000000000000000000 PUSH1 0x40 DUP3 ADD MSTORE POP JUMP JUMPDEST PUSH32 0x4368616E6765446973636F756E743A2077726F6E6720617267756D656E747300 PUSH1 0x0 DUP3 ADD MSTORE POP JUMP JUMPDEST PUSH32 0x4964436865636B3A205F6964206D757374206265203E20300000000000000000 PUSH1 0x0 DUP3 ADD MSTORE POP JUMP JUMPDEST PUSH32 0x537461747573436865636B3A2057726F6E672074797065000000000000000000 PUSH1 0x0 DUP3 ADD MSTORE POP JUMP JUMPDEST PUSH32 0x4F6E6C7950617965723A20596F752068617665206E6F2072696768747320746F PUSH1 0x0 DUP3 ADD MSTORE PUSH32 0x20646F20746869732E0000000000000000000000000000000000000000000000 PUSH1 0x20 DUP3 ADD MSTORE POP JUMP JUMPDEST PUSH32 0x506179546865446576733A205F616D6F756E74206973206E756C6C206F722068 PUSH1 0x0 DUP3 ADD MSTORE PUSH32 0x6967686572207468616E2053696B6B657227732070726F666974000000000000 PUSH1 0x20 DUP3 ADD MSTORE POP JUMP JUMPDEST PUSH32 0x5F4C6F636B43453A2043616E206E6F74206C6F636B2061207469636B65742074 PUSH1 0x0 DUP3 ADD MSTORE PUSH32 0x686174206973206E6F742074696D656C6F636B65642E00000000000000000000 PUSH1 0x20 DUP3 ADD MSTORE POP JUMP JUMPDEST PUSH2 0x4A09 DUP2 PUSH2 0x4455 JUMP JUMPDEST DUP2 EQ PUSH2 0x4A14 JUMPI PUSH1 0x0 DUP1 REVERT JUMPDEST POP JUMP JUMPDEST PUSH2 0x4A20 DUP2 PUSH2 0x4467 JUMP JUMPDEST DUP2 EQ PUSH2 0x4A2B JUMPI PUSH1 0x0 DUP1 REVERT JUMPDEST POP JUMP JUMPDEST PUSH2 0x4A37 DUP2 PUSH2 0x44AF JUMP JUMPDEST DUP2 EQ PUSH2 0x4A42 JUMPI PUSH1 0x0 DUP1 REVERT JUMPDEST POP JUMP JUMPDEST PUSH2 0x4A4E DUP2 PUSH2 0x44B9 JUMP JUMPDEST DUP2 EQ PUSH2 0x4A59 JUMPI PUSH1 0x0 DUP1 REVERT JUMPDEST POP JUMP INVALID SLOAD PUSH16 0x74616C2076616C75652061637475616C PUSH13 0x79206C6F636B6564206F6E2054 0x4D 0x4D GASPRICE PUSH14 0x73672E73656E646572206973206E PUSH16 0x77207468652064657369676E61746564 KECCAK256 PUSH19 0x656365697665722E546F74616C2076616C7565 KECCAK256 PUSH2 0x6374 PUSH22 0x616C6C79206C6F636B6564206F6E2043453AA2646970 PUSH7 0x73582212204622 0x29 0xDA 0xCC PUSH28 0x973B8F77F71E270FA070A14064CFDC0E91D3C03AA33EAFB2D5CB6473 PUSH16 0x6C634300080700330000000000000000 "
		},
		"gasEstimates": {
			"creation": {
				"codeDepositCost": "3840200",
				"executionCost": "396961",
				"totalCost": "4237161"
			},
			"external": {
				"CE_Stats()": "infinite",
				"ChangeDiscount(uint256,uint8)": "49263",
				"ChangeFees(uint8,uint8,uint8)": "infinite",
				"PayTheDevs(uint256,address)": "infinite",
				"Sikker_Stats()": "infinite",
				"TMM_Stats()": "infinite",
				"_ApproveCE(uint256)": "infinite",
				"_CE_Tickets(uint256)": "infinite",
				"_CloseCE(uint256)": "infinite",
				"_CloseTMM(uint256)": "infinite",
				"_FillCE(string,uint256)": "infinite",
				"_LockCE(uint256)": "infinite",
				"_LockTMM(uint256)": "infinite",
				"_TMM_Tickets(uint256)": "infinite",
				"_UseTMM(string,uint256)": "infinite",
				"changeOwner(address)": "30634",
				"getOwner()": "2611"
			}
		},
		"methodIdentifiers": {
			"CE_Stats()": "22a023aa",
			"ChangeDiscount(uint256,uint8)": "72e402c5",
			"ChangeFees(uint8,uint8,uint8)": "3e4db85d",
			"PayTheDevs(uint256,address)": "cad68b04",
			"Sikker_Stats()": "06e2335d",
			"TMM_Stats()": "c843a8a4",
			"_ApproveCE(uint256)": "b162144d",
			"_CE_Tickets(uint256)": "8a521c60",
			"_CloseCE(uint256)": "2a69d6af",
			"_CloseTMM(uint256)": "c26a6490",
			"_FillCE(string,uint256)": "3bf91428",
			"_LockCE(uint256)": "a25dbe5c",
			"_LockTMM(uint256)": "d9f5b9dc",
			"_TMM_Tickets(uint256)": "29573143",
			"_UseTMM(string,uint256)": "d1157451",
			"changeOwner(address)": "a6f9dae1",
			"getOwner()": "893d20e8"
		}
	},
	"abi": [
		{
			"anonymous": false,
			"inputs": [
				{
					"indexed": false,
					"internalType": "uint256",
					"name": "_id",
					"type": "uint256"
				},
				{
					"indexed": false,
					"internalType": "string",
					"name": "_type",
					"type": "string"
				},
				{
					"indexed": false,
					"internalType": "uint256",
					"name": "_amount",
					"type": "uint256"
				},
				{
					"indexed": false,
					"internalType": "address",
					"name": "_payer",
					"type": "address"
				},
				{
					"indexed": false,
					"internalType": "bool",
					"name": "_isTimeBlocked",
					"type": "bool"
				},
				{
					"indexed": false,
					"internalType": "uint8",
					"name": "_lostPercent",
					"type": "uint8"
				}
			],
			"name": "ClosedTicket",
			"type": "event"
		},
		{
			"anonymous": false,
			"inputs": [
				{
					"indexed": false,
					"internalType": "uint256",
					"name": "_id",
					"type": "uint256"
				},
				{
					"indexed": false,
					"internalType": "string",
					"name": "_type",
					"type": "string"
				},
				{
					"indexed": false,
					"internalType": "uint256",
					"name": "_amount",
					"type": "uint256"
				},
				{
					"indexed": false,
					"internalType": "address",
					"name": "_creator",
					"type": "address"
				},
				{
					"indexed": false,
					"internalType": "bool",
					"name": "_designatedReceiver",
					"type": "bool"
				},
				{
					"indexed": false,
					"internalType": "address",
					"name": "_receiver",
					"type": "address"
				},
				{
					"indexed": false,
					"internalType": "uint8",
					"name": "_lossPercent",
					"type": "uint8"
				}
			],
			"name": "CreatedTicket",
			"type": "event"
		},
		{
			"anonymous": false,
			"inputs": [
				{
					"indexed": false,
					"internalType": "uint256",
					"name": "_id",
					"type": "uint256"
				},
				{
					"indexed": false,
					"internalType": "uint256",
					"name": "_amount",
					"type": "uint256"
				},
				{
					"indexed": false,
					"internalType": "address",
					"name": "_creator",
					"type": "address"
				},
				{
					"indexed": false,
					"internalType": "address",
					"name": "_payer",
					"type": "address"
				},
				{
					"indexed": false,
					"internalType": "address",
					"name": "_receiver",
					"type": "address"
				}
			],
			"name": "FilledCE",
			"type": "event"
		},
		{
			"anonymous": false,
			"inputs": [
				{
					"indexed": true,
					"internalType": "address",
					"name": "oldOwner",
					"type": "address"
				},
				{
					"indexed": true,
					"internalType": "address",
					"name": "newOwner",
					"type": "address"
				}
			],
			"name": "OwnerSet",
			"type": "event"
		},
		{
			"anonymous": false,
			"inputs": [
				{
					"indexed": false,
					"internalType": "uint256",
					"name": "_id",
					"type": "uint256"
				},
				{
					"indexed": false,
					"internalType": "uint256",
					"name": "_totalAmount",
					"type": "uint256"
				},
				{
					"indexed": false,
					"internalType": "uint256",
					"name": "_sentAmount",
					"type": "uint256"
				},
				{
					"indexed": false,
					"internalType": "address",
					"name": "_creator",
					"type": "address"
				},
				{
					"indexed": false,
					"internalType": "address",
					"name": "_payer",
					"type": "address"
				},
				{
					"indexed": false,
					"internalType": "address",
					"name": "_receiver",
					"type": "address"
				}
			],
			"name": "SentHalfATY",
			"type": "event"
		},
		{
			"inputs": [],
			"name": "CE_Stats",
			"outputs": [
				{
					"internalType": "string",
					"name": "",
					"type": "string"
				},
				{
					"internalType": "uint256",
					"name": "",
					"type": "uint256"
				},
				{
					"internalType": "string",
					"name": "",
					"type": "string"
				},
				{
					"internalType": "uint256",
					"name": "",
					"type": "uint256"
				},
				{
					"internalType": "string",
					"name": "",
					"type": "string"
				},
				{
					"internalType": "uint256",
					"name": "",
					"type": "uint256"
				},
				{
					"internalType": "string",
					"name": "",
					"type": "string"
				},
				{
					"internalType": "uint256",
					"name": "",
					"type": "uint256"
				},
				{
					"internalType": "string",
					"name": "",
					"type": "string"
				},
				{
					"internalType": "uint256",
					"name": "",
					"type": "uint256"
				},
				{
					"internalType": "string",
					"name": "",
					"type": "string"
				},
				{
					"internalType": "uint256",
					"name": "",
					"type": "uint256"
				}
			],
			"stateMutability": "view",
			"type": "function"
		},
		{
			"inputs": [
				{
					"internalType": "uint256",
					"name": "_triggerAmount",
					"type": "uint256"
				},
				{
					"internalType": "uint8",
					"name": "_discount",
					"type": "uint8"
				}
			],
			"name": "ChangeDiscount",
			"outputs": [],
			"stateMutability": "nonpayable",
			"type": "function"
		},
		{
			"inputs": [
				{
					"internalType": "uint8",
					"name": "_when",
					"type": "uint8"
				},
				{
					"internalType": "uint8",
					"name": "_percent",
					"type": "uint8"
				},
				{
					"internalType": "uint8",
					"name": "_divider",
					"type": "uint8"
				}
			],
			"name": "ChangeFees",
			"outputs": [],
			"stateMutability": "nonpayable",
			"type": "function"
		},
		{
			"inputs": [
				{
					"internalType": "uint256",
					"name": "_amount",
					"type": "uint256"
				},
				{
					"internalType": "address payable",
					"name": "_receiver",
					"type": "address"
				}
			],
			"name": "PayTheDevs",
			"outputs": [],
			"stateMutability": "nonpayable",
			"type": "function"
		},
		{
			"inputs": [],
			"name": "Sikker_Stats",
			"outputs": [
				{
					"internalType": "uint256",
					"name": "",
					"type": "uint256"
				},
				{
					"internalType": "uint256",
					"name": "",
					"type": "uint256"
				},
				{
					"internalType": "uint256",
					"name": "",
					"type": "uint256"
				},
				{
					"internalType": "uint256",
					"name": "",
					"type": "uint256"
				},
				{
					"internalType": "uint256",
					"name": "",
					"type": "uint256"
				},
				{
					"internalType": "uint256",
					"name": "",
					"type": "uint256"
				},
				{
					"internalType": "uint256",
					"name": "",
					"type": "uint256"
				},
				{
					"internalType": "uint256",
					"name": "",
					"type": "uint256"
				},
				{
					"internalType": "uint256",
					"name": "",
					"type": "uint256"
				}
			],
			"stateMutability": "view",
			"type": "function"
		},
		{
			"inputs": [],
			"name": "TMM_Stats",
			"outputs": [
				{
					"internalType": "string",
					"name": "",
					"type": "string"
				},
				{
					"internalType": "uint256",
					"name": "",
					"type": "uint256"
				},
				{
					"internalType": "string",
					"name": "",
					"type": "string"
				},
				{
					"internalType": "uint256",
					"name": "",
					"type": "uint256"
				},
				{
					"internalType": "string",
					"name": "",
					"type": "string"
				},
				{
					"internalType": "uint256",
					"name": "",
					"type": "uint256"
				},
				{
					"internalType": "string",
					"name": "",
					"type": "string"
				},
				{
					"internalType": "uint256",
					"name": "",
					"type": "uint256"
				},
				{
					"internalType": "string",
					"name": "",
					"type": "string"
				},
				{
					"internalType": "uint256",
					"name": "",
					"type": "uint256"
				},
				{
					"internalType": "string",
					"name": "",
					"type": "string"
				},
				{
					"internalType": "uint256",
					"name": "",
					"type": "uint256"
				}
			],
			"stateMutability": "view",
			"type": "function"
		},
		{
			"inputs": [
				{
					"internalType": "uint256",
					"name": "_id",
					"type": "uint256"
				}
			],
			"name": "_ApproveCE",
			"outputs": [
				{
					"internalType": "string",
					"name": "locked",
					"type": "string"
				}
			],
			"stateMutability": "nonpayable",
			"type": "function"
		},
		{
			"inputs": [
				{
					"internalType": "uint256",
					"name": "",
					"type": "uint256"
				}
			],
			"name": "_CE_Tickets",
			"outputs": [
				{
					"internalType": "uint256",
					"name": "Amount",
					"type": "uint256"
				},
				{
					"internalType": "uint256",
					"name": "TimeLock",
					"type": "uint256"
				},
				{
					"internalType": "uint8",
					"name": "Status",
					"type": "uint8"
				},
				{
					"internalType": "uint8",
					"name": "LossPercent",
					"type": "uint8"
				},
				{
					"internalType": "bool",
					"name": "Aty",
					"type": "bool"
				},
				{
					"internalType": "address",
					"name": "Payer",
					"type": "address"
				},
				{
					"internalType": "address",
					"name": "Receiver",
					"type": "address"
				},
				{
					"internalType": "address",
					"name": "Creator",
					"type": "address"
				},
				{
					"internalType": "bytes32",
					"name": "Hash",
					"type": "bytes32"
				}
			],
			"stateMutability": "view",
			"type": "function"
		},
		{
			"inputs": [
				{
					"internalType": "uint256",
					"name": "_id",
					"type": "uint256"
				}
			],
			"name": "_CloseCE",
			"outputs": [
				{
					"internalType": "string",
					"name": "locked",
					"type": "string"
				}
			],
			"stateMutability": "nonpayable",
			"type": "function"
		},
		{
			"inputs": [
				{
					"internalType": "uint256",
					"name": "_id",
					"type": "uint256"
				}
			],
			"name": "_CloseTMM",
			"outputs": [
				{
					"internalType": "string",
					"name": "locked",
					"type": "string"
				}
			],
			"stateMutability": "nonpayable",
			"type": "function"
		},
		{
			"inputs": [
				{
					"internalType": "string",
					"name": "_password",
					"type": "string"
				},
				{
					"internalType": "uint256",
					"name": "_id",
					"type": "uint256"
				}
			],
			"name": "_FillCE",
			"outputs": [
				{
					"internalType": "string",
					"name": "timelocked",
					"type": "string"
				}
			],
			"stateMutability": "payable",
			"type": "function"
		},
		{
			"inputs": [
				{
					"internalType": "uint256",
					"name": "_id",
					"type": "uint256"
				}
			],
			"name": "_LockCE",
			"outputs": [
				{
					"internalType": "bool",
					"name": "",
					"type": "bool"
				}
			],
			"stateMutability": "nonpayable",
			"type": "function"
		},
		{
			"inputs": [
				{
					"internalType": "uint256",
					"name": "_id",
					"type": "uint256"
				}
			],
			"name": "_LockTMM",
			"outputs": [
				{
					"internalType": "bool",
					"name": "",
					"type": "bool"
				}
			],
			"stateMutability": "nonpayable",
			"type": "function"
		},
		{
			"inputs": [
				{
					"internalType": "uint256",
					"name": "",
					"type": "uint256"
				}
			],
			"name": "_TMM_Tickets",
			"outputs": [
				{
					"internalType": "uint256",
					"name": "Amount",
					"type": "uint256"
				},
				{
					"internalType": "uint256",
					"name": "TimeLock",
					"type": "uint256"
				},
				{
					"internalType": "uint8",
					"name": "Status",
					"type": "uint8"
				},
				{
					"internalType": "uint8",
					"name": "LossPercent",
					"type": "uint8"
				},
				{
					"internalType": "bool",
					"name": "DeRe",
					"type": "bool"
				},
				{
					"internalType": "address payable",
					"name": "Receiver",
					"type": "address"
				},
				{
					"internalType": "address",
					"name": "Creator",
					"type": "address"
				},
				{
					"internalType": "bytes32",
					"name": "Hash",
					"type": "bytes32"
				}
			],
			"stateMutability": "view",
			"type": "function"
		},
		{
			"inputs": [
				{
					"internalType": "string",
					"name": "_password",
					"type": "string"
				},
				{
					"internalType": "uint256",
					"name": "_id",
					"type": "uint256"
				}
			],
			"name": "_UseTMM",
			"outputs": [
				{
					"internalType": "string",
					"name": "timelocked",
					"type": "string"
				}
			],
			"stateMutability": "nonpayable",
			"type": "function"
		},
		{
			"inputs": [
				{
					"internalType": "address",
					"name": "newOwner",
					"type": "address"
				}
			],
			"name": "changeOwner",
			"outputs": [],
			"stateMutability": "nonpayable",
			"type": "function"
		},
		{
			"inputs": [],
			"name": "getOwner",
			"outputs": [
				{
					"internalType": "address",
					"name": "",
					"type": "address"
				}
			],
			"stateMutability": "view",
			"type": "function"
		}
	]
}