{
  "contractName": "CreateTickets",
  "abi": [
    {
      "anonymous": false,
      "inputs": [
        {
          "indexed": false,
          "internalType": "uint256",
          "name": "_id",
          "type": "uint256"
        },
        {
          "indexed": false,
          "internalType": "string",
          "name": "_type",
          "type": "string"
        },
        {
          "indexed": false,
          "internalType": "uint256",
          "name": "_amount",
          "type": "uint256"
        },
        {
          "indexed": false,
          "internalType": "address",
          "name": "_payer",
          "type": "address"
        },
        {
          "indexed": false,
          "internalType": "bool",
          "name": "_isTimeBlocked",
          "type": "bool"
        },
        {
          "indexed": false,
          "internalType": "uint8",
          "name": "_lostPercent",
          "type": "uint8"
        }
      ],
      "name": "ClosedTicket",
      "type": "event"
    },
    {
      "anonymous": false,
      "inputs": [
        {
          "indexed": false,
          "internalType": "uint256",
          "name": "_id",
          "type": "uint256"
        },
        {
          "indexed": false,
          "internalType": "string",
          "name": "_type",
          "type": "string"
        },
        {
          "indexed": false,
          "internalType": "uint256",
          "name": "_amount",
          "type": "uint256"
        },
        {
          "indexed": false,
          "internalType": "address",
          "name": "_creator",
          "type": "address"
        },
        {
          "indexed": false,
          "internalType": "bool",
          "name": "_designatedReceiver",
          "type": "bool"
        },
        {
          "indexed": false,
          "internalType": "address",
          "name": "_receiver",
          "type": "address"
        },
        {
          "indexed": false,
          "internalType": "uint8",
          "name": "_lossPercent",
          "type": "uint8"
        }
      ],
      "name": "CreatedTicket",
      "type": "event"
    },
    {
      "anonymous": false,
      "inputs": [
        {
          "indexed": false,
          "internalType": "uint256",
          "name": "_id",
          "type": "uint256"
        },
        {
          "indexed": false,
          "internalType": "uint256",
          "name": "_amount",
          "type": "uint256"
        },
        {
          "indexed": false,
          "internalType": "address",
          "name": "_creator",
          "type": "address"
        },
        {
          "indexed": false,
          "internalType": "address",
          "name": "_payer",
          "type": "address"
        },
        {
          "indexed": false,
          "internalType": "address",
          "name": "_receiver",
          "type": "address"
        }
      ],
      "name": "FilledCE",
      "type": "event"
    },
    {
      "anonymous": false,
      "inputs": [
        {
          "indexed": true,
          "internalType": "address",
          "name": "oldOwner",
          "type": "address"
        },
        {
          "indexed": true,
          "internalType": "address",
          "name": "newOwner",
          "type": "address"
        }
      ],
      "name": "OwnerSet",
      "type": "event"
    },
    {
      "anonymous": false,
      "inputs": [
        {
          "indexed": false,
          "internalType": "uint256",
          "name": "_id",
          "type": "uint256"
        },
        {
          "indexed": false,
          "internalType": "uint256",
          "name": "_totalAmount",
          "type": "uint256"
        },
        {
          "indexed": false,
          "internalType": "uint256",
          "name": "_sentAmount",
          "type": "uint256"
        },
        {
          "indexed": false,
          "internalType": "address",
          "name": "_creator",
          "type": "address"
        },
        {
          "indexed": false,
          "internalType": "address",
          "name": "_payer",
          "type": "address"
        },
        {
          "indexed": false,
          "internalType": "address",
          "name": "_receiver",
          "type": "address"
        }
      ],
      "name": "SentHalfATY",
      "type": "event"
    },
    {
      "inputs": [],
      "name": "CE_Stats",
      "outputs": [
        {
          "internalType": "string",
          "name": "",
          "type": "string"
        },
        {
          "internalType": "uint256",
          "name": "",
          "type": "uint256"
        },
        {
          "internalType": "string",
          "name": "",
          "type": "string"
        },
        {
          "internalType": "uint256",
          "name": "",
          "type": "uint256"
        },
        {
          "internalType": "string",
          "name": "",
          "type": "string"
        },
        {
          "internalType": "uint256",
          "name": "",
          "type": "uint256"
        },
        {
          "internalType": "string",
          "name": "",
          "type": "string"
        },
        {
          "internalType": "uint256",
          "name": "",
          "type": "uint256"
        },
        {
          "internalType": "string",
          "name": "",
          "type": "string"
        },
        {
          "internalType": "uint256",
          "name": "",
          "type": "uint256"
        },
        {
          "internalType": "string",
          "name": "",
          "type": "string"
        },
        {
          "internalType": "uint256",
          "name": "",
          "type": "uint256"
        }
      ],
      "stateMutability": "view",
      "type": "function"
    },
    {
      "inputs": [
        {
          "internalType": "uint256",
          "name": "_triggerAmount",
          "type": "uint256"
        },
        {
          "internalType": "uint8",
          "name": "_discount",
          "type": "uint8"
        }
      ],
      "name": "ChangeDiscount",
      "outputs": [],
      "stateMutability": "nonpayable",
      "type": "function"
    },
    {
      "inputs": [
        {
          "internalType": "uint8",
          "name": "_when",
          "type": "uint8"
        },
        {
          "internalType": "uint8",
          "name": "_percent",
          "type": "uint8"
        },
        {
          "internalType": "uint8",
          "name": "_divider",
          "type": "uint8"
        }
      ],
      "name": "ChangeFees",
      "outputs": [],
      "stateMutability": "nonpayable",
      "type": "function"
    },
    {
      "inputs": [
        {
          "internalType": "uint256",
          "name": "_amount",
          "type": "uint256"
        },
        {
          "internalType": "address payable",
          "name": "_receiver",
          "type": "address"
        }
      ],
      "name": "PayTheDevs",
      "outputs": [],
      "stateMutability": "nonpayable",
      "type": "function"
    },
    {
      "inputs": [],
      "name": "Sikker_Stats",
      "outputs": [
        {
          "internalType": "uint256",
          "name": "",
          "type": "uint256"
        },
        {
          "internalType": "uint256",
          "name": "",
          "type": "uint256"
        },
        {
          "internalType": "uint256",
          "name": "",
          "type": "uint256"
        },
        {
          "internalType": "uint256",
          "name": "",
          "type": "uint256"
        },
        {
          "internalType": "uint256",
          "name": "",
          "type": "uint256"
        },
        {
          "internalType": "uint256",
          "name": "",
          "type": "uint256"
        },
        {
          "internalType": "uint256",
          "name": "",
          "type": "uint256"
        },
        {
          "internalType": "uint256",
          "name": "",
          "type": "uint256"
        },
        {
          "internalType": "uint256",
          "name": "",
          "type": "uint256"
        }
      ],
      "stateMutability": "view",
      "type": "function"
    },
    {
      "inputs": [],
      "name": "TMM_Stats",
      "outputs": [
        {
          "internalType": "string",
          "name": "",
          "type": "string"
        },
        {
          "internalType": "uint256",
          "name": "",
          "type": "uint256"
        },
        {
          "internalType": "string",
          "name": "",
          "type": "string"
        },
        {
          "internalType": "uint256",
          "name": "",
          "type": "uint256"
        },
        {
          "internalType": "string",
          "name": "",
          "type": "string"
        },
        {
          "internalType": "uint256",
          "name": "",
          "type": "uint256"
        },
        {
          "internalType": "string",
          "name": "",
          "type": "string"
        },
        {
          "internalType": "uint256",
          "name": "",
          "type": "uint256"
        },
        {
          "internalType": "string",
          "name": "",
          "type": "string"
        },
        {
          "internalType": "uint256",
          "name": "",
          "type": "uint256"
        },
        {
          "internalType": "string",
          "name": "",
          "type": "string"
        },
        {
          "internalType": "uint256",
          "name": "",
          "type": "uint256"
        }
      ],
      "stateMutability": "view",
      "type": "function"
    },
    {
      "inputs": [
        {
          "internalType": "uint256",
          "name": "",
          "type": "uint256"
        }
      ],
      "name": "_CE_Tickets",
      "outputs": [
        {
          "internalType": "uint256",
          "name": "Amount",
          "type": "uint256"
        },
        {
          "internalType": "uint256",
          "name": "TimeLock",
          "type": "uint256"
        },
        {
          "internalType": "uint8",
          "name": "Status",
          "type": "uint8"
        },
        {
          "internalType": "uint8",
          "name": "LossPercent",
          "type": "uint8"
        },
        {
          "internalType": "bool",
          "name": "Aty",
          "type": "bool"
        },
        {
          "internalType": "address",
          "name": "Payer",
          "type": "address"
        },
        {
          "internalType": "address",
          "name": "Receiver",
          "type": "address"
        },
        {
          "internalType": "address",
          "name": "Creator",
          "type": "address"
        },
        {
          "internalType": "bytes32",
          "name": "Hash",
          "type": "bytes32"
        }
      ],
      "stateMutability": "view",
      "type": "function"
    },
    {
      "inputs": [
        {
          "internalType": "uint256",
          "name": "",
          "type": "uint256"
        }
      ],
      "name": "_TMM_Tickets",
      "outputs": [
        {
          "internalType": "uint256",
          "name": "Amount",
          "type": "uint256"
        },
        {
          "internalType": "uint256",
          "name": "TimeLock",
          "type": "uint256"
        },
        {
          "internalType": "uint8",
          "name": "Status",
          "type": "uint8"
        },
        {
          "internalType": "uint8",
          "name": "LossPercent",
          "type": "uint8"
        },
        {
          "internalType": "bool",
          "name": "DeRe",
          "type": "bool"
        },
        {
          "internalType": "address payable",
          "name": "Receiver",
          "type": "address"
        },
        {
          "internalType": "address",
          "name": "Creator",
          "type": "address"
        },
        {
          "internalType": "bytes32",
          "name": "Hash",
          "type": "bytes32"
        }
      ],
      "stateMutability": "view",
      "type": "function"
    },
    {
      "inputs": [
        {
          "internalType": "address",
          "name": "newOwner",
          "type": "address"
        }
      ],
      "name": "changeOwner",
      "outputs": [],
      "stateMutability": "nonpayable",
      "type": "function"
    },
    {
      "inputs": [],
      "name": "getOwner",
      "outputs": [
        {
          "internalType": "address",
          "name": "",
          "type": "address"
        }
      ],
      "stateMutability": "view",
      "type": "function"
    },
    {
      "inputs": [
        {
          "internalType": "bool",
          "name": "_aty",
          "type": "bool"
        },
        {
          "internalType": "uint8",
          "name": "_lossPercent",
          "type": "uint8"
        },
        {
          "internalType": "uint256",
          "name": "_amount",
          "type": "uint256"
        },
        {
          "internalType": "address",
          "name": "_receiver",
          "type": "address"
        },
        {
          "internalType": "uint256",
          "name": "_timeLock",
          "type": "uint256"
        },
        {
          "internalType": "bytes32",
          "name": "_hash",
          "type": "bytes32"
        }
      ],
      "name": "_CreateCE",
      "outputs": [],
      "stateMutability": "nonpayable",
      "type": "function"
    },
    {
      "inputs": [
        {
          "internalType": "bytes32",
          "name": "_hash",
          "type": "bytes32"
        },
        {
          "internalType": "uint8",
          "name": "_lossPercent",
          "type": "uint8"
        },
        {
          "internalType": "uint256",
          "name": "_timeLock",
          "type": "uint256"
        },
        {
          "internalType": "bool",
          "name": "_designatedReceiver",
          "type": "bool"
        },
        {
          "internalType": "address",
          "name": "_receiver",
          "type": "address"
        }
      ],
      "name": "_CreateTMM",
      "outputs": [],
      "stateMutability": "payable",
      "type": "function"
    }
  ],
  "bytecode": "0x60806040526000600960006101000a81548160ff021916908360ff1602179055506001600960016101000a81548160ff021916908360ff1602179055506000600960026101000a81548160ff021916908360ff1602179055506001600960036101000a81548160ff021916908360ff1602179055506000600960046101000a81548160ff021916908360ff1602179055506001600960056101000a81548160ff021916908360ff1602179055506003600960066101000a81548160ff021916908360ff1602179055506001600960076101000a81548160ff0219169083151502179055506000600960086101000a81548160ff02191690831515021790555061dead6009806101000a81548173ffffffffffffffffffffffffffffffffffffffff021916908373ffffffffffffffffffffffffffffffffffffffff1602179055506000600f60006101000a81548160ff021916908360ff1602179055506001600f60016101000a81548160ff021916908360ff1602179055506002600f60026101000a81548160ff021916908360ff1602179055503480156101a057600080fd5b50336000806101000a81548173ffffffffffffffffffffffffffffffffffffffff021916908373ffffffffffffffffffffffffffffffffffffffff16021790555060008054906101000a900473ffffffffffffffffffffffffffffffffffffffff1673ffffffffffffffffffffffffffffffffffffffff16600073ffffffffffffffffffffffffffffffffffffffff167f342827c97908e5e2f71151c08502a66d44b6f758e3ac2f1de95f02eb95f0a73560405160405180910390a361270f600f60036101000a81548163ffffffff021916908363ffffffff160217905550612710600f60076101000a81548163ffffffff021916908363ffffffff1602179055506063600f600b6101000a81548163ffffffff021916908363ffffffff1602179055506064600f806101000a81548163ffffffff021916908363ffffffff160217905550612681806102f46000396000f3fe6080604052600436106100a75760003560e01c80638a521c60116100645780638a521c60146101d6578063a6f9dae11461021b578063c843a8a414610244578063cad68b041461027a578063e9eaecdd146102a3578063fb891f9d146102bf576100a7565b806306e2335d146100ac57806322a023aa146100df57806329573143146101155780633e4db85d1461015957806372e402c514610182578063893d20e8146101ab575b600080fd5b3480156100b857600080fd5b506100c16102e8565b6040516100d699989796959493929190611b92565b60405180910390f35b3480156100eb57600080fd5b506100f46103d3565b60405161010c9c9b9a99989796959493929190611cb8565b60405180910390f35b34801561012157600080fd5b5061013c60048036038101906101379190611dcd565b610580565b604051610150989796959493929190611eac565b60405180910390f35b34801561016557600080fd5b50610180600480360381019061017b9190611f56565b61063f565b005b34801561018e57600080fd5b506101a960048036038101906101a49190611fa9565b6108e9565b005b3480156101b757600080fd5b506101c06109f2565b6040516101cd9190611fe9565b60405180910390f35b3480156101e257600080fd5b506101fd60048036038101906101f89190611dcd565b610a1b565b60405161021299989796959493929190612004565b60405180910390f35b34801561022757600080fd5b50610242600480360381019061023d91906120bd565b610b00565b005b34801561025057600080fd5b50610259610c4b565b6040516102719c9b9a99989796959493929190611cb8565b60405180910390f35b34801561028657600080fd5b506102a1600480360381019061029c9190612116565b610dff565b005b6102bd60048036038101906102b891906121ae565b610faa565b005b3480156102cb57600080fd5b506102e660048036038101906102e19190612229565b6112f5565b005b600080600080600080600080600080600061031060075460035461161b90919063ffffffff16565b915061032960085460045461161b90919063ffffffff16565b905061033e818361163190919063ffffffff16565b8282600c54600d54600f60039054906101000a900463ffffffff16600f60079054906101000a900463ffffffff16600f600b9054906101000a900463ffffffff16600f8054906101000a900463ffffffff168363ffffffff1693508263ffffffff1692508163ffffffff1691508063ffffffff1690509a509a509a509a509a509a509a509a509a505050909192939495969798565b60606000606060006060600060606000606060006060600060015461040560025460015461163190919063ffffffff16565b60025460045460035461041891906122e5565b6003546004546040518060400160405280601981526020017f546f74616c204345207469636b65747320637265617465643a000000000000008152509594939291906040518060400160405280601881526020017f546f74616c20616374697665204345207469636b6574733a000000000000000081525094939291906040518060400160405280601a81526020017f546f74616c20696e616374697665204345207469636b6574733a0000000000008152509392919060405180606001604052806022815260200161262a602291399291906040518060400160405280601e81526020017f546f74616c2076616c75652065766572206c6f636b6564206f6e2043453a000081525091906040518060400160405280601b81526020017f546f74616c2076616c756520756e6c6f636b6564206f6e2043453a0000000000815250909b509b509b509b509b509b509b509b509b509b509b509b50909192939495969798999a9b565b600b818154811061059057600080fd5b90600052602060002090600502016000915090508060000154908060010154908060020160009054906101000a900460ff16908060020160019054906101000a900460ff16908060020160029054906101000a900460ff16908060020160039054906101000a900473ffffffffffffffffffffffffffffffffffffffff16908060030160009054906101000a900473ffffffffffffffffffffffffffffffffffffffff16908060040154905088565b60008054906101000a900473ffffffffffffffffffffffffffffffffffffffff1673ffffffffffffffffffffffffffffffffffffffff163373ffffffffffffffffffffffffffffffffffffffff16146106cd576040517f08c379a00000000000000000000000000000000000000000000000000000000081526004016106c490612365565b60405180910390fd5b600f60009054906101000a900460ff1660ff168360ff1614806107045750600f60019054906101000a900460ff1660ff168360ff16145b806107235750600f60029054906101000a900460ff1660ff168360ff16145b610762576040517f08c379a0000000000000000000000000000000000000000000000000000000008152600401610759906123f7565b60405180910390fd5b600f60009054906101000a900460ff1660ff168360ff1614156107cc578160ff16600f60036101000a81548163ffffffff021916908363ffffffff1602179055508060ff16600f60076101000a81548163ffffffff021916908363ffffffff1602179055506108e4565b600f60019054906101000a900460ff1660ff168360ff161415610835578160ff16600f600b6101000a81548163ffffffff021916908363ffffffff1602179055508060ff16600f806101000a81548163ffffffff021916908363ffffffff1602179055506108e3565b600f60029054906101000a900460ff1660ff168360ff1614156108e2578160ff16600f60036101000a81548163ffffffff021916908363ffffffff1602179055508060ff16600f60076101000a81548163ffffffff021916908363ffffffff1602179055508160ff16600f600b6101000a81548163ffffffff021916908363ffffffff1602179055508060ff16600f806101000a81548163ffffffff021916908363ffffffff1602179055505b5b5b505050565b60008054906101000a900473ffffffffffffffffffffffffffffffffffffffff1673ffffffffffffffffffffffffffffffffffffffff163373ffffffffffffffffffffffffffffffffffffffff1614610977576040517f08c379a000000000000000000000000000000000000000000000000000000000815260040161096e90612365565b60405180910390fd5b620186a08211801561098d575060008160ff1610155b6109cc576040517f08c379a00000000000000000000000000000000000000000000000000000000081526004016109c390612463565b60405180910390fd5b8160108190555080601160006101000a81548160ff021916908360ff1602179055505050565b60008060009054906101000a900473ffffffffffffffffffffffffffffffffffffffff16905090565b600a8181548110610a2b57600080fd5b90600052602060002090600602016000915090508060000154908060010154908060020160009054906101000a900460ff16908060020160019054906101000a900460ff16908060020160029054906101000a900460ff16908060020160039054906101000a900473ffffffffffffffffffffffffffffffffffffffff16908060030160009054906101000a900473ffffffffffffffffffffffffffffffffffffffff16908060040160009054906101000a900473ffffffffffffffffffffffffffffffffffffffff16908060050154905089565b60008054906101000a900473ffffffffffffffffffffffffffffffffffffffff1673ffffffffffffffffffffffffffffffffffffffff163373ffffffffffffffffffffffffffffffffffffffff1614610b8e576040517f08c379a0000000000000000000000000000000000000000000000000000000008152600401610b8590612365565b60405180910390fd5b8073ffffffffffffffffffffffffffffffffffffffff1660008054906101000a900473ffffffffffffffffffffffffffffffffffffffff1673ffffffffffffffffffffffffffffffffffffffff167f342827c97908e5e2f71151c08502a66d44b6f758e3ac2f1de95f02eb95f0a73560405160405180910390a3806000806101000a81548173ffffffffffffffffffffffffffffffffffffffff021916908373ffffffffffffffffffffffffffffffffffffffff16021790555050565b606060006060600060606000606060006060600060606000600554610c7d60065460055461163190919063ffffffff16565b600654610c9760085460075461163190919063ffffffff16565b6007546008546040518060400160405280601a81526020017f546f74616c20544d4d207469636b65747320637265617465643a0000000000008152509594939291906040518060400160405280601981526020017f546f74616c2061637469766520544d4d207469636b6574733a0000000000000081525094939291906040518060400160405280601b81526020017f546f74616c20696e61637469766520544d4d207469636b6574733a000000000081525093929190604051806060016040528060238152602001612607602391399291906040518060400160405280601f81526020017f546f74616c2076616c75652065766572206c6f636b6564206f6e20544d4d3a0081525091906040518060400160405280601c81526020017f546f74616c2076616c756520756e6c6f636b6564206f6e20544d4d3a00000000815250909b509b509b509b509b509b509b509b509b509b509b509b50909192939495969798999a9b565b60008054906101000a900473ffffffffffffffffffffffffffffffffffffffff1673ffffffffffffffffffffffffffffffffffffffff163373ffffffffffffffffffffffffffffffffffffffff1614610e8d576040517f08c379a0000000000000000000000000000000000000000000000000000000008152600401610e8490612365565b60405180910390fd5b6000600e541415610eb657610eaf600d54600c5461163190919063ffffffff16565b600e819055505b600082118015610ec85750600e548211155b610f07576040517f08c379a0000000000000000000000000000000000000000000000000000000008152600401610efe906124f5565b60405180910390fd5b60098054906101000a900473ffffffffffffffffffffffffffffffffffffffff1673ffffffffffffffffffffffffffffffffffffffff168173ffffffffffffffffffffffffffffffffffffffff161415610f5f573390505b8073ffffffffffffffffffffffffffffffffffffffff166108fc839081150290604051600060405180830381858888f19350505050158015610fa5573d6000803e3d6000fd5b505050565b3460008111610fee576040517f08c379a0000000000000000000000000000000000000000000000000000000008152600401610fe590612561565b60405180910390fd5b610ff6611a64565b34816000018181525050338160c0019073ffffffffffffffffffffffffffffffffffffffff16908173ffffffffffffffffffffffffffffffffffffffff16815250508381608001901515908115158152505060011515841515141561109257828160a0019073ffffffffffffffffffffffffffffffffffffffff16908173ffffffffffffffffffffffffffffffffffffffff16815250506110eb565b60098054906101000a900473ffffffffffffffffffffffffffffffffffffffff168160a0019073ffffffffffffffffffffffffffffffffffffffff16908173ffffffffffffffffffffffffffffffffffffffff16815250505b868160e00181815250506000816040019060ff16908160ff16815250506000851461112a57844261111c9190612581565b816020018181525050611136565b60008160200181815250505b60058660ff161015801561114e575060648660ff1611155b1561116a5785816060019060ff16908160ff168152505061117e565b6046816060019060ff16908160ff16815250505b6111b0600554600960039054906101000a900460ff168360000151600960049054906101000a900460ff166000611647565b600b819080600181540180825580915050600190039060005260206000209060050201600090919091909150600082015181600001556020820151816001015560408201518160020160006101000a81548160ff021916908360ff16021790555060608201518160020160016101000a81548160ff021916908360ff16021790555060808201518160020160026101000a81548160ff02191690831515021790555060a08201518160020160036101000a81548173ffffffffffffffffffffffffffffffffffffffff021916908373ffffffffffffffffffffffffffffffffffffffff16021790555060c08201518160030160006101000a81548173ffffffffffffffffffffffffffffffffffffffff021916908373ffffffffffffffffffffffffffffffffffffffff16021790555060e08201518160040155505050505050505050565b8360008111611339576040517f08c379a000000000000000000000000000000000000000000000000000000000815260040161133090612561565b60405180910390fd5b611341611ae0565b85816000018181525050338160e0019073ffffffffffffffffffffffffffffffffffffffff16908173ffffffffffffffffffffffffffffffffffffffff1681525050848160c0019073ffffffffffffffffffffffffffffffffffffffff16908173ffffffffffffffffffffffffffffffffffffffff168152505082816101000181815250506000816040019060ff16908160ff1681525050600084146113fb5783426113ed9190612581565b816020018181525050611407565b60008160200181815250505b60008760ff1611801561141e575060648760ff1611155b1561143a5786816060019060ff16908160ff168152505061144e565b6000816060019060ff16908160ff16815250505b8781608001901515908115158152505061148d6000600960069054906101000a900460ff16600080600960049054906101000a900460ff1660006117ec565b600a819080600181540180825580915050600190039060005260206000209060060201600090919091909150600082015181600001556020820151816001015560408201518160020160006101000a81548160ff021916908360ff16021790555060608201518160020160016101000a81548160ff021916908360ff16021790555060808201518160020160026101000a81548160ff02191690831515021790555060a08201518160020160036101000a81548173ffffffffffffffffffffffffffffffffffffffff021916908373ffffffffffffffffffffffffffffffffffffffff16021790555060c08201518160030160006101000a81548173ffffffffffffffffffffffffffffffffffffffff021916908373ffffffffffffffffffffffffffffffffffffffff16021790555060e08201518160040160006101000a81548173ffffffffffffffffffffffffffffffffffffffff021916908373ffffffffffffffffffffffffffffffffffffffff160217905550610100820151816005015550505050505050505050565b600081836116299190612581565b905092915050565b6000818361163f91906122e5565b905092915050565b61169361168284600b8881548110611662576116616125d7565b5b90600052602060002090600502016000015461163190919063ffffffff16565b600c5461161b90919063ffffffff16565b600c81905550600960029054906101000a900460ff1660ff168460ff161415611728576116cb8360085461161b90919063ffffffff16565b60088190555061171d61170c84600b88815481106116ec576116eb6125d7565b5b90600052602060002090600502016000015461163190919063ffffffff16565b600c5461161b90919063ffffffff16565b600c81905550611744565b61173d8360075461161b90919063ffffffff16565b6007819055505b600960049054906101000a900460ff1660ff168260ff1614156117775761176c600554611a47565b6005819055506117a7565b600960059054906101000a900460ff1660ff168260ff1614156117a65761179f600654611a47565b6006819055505b5b80600b86815481106117bc576117bb6125d7565b5b906000526020600020906005020160020160006101000a81548160ff021916908360ff1602179055505050505050565b60008411156118485761184161183085600a89815481106118105761180f6125d7565b5b90600052602060002090600602016000015461163190919063ffffffff16565b600c5461161b90919063ffffffff16565b600c819055505b600960029054906101000a900460ff1660ff168560ff1614156118d75761187a8460045461161b90919063ffffffff16565b6004819055506118cc6118bb85600b898154811061189b5761189a6125d7565b5b90600052602060002090600502016000015461163190919063ffffffff16565b600c5461161b90919063ffffffff16565b600c819055506119bc565b600960039054906101000a900460ff1660ff168560ff161415611914576119098460035461161b90919063ffffffff16565b6003819055506119bb565b600f60029054906101000a900460ff1660ff168560ff1614156119ba576119468460035461161b90919063ffffffff16565b6003819055506119618360045461161b90919063ffffffff16565b6004819055506119b36119a284600b8981548110611982576119816125d7565b5b90600052602060002090600502016000015461163190919063ffffffff16565b600c5461161b90919063ffffffff16565b600c819055505b5b5b600960049054906101000a900460ff1660ff168260ff1614156119ef576119e4600154611a47565b600181905550611a01565b6119fa600254611a47565b6002819055505b80600a8781548110611a1657611a156125d7565b5b906000526020600020906006020160020160006101000a81548160ff021916908360ff160217905550505050505050565b6000611a5d60018361161b90919063ffffffff16565b9050919050565b6040518061010001604052806000815260200160008152602001600060ff168152602001600060ff168152602001600015158152602001600073ffffffffffffffffffffffffffffffffffffffff168152602001600073ffffffffffffffffffffffffffffffffffffffff168152602001600080191681525090565b6040518061012001604052806000815260200160008152602001600060ff168152602001600060ff168152602001600015158152602001600073ffffffffffffffffffffffffffffffffffffffff168152602001600073ffffffffffffffffffffffffffffffffffffffff168152602001600073ffffffffffffffffffffffffffffffffffffffff168152602001600080191681525090565b6000819050919050565b611b8c81611b79565b82525050565b600061012082019050611ba8600083018c611b83565b611bb5602083018b611b83565b611bc2604083018a611b83565b611bcf6060830189611b83565b611bdc6080830188611b83565b611be960a0830187611b83565b611bf660c0830186611b83565b611c0360e0830185611b83565b611c11610100830184611b83565b9a9950505050505050505050565b600081519050919050565b600082825260208201905092915050565b60005b83811015611c59578082015181840152602081019050611c3e565b83811115611c68576000848401525b50505050565b6000601f19601f8301169050919050565b6000611c8a82611c1f565b611c948185611c2a565b9350611ca4818560208601611c3b565b611cad81611c6e565b840191505092915050565b6000610180820190508181036000830152611cd3818f611c7f565b9050611ce2602083018e611b83565b8181036040830152611cf4818d611c7f565b9050611d03606083018c611b83565b8181036080830152611d15818b611c7f565b9050611d2460a083018a611b83565b81810360c0830152611d368189611c7f565b9050611d4560e0830188611b83565b818103610100830152611d588187611c7f565b9050611d68610120830186611b83565b818103610140830152611d7b8185611c7f565b9050611d8b610160830184611b83565b9d9c50505050505050505050505050565b600080fd5b611daa81611b79565b8114611db557600080fd5b50565b600081359050611dc781611da1565b92915050565b600060208284031215611de357611de2611d9c565b5b6000611df184828501611db8565b91505092915050565b600060ff82169050919050565b611e1081611dfa565b82525050565b60008115159050919050565b611e2b81611e16565b82525050565b600073ffffffffffffffffffffffffffffffffffffffff82169050919050565b6000611e5c82611e31565b9050919050565b611e6c81611e51565b82525050565b6000611e7d82611e31565b9050919050565b611e8d81611e72565b82525050565b6000819050919050565b611ea681611e93565b82525050565b600061010082019050611ec2600083018b611b83565b611ecf602083018a611b83565b611edc6040830189611e07565b611ee96060830188611e07565b611ef66080830187611e22565b611f0360a0830186611e63565b611f1060c0830185611e84565b611f1d60e0830184611e9d565b9998505050505050505050565b611f3381611dfa565b8114611f3e57600080fd5b50565b600081359050611f5081611f2a565b92915050565b600080600060608486031215611f6f57611f6e611d9c565b5b6000611f7d86828701611f41565b9350506020611f8e86828701611f41565b9250506040611f9f86828701611f41565b9150509250925092565b60008060408385031215611fc057611fbf611d9c565b5b6000611fce85828601611db8565b9250506020611fdf85828601611f41565b9150509250929050565b6000602082019050611ffe6000830184611e84565b92915050565b60006101208201905061201a600083018c611b83565b612027602083018b611b83565b612034604083018a611e07565b6120416060830189611e07565b61204e6080830188611e22565b61205b60a0830187611e84565b61206860c0830186611e84565b61207560e0830185611e84565b612083610100830184611e9d565b9a9950505050505050505050565b61209a81611e72565b81146120a557600080fd5b50565b6000813590506120b781612091565b92915050565b6000602082840312156120d3576120d2611d9c565b5b60006120e1848285016120a8565b91505092915050565b6120f381611e51565b81146120fe57600080fd5b50565b600081359050612110816120ea565b92915050565b6000806040838503121561212d5761212c611d9c565b5b600061213b85828601611db8565b925050602061214c85828601612101565b9150509250929050565b61215f81611e93565b811461216a57600080fd5b50565b60008135905061217c81612156565b92915050565b61218b81611e16565b811461219657600080fd5b50565b6000813590506121a881612182565b92915050565b600080600080600060a086880312156121ca576121c9611d9c565b5b60006121d88882890161216d565b95505060206121e988828901611f41565b94505060406121fa88828901611db8565b935050606061220b88828901612199565b925050608061221c888289016120a8565b9150509295509295909350565b60008060008060008060c0878903121561224657612245611d9c565b5b600061225489828a01612199565b965050602061226589828a01611f41565b955050604061227689828a01611db8565b945050606061228789828a016120a8565b935050608061229889828a01611db8565b92505060a06122a989828a0161216d565b9150509295509295509295565b7f4e487b7100000000000000000000000000000000000000000000000000000000600052601160045260246000fd5b60006122f082611b79565b91506122fb83611b79565b92508282101561230e5761230d6122b6565b5b828203905092915050565b7f43616c6c6572206973206e6f74206f776e657200000000000000000000000000600082015250565b600061234f601383611c2a565b915061235a82612319565b602082019050919050565b6000602082019050818103600083015261237e81612342565b9050919050565b7f4368616e6765466565733a205f7768656e206973206e6569746865722030206f60008201527f7220310000000000000000000000000000000000000000000000000000000000602082015250565b60006123e1602383611c2a565b91506123ec82612385565b604082019050919050565b60006020820190508181036000830152612410816123d4565b9050919050565b7f4368616e6765446973636f756e743a2077726f6e6720617267756d656e747300600082015250565b600061244d601f83611c2a565b915061245882612417565b602082019050919050565b6000602082019050818103600083015261247c81612440565b9050919050565b7f506179546865446576733a205f616d6f756e74206973206e756c6c206f72206860008201527f6967686572207468616e2053696b6b657227732070726f666974000000000000602082015250565b60006124df603a83611c2a565b91506124ea82612483565b604082019050919050565b6000602082019050818103600083015261250e816124d2565b9050919050565b7f596f75206d75737420656e746572206120706f73697469766520616d6f756e74600082015250565b600061254b602083611c2a565b915061255682612515565b602082019050919050565b6000602082019050818103600083015261257a8161253e565b9050919050565b600061258c82611b79565b915061259783611b79565b9250827fffffffffffffffffffffffffffffffffffffffffffffffffffffffffffffffff038211156125cc576125cb6122b6565b5b828201905092915050565b7f4e487b7100000000000000000000000000000000000000000000000000000000600052603260045260246000fdfe546f74616c2076616c75652061637475616c6c79206c6f636b6564206f6e20544d4d3a546f74616c2076616c75652061637475616c6c79206c6f636b6564206f6e2043453aa2646970667358221220377cd8faecfa00d84ae7e24dfa0b1502a850e392246fdf0c6aa54536f39b07a464736f6c634300080a0033",
  "immutableReferences": {},
  "source": "// SPDX-License-Identifier: MIT\n\npragma solidity >=0.7.0 <0.9.0;\n\n/**\n * @title Create tickets smart contract\n * @dev Functions to create a payment ticket\n**/\n\nimport \"./SikkerStats.sol\";\n\ncontract CreateTickets is SikkerStats {\n    using SafeMath for uint256;\n\n\n    modifier amountCheck(uint256 _amount) {\n        require(_amount > 0, \"You must enter a positive amount\");\n        _;\n    }\n\n    function _CreateCE(\n        bool _aty,\n        uint8 _lossPercent,\n        uint256 _amount,\n        address _receiver,\n        uint256 _timeLock,\n        bytes32 _hash\n        ) public amountCheck(_amount) {\n\n        CE_Ticket memory _ticket;\n\n        _ticket.Amount = _amount;\n\n        _ticket.Creator = msg.sender;\n\n        _ticket.Receiver = payable(_receiver);\n\n        _ticket.Hash = _hash;\n        _ticket.Status = 0;\n\n        if (_timeLock != 0)\n            _ticket.TimeLock = (block.timestamp + _timeLock);\n        else\n            _ticket.TimeLock = 0;\n\n        if (_lossPercent > 0 && _lossPercent <= 100)\n            _ticket.LossPercent = _lossPercent;\n        else\n            _ticket.LossPercent = 0;\n\n        _ticket.Aty = _aty;\n\n        UpdateStatsCE(0, NONE, 0, 0, Birth, 0);\n\n        _CE_Tickets.push(_ticket);\n    }\n\n    function _CreateTMM(\n        bytes32 _hash,\n        uint8 _lossPercent,\n        uint256 _timeLock,\n        bool _designatedReceiver,\n        address _receiver\n        ) public payable\n            amountCheck(msg.value) {\n\n        TMM_Ticket memory _ticket;\n\n        _ticket.Amount = msg.value;\n\n        _ticket.Creator = msg.sender;\n        _ticket.DeRe = _designatedReceiver;\n        if (_designatedReceiver == true)\n            _ticket.Receiver = payable(_receiver);\n        else\n            _ticket.Receiver = payable(Dead);\n        _ticket.Hash = _hash;\n        _ticket.Status = 0;\n\n        if (_timeLock != 0)\n            _ticket.TimeLock = (block.timestamp + _timeLock);\n        else\n            _ticket.TimeLock = 0;\n\n        if (_lossPercent >= 5 && _lossPercent <= 100)\n            _ticket.LossPercent = _lossPercent;\n        else\n            _ticket.LossPercent = 70;\n\n        UpdateStatsTMM(TMM_Ticket_Number, Locked, _ticket.Amount, Birth, 0);\n\n        _TMM_Tickets.push(_ticket);\n\n        /*if (_timeLock > 0)\n            emit CreatedTicket(TMM_Ticket_Number, \"Take My Money\", _ticket.Amount, _ticket.Creator, false, 0x000000000000000000000000000000000000dEaD, _percent);\n        else\n            emit CreatedTicket(TMM_Ticket_Number, \"Take My Money\", _ticket.Amount, _ticket.Creator, false, 0x000000000000000000000000000000000000dEaD, 0);*/\n    }\n}",
  "sourcePath": "/home/steph/CRYPTO/Sikker/repo/contracts/CreateTickets.sol",
  "compiler": {
    "name": "solc",
    "version": "0.8.10+commit.fc410830.Emscripten.clang"
  },
  "schemaVersion": "3.4.4",
  "updatedAt": "2021-12-19T15:42:31.585Z",
  "devdoc": {
    "kind": "dev",
    "methods": {
      "changeOwner(address)": {
        "details": "Change owner",
        "params": {
          "newOwner": "address of new owner"
        }
      },
      "getOwner()": {
        "details": "Return owner address ",
        "returns": {
          "_0": "address of owner"
        }
      }
    },
    "version": 1
  },
  "userdoc": {
    "kind": "user",
    "methods": {},
    "version": 1
  }
}