{
  "contractName": "SikkerStats",
  "abi": [
    {
      "anonymous": false,
      "inputs": [
        {
          "indexed": false,
          "internalType": "uint256",
          "name": "_id",
          "type": "uint256"
        },
        {
          "indexed": false,
          "internalType": "string",
          "name": "_type",
          "type": "string"
        },
        {
          "indexed": false,
          "internalType": "uint256",
          "name": "_amount",
          "type": "uint256"
        },
        {
          "indexed": false,
          "internalType": "address",
          "name": "_payer",
          "type": "address"
        },
        {
          "indexed": false,
          "internalType": "bool",
          "name": "_isTimeBlocked",
          "type": "bool"
        },
        {
          "indexed": false,
          "internalType": "uint8",
          "name": "_lostPercent",
          "type": "uint8"
        }
      ],
      "name": "ClosedTicket",
      "type": "event"
    },
    {
      "anonymous": false,
      "inputs": [
        {
          "indexed": false,
          "internalType": "uint256",
          "name": "_id",
          "type": "uint256"
        },
        {
          "indexed": false,
          "internalType": "string",
          "name": "_type",
          "type": "string"
        },
        {
          "indexed": false,
          "internalType": "uint256",
          "name": "_amount",
          "type": "uint256"
        },
        {
          "indexed": false,
          "internalType": "address",
          "name": "_creator",
          "type": "address"
        },
        {
          "indexed": false,
          "internalType": "bool",
          "name": "_designatedReceiver",
          "type": "bool"
        },
        {
          "indexed": false,
          "internalType": "address",
          "name": "_receiver",
          "type": "address"
        },
        {
          "indexed": false,
          "internalType": "uint8",
          "name": "_lossPercent",
          "type": "uint8"
        }
      ],
      "name": "CreatedTicket",
      "type": "event"
    },
    {
      "anonymous": false,
      "inputs": [
        {
          "indexed": false,
          "internalType": "uint256",
          "name": "_id",
          "type": "uint256"
        },
        {
          "indexed": false,
          "internalType": "uint256",
          "name": "_amount",
          "type": "uint256"
        },
        {
          "indexed": false,
          "internalType": "address",
          "name": "_creator",
          "type": "address"
        },
        {
          "indexed": false,
          "internalType": "address",
          "name": "_payer",
          "type": "address"
        },
        {
          "indexed": false,
          "internalType": "address",
          "name": "_receiver",
          "type": "address"
        }
      ],
      "name": "FilledCE",
      "type": "event"
    },
    {
      "anonymous": false,
      "inputs": [
        {
          "indexed": true,
          "internalType": "address",
          "name": "oldOwner",
          "type": "address"
        },
        {
          "indexed": true,
          "internalType": "address",
          "name": "newOwner",
          "type": "address"
        }
      ],
      "name": "OwnerSet",
      "type": "event"
    },
    {
      "anonymous": false,
      "inputs": [
        {
          "indexed": false,
          "internalType": "uint256",
          "name": "_id",
          "type": "uint256"
        },
        {
          "indexed": false,
          "internalType": "uint256",
          "name": "_totalAmount",
          "type": "uint256"
        },
        {
          "indexed": false,
          "internalType": "uint256",
          "name": "_sentAmount",
          "type": "uint256"
        },
        {
          "indexed": false,
          "internalType": "address",
          "name": "_creator",
          "type": "address"
        },
        {
          "indexed": false,
          "internalType": "address",
          "name": "_payer",
          "type": "address"
        },
        {
          "indexed": false,
          "internalType": "address",
          "name": "_receiver",
          "type": "address"
        }
      ],
      "name": "SentHalfATY",
      "type": "event"
    },
    {
      "inputs": [
        {
          "internalType": "uint256",
          "name": "_triggerAmount",
          "type": "uint256"
        },
        {
          "internalType": "uint8",
          "name": "_discount",
          "type": "uint8"
        }
      ],
      "name": "ChangeDiscount",
      "outputs": [],
      "stateMutability": "nonpayable",
      "type": "function"
    },
    {
      "inputs": [
        {
          "internalType": "uint8",
          "name": "_when",
          "type": "uint8"
        },
        {
          "internalType": "uint8",
          "name": "_percent",
          "type": "uint8"
        },
        {
          "internalType": "uint8",
          "name": "_divider",
          "type": "uint8"
        }
      ],
      "name": "ChangeFees",
      "outputs": [],
      "stateMutability": "nonpayable",
      "type": "function"
    },
    {
      "inputs": [
        {
          "internalType": "uint256",
          "name": "_amount",
          "type": "uint256"
        },
        {
          "internalType": "address payable",
          "name": "_receiver",
          "type": "address"
        }
      ],
      "name": "PayTheDevs",
      "outputs": [],
      "stateMutability": "nonpayable",
      "type": "function"
    },
    {
      "inputs": [
        {
          "internalType": "uint256",
          "name": "",
          "type": "uint256"
        }
      ],
      "name": "_CE_Tickets",
      "outputs": [
        {
          "internalType": "uint256",
          "name": "Amount",
          "type": "uint256"
        },
        {
          "internalType": "uint256",
          "name": "TimeLock",
          "type": "uint256"
        },
        {
          "internalType": "uint8",
          "name": "Status",
          "type": "uint8"
        },
        {
          "internalType": "uint8",
          "name": "LossPercent",
          "type": "uint8"
        },
        {
          "internalType": "bool",
          "name": "Aty",
          "type": "bool"
        },
        {
          "internalType": "address",
          "name": "Payer",
          "type": "address"
        },
        {
          "internalType": "address",
          "name": "Receiver",
          "type": "address"
        },
        {
          "internalType": "address",
          "name": "Creator",
          "type": "address"
        },
        {
          "internalType": "bytes32",
          "name": "Hash",
          "type": "bytes32"
        }
      ],
      "stateMutability": "view",
      "type": "function"
    },
    {
      "inputs": [
        {
          "internalType": "uint256",
          "name": "",
          "type": "uint256"
        }
      ],
      "name": "_TMM_Tickets",
      "outputs": [
        {
          "internalType": "uint256",
          "name": "Amount",
          "type": "uint256"
        },
        {
          "internalType": "uint256",
          "name": "TimeLock",
          "type": "uint256"
        },
        {
          "internalType": "uint8",
          "name": "Status",
          "type": "uint8"
        },
        {
          "internalType": "uint8",
          "name": "LossPercent",
          "type": "uint8"
        },
        {
          "internalType": "bool",
          "name": "DeRe",
          "type": "bool"
        },
        {
          "internalType": "address payable",
          "name": "Receiver",
          "type": "address"
        },
        {
          "internalType": "address",
          "name": "Creator",
          "type": "address"
        },
        {
          "internalType": "bytes32",
          "name": "Hash",
          "type": "bytes32"
        }
      ],
      "stateMutability": "view",
      "type": "function"
    },
    {
      "inputs": [
        {
          "internalType": "address",
          "name": "newOwner",
          "type": "address"
        }
      ],
      "name": "changeOwner",
      "outputs": [],
      "stateMutability": "nonpayable",
      "type": "function"
    },
    {
      "inputs": [],
      "name": "getOwner",
      "outputs": [
        {
          "internalType": "address",
          "name": "",
          "type": "address"
        }
      ],
      "stateMutability": "view",
      "type": "function"
    },
    {
      "inputs": [],
      "name": "CE_Stats",
      "outputs": [
        {
          "internalType": "string",
          "name": "",
          "type": "string"
        },
        {
          "internalType": "uint256",
          "name": "",
          "type": "uint256"
        },
        {
          "internalType": "string",
          "name": "",
          "type": "string"
        },
        {
          "internalType": "uint256",
          "name": "",
          "type": "uint256"
        },
        {
          "internalType": "string",
          "name": "",
          "type": "string"
        },
        {
          "internalType": "uint256",
          "name": "",
          "type": "uint256"
        },
        {
          "internalType": "string",
          "name": "",
          "type": "string"
        },
        {
          "internalType": "uint256",
          "name": "",
          "type": "uint256"
        },
        {
          "internalType": "string",
          "name": "",
          "type": "string"
        },
        {
          "internalType": "uint256",
          "name": "",
          "type": "uint256"
        },
        {
          "internalType": "string",
          "name": "",
          "type": "string"
        },
        {
          "internalType": "uint256",
          "name": "",
          "type": "uint256"
        }
      ],
      "stateMutability": "view",
      "type": "function"
    },
    {
      "inputs": [],
      "name": "TMM_Stats",
      "outputs": [
        {
          "internalType": "string",
          "name": "",
          "type": "string"
        },
        {
          "internalType": "uint256",
          "name": "",
          "type": "uint256"
        },
        {
          "internalType": "string",
          "name": "",
          "type": "string"
        },
        {
          "internalType": "uint256",
          "name": "",
          "type": "uint256"
        },
        {
          "internalType": "string",
          "name": "",
          "type": "string"
        },
        {
          "internalType": "uint256",
          "name": "",
          "type": "uint256"
        },
        {
          "internalType": "string",
          "name": "",
          "type": "string"
        },
        {
          "internalType": "uint256",
          "name": "",
          "type": "uint256"
        },
        {
          "internalType": "string",
          "name": "",
          "type": "string"
        },
        {
          "internalType": "uint256",
          "name": "",
          "type": "uint256"
        },
        {
          "internalType": "string",
          "name": "",
          "type": "string"
        },
        {
          "internalType": "uint256",
          "name": "",
          "type": "uint256"
        }
      ],
      "stateMutability": "view",
      "type": "function"
    },
    {
      "inputs": [],
      "name": "Sikker_Stats",
      "outputs": [
        {
          "internalType": "uint256",
          "name": "",
          "type": "uint256"
        },
        {
          "internalType": "uint256",
          "name": "",
          "type": "uint256"
        },
        {
          "internalType": "uint256",
          "name": "",
          "type": "uint256"
        },
        {
          "internalType": "uint256",
          "name": "",
          "type": "uint256"
        },
        {
          "internalType": "uint256",
          "name": "",
          "type": "uint256"
        },
        {
          "internalType": "uint256",
          "name": "",
          "type": "uint256"
        },
        {
          "internalType": "uint256",
          "name": "",
          "type": "uint256"
        },
        {
          "internalType": "uint256",
          "name": "",
          "type": "uint256"
        },
        {
          "internalType": "uint256",
          "name": "",
          "type": "uint256"
        }
      ],
      "stateMutability": "view",
      "type": "function"
    }
  ],
  "bytecode": "0x60806040526000600960006101000a81548160ff021916908360ff1602179055506001600960016101000a81548160ff021916908360ff1602179055506000600960026101000a81548160ff021916908360ff1602179055506001600960036101000a81548160ff021916908360ff1602179055506000600960046101000a81548160ff021916908360ff1602179055506001600960056101000a81548160ff021916908360ff1602179055506003600960066101000a81548160ff021916908360ff1602179055506001600960076101000a81548160ff0219169083151502179055506000600960086101000a81548160ff02191690831515021790555061dead6009806101000a81548173ffffffffffffffffffffffffffffffffffffffff021916908373ffffffffffffffffffffffffffffffffffffffff1602179055506000600f60006101000a81548160ff021916908360ff1602179055506001600f60016101000a81548160ff021916908360ff1602179055506002600f60026101000a81548160ff021916908360ff1602179055503480156101a057600080fd5b50336000806101000a81548173ffffffffffffffffffffffffffffffffffffffff021916908373ffffffffffffffffffffffffffffffffffffffff16021790555060008054906101000a900473ffffffffffffffffffffffffffffffffffffffff1673ffffffffffffffffffffffffffffffffffffffff16600073ffffffffffffffffffffffffffffffffffffffff167f342827c97908e5e2f71151c08502a66d44b6f758e3ac2f1de95f02eb95f0a73560405160405180910390a361270f600f60036101000a81548163ffffffff021916908363ffffffff160217905550612710600f60076101000a81548163ffffffff021916908363ffffffff1602179055506063600f600b6101000a81548163ffffffff021916908363ffffffff1602179055506064600f806101000a81548163ffffffff021916908363ffffffff160217905550611813806102f46000396000f3fe608060405234801561001057600080fd5b506004361061009e5760003560e01c8063893d20e811610066578063893d20e8146101615780638a521c601461017f578063a6f9dae1146101b7578063c843a8a4146101d3578063cad68b04146101fc5761009e565b806306e2335d146100a357806322a023aa146100c957806329573143146100f25780633e4db85d1461012957806372e402c514610145575b600080fd5b6100ab610218565b6040516100c099989796959493929190610f1f565b60405180910390f35b6100d1610303565b6040516100e99c9b9a99989796959493929190611045565b60405180910390f35b61010c6004803603810190610107919061115a565b6104b0565b604051610120989796959493929190611239565b60405180910390f35b610143600480360381019061013e91906112e3565b61056f565b005b61015f600480360381019061015a9190611336565b610819565b005b610169610922565b6040516101769190611376565b60405180910390f35b6101996004803603810190610194919061115a565b61094b565b6040516101ae99989796959493929190611391565b60405180910390f35b6101d160048036038101906101cc919061144a565b610a30565b005b6101db610b7b565b6040516101f39c9b9a99989796959493929190611045565b60405180910390f35b610216600480360381019061021191906114a3565b610d2f565b005b6000806000806000806000806000806000610240600754600354610eda90919063ffffffff16565b9150610259600854600454610eda90919063ffffffff16565b905061026e8183610ef090919063ffffffff16565b8282600c54600d54600f60039054906101000a900463ffffffff16600f60079054906101000a900463ffffffff16600f600b9054906101000a900463ffffffff16600f8054906101000a900463ffffffff168363ffffffff1693508263ffffffff1692508163ffffffff1691508063ffffffff1690509a509a509a509a509a509a509a509a509a505050909192939495969798565b606060006060600060606000606060006060600060606000600154610335600254600154610ef090919063ffffffff16565b6002546004546003546103489190611512565b6003546004546040518060400160405280601981526020017f546f74616c204345207469636b65747320637265617465643a000000000000008152509594939291906040518060400160405280601881526020017f546f74616c20616374697665204345207469636b6574733a000000000000000081525094939291906040518060400160405280601a81526020017f546f74616c20696e616374697665204345207469636b6574733a000000000000815250939291906040518060600160405280602281526020016117bc602291399291906040518060400160405280601e81526020017f546f74616c2076616c75652065766572206c6f636b6564206f6e2043453a000081525091906040518060400160405280601b81526020017f546f74616c2076616c756520756e6c6f636b6564206f6e2043453a0000000000815250909b509b509b509b509b509b509b509b509b509b509b509b50909192939495969798999a9b565b600b81815481106104c057600080fd5b90600052602060002090600502016000915090508060000154908060010154908060020160009054906101000a900460ff16908060020160019054906101000a900460ff16908060020160029054906101000a900460ff16908060020160039054906101000a900473ffffffffffffffffffffffffffffffffffffffff16908060030160009054906101000a900473ffffffffffffffffffffffffffffffffffffffff16908060040154905088565b60008054906101000a900473ffffffffffffffffffffffffffffffffffffffff1673ffffffffffffffffffffffffffffffffffffffff163373ffffffffffffffffffffffffffffffffffffffff16146105fd576040517f08c379a00000000000000000000000000000000000000000000000000000000081526004016105f490611592565b60405180910390fd5b600f60009054906101000a900460ff1660ff168360ff1614806106345750600f60019054906101000a900460ff1660ff168360ff16145b806106535750600f60029054906101000a900460ff1660ff168360ff16145b610692576040517f08c379a000000000000000000000000000000000000000000000000000000000815260040161068990611624565b60405180910390fd5b600f60009054906101000a900460ff1660ff168360ff1614156106fc578160ff16600f60036101000a81548163ffffffff021916908363ffffffff1602179055508060ff16600f60076101000a81548163ffffffff021916908363ffffffff160217905550610814565b600f60019054906101000a900460ff1660ff168360ff161415610765578160ff16600f600b6101000a81548163ffffffff021916908363ffffffff1602179055508060ff16600f806101000a81548163ffffffff021916908363ffffffff160217905550610813565b600f60029054906101000a900460ff1660ff168360ff161415610812578160ff16600f60036101000a81548163ffffffff021916908363ffffffff1602179055508060ff16600f60076101000a81548163ffffffff021916908363ffffffff1602179055508160ff16600f600b6101000a81548163ffffffff021916908363ffffffff1602179055508060ff16600f806101000a81548163ffffffff021916908363ffffffff1602179055505b5b5b505050565b60008054906101000a900473ffffffffffffffffffffffffffffffffffffffff1673ffffffffffffffffffffffffffffffffffffffff163373ffffffffffffffffffffffffffffffffffffffff16146108a7576040517f08c379a000000000000000000000000000000000000000000000000000000000815260040161089e90611592565b60405180910390fd5b620186a0821180156108bd575060008160ff1610155b6108fc576040517f08c379a00000000000000000000000000000000000000000000000000000000081526004016108f390611690565b60405180910390fd5b8160108190555080601160006101000a81548160ff021916908360ff1602179055505050565b60008060009054906101000a900473ffffffffffffffffffffffffffffffffffffffff16905090565b600a818154811061095b57600080fd5b90600052602060002090600602016000915090508060000154908060010154908060020160009054906101000a900460ff16908060020160019054906101000a900460ff16908060020160029054906101000a900460ff16908060020160039054906101000a900473ffffffffffffffffffffffffffffffffffffffff16908060030160009054906101000a900473ffffffffffffffffffffffffffffffffffffffff16908060040160009054906101000a900473ffffffffffffffffffffffffffffffffffffffff16908060050154905089565b60008054906101000a900473ffffffffffffffffffffffffffffffffffffffff1673ffffffffffffffffffffffffffffffffffffffff163373ffffffffffffffffffffffffffffffffffffffff1614610abe576040517f08c379a0000000000000000000000000000000000000000000000000000000008152600401610ab590611592565b60405180910390fd5b8073ffffffffffffffffffffffffffffffffffffffff1660008054906101000a900473ffffffffffffffffffffffffffffffffffffffff1673ffffffffffffffffffffffffffffffffffffffff167f342827c97908e5e2f71151c08502a66d44b6f758e3ac2f1de95f02eb95f0a73560405160405180910390a3806000806101000a81548173ffffffffffffffffffffffffffffffffffffffff021916908373ffffffffffffffffffffffffffffffffffffffff16021790555050565b606060006060600060606000606060006060600060606000600554610bad600654600554610ef090919063ffffffff16565b600654610bc7600854600754610ef090919063ffffffff16565b6007546008546040518060400160405280601a81526020017f546f74616c20544d4d207469636b65747320637265617465643a0000000000008152509594939291906040518060400160405280601981526020017f546f74616c2061637469766520544d4d207469636b6574733a0000000000000081525094939291906040518060400160405280601b81526020017f546f74616c20696e61637469766520544d4d207469636b6574733a000000000081525093929190604051806060016040528060238152602001611799602391399291906040518060400160405280601f81526020017f546f74616c2076616c75652065766572206c6f636b6564206f6e20544d4d3a0081525091906040518060400160405280601c81526020017f546f74616c2076616c756520756e6c6f636b6564206f6e20544d4d3a00000000815250909b509b509b509b509b509b509b509b509b509b509b509b50909192939495969798999a9b565b60008054906101000a900473ffffffffffffffffffffffffffffffffffffffff1673ffffffffffffffffffffffffffffffffffffffff163373ffffffffffffffffffffffffffffffffffffffff1614610dbd576040517f08c379a0000000000000000000000000000000000000000000000000000000008152600401610db490611592565b60405180910390fd5b6000600e541415610de657610ddf600d54600c54610ef090919063ffffffff16565b600e819055505b600082118015610df85750600e548211155b610e37576040517f08c379a0000000000000000000000000000000000000000000000000000000008152600401610e2e90611722565b60405180910390fd5b60098054906101000a900473ffffffffffffffffffffffffffffffffffffffff1673ffffffffffffffffffffffffffffffffffffffff168173ffffffffffffffffffffffffffffffffffffffff161415610e8f573390505b8073ffffffffffffffffffffffffffffffffffffffff166108fc839081150290604051600060405180830381858888f19350505050158015610ed5573d6000803e3d6000fd5b505050565b60008183610ee89190611742565b905092915050565b60008183610efe9190611512565b905092915050565b6000819050919050565b610f1981610f06565b82525050565b600061012082019050610f35600083018c610f10565b610f42602083018b610f10565b610f4f604083018a610f10565b610f5c6060830189610f10565b610f696080830188610f10565b610f7660a0830187610f10565b610f8360c0830186610f10565b610f9060e0830185610f10565b610f9e610100830184610f10565b9a9950505050505050505050565b600081519050919050565b600082825260208201905092915050565b60005b83811015610fe6578082015181840152602081019050610fcb565b83811115610ff5576000848401525b50505050565b6000601f19601f8301169050919050565b600061101782610fac565b6110218185610fb7565b9350611031818560208601610fc8565b61103a81610ffb565b840191505092915050565b6000610180820190508181036000830152611060818f61100c565b905061106f602083018e610f10565b8181036040830152611081818d61100c565b9050611090606083018c610f10565b81810360808301526110a2818b61100c565b90506110b160a083018a610f10565b81810360c08301526110c3818961100c565b90506110d260e0830188610f10565b8181036101008301526110e5818761100c565b90506110f5610120830186610f10565b818103610140830152611108818561100c565b9050611118610160830184610f10565b9d9c50505050505050505050505050565b600080fd5b61113781610f06565b811461114257600080fd5b50565b6000813590506111548161112e565b92915050565b6000602082840312156111705761116f611129565b5b600061117e84828501611145565b91505092915050565b600060ff82169050919050565b61119d81611187565b82525050565b60008115159050919050565b6111b8816111a3565b82525050565b600073ffffffffffffffffffffffffffffffffffffffff82169050919050565b60006111e9826111be565b9050919050565b6111f9816111de565b82525050565b600061120a826111be565b9050919050565b61121a816111ff565b82525050565b6000819050919050565b61123381611220565b82525050565b60006101008201905061124f600083018b610f10565b61125c602083018a610f10565b6112696040830189611194565b6112766060830188611194565b61128360808301876111af565b61129060a08301866111f0565b61129d60c0830185611211565b6112aa60e083018461122a565b9998505050505050505050565b6112c081611187565b81146112cb57600080fd5b50565b6000813590506112dd816112b7565b92915050565b6000806000606084860312156112fc576112fb611129565b5b600061130a868287016112ce565b935050602061131b868287016112ce565b925050604061132c868287016112ce565b9150509250925092565b6000806040838503121561134d5761134c611129565b5b600061135b85828601611145565b925050602061136c858286016112ce565b9150509250929050565b600060208201905061138b6000830184611211565b92915050565b6000610120820190506113a7600083018c610f10565b6113b4602083018b610f10565b6113c1604083018a611194565b6113ce6060830189611194565b6113db60808301886111af565b6113e860a0830187611211565b6113f560c0830186611211565b61140260e0830185611211565b61141061010083018461122a565b9a9950505050505050505050565b611427816111ff565b811461143257600080fd5b50565b6000813590506114448161141e565b92915050565b6000602082840312156114605761145f611129565b5b600061146e84828501611435565b91505092915050565b611480816111de565b811461148b57600080fd5b50565b60008135905061149d81611477565b92915050565b600080604083850312156114ba576114b9611129565b5b60006114c885828601611145565b92505060206114d98582860161148e565b9150509250929050565b7f4e487b7100000000000000000000000000000000000000000000000000000000600052601160045260246000fd5b600061151d82610f06565b915061152883610f06565b92508282101561153b5761153a6114e3565b5b828203905092915050565b7f43616c6c6572206973206e6f74206f776e657200000000000000000000000000600082015250565b600061157c601383610fb7565b915061158782611546565b602082019050919050565b600060208201905081810360008301526115ab8161156f565b9050919050565b7f4368616e6765466565733a205f7768656e206973206e6569746865722030206f60008201527f7220310000000000000000000000000000000000000000000000000000000000602082015250565b600061160e602383610fb7565b9150611619826115b2565b604082019050919050565b6000602082019050818103600083015261163d81611601565b9050919050565b7f4368616e6765446973636f756e743a2077726f6e6720617267756d656e747300600082015250565b600061167a601f83610fb7565b915061168582611644565b602082019050919050565b600060208201905081810360008301526116a98161166d565b9050919050565b7f506179546865446576733a205f616d6f756e74206973206e756c6c206f72206860008201527f6967686572207468616e2053696b6b657227732070726f666974000000000000602082015250565b600061170c603a83610fb7565b9150611717826116b0565b604082019050919050565b6000602082019050818103600083015261173b816116ff565b9050919050565b600061174d82610f06565b915061175883610f06565b9250827fffffffffffffffffffffffffffffffffffffffffffffffffffffffffffffffff0382111561178d5761178c6114e3565b5b82820190509291505056fe546f74616c2076616c75652061637475616c6c79206c6f636b6564206f6e20544d4d3a546f74616c2076616c75652061637475616c6c79206c6f636b6564206f6e2043453aa2646970667358221220edb8134b5f915a63e89ad9779dead657c02cd908eae004358c8178b64a8ef9e464736f6c634300080a0033",
  "immutableReferences": {},
  "source": "// SPDX-License-Identifier: MIT\n\npragma solidity >=0.7.0 <0.9.0;\n\nimport \"./maths/SikkerMaths.sol\";\n\ncontract SikkerStats is SikkerMaths {\n    using SafeMath for uint256;\n    using SafeMath for uint32;\n\n    function UpdateStatsTMM(\n        uint256 _id,\n        uint8 _lockUnlock,\n        uint256 _amount,\n        uint8 _birthDeath,\n        uint8 _newStatus)\n        internal {\n            \n        SikkerProfit = SikkerProfit.add(_TMM_Tickets[_id].Amount.sub(_amount));\n\n        if (_lockUnlock == Unlocked) {\n            TMM_ValueUnLocked = TMM_ValueUnLocked.add(_amount);\n            SikkerProfit = SikkerProfit.add(_TMM_Tickets[_id].Amount.sub(_amount));\n        } else\n            TMM_ValueEverLocked = TMM_ValueEverLocked.add(_amount);\n\n        if (_birthDeath == Birth) {\n            TMM_Ticket_Number = OneUp(TMM_Ticket_Number);\n        } else if (_birthDeath == Death) {\n            TMM_Inactive_Ticket_Number = OneUp(TMM_Inactive_Ticket_Number);\n        }\n\n        _TMM_Tickets[_id].Status = _newStatus;\n\n    }\n    \n    function UpdateStatsCE(\n        uint256 _id,\n        uint8 _lockUnlock,\n        uint256 _amount,\n        uint256 _atyAmount,\n        uint8 _birthDeath,\n        uint8 _newStatus)\n        internal {\n\n\n        if (_amount > 0)\n            SikkerProfit = SikkerProfit.add(_CE_Tickets[_id].Amount.sub(_amount));\n\n        if (_lockUnlock == Unlocked) {\n            CE_ValueUnLocked = CE_ValueUnLocked.add(_amount);\n            SikkerProfit = SikkerProfit.add(_TMM_Tickets[_id].Amount.sub(_amount));\n        } else if (_lockUnlock == Locked) {\n            CE_ValueEverLocked = CE_ValueEverLocked.add(_amount);\n        } else if (_lockUnlock == Both) {\n            CE_ValueEverLocked = CE_ValueEverLocked.add(_amount);\n            CE_ValueUnLocked = CE_ValueUnLocked.add(_atyAmount);\n            SikkerProfit = SikkerProfit.add(_TMM_Tickets[_id].Amount.sub(_atyAmount));\n        }\n        if (_birthDeath == Birth)\n            CE_Ticket_Number = OneUp(CE_Ticket_Number);\n        else\n            CE_Inactive_Ticket_Number = OneUp(CE_Inactive_Ticket_Number);\n\n        _CE_Tickets[_id].Status = _newStatus;\n\n    }\n\n    function CurrentlyLockedValue() private view returns(uint256) {\n\n        uint256 total = 0;\n\n        for (uint256 i = 0; i != CE_Ticket_Number; i++) {\n            if (_CE_Tickets[i].Status == 1)\n                total = total.add(_CE_Tickets[i].Amount);\n        }\n        for (uint256 i = 0; i != TMM_Ticket_Number; i++) {\n            if (_TMM_Tickets[i].Status == 0)\n                total = total.add(_TMM_Tickets[i].Amount);\n        }\n\n        return (total);\n    }\n\n    function CE_Stats() public view returns(\n        string memory, uint256,\n        string memory, uint256,\n        string memory, uint256,\n        string memory, uint256,\n        string memory, uint256,\n        string memory, uint256\n        ) {\n\n        return (\n                \"Total CE tickets created:\",\n                CE_Ticket_Number,\n                \"Total active CE tickets:\",\n                CE_Ticket_Number.sub(CE_Inactive_Ticket_Number),\n                \"Total inactive CE tickets:\",\n                CE_Inactive_Ticket_Number,\n                \"Total value actually locked on CE:\",\n                CE_ValueEverLocked - CE_ValueUnLocked,\n                \"Total value ever locked on CE:\",\n                CE_ValueEverLocked,\n                \"Total value unlocked on CE:\",\n                CE_ValueUnLocked\n            );\n    }\n\n    function TMM_Stats() public view returns(\n        string memory, uint256,\n        string memory, uint256,\n        string memory, uint256,\n        string memory, uint256,\n        string memory, uint256,\n        string memory, uint256\n        ) {\n\n        return (\n                \"Total TMM tickets created:\",\n                TMM_Ticket_Number,\n                \"Total active TMM tickets:\",\n                TMM_Ticket_Number.sub(TMM_Inactive_Ticket_Number),\n                \"Total inactive TMM tickets:\",\n                TMM_Inactive_Ticket_Number,\n                \"Total value actually locked on TMM:\",\n                TMM_ValueEverLocked.sub(TMM_ValueUnLocked),\n                \"Total value ever locked on TMM:\",\n                TMM_ValueEverLocked,\n                \"Total value unlocked on TMM:\",\n                TMM_ValueUnLocked\n            );\n    }\n\n    function Sikker_Stats() public view returns(\n        uint256,\n        uint256,\n        uint256,\n        uint256,\n        uint256,\n        uint256, uint256,\n        uint256, uint256\n        ) {\n\n            uint256 TotalValueEverLocked;\n            uint256 TotalValueUnlocked;\n\n            TotalValueEverLocked = CE_ValueEverLocked.add(TMM_ValueEverLocked);\n            TotalValueUnlocked = CE_ValueUnLocked.add(TMM_ValueUnLocked);\n\n        return (\n                //Total value locked (TVL):\n                TotalValueEverLocked.sub(TotalValueUnlocked),\n                //Total value ever locked:\n                TotalValueEverLocked,\n                //Total value ever unlocked:\n                TotalValueUnlocked,\n                //Total Sikker's profit:\n                SikkerProfit,\n                //Total profit withdrew:\n                WddProfit,\n                //Sending fees (Percent / Divider):\n                SendPercent, SendDivider,\n                //Closing fees (Percent / Divider):\n                ClosPercent, ClosDivider\n        );\n    }\n\n}",
  "sourcePath": "/home/steph/CRYPTO/Sikker/repo/contracts/SikkerStats.sol",
  "compiler": {
    "name": "solc",
    "version": "0.8.10+commit.fc410830.Emscripten.clang"
  },
  "schemaVersion": "3.4.4",
  "updatedAt": "2021-12-19T15:42:31.610Z",
  "devdoc": {
    "kind": "dev",
    "methods": {
      "changeOwner(address)": {
        "details": "Change owner",
        "params": {
          "newOwner": "address of new owner"
        }
      },
      "getOwner()": {
        "details": "Return owner address ",
        "returns": {
          "_0": "address of owner"
        }
      }
    },
    "version": 1
  },
  "userdoc": {
    "kind": "user",
    "methods": {},
    "version": 1
  }
}