{
  "contractName": "UseTickets",
  "abi": [
    {
      "anonymous": false,
      "inputs": [
        {
          "indexed": false,
          "internalType": "uint256",
          "name": "_id",
          "type": "uint256"
        },
        {
          "indexed": false,
          "internalType": "string",
          "name": "_type",
          "type": "string"
        },
        {
          "indexed": false,
          "internalType": "uint256",
          "name": "_amount",
          "type": "uint256"
        },
        {
          "indexed": false,
          "internalType": "address",
          "name": "_payer",
          "type": "address"
        },
        {
          "indexed": false,
          "internalType": "bool",
          "name": "_isTimeBlocked",
          "type": "bool"
        },
        {
          "indexed": false,
          "internalType": "uint8",
          "name": "_lostPercent",
          "type": "uint8"
        }
      ],
      "name": "ClosedTicket",
      "type": "event"
    },
    {
      "anonymous": false,
      "inputs": [
        {
          "indexed": false,
          "internalType": "uint256",
          "name": "_id",
          "type": "uint256"
        },
        {
          "indexed": false,
          "internalType": "string",
          "name": "_type",
          "type": "string"
        },
        {
          "indexed": false,
          "internalType": "uint256",
          "name": "_amount",
          "type": "uint256"
        },
        {
          "indexed": false,
          "internalType": "address",
          "name": "_creator",
          "type": "address"
        },
        {
          "indexed": false,
          "internalType": "bool",
          "name": "_designatedReceiver",
          "type": "bool"
        },
        {
          "indexed": false,
          "internalType": "address",
          "name": "_receiver",
          "type": "address"
        },
        {
          "indexed": false,
          "internalType": "uint8",
          "name": "_lossPercent",
          "type": "uint8"
        }
      ],
      "name": "CreatedTicket",
      "type": "event"
    },
    {
      "anonymous": false,
      "inputs": [
        {
          "indexed": false,
          "internalType": "uint256",
          "name": "_id",
          "type": "uint256"
        },
        {
          "indexed": false,
          "internalType": "uint256",
          "name": "_amount",
          "type": "uint256"
        },
        {
          "indexed": false,
          "internalType": "address",
          "name": "_creator",
          "type": "address"
        },
        {
          "indexed": false,
          "internalType": "address",
          "name": "_payer",
          "type": "address"
        },
        {
          "indexed": false,
          "internalType": "address",
          "name": "_receiver",
          "type": "address"
        }
      ],
      "name": "FilledCE",
      "type": "event"
    },
    {
      "anonymous": false,
      "inputs": [
        {
          "indexed": true,
          "internalType": "address",
          "name": "oldOwner",
          "type": "address"
        },
        {
          "indexed": true,
          "internalType": "address",
          "name": "newOwner",
          "type": "address"
        }
      ],
      "name": "OwnerSet",
      "type": "event"
    },
    {
      "anonymous": false,
      "inputs": [
        {
          "indexed": false,
          "internalType": "uint256",
          "name": "_id",
          "type": "uint256"
        },
        {
          "indexed": false,
          "internalType": "uint256",
          "name": "_totalAmount",
          "type": "uint256"
        },
        {
          "indexed": false,
          "internalType": "uint256",
          "name": "_sentAmount",
          "type": "uint256"
        },
        {
          "indexed": false,
          "internalType": "address",
          "name": "_creator",
          "type": "address"
        },
        {
          "indexed": false,
          "internalType": "address",
          "name": "_payer",
          "type": "address"
        },
        {
          "indexed": false,
          "internalType": "address",
          "name": "_receiver",
          "type": "address"
        }
      ],
      "name": "SentHalfATY",
      "type": "event"
    },
    {
      "inputs": [],
      "name": "CE_Stats",
      "outputs": [
        {
          "internalType": "string",
          "name": "",
          "type": "string"
        },
        {
          "internalType": "uint256",
          "name": "",
          "type": "uint256"
        },
        {
          "internalType": "string",
          "name": "",
          "type": "string"
        },
        {
          "internalType": "uint256",
          "name": "",
          "type": "uint256"
        },
        {
          "internalType": "string",
          "name": "",
          "type": "string"
        },
        {
          "internalType": "uint256",
          "name": "",
          "type": "uint256"
        },
        {
          "internalType": "string",
          "name": "",
          "type": "string"
        },
        {
          "internalType": "uint256",
          "name": "",
          "type": "uint256"
        },
        {
          "internalType": "string",
          "name": "",
          "type": "string"
        },
        {
          "internalType": "uint256",
          "name": "",
          "type": "uint256"
        },
        {
          "internalType": "string",
          "name": "",
          "type": "string"
        },
        {
          "internalType": "uint256",
          "name": "",
          "type": "uint256"
        }
      ],
      "stateMutability": "view",
      "type": "function"
    },
    {
      "inputs": [
        {
          "internalType": "uint256",
          "name": "_triggerAmount",
          "type": "uint256"
        },
        {
          "internalType": "uint8",
          "name": "_discount",
          "type": "uint8"
        }
      ],
      "name": "ChangeDiscount",
      "outputs": [],
      "stateMutability": "nonpayable",
      "type": "function"
    },
    {
      "inputs": [
        {
          "internalType": "uint8",
          "name": "_when",
          "type": "uint8"
        },
        {
          "internalType": "uint8",
          "name": "_percent",
          "type": "uint8"
        },
        {
          "internalType": "uint8",
          "name": "_divider",
          "type": "uint8"
        }
      ],
      "name": "ChangeFees",
      "outputs": [],
      "stateMutability": "nonpayable",
      "type": "function"
    },
    {
      "inputs": [
        {
          "internalType": "uint256",
          "name": "_amount",
          "type": "uint256"
        },
        {
          "internalType": "address payable",
          "name": "_receiver",
          "type": "address"
        }
      ],
      "name": "PayTheDevs",
      "outputs": [],
      "stateMutability": "nonpayable",
      "type": "function"
    },
    {
      "inputs": [],
      "name": "Sikker_Stats",
      "outputs": [
        {
          "internalType": "uint256",
          "name": "",
          "type": "uint256"
        },
        {
          "internalType": "uint256",
          "name": "",
          "type": "uint256"
        },
        {
          "internalType": "uint256",
          "name": "",
          "type": "uint256"
        },
        {
          "internalType": "uint256",
          "name": "",
          "type": "uint256"
        },
        {
          "internalType": "uint256",
          "name": "",
          "type": "uint256"
        },
        {
          "internalType": "uint256",
          "name": "",
          "type": "uint256"
        },
        {
          "internalType": "uint256",
          "name": "",
          "type": "uint256"
        },
        {
          "internalType": "uint256",
          "name": "",
          "type": "uint256"
        },
        {
          "internalType": "uint256",
          "name": "",
          "type": "uint256"
        }
      ],
      "stateMutability": "view",
      "type": "function"
    },
    {
      "inputs": [],
      "name": "TMM_Stats",
      "outputs": [
        {
          "internalType": "string",
          "name": "",
          "type": "string"
        },
        {
          "internalType": "uint256",
          "name": "",
          "type": "uint256"
        },
        {
          "internalType": "string",
          "name": "",
          "type": "string"
        },
        {
          "internalType": "uint256",
          "name": "",
          "type": "uint256"
        },
        {
          "internalType": "string",
          "name": "",
          "type": "string"
        },
        {
          "internalType": "uint256",
          "name": "",
          "type": "uint256"
        },
        {
          "internalType": "string",
          "name": "",
          "type": "string"
        },
        {
          "internalType": "uint256",
          "name": "",
          "type": "uint256"
        },
        {
          "internalType": "string",
          "name": "",
          "type": "string"
        },
        {
          "internalType": "uint256",
          "name": "",
          "type": "uint256"
        },
        {
          "internalType": "string",
          "name": "",
          "type": "string"
        },
        {
          "internalType": "uint256",
          "name": "",
          "type": "uint256"
        }
      ],
      "stateMutability": "view",
      "type": "function"
    },
    {
      "inputs": [
        {
          "internalType": "uint256",
          "name": "",
          "type": "uint256"
        }
      ],
      "name": "_CE_Tickets",
      "outputs": [
        {
          "internalType": "uint256",
          "name": "Amount",
          "type": "uint256"
        },
        {
          "internalType": "uint256",
          "name": "TimeLock",
          "type": "uint256"
        },
        {
          "internalType": "uint8",
          "name": "Status",
          "type": "uint8"
        },
        {
          "internalType": "uint8",
          "name": "LossPercent",
          "type": "uint8"
        },
        {
          "internalType": "bool",
          "name": "Aty",
          "type": "bool"
        },
        {
          "internalType": "address",
          "name": "Payer",
          "type": "address"
        },
        {
          "internalType": "address",
          "name": "Receiver",
          "type": "address"
        },
        {
          "internalType": "address",
          "name": "Creator",
          "type": "address"
        },
        {
          "internalType": "bytes32",
          "name": "Hash",
          "type": "bytes32"
        }
      ],
      "stateMutability": "view",
      "type": "function"
    },
    {
      "inputs": [
        {
          "internalType": "bool",
          "name": "_aty",
          "type": "bool"
        },
        {
          "internalType": "uint8",
          "name": "_lossPercent",
          "type": "uint8"
        },
        {
          "internalType": "uint256",
          "name": "_amount",
          "type": "uint256"
        },
        {
          "internalType": "address",
          "name": "_receiver",
          "type": "address"
        },
        {
          "internalType": "uint256",
          "name": "_timeLock",
          "type": "uint256"
        },
        {
          "internalType": "bytes32",
          "name": "_hash",
          "type": "bytes32"
        }
      ],
      "name": "_CreateCE",
      "outputs": [],
      "stateMutability": "nonpayable",
      "type": "function"
    },
    {
      "inputs": [
        {
          "internalType": "bytes32",
          "name": "_hash",
          "type": "bytes32"
        },
        {
          "internalType": "uint8",
          "name": "_lossPercent",
          "type": "uint8"
        },
        {
          "internalType": "uint256",
          "name": "_timeLock",
          "type": "uint256"
        },
        {
          "internalType": "bool",
          "name": "_designatedReceiver",
          "type": "bool"
        },
        {
          "internalType": "address",
          "name": "_receiver",
          "type": "address"
        }
      ],
      "name": "_CreateTMM",
      "outputs": [],
      "stateMutability": "payable",
      "type": "function"
    },
    {
      "inputs": [
        {
          "internalType": "uint256",
          "name": "",
          "type": "uint256"
        }
      ],
      "name": "_TMM_Tickets",
      "outputs": [
        {
          "internalType": "uint256",
          "name": "Amount",
          "type": "uint256"
        },
        {
          "internalType": "uint256",
          "name": "TimeLock",
          "type": "uint256"
        },
        {
          "internalType": "uint8",
          "name": "Status",
          "type": "uint8"
        },
        {
          "internalType": "uint8",
          "name": "LossPercent",
          "type": "uint8"
        },
        {
          "internalType": "bool",
          "name": "DeRe",
          "type": "bool"
        },
        {
          "internalType": "address payable",
          "name": "Receiver",
          "type": "address"
        },
        {
          "internalType": "address",
          "name": "Creator",
          "type": "address"
        },
        {
          "internalType": "bytes32",
          "name": "Hash",
          "type": "bytes32"
        }
      ],
      "stateMutability": "view",
      "type": "function"
    },
    {
      "inputs": [
        {
          "internalType": "address",
          "name": "newOwner",
          "type": "address"
        }
      ],
      "name": "changeOwner",
      "outputs": [],
      "stateMutability": "nonpayable",
      "type": "function"
    },
    {
      "inputs": [],
      "name": "getOwner",
      "outputs": [
        {
          "internalType": "address",
          "name": "",
          "type": "address"
        }
      ],
      "stateMutability": "view",
      "type": "function"
    },
    {
      "inputs": [
        {
          "internalType": "string",
          "name": "_password",
          "type": "string"
        },
        {
          "internalType": "uint256",
          "name": "_id",
          "type": "uint256"
        }
      ],
      "name": "_FillCE",
      "outputs": [
        {
          "internalType": "string",
          "name": "timelocked",
          "type": "string"
        }
      ],
      "stateMutability": "payable",
      "type": "function"
    },
    {
      "inputs": [
        {
          "internalType": "uint256",
          "name": "_id",
          "type": "uint256"
        }
      ],
      "name": "_ApproveCE",
      "outputs": [
        {
          "internalType": "string",
          "name": "locked",
          "type": "string"
        }
      ],
      "stateMutability": "nonpayable",
      "type": "function"
    },
    {
      "inputs": [
        {
          "internalType": "uint256",
          "name": "_id",
          "type": "uint256"
        }
      ],
      "name": "_CloseCE",
      "outputs": [
        {
          "internalType": "string",
          "name": "locked",
          "type": "string"
        }
      ],
      "stateMutability": "nonpayable",
      "type": "function"
    },
    {
      "inputs": [
        {
          "internalType": "string",
          "name": "_password",
          "type": "string"
        },
        {
          "internalType": "uint256",
          "name": "_id",
          "type": "uint256"
        }
      ],
      "name": "_UseTMM",
      "outputs": [
        {
          "internalType": "string",
          "name": "timelocked",
          "type": "string"
        }
      ],
      "stateMutability": "nonpayable",
      "type": "function"
    },
    {
      "inputs": [
        {
          "internalType": "uint256",
          "name": "_id",
          "type": "uint256"
        }
      ],
      "name": "_CloseTMM",
      "outputs": [
        {
          "internalType": "string",
          "name": "locked",
          "type": "string"
        }
      ],
      "stateMutability": "nonpayable",
      "type": "function"
    },
    {
      "inputs": [
        {
          "internalType": "uint256",
          "name": "_id",
          "type": "uint256"
        }
      ],
      "name": "_LockCE",
      "outputs": [
        {
          "internalType": "bool",
          "name": "",
          "type": "bool"
        }
      ],
      "stateMutability": "nonpayable",
      "type": "function"
    },
    {
      "inputs": [
        {
          "internalType": "uint256",
          "name": "_id",
          "type": "uint256"
        }
      ],
      "name": "_LockTMM",
      "outputs": [
        {
          "internalType": "bool",
          "name": "",
          "type": "bool"
        }
      ],
      "stateMutability": "nonpayable",
      "type": "function"
    }
  ],
  "bytecode": "0x60806040526000600960006101000a81548160ff021916908360ff1602179055506001600960016101000a81548160ff021916908360ff1602179055506000600960026101000a81548160ff021916908360ff1602179055506001600960036101000a81548160ff021916908360ff1602179055506000600960046101000a81548160ff021916908360ff1602179055506001600960056101000a81548160ff021916908360ff1602179055506003600960066101000a81548160ff021916908360ff1602179055506001600960076101000a81548160ff0219169083151502179055506000600960086101000a81548160ff02191690831515021790555061dead6009806101000a81548173ffffffffffffffffffffffffffffffffffffffff021916908373ffffffffffffffffffffffffffffffffffffffff1602179055506000600f60006101000a81548160ff021916908360ff1602179055506001600f60016101000a81548160ff021916908360ff1602179055506002600f60026101000a81548160ff021916908360ff1602179055503480156101a057600080fd5b50336000806101000a81548173ffffffffffffffffffffffffffffffffffffffff021916908373ffffffffffffffffffffffffffffffffffffffff16021790555060008054906101000a900473ffffffffffffffffffffffffffffffffffffffff1673ffffffffffffffffffffffffffffffffffffffff16600073ffffffffffffffffffffffffffffffffffffffff167f342827c97908e5e2f71151c08502a66d44b6f758e3ac2f1de95f02eb95f0a73560405160405180910390a361270f600f60036101000a81548163ffffffff021916908363ffffffff160217905550612710600f60076101000a81548163ffffffff021916908363ffffffff1602179055506063600f600b6101000a81548163ffffffff021916908363ffffffff1602179055506064600f806101000a81548163ffffffff021916908363ffffffff1602179055506159eb80620002f56000396000f3fe6080604052600436106101145760003560e01c8063a25dbe5c116100a0578063cad68b0411610064578063cad68b041461040b578063d115745114610434578063d9f5b9dc14610471578063e9eaecdd146104ae578063fb891f9d146104ca57610114565b8063a25dbe5c146102f5578063a6f9dae114610332578063b162144d1461035b578063c26a649014610398578063c843a8a4146103d557610114565b80633bf91428116100e75780633bf91428146102035780633e4db85d1461023357806372e402c51461025c578063893d20e8146102855780638a521c60146102b057610114565b806306e2335d1461011957806322a023aa1461014c57806329573143146101825780632a69d6af146101c6575b600080fd5b34801561012557600080fd5b5061012e6104f3565b604051610143999897969594939291906145db565b60405180910390f35b34801561015857600080fd5b506101616105de565b6040516101799c9b9a99989796959493929190614701565b60405180910390f35b34801561018e57600080fd5b506101a960048036038101906101a49190614825565b61078b565b6040516101bd989796959493929190614904565b60405180910390f35b3480156101d257600080fd5b506101ed60048036038101906101e89190614825565b61084a565b6040516101fa9190614982565b60405180910390f35b61021d60048036038101906102189190614ad9565b610e4a565b60405161022a9190614982565b60405180910390f35b34801561023f57600080fd5b5061025a60048036038101906102559190614b61565b611445565b005b34801561026857600080fd5b50610283600480360381019061027e9190614bb4565b6116ef565b005b34801561029157600080fd5b5061029a6117f8565b6040516102a79190614bf4565b60405180910390f35b3480156102bc57600080fd5b506102d760048036038101906102d29190614825565b611821565b6040516102ec99989796959493929190614c0f565b60405180910390f35b34801561030157600080fd5b5061031c60048036038101906103179190614825565b611906565b6040516103299190614c9c565b60405180910390f35b34801561033e57600080fd5b5061035960048036038101906103549190614ce3565b611e32565b005b34801561036757600080fd5b50610382600480360381019061037d9190614825565b611f7d565b60405161038f9190614982565b60405180910390f35b3480156103a457600080fd5b506103bf60048036038101906103ba9190614825565b6124cf565b6040516103cc9190614982565b60405180910390f35b3480156103e157600080fd5b506103ea612a76565b6040516104029c9b9a99989796959493929190614701565b60405180910390f35b34801561041757600080fd5b50610432600480360381019061042d9190614d3c565b612c2a565b005b34801561044057600080fd5b5061045b60048036038101906104569190614ad9565b612dd5565b6040516104689190614982565b60405180910390f35b34801561047d57600080fd5b5061049860048036038101906104939190614825565b613448565b6040516104a59190614c9c565b60405180910390f35b6104c860048036038101906104c39190614dd4565b61391d565b005b3480156104d657600080fd5b506104f160048036038101906104ec9190614e4f565b613c68565b005b600080600080600080600080600080600061051b600754600354613f8e90919063ffffffff16565b9150610534600854600454613f8e90919063ffffffff16565b90506105498183613fa490919063ffffffff16565b8282600c54600d54600f60039054906101000a900463ffffffff16600f60079054906101000a900463ffffffff16600f600b9054906101000a900463ffffffff16600f8054906101000a900463ffffffff168363ffffffff1693508263ffffffff1692508163ffffffff1691508063ffffffff1690509a509a509a509a509a509a509a509a509a505050909192939495969798565b606060006060600060606000606060006060600060606000600154610610600254600154613fa490919063ffffffff16565b6002546004546003546106239190614f0b565b6003546004546040518060400160405280601981526020017f546f74616c204345207469636b65747320637265617465643a000000000000008152509594939291906040518060400160405280601881526020017f546f74616c20616374697665204345207469636b6574733a000000000000000081525094939291906040518060400160405280601a81526020017f546f74616c20696e616374697665204345207469636b6574733a00000000000081525093929190604051806060016040528060228152602001615994602291399291906040518060400160405280601e81526020017f546f74616c2076616c75652065766572206c6f636b6564206f6e2043453a000081525091906040518060400160405280601b81526020017f546f74616c2076616c756520756e6c6f636b6564206f6e2043453a0000000000815250909b509b509b509b509b509b509b509b509b509b509b509b50909192939495969798999a9b565b600b818154811061079b57600080fd5b90600052602060002090600502016000915090508060000154908060010154908060020160009054906101000a900460ff16908060020160019054906101000a900460ff16908060020160029054906101000a900460ff16908060020160039054906101000a900473ffffffffffffffffffffffffffffffffffffffff16908060030160009054906101000a900473ffffffffffffffffffffffffffffffffffffffff16908060040154905088565b6060600960009054906101000a900460ff1682600960019054906101000a900460ff1660ff168260ff1614806108945750600960009054906101000a900460ff1660ff168260ff16145b6108d3576040517f08c379a00000000000000000000000000000000000000000000000000000000081526004016108ca90614f8b565b60405180910390fd5b6000811015610917576040517f08c379a000000000000000000000000000000000000000000000000000000000815260040161090e90614ff7565b60405180910390fd5b600960009054906101000a900460ff1660ff168260ff16141561097d576001548110610978576040517f08c379a000000000000000000000000000000000000000000000000000000000815260040161096f90615063565b60405180910390fd5b6109c2565b60055481106109c1576040517f08c379a00000000000000000000000000000000000000000000000000000000081526004016109b8906150cf565b60405180910390fd5b5b600a84815481106109d6576109d56150ef565b5b906000526020600020906006020160020160039054906101000a900473ffffffffffffffffffffffffffffffffffffffff163373ffffffffffffffffffffffffffffffffffffffff168173ffffffffffffffffffffffffffffffffffffffff1614610a76576040517f08c379a0000000000000000000000000000000000000000000000000000000008152600401610a6d90615190565b60405180910390fd5b600a8581548110610a8a57610a896150ef565b5b906000526020600020906006020160020160009054906101000a900460ff16600960009054906101000a900460ff16600960009054906101000a900460ff1660ff168160ff161480610af05750600960019054906101000a900460ff1660ff168160ff16145b610b2f576040517f08c379a0000000000000000000000000000000000000000000000000000000008152600401610b26906151fc565b60405180910390fd5b60008260ff161480610b64575060018260ff16148015610b635750600960009054906101000a900460ff1660ff168160ff16145b5b610ba3576040517f08c379a0000000000000000000000000000000000000000000000000000000008152600401610b9a9061528e565b60405180910390fd5b600080600a8981548110610bba57610bb96150ef565b5b906000526020600020906006020160020160019054906101000a900460ff1660ff161415610c3b57610c34600f600b9054906101000a900463ffffffff16600a8a81548110610c0c57610c0b6150ef565b5b906000526020600020906006020160000154600f8054906101000a900463ffffffff16613fba565b9050610ca4565b610ca1600a8981548110610c5257610c516150ef565b5b906000526020600020906006020160020160019054906101000a900460ff1660ff16600a8a81548110610c8857610c876150ef565b5b9060005260206000209060060201600001546064613fba565b90505b60001515610cb189611906565b151514610cf6576040518060400160405280601581526020017f5469636b65742069732074696d656c6f636b6564210000000000000000000000815250965050610e40565b60011515600a8981548110610d0e57610d0d6150ef565b5b906000526020600020906006020160020160029054906101000a900460ff1615151415610d4c57610d4960028261406490919063ffffffff16565b90505b610d7a88600960029054906101000a900460ff16836000600960059054906101000a900460ff16600261407a565b600a8881548110610d8e57610d8d6150ef565b5b906000526020600020906006020160020160039054906101000a900473ffffffffffffffffffffffffffffffffffffffff1673ffffffffffffffffffffffffffffffffffffffff166108fc829081150290604051600060405180830381858888f19350505050158015610e05573d6000803e3d6000fd5b506040518060400160405280601581526020017f5469636b6574206973206e6f77206c6f636b65642e00000000000000000000008152509650505b5050505050919050565b6060600960009054906101000a900460ff1682600960019054906101000a900460ff1660ff168260ff161480610e945750600960009054906101000a900460ff1660ff168260ff16145b610ed3576040517f08c379a0000000000000000000000000000000000000000000000000000000008152600401610eca90614f8b565b60405180910390fd5b6000811015610f17576040517f08c379a0000000000000000000000000000000000000000000000000000000008152600401610f0e90614ff7565b60405180910390fd5b600960009054906101000a900460ff1660ff168260ff161415610f7d576001548110610f78576040517f08c379a0000000000000000000000000000000000000000000000000000000008152600401610f6f90615063565b60405180910390fd5b610fc2565b6005548110610fc1576040517f08c379a0000000000000000000000000000000000000000000000000000000008152600401610fb8906150cf565b60405180910390fd5b5b600a8481548110610fd657610fd56150ef565b5b906000526020600020906006020160020160009054906101000a900460ff16600960009054906101000a900460ff16600960009054906101000a900460ff1660ff168160ff16148061103c5750600960019054906101000a900460ff1660ff168160ff16145b61107b576040517f08c379a0000000000000000000000000000000000000000000000000000000008152600401611072906151fc565b60405180910390fd5b60008260ff1614806110b0575060018260ff161480156110af5750600960009054906101000a900460ff1660ff168160ff16145b5b6110ef576040517f08c379a00000000000000000000000000000000000000000000000000000000081526004016110e69061528e565b60405180910390fd5b86600a8781548110611104576111036150ef565b5b9060005260206000209060060201600501548180519060200120811461115f576040517f08c379a0000000000000000000000000000000000000000000000000000000008152600401611156906152fa565b60405180910390fd5b6000806111b6600f60039054906101000a900463ffffffff16600a8c8154811061118c5761118b6150ef565b5b906000526020600020906006020160000154600f60079054906101000a900463ffffffff16613fba565b905060006111ce60028361406490919063ffffffff16565b9050600015156111dd8c611906565b15151461121f576040517f08c379a000000000000000000000000000000000000000000000000000000000815260040161121690615366565b60405180910390fd5b600a8b81548110611233576112326150ef565b5b906000526020600020906006020160000154341015611287576040517f08c379a000000000000000000000000000000000000000000000000000000000815260040161127e906153f8565b60405180910390fd5b33600a8c8154811061129c5761129b6150ef565b5b906000526020600020906006020160020160036101000a81548173ffffffffffffffffffffffffffffffffffffffff021916908373ffffffffffffffffffffffffffffffffffffffff16021790555060011515600a8c81548110611303576113026150ef565b5b906000526020600020906006020160020160029054906101000a900460ff16151514156113cd57600f60029054906101000a900460ff169250600a8b815481106113505761134f6150ef565b5b906000526020600020906006020160030160009054906101000a900473ffffffffffffffffffffffffffffffffffffffff1673ffffffffffffffffffffffffffffffffffffffff166108fc839081150290604051600060405180830381858888f193505050501580156113c7573d6000803e3d6000fd5b506113e0565b600960039054906101000a900460ff1692505b6113fe8b848484600960069054906101000a900460ff16600161407a565b6040518060400160405280601581526020017f5469636b6574206973206e6f772066696c6c65642e0000000000000000000000815250995050505050505050505092915050565b60008054906101000a900473ffffffffffffffffffffffffffffffffffffffff1673ffffffffffffffffffffffffffffffffffffffff163373ffffffffffffffffffffffffffffffffffffffff16146114d3576040517f08c379a00000000000000000000000000000000000000000000000000000000081526004016114ca90615464565b60405180910390fd5b600f60009054906101000a900460ff1660ff168360ff16148061150a5750600f60019054906101000a900460ff1660ff168360ff16145b806115295750600f60029054906101000a900460ff1660ff168360ff16145b611568576040517f08c379a000000000000000000000000000000000000000000000000000000000815260040161155f906154f6565b60405180910390fd5b600f60009054906101000a900460ff1660ff168360ff1614156115d2578160ff16600f60036101000a81548163ffffffff021916908363ffffffff1602179055508060ff16600f60076101000a81548163ffffffff021916908363ffffffff1602179055506116ea565b600f60019054906101000a900460ff1660ff168360ff16141561163b578160ff16600f600b6101000a81548163ffffffff021916908363ffffffff1602179055508060ff16600f806101000a81548163ffffffff021916908363ffffffff1602179055506116e9565b600f60029054906101000a900460ff1660ff168360ff1614156116e8578160ff16600f60036101000a81548163ffffffff021916908363ffffffff1602179055508060ff16600f60076101000a81548163ffffffff021916908363ffffffff1602179055508160ff16600f600b6101000a81548163ffffffff021916908363ffffffff1602179055508060ff16600f806101000a81548163ffffffff021916908363ffffffff1602179055505b5b5b505050565b60008054906101000a900473ffffffffffffffffffffffffffffffffffffffff1673ffffffffffffffffffffffffffffffffffffffff163373ffffffffffffffffffffffffffffffffffffffff161461177d576040517f08c379a000000000000000000000000000000000000000000000000000000000815260040161177490615464565b60405180910390fd5b620186a082118015611793575060008160ff1610155b6117d2576040517f08c379a00000000000000000000000000000000000000000000000000000000081526004016117c990615562565b60405180910390fd5b8160108190555080601160006101000a81548160ff021916908360ff1602179055505050565b60008060009054906101000a900473ffffffffffffffffffffffffffffffffffffffff16905090565b600a818154811061183157600080fd5b90600052602060002090600602016000915090508060000154908060010154908060020160009054906101000a900460ff16908060020160019054906101000a900460ff16908060020160029054906101000a900460ff16908060020160039054906101000a900473ffffffffffffffffffffffffffffffffffffffff16908060030160009054906101000a900473ffffffffffffffffffffffffffffffffffffffff16908060040160009054906101000a900473ffffffffffffffffffffffffffffffffffffffff16908060050154905089565b6000600960009054906101000a900460ff1682600960019054906101000a900460ff1660ff168260ff1614806119505750600960009054906101000a900460ff1660ff168260ff16145b61198f576040517f08c379a000000000000000000000000000000000000000000000000000000000815260040161198690614f8b565b60405180910390fd5b60008110156119d3576040517f08c379a00000000000000000000000000000000000000000000000000000000081526004016119ca90614ff7565b60405180910390fd5b600960009054906101000a900460ff1660ff168260ff161415611a39576001548110611a34576040517f08c379a0000000000000000000000000000000000000000000000000000000008152600401611a2b90615063565b60405180910390fd5b611a7e565b6005548110611a7d576040517f08c379a0000000000000000000000000000000000000000000000000000000008152600401611a74906150cf565b60405180910390fd5b5b600a8481548110611a9257611a916150ef565b5b906000526020600020906006020160020160009054906101000a900460ff16600960009054906101000a900460ff16600960009054906101000a900460ff1660ff168160ff161480611af85750600960019054906101000a900460ff1660ff168160ff16145b611b37576040517f08c379a0000000000000000000000000000000000000000000000000000000008152600401611b2e906151fc565b60405180910390fd5b60008260ff161480611b6c575060018260ff16148015611b6b5750600960009054906101000a900460ff1660ff168160ff16145b5b611bab576040517f08c379a0000000000000000000000000000000000000000000000000000000008152600401611ba29061528e565b60405180910390fd5b6000600a8781548110611bc157611bc06150ef565b5b906000526020600020906006020160010154118015611c05575042600a8781548110611bf057611bef6150ef565b5b90600052602060002090600602016001015411155b15611e2457600080600a8881548110611c2157611c206150ef565b5b906000526020600020906006020160020160019054906101000a900460ff1660ff161415611ca257611c9b600f600b9054906101000a900463ffffffff16600a8981548110611c7357611c726150ef565b5b906000526020600020906006020160000154600f8054906101000a900463ffffffff16613fba565b9050611d0b565b611d08600a8881548110611cb957611cb86150ef565b5b906000526020600020906006020160020160019054906101000a900460ff1660ff16600a8981548110611cef57611cee6150ef565b5b9060005260206000209060060201600001546064613fba565b90505b60011515600a8881548110611d2357611d226150ef565b5b906000526020600020906006020160020160029054906101000a900460ff1615151415611d6157611d5e60028261406490919063ffffffff16565b90505b611d8e87600960029054906101000a900460ff168384600960059054906101000a900460ff16600361407a565b600a8781548110611da257611da16150ef565b5b906000526020600020906006020160020160039054906101000a900473ffffffffffffffffffffffffffffffffffffffff1673ffffffffffffffffffffffffffffffffffffffff166108fc829081150290604051600060405180830381858888f19350505050158015611e19573d6000803e3d6000fd5b506001955050611e29565b600094505b50505050919050565b60008054906101000a900473ffffffffffffffffffffffffffffffffffffffff1673ffffffffffffffffffffffffffffffffffffffff163373ffffffffffffffffffffffffffffffffffffffff1614611ec0576040517f08c379a0000000000000000000000000000000000000000000000000000000008152600401611eb790615464565b60405180910390fd5b8073ffffffffffffffffffffffffffffffffffffffff1660008054906101000a900473ffffffffffffffffffffffffffffffffffffffff1673ffffffffffffffffffffffffffffffffffffffff167f342827c97908e5e2f71151c08502a66d44b6f758e3ac2f1de95f02eb95f0a73560405160405180910390a3806000806101000a81548173ffffffffffffffffffffffffffffffffffffffff021916908373ffffffffffffffffffffffffffffffffffffffff16021790555050565b6060600a8281548110611f9357611f926150ef565b5b906000526020600020906006020160020160039054906101000a900473ffffffffffffffffffffffffffffffffffffffff163373ffffffffffffffffffffffffffffffffffffffff168173ffffffffffffffffffffffffffffffffffffffff1614612033576040517f08c379a000000000000000000000000000000000000000000000000000000000815260040161202a90615190565b60405180910390fd5b600960009054906101000a900460ff1683600960019054906101000a900460ff1660ff168260ff16148061207b5750600960009054906101000a900460ff1660ff168260ff16145b6120ba576040517f08c379a00000000000000000000000000000000000000000000000000000000081526004016120b190614f8b565b60405180910390fd5b60008110156120fe576040517f08c379a00000000000000000000000000000000000000000000000000000000081526004016120f590614ff7565b60405180910390fd5b600960009054906101000a900460ff1660ff168260ff16141561216457600154811061215f576040517f08c379a000000000000000000000000000000000000000000000000000000000815260040161215690615063565b60405180910390fd5b6121a9565b60055481106121a8576040517f08c379a000000000000000000000000000000000000000000000000000000000815260040161219f906150cf565b60405180910390fd5b5b600a85815481106121bd576121bc6150ef565b5b906000526020600020906006020160020160009054906101000a900460ff16600960009054906101000a900460ff16600960009054906101000a900460ff1660ff168160ff1614806122235750600960019054906101000a900460ff1660ff168160ff16145b612262576040517f08c379a0000000000000000000000000000000000000000000000000000000008152600401612259906151fc565b60405180910390fd5b60008260ff161480612297575060018260ff161480156122965750600960009054906101000a900460ff1660ff168160ff16145b5b6122d6576040517f08c379a00000000000000000000000000000000000000000000000000000000081526004016122cd9061528e565b60405180910390fd5b600015156122e388611906565b151514612325576040517f08c379a000000000000000000000000000000000000000000000000000000000815260040161231c906155ce565b60405180910390fd5b600061237b600f60039054906101000a900463ffffffff16600a8a81548110612351576123506150ef565b5b906000526020600020906006020160000154600f60079054906101000a900463ffffffff16613fba565b905060011515600a8981548110612395576123946150ef565b5b906000526020600020906006020160020160029054906101000a900460ff16151514156123d3576123d060028261406490919063ffffffff16565b90505b61240088600960029054906101000a900460ff168384600960059054906101000a900460ff16600261407a565b600a8881548110612414576124136150ef565b5b906000526020600020906006020160030160009054906101000a900473ffffffffffffffffffffffffffffffffffffffff1673ffffffffffffffffffffffffffffffffffffffff166108fc829081150290604051600060405180830381858888f1935050505015801561248b573d6000803e3d6000fd5b506040518060400160405280601581526020017f5469636b6574206973206e6f7720636c6f7365642e00000000000000000000008152509650505050505050919050565b6060600960019054906101000a900460ff1682600960019054906101000a900460ff1660ff168260ff1614806125195750600960009054906101000a900460ff1660ff168260ff16145b612558576040517f08c379a000000000000000000000000000000000000000000000000000000000815260040161254f90614f8b565b60405180910390fd5b600081101561259c576040517f08c379a000000000000000000000000000000000000000000000000000000000815260040161259390614ff7565b60405180910390fd5b600960009054906101000a900460ff1660ff168260ff1614156126025760015481106125fd576040517f08c379a00000000000000000000000000000000000000000000000000000000081526004016125f490615063565b60405180910390fd5b612647565b6005548110612646576040517f08c379a000000000000000000000000000000000000000000000000000000000815260040161263d906150cf565b60405180910390fd5b5b600b848154811061265b5761265a6150ef565b5b906000526020600020906005020160030160009054906101000a900473ffffffffffffffffffffffffffffffffffffffff163373ffffffffffffffffffffffffffffffffffffffff168173ffffffffffffffffffffffffffffffffffffffff16146126fb576040517f08c379a00000000000000000000000000000000000000000000000000000000081526004016126f290615190565b60405180910390fd5b600b858154811061270f5761270e6150ef565b5b906000526020600020906005020160020160009054906101000a900460ff16600960019054906101000a900460ff16600960009054906101000a900460ff1660ff168160ff1614806127755750600960019054906101000a900460ff1660ff168160ff16145b6127b4576040517f08c379a00000000000000000000000000000000000000000000000000000000081526004016127ab906151fc565b60405180910390fd5b60008260ff1614806127e9575060018260ff161480156127e85750600960009054906101000a900460ff1660ff168160ff16145b5b612828576040517f08c379a000000000000000000000000000000000000000000000000000000000815260040161281f9061528e565b60405180910390fd5b6000151561283588613448565b151514612879576040518060400160405280601581526020017f5469636b65742069732074696d656c6f636b65642100000000000000000000008152509550612a6c565b600080600b89815481106128905761288f6150ef565b5b906000526020600020906005020160020160019054906101000a900460ff1660ff1614156129115761290a600f600b9054906101000a900463ffffffff16600b8a815481106128e2576128e16150ef565b5b906000526020600020906005020160000154600f8054906101000a900463ffffffff16613fba565b905061297a565b612977600b8981548110612928576129276150ef565b5b906000526020600020906005020160020160019054906101000a900460ff1660ff16600b8a8154811061295e5761295d6150ef565b5b9060005260206000209060050201600001546064613fba565b90505b6129a688600960029054906101000a900460ff1683600960059054906101000a900460ff1660016142d5565b600b88815481106129ba576129b96150ef565b5b906000526020600020906005020160030160009054906101000a900473ffffffffffffffffffffffffffffffffffffffff1673ffffffffffffffffffffffffffffffffffffffff166108fc829081150290604051600060405180830381858888f19350505050158015612a31573d6000803e3d6000fd5b506040518060400160405280601481526020017f5469636b6574206973206e6f77206c6f7365642e0000000000000000000000008152509650505b5050505050919050565b606060006060600060606000606060006060600060606000600554612aa8600654600554613fa490919063ffffffff16565b600654612ac2600854600754613fa490919063ffffffff16565b6007546008546040518060400160405280601a81526020017f546f74616c20544d4d207469636b65747320637265617465643a0000000000008152509594939291906040518060400160405280601981526020017f546f74616c2061637469766520544d4d207469636b6574733a0000000000000081525094939291906040518060400160405280601b81526020017f546f74616c20696e61637469766520544d4d207469636b6574733a000000000081525093929190604051806060016040528060238152602001615947602391399291906040518060400160405280601f81526020017f546f74616c2076616c75652065766572206c6f636b6564206f6e20544d4d3a0081525091906040518060400160405280601c81526020017f546f74616c2076616c756520756e6c6f636b6564206f6e20544d4d3a00000000815250909b509b509b509b509b509b509b509b509b509b509b509b50909192939495969798999a9b565b60008054906101000a900473ffffffffffffffffffffffffffffffffffffffff1673ffffffffffffffffffffffffffffffffffffffff163373ffffffffffffffffffffffffffffffffffffffff1614612cb8576040517f08c379a0000000000000000000000000000000000000000000000000000000008152600401612caf90615464565b60405180910390fd5b6000600e541415612ce157612cda600d54600c54613fa490919063ffffffff16565b600e819055505b600082118015612cf35750600e548211155b612d32576040517f08c379a0000000000000000000000000000000000000000000000000000000008152600401612d2990615660565b60405180910390fd5b60098054906101000a900473ffffffffffffffffffffffffffffffffffffffff1673ffffffffffffffffffffffffffffffffffffffff168173ffffffffffffffffffffffffffffffffffffffff161415612d8a573390505b8073ffffffffffffffffffffffffffffffffffffffff166108fc839081150290604051600060405180830381858888f19350505050158015612dd0573d6000803e3d6000fd5b505050565b6060600960019054906101000a900460ff1682600960019054906101000a900460ff1660ff168260ff161480612e1f5750600960009054906101000a900460ff1660ff168260ff16145b612e5e576040517f08c379a0000000000000000000000000000000000000000000000000000000008152600401612e5590614f8b565b60405180910390fd5b6000811015612ea2576040517f08c379a0000000000000000000000000000000000000000000000000000000008152600401612e9990614ff7565b60405180910390fd5b600960009054906101000a900460ff1660ff168260ff161415612f08576001548110612f03576040517f08c379a0000000000000000000000000000000000000000000000000000000008152600401612efa90615063565b60405180910390fd5b612f4d565b6005548110612f4c576040517f08c379a0000000000000000000000000000000000000000000000000000000008152600401612f43906150cf565b60405180910390fd5b5b600b8481548110612f6157612f606150ef565b5b906000526020600020906005020160020160039054906101000a900473ffffffffffffffffffffffffffffffffffffffff16600b8581548110612fa757612fa66150ef565b5b906000526020600020906005020160020160029054906101000a900460ff168560001515821515148061300557503373ffffffffffffffffffffffffffffffffffffffff168373ffffffffffffffffffffffffffffffffffffffff16145b613044576040517f08c379a000000000000000000000000000000000000000000000000000000000815260040161303b90615718565b60405180910390fd5b600b8781548110613058576130576150ef565b5b906000526020600020906005020160020160009054906101000a900460ff16600960019054906101000a900460ff16600960009054906101000a900460ff1660ff168160ff1614806130be5750600960019054906101000a900460ff1660ff168160ff16145b6130fd576040517f08c379a00000000000000000000000000000000000000000000000000000000081526004016130f4906151fc565b60405180910390fd5b60008260ff161480613132575060018260ff161480156131315750600960009054906101000a900460ff1660ff168160ff16145b5b613171576040517f08c379a00000000000000000000000000000000000000000000000000000000081526004016131689061528e565b60405180910390fd5b89600b8a81548110613186576131856150ef565b5b906000526020600020906005020160040154818051906020012081146131e1576040517f08c379a00000000000000000000000000000000000000000000000000000000081526004016131d8906152fa565b60405180910390fd5b600015156131ee8c613448565b151514613232576040518060400160405280601581526020017f5469636b65742069732074696d656c6f636b65642100000000000000000000008152509950613439565b6000613288600f60039054906101000a900463ffffffff16600b8e8154811061325e5761325d6150ef565b5b906000526020600020906005020160000154600f60079054906101000a900463ffffffff16613fba565b905060001515600b8d815481106132a2576132a16150ef565b5b906000526020600020906005020160020160029054906101000a900460ff161515141561338c5733600b8d815481106132de576132dd6150ef565b5b906000526020600020906005020160020160036101000a81548173ffffffffffffffffffffffffffffffffffffffff021916908373ffffffffffffffffffffffffffffffffffffffff1602179055506001600b8d81548110613343576133426150ef565b5b906000526020600020906005020160020160026101000a81548160ff0219169083151502179055506040518060600160405280602a815260200161596a602a91399a5050613439565b3373ffffffffffffffffffffffffffffffffffffffff166108fc829081150290604051600060405180830381858888f193505050501580156133d2573d6000803e3d6000fd5b506133ff8c600960029054906101000a900460ff1683600960059054906101000a900460ff1660016142d5565b6040518060400160405280601481526020017f5469636b6574206973206e6f7720636c6f7365640000000000000000000000008152509a50505b50505050505050505092915050565b6000600960019054906101000a900460ff1682600960019054906101000a900460ff1660ff168260ff1614806134925750600960009054906101000a900460ff1660ff168260ff16145b6134d1576040517f08c379a00000000000000000000000000000000000000000000000000000000081526004016134c890614f8b565b60405180910390fd5b6000811015613515576040517f08c379a000000000000000000000000000000000000000000000000000000000815260040161350c90614ff7565b60405180910390fd5b600960009054906101000a900460ff1660ff168260ff16141561357b576001548110613576576040517f08c379a000000000000000000000000000000000000000000000000000000000815260040161356d90615063565b60405180910390fd5b6135c0565b60055481106135bf576040517f08c379a00000000000000000000000000000000000000000000000000000000081526004016135b6906150cf565b60405180910390fd5b5b600b84815481106135d4576135d36150ef565b5b906000526020600020906005020160020160009054906101000a900460ff16600960019054906101000a900460ff16600960009054906101000a900460ff1660ff168160ff16148061363a5750600960019054906101000a900460ff1660ff168160ff16145b613679576040517f08c379a0000000000000000000000000000000000000000000000000000000008152600401613670906151fc565b60405180910390fd5b60008260ff1614806136ae575060018260ff161480156136ad5750600960009054906101000a900460ff1660ff168160ff16145b5b6136ed576040517f08c379a00000000000000000000000000000000000000000000000000000000081526004016136e49061528e565b60405180910390fd5b6000600b8781548110613703576137026150ef565b5b906000526020600020906005020160010154118015613747575042600b8781548110613732576137316150ef565b5b90600052602060002090600502016001015411155b1561390f57600080600b8881548110613763576137626150ef565b5b906000526020600020906005020160020160019054906101000a900460ff1660ff1614156137e4576137dd600f600b9054906101000a900463ffffffff16600b89815481106137b5576137b46150ef565b5b906000526020600020906005020160000154600f8054906101000a900463ffffffff16613fba565b905061384d565b61384a600b88815481106137fb576137fa6150ef565b5b906000526020600020906005020160020160019054906101000a900460ff1660ff16600b8981548110613831576138306150ef565b5b9060005260206000209060050201600001546064613fba565b90505b61387987600960029054906101000a900460ff1683600960059054906101000a900460ff1660026142d5565b600b878154811061388d5761388c6150ef565b5b906000526020600020906005020160030160009054906101000a900473ffffffffffffffffffffffffffffffffffffffff1673ffffffffffffffffffffffffffffffffffffffff166108fc829081150290604051600060405180830381858888f19350505050158015613904573d6000803e3d6000fd5b506001955050613914565b600094505b50505050919050565b3460008111613961576040517f08c379a000000000000000000000000000000000000000000000000000000000815260040161395890615784565b60405180910390fd5b6139696144ad565b34816000018181525050338160c0019073ffffffffffffffffffffffffffffffffffffffff16908173ffffffffffffffffffffffffffffffffffffffff168152505083816080019015159081151581525050600115158415151415613a0557828160a0019073ffffffffffffffffffffffffffffffffffffffff16908173ffffffffffffffffffffffffffffffffffffffff1681525050613a5e565b60098054906101000a900473ffffffffffffffffffffffffffffffffffffffff168160a0019073ffffffffffffffffffffffffffffffffffffffff16908173ffffffffffffffffffffffffffffffffffffffff16815250505b868160e00181815250506000816040019060ff16908160ff168152505060008514613a9d578442613a8f91906157a4565b816020018181525050613aa9565b60008160200181815250505b60058660ff1610158015613ac1575060648660ff1611155b15613add5785816060019060ff16908160ff1681525050613af1565b6046816060019060ff16908160ff16815250505b600b819080600181540180825580915050600190039060005260206000209060050201600090919091909150600082015181600001556020820151816001015560408201518160020160006101000a81548160ff021916908360ff16021790555060608201518160020160016101000a81548160ff021916908360ff16021790555060808201518160020160026101000a81548160ff02191690831515021790555060a08201518160020160036101000a81548173ffffffffffffffffffffffffffffffffffffffff021916908373ffffffffffffffffffffffffffffffffffffffff16021790555060c08201518160030160006101000a81548173ffffffffffffffffffffffffffffffffffffffff021916908373ffffffffffffffffffffffffffffffffffffffff16021790555060e082015181600401555050613c5f600554600960039054906101000a900460ff168360000151600960049054906101000a900460ff1660006142d5565b50505050505050565b8360008111613cac576040517f08c379a0000000000000000000000000000000000000000000000000000000008152600401613ca390615784565b60405180910390fd5b613cb4614529565b85816000018181525050338160e0019073ffffffffffffffffffffffffffffffffffffffff16908173ffffffffffffffffffffffffffffffffffffffff1681525050848160c0019073ffffffffffffffffffffffffffffffffffffffff16908173ffffffffffffffffffffffffffffffffffffffff168152505082816101000181815250506000816040019060ff16908160ff168152505060008414613d6e578342613d6091906157a4565b816020018181525050613d7a565b60008160200181815250505b60008760ff16118015613d91575060648760ff1611155b15613dad5786816060019060ff16908160ff1681525050613dc1565b6000816060019060ff16908160ff16815250505b87816080019015159081151581525050600a819080600181540180825580915050600190039060005260206000209060060201600090919091909150600082015181600001556020820151816001015560408201518160020160006101000a81548160ff021916908360ff16021790555060608201518160020160016101000a81548160ff021916908360ff16021790555060808201518160020160026101000a81548160ff02191690831515021790555060a08201518160020160036101000a81548173ffffffffffffffffffffffffffffffffffffffff021916908373ffffffffffffffffffffffffffffffffffffffff16021790555060c08201518160030160006101000a81548173ffffffffffffffffffffffffffffffffffffffff021916908373ffffffffffffffffffffffffffffffffffffffff16021790555060e08201518160040160006101000a81548173ffffffffffffffffffffffffffffffffffffffff021916908373ffffffffffffffffffffffffffffffffffffffff16021790555061010082015181600501555050613f846000600960069054906101000a900460ff16600080600960049054906101000a900460ff16600061407a565b5050505050505050565b60008183613f9c91906157a4565b905092915050565b60008183613fb29190614f0b565b905092915050565b6000808463ffffffff16118015613fd35750620186a083115b8015613fe5575060008263ffffffff16115b614024576040517f08c379a000000000000000000000000000000000000000000000000000000000815260040161401b9061586c565b60405180910390fd5b60006140578363ffffffff16614049868863ffffffff1661447a90919063ffffffff16565b61406490919063ffffffff16565b9050809150509392505050565b6000818361407291906158bb565b905092915050565b60008411156140d6576140cf6140be85600a898154811061409e5761409d6150ef565b5b906000526020600020906006020160000154613fa490919063ffffffff16565b600c54613f8e90919063ffffffff16565b600c819055505b600960029054906101000a900460ff1660ff168560ff1614156141655761410884600454613f8e90919063ffffffff16565b60048190555061415a61414985600b8981548110614129576141286150ef565b5b906000526020600020906005020160000154613fa490919063ffffffff16565b600c54613f8e90919063ffffffff16565b600c8190555061424a565b600960039054906101000a900460ff1660ff168560ff1614156141a25761419784600354613f8e90919063ffffffff16565b600381905550614249565b600f60029054906101000a900460ff1660ff168560ff161415614248576141d484600354613f8e90919063ffffffff16565b6003819055506141ef83600454613f8e90919063ffffffff16565b60048190555061424161423084600b89815481106142105761420f6150ef565b5b906000526020600020906005020160000154613fa490919063ffffffff16565b600c54613f8e90919063ffffffff16565b600c819055505b5b5b600960049054906101000a900460ff1660ff168260ff16141561427d57614272600154614490565b60018190555061428f565b614288600254614490565b6002819055505b80600a87815481106142a4576142a36150ef565b5b906000526020600020906006020160020160006101000a81548160ff021916908360ff160217905550505050505050565b61432161431084600b88815481106142f0576142ef6150ef565b5b906000526020600020906005020160000154613fa490919063ffffffff16565b600c54613f8e90919063ffffffff16565b600c81905550600960029054906101000a900460ff1660ff168460ff1614156143b65761435983600854613f8e90919063ffffffff16565b6008819055506143ab61439a84600b888154811061437a576143796150ef565b5b906000526020600020906005020160000154613fa490919063ffffffff16565b600c54613f8e90919063ffffffff16565b600c819055506143d2565b6143cb83600754613f8e90919063ffffffff16565b6007819055505b600960049054906101000a900460ff1660ff168260ff161415614405576143fa600554614490565b600581905550614435565b600960059054906101000a900460ff1660ff168260ff1614156144345761442d600654614490565b6006819055505b5b80600b868154811061444a576144496150ef565b5b906000526020600020906005020160020160006101000a81548160ff021916908360ff1602179055505050505050565b6000818361448891906158ec565b905092915050565b60006144a6600183613f8e90919063ffffffff16565b9050919050565b6040518061010001604052806000815260200160008152602001600060ff168152602001600060ff168152602001600015158152602001600073ffffffffffffffffffffffffffffffffffffffff168152602001600073ffffffffffffffffffffffffffffffffffffffff168152602001600080191681525090565b6040518061012001604052806000815260200160008152602001600060ff168152602001600060ff168152602001600015158152602001600073ffffffffffffffffffffffffffffffffffffffff168152602001600073ffffffffffffffffffffffffffffffffffffffff168152602001600073ffffffffffffffffffffffffffffffffffffffff168152602001600080191681525090565b6000819050919050565b6145d5816145c2565b82525050565b6000610120820190506145f1600083018c6145cc565b6145fe602083018b6145cc565b61460b604083018a6145cc565b61461860608301896145cc565b61462560808301886145cc565b61463260a08301876145cc565b61463f60c08301866145cc565b61464c60e08301856145cc565b61465a6101008301846145cc565b9a9950505050505050505050565b600081519050919050565b600082825260208201905092915050565b60005b838110156146a2578082015181840152602081019050614687565b838111156146b1576000848401525b50505050565b6000601f19601f8301169050919050565b60006146d382614668565b6146dd8185614673565b93506146ed818560208601614684565b6146f6816146b7565b840191505092915050565b600061018082019050818103600083015261471c818f6146c8565b905061472b602083018e6145cc565b818103604083015261473d818d6146c8565b905061474c606083018c6145cc565b818103608083015261475e818b6146c8565b905061476d60a083018a6145cc565b81810360c083015261477f81896146c8565b905061478e60e08301886145cc565b8181036101008301526147a181876146c8565b90506147b16101208301866145cc565b8181036101408301526147c481856146c8565b90506147d46101608301846145cc565b9d9c50505050505050505050505050565b6000604051905090565b600080fd5b600080fd5b614802816145c2565b811461480d57600080fd5b50565b60008135905061481f816147f9565b92915050565b60006020828403121561483b5761483a6147ef565b5b600061484984828501614810565b91505092915050565b600060ff82169050919050565b61486881614852565b82525050565b60008115159050919050565b6148838161486e565b82525050565b600073ffffffffffffffffffffffffffffffffffffffff82169050919050565b60006148b482614889565b9050919050565b6148c4816148a9565b82525050565b60006148d582614889565b9050919050565b6148e5816148ca565b82525050565b6000819050919050565b6148fe816148eb565b82525050565b60006101008201905061491a600083018b6145cc565b614927602083018a6145cc565b614934604083018961485f565b614941606083018861485f565b61494e608083018761487a565b61495b60a08301866148bb565b61496860c08301856148dc565b61497560e08301846148f5565b9998505050505050505050565b6000602082019050818103600083015261499c81846146c8565b905092915050565b600080fd5b600080fd5b7f4e487b7100000000000000000000000000000000000000000000000000000000600052604160045260246000fd5b6149e6826146b7565b810181811067ffffffffffffffff82111715614a0557614a046149ae565b5b80604052505050565b6000614a186147e5565b9050614a2482826149dd565b919050565b600067ffffffffffffffff821115614a4457614a436149ae565b5b614a4d826146b7565b9050602081019050919050565b82818337600083830152505050565b6000614a7c614a7784614a29565b614a0e565b905082815260208101848484011115614a9857614a976149a9565b5b614aa3848285614a5a565b509392505050565b600082601f830112614ac057614abf6149a4565b5b8135614ad0848260208601614a69565b91505092915050565b60008060408385031215614af057614aef6147ef565b5b600083013567ffffffffffffffff811115614b0e57614b0d6147f4565b5b614b1a85828601614aab565b9250506020614b2b85828601614810565b9150509250929050565b614b3e81614852565b8114614b4957600080fd5b50565b600081359050614b5b81614b35565b92915050565b600080600060608486031215614b7a57614b796147ef565b5b6000614b8886828701614b4c565b9350506020614b9986828701614b4c565b9250506040614baa86828701614b4c565b9150509250925092565b60008060408385031215614bcb57614bca6147ef565b5b6000614bd985828601614810565b9250506020614bea85828601614b4c565b9150509250929050565b6000602082019050614c0960008301846148dc565b92915050565b600061012082019050614c25600083018c6145cc565b614c32602083018b6145cc565b614c3f604083018a61485f565b614c4c606083018961485f565b614c59608083018861487a565b614c6660a08301876148dc565b614c7360c08301866148dc565b614c8060e08301856148dc565b614c8e6101008301846148f5565b9a9950505050505050505050565b6000602082019050614cb1600083018461487a565b92915050565b614cc0816148ca565b8114614ccb57600080fd5b50565b600081359050614cdd81614cb7565b92915050565b600060208284031215614cf957614cf86147ef565b5b6000614d0784828501614cce565b91505092915050565b614d19816148a9565b8114614d2457600080fd5b50565b600081359050614d3681614d10565b92915050565b60008060408385031215614d5357614d526147ef565b5b6000614d6185828601614810565b9250506020614d7285828601614d27565b9150509250929050565b614d85816148eb565b8114614d9057600080fd5b50565b600081359050614da281614d7c565b92915050565b614db18161486e565b8114614dbc57600080fd5b50565b600081359050614dce81614da8565b92915050565b600080600080600060a08688031215614df057614def6147ef565b5b6000614dfe88828901614d93565b9550506020614e0f88828901614b4c565b9450506040614e2088828901614810565b9350506060614e3188828901614dbf565b9250506080614e4288828901614cce565b9150509295509295909350565b60008060008060008060c08789031215614e6c57614e6b6147ef565b5b6000614e7a89828a01614dbf565b9650506020614e8b89828a01614b4c565b9550506040614e9c89828a01614810565b9450506060614ead89828a01614cce565b9350506080614ebe89828a01614810565b92505060a0614ecf89828a01614d93565b9150509295509295509295565b7f4e487b7100000000000000000000000000000000000000000000000000000000600052601160045260246000fd5b6000614f16826145c2565b9150614f21836145c2565b925082821015614f3457614f33614edc565b5b828203905092915050565b7f4964436865636b3a2057726f6e67207479706520656e74657265640000000000600082015250565b6000614f75601b83614673565b9150614f8082614f3f565b602082019050919050565b60006020820190508181036000830152614fa481614f68565b9050919050565b7f4964436865636b3a205f6964206d757374206265203e20300000000000000000600082015250565b6000614fe1601883614673565b9150614fec82614fab565b602082019050919050565b6000602082019050818103600083015261501081614fd4565b9050919050565b7f4964436865636b3a20496e76616c6964204345205f6964000000000000000000600082015250565b600061504d601783614673565b915061505882615017565b602082019050919050565b6000602082019050818103600083015261507c81615040565b9050919050565b7f4964436865636b3a20496e76616c696420544d4d205f69640000000000000000600082015250565b60006150b9601883614673565b91506150c482615083565b602082019050919050565b600060208201905081810360008301526150e8816150ac565b9050919050565b7f4e487b7100000000000000000000000000000000000000000000000000000000600052603260045260246000fd5b7f4f6e6c7950617965723a20596f752068617665206e6f2072696768747320746f60008201527f20646f20746869732e0000000000000000000000000000000000000000000000602082015250565b600061517a602983614673565b91506151858261511e565b604082019050919050565b600060208201905081810360008301526151a98161516d565b9050919050565b7f537461747573436865636b3a2057726f6e672074797065000000000000000000600082015250565b60006151e6601783614673565b91506151f1826151b0565b602082019050919050565b60006020820190508181036000830152615215816151d9565b9050919050565b7f537461747573206572726f722c2074686973207469636b657420697320636c6f60008201527f7365642e00000000000000000000000000000000000000000000000000000000602082015250565b6000615278602483614673565b91506152838261521c565b604082019050919050565b600060208201905081810360008301526152a78161526b565b9050919050565b7f57726f6e672070617373776f726420656e74657265642e000000000000000000600082015250565b60006152e4601783614673565b91506152ef826152ae565b602082019050919050565b60006020820190508181036000830152615313816152d7565b9050919050565b7f46696c6c43453a205469636b65742069732074696d656c6f636b656421000000600082015250565b6000615350601d83614673565b915061535b8261531a565b602082019050919050565b6000602082019050818103600083015261537f81615343565b9050919050565b7f5f55736543453a204e6f7420656e6f7567682076616c7565207761732073656e60008201527f7400000000000000000000000000000000000000000000000000000000000000602082015250565b60006153e2602183614673565b91506153ed82615386565b604082019050919050565b60006020820190508181036000830152615411816153d5565b9050919050565b7f43616c6c6572206973206e6f74206f776e657200000000000000000000000000600082015250565b600061544e601383614673565b915061545982615418565b602082019050919050565b6000602082019050818103600083015261547d81615441565b9050919050565b7f4368616e6765466565733a205f7768656e206973206e6569746865722030206f60008201527f7220310000000000000000000000000000000000000000000000000000000000602082015250565b60006154e0602383614673565b91506154eb82615484565b604082019050919050565b6000602082019050818103600083015261550f816154d3565b9050919050565b7f4368616e6765446973636f756e743a2077726f6e6720617267756d656e747300600082015250565b600061554c601f83614673565b915061555782615516565b602082019050919050565b6000602082019050818103600083015261557b8161553f565b9050919050565b7f417070726f766543453a205469636b65742069732074696d656c6f636b656421600082015250565b60006155b8602083614673565b91506155c382615582565b602082019050919050565b600060208201905081810360008301526155e7816155ab565b9050919050565b7f506179546865446576733a205f616d6f756e74206973206e756c6c206f72206860008201527f6967686572207468616e2053696b6b657227732070726f666974000000000000602082015250565b600061564a603a83614673565b9150615655826155ee565b604082019050919050565b600060208201905081810360008301526156798161563d565b9050919050565b7f4f6e6c7952656365697665723a20596f7520617265206e6f7420746865206c6560008201527f676974696d61746520726563656976657220666f722074686973207469636b6560208201527f742e000000000000000000000000000000000000000000000000000000000000604082015250565b6000615702604283614673565b915061570d82615680565b606082019050919050565b60006020820190508181036000830152615731816156f5565b9050919050565b7f596f75206d75737420656e746572206120706f73697469766520616d6f756e74600082015250565b600061576e602083614673565b915061577982615738565b602082019050919050565b6000602082019050818103600083015261579d81615761565b9050919050565b60006157af826145c2565b91506157ba836145c2565b9250827fffffffffffffffffffffffffffffffffffffffffffffffffffffffffffffffff038211156157ef576157ee614edc565b5b828201905092915050565b7f53696b6b65724d6174682f50657263656e746167653a206f6e65206f6620746860008201527f6520617267756d656e7473206973206e756c6c00000000000000000000000000602082015250565b6000615856603383614673565b9150615861826157fa565b604082019050919050565b6000602082019050818103600083015261588581615849565b9050919050565b7f4e487b7100000000000000000000000000000000000000000000000000000000600052601260045260246000fd5b60006158c6826145c2565b91506158d1836145c2565b9250826158e1576158e061588c565b5b828204905092915050565b60006158f7826145c2565b9150615902836145c2565b9250817fffffffffffffffffffffffffffffffffffffffffffffffffffffffffffffffff048311821515161561593b5761593a614edc565b5b82820290509291505056fe546f74616c2076616c75652061637475616c6c79206c6f636b6564206f6e20544d4d3a6d73672e73656e646572206973206e6f77207468652064657369676e617465642072656365697665722e546f74616c2076616c75652061637475616c6c79206c6f636b6564206f6e2043453aa26469706673582212203b6d84af5a18ac4c46bdd3bcee62a4a4ebdbf8dbe7538284e7064aa88b4966c264736f6c634300080b0033",
  "immutableReferences": {},
  "source": "// SPDX-License-Identifier: MIT\n\npragma solidity >=0.7.0 <0.9.0;\n\n//@title Basically Sikker\"s user interface, to be used by tickets users\n//@dev Functions to use and close tickets\n\n\n/**\n * @title Use tickets smart contract\n * @dev Functions to use a payment ticket\n**/\n\nimport \"./SikkerStats.sol\";\nimport \"./CreateTickets.sol\";\n\ncontract UseTickets is SikkerStats, CreateTickets {\n    using SafeMath for uint256;\n    using SafeMath for uint32;\n\n//------------------------------------------------------   Modifiers  --------------------------------------------------------\n\n    modifier IdCheck(uint8 _type, uint256 _id) {\n\n        require(_type == isTMM || _type == isCE, \"IdCheck: Wrong type entered\");\n        require(_id >= 0, \"IdCheck: _id must be > 0\");\n        if (_type == isCE)\n            require(_id < CE_Ticket_Number, \"IdCheck: Invalid CE _id\");\n        else\n            require(_id < TMM_Ticket_Number, \"IdCheck: Invalid TMM _id\");\n        _;\n    }\n\n    modifier OnlyReceiver(address _receiver, bool _designated, uint256 _id) {\n\n        require(_designated == false || _receiver == msg.sender, \"OnlyReceiver: You are not the legitimate receiver for this ticket.\");\n        _;\n    }\n\n    modifier OnlyPayer(address _payer) {\n\n        require(_payer == msg.sender, \"OnlyPayer: You have no rights to do this.\");\n        _;\n    }\n\n    modifier PasswordCheck(string memory _password, bytes32 hash) {\n        require(hash == keccak256(bytes(_password)), \"Wrong password entered.\");\n        // Compare password hash to stored hash\n        _;\n    }\n\n    modifier StatusCheck(uint8 _status, uint8 _type) {\n        require(_type == isCE || _type == isTMM, \"StatusCheck: Wrong type\");\n        require(_status == 0 || (_status == 1 && _type == isCE), \"Status error, this ticket is closed.\");\n        // Verify that the ticket status is correct\n        _;\n    }\n\n    modifier TimeCheck(uint256 _lock, uint8 _type, uint256 _id) {\n        if (_lock != 0) {\n            if (_type == isCE)\n                require(_CE_Tickets[_id].TimeLock > block.timestamp, \"TimeCheck: CE Ticket is locked\");\n            else if (_type == isTMM)\n                require(_TMM_Tickets[_id].TimeLock > block.timestamp, \"TimeCheck: TMM Ticket is locked\");\n        }\n        _;\n    }\n\n//------------------------------------------------------   Functions  --------------------------------------------------------\n\n    function _FillCE(string memory _password, uint _id) public payable\n        IdCheck(isCE, _id)\n        StatusCheck(_CE_Tickets[_id].Status, isCE)\n        PasswordCheck(_password, _CE_Tickets[_id].Hash)\n        returns(string memory timelocked)\n    {\n\n        uint8 _lockUnlock;\n        uint256 _amount = Percentage(SendPercent, _CE_Tickets[_id].Amount, SendDivider);\n        uint256 _aty = _amount.div(2);\n\n        require(_LockCE(_id) == false, \"FillCE: Ticket is timelocked!\");\n        require(msg.value >= _CE_Tickets[_id].Amount, \"_UseCE: Not enough value was sent\");\n\n        _CE_Tickets[_id].Payer = msg.sender;\n\n        if (_CE_Tickets[_id].Aty == true) {\n            _lockUnlock = Both;\n            payable(_CE_Tickets[_id].Receiver).transfer(_amount);\n        } else\n            _lockUnlock = Locked;\n\n        UpdateStatsCE(_id, _lockUnlock, _amount, _aty, NONE, 1);\n        return(\"Ticket is now filled.\");\n    }\n\n    function _ApproveCE(uint _id) public\n        OnlyPayer(_CE_Tickets[_id].Payer)\n        IdCheck(isCE, _id)\n        StatusCheck(_CE_Tickets[_id].Status, isCE)\n        returns(string memory locked)\n    {\n\n        require(_LockCE(_id) == false, \"ApproveCE: Ticket is timelocked!\");\n\n        uint256 _amount = Percentage(SendPercent, _CE_Tickets[_id].Amount, SendDivider);\n\n        if (_CE_Tickets[_id].Aty == true)\n            _amount = _amount.div(2);\n\n        UpdateStatsCE(_id, Unlocked, _amount, _amount, Death, 2);\n\n        payable(_CE_Tickets[_id].Receiver).transfer(_amount);\n\n        return(\"Ticket is now closed.\");\n    }\n\n    function _CloseCE(uint256 _id) public\n        IdCheck(isCE, _id)\n        OnlyPayer(_CE_Tickets[_id].Payer)\n        StatusCheck(_CE_Tickets[_id].Status, isCE)\n        returns(string memory locked)\n    {\n\n        uint256 _amount;\n\n        if (_CE_Tickets[_id].LossPercent == 0)\n            _amount = Percentage(ClosPercent, _CE_Tickets[_id].Amount, ClosDivider);\n        else\n            _amount = Percentage(_CE_Tickets[_id].LossPercent, _CE_Tickets[_id].Amount, 100);\n\n        if (_LockCE(_id) != false)\n            return (\"Ticket is timelocked!\");\n\n        if (_CE_Tickets[_id].Aty == true)\n            _amount = _amount.div(2);\n\n        UpdateStatsCE(_id, Unlocked, _amount, 0, Death, 2);\n\n        payable(_CE_Tickets[_id].Payer).transfer(_amount);\n        return (\"Ticket is now locked.\");\n    }\n\n    function _UseTMM(string memory _password, uint256 _id)\n        public\n        IdCheck(isTMM, _id)\n        OnlyReceiver(_TMM_Tickets[_id].Receiver, _TMM_Tickets[_id].DeRe, _id)\n        StatusCheck(_TMM_Tickets[_id].Status, isTMM)\n        PasswordCheck(_password, _TMM_Tickets[_id].Hash)\n        returns(string memory timelocked) {\n\n        if (_LockTMM(_id) != false)\n            return (\"Ticket is timelocked!\");\n\n        uint256 _amount = Percentage(SendPercent, _TMM_Tickets[_id].Amount, SendDivider);\n\n        if (_TMM_Tickets[_id].DeRe == false) {\n            _TMM_Tickets[_id].Receiver = payable(msg.sender);\n            _TMM_Tickets[_id].DeRe = true;\n            return (\"msg.sender is now the designated receiver.\");\n        } else {\n            payable(msg.sender).transfer(_amount);\n            UpdateStatsTMM(_id, Unlocked, _amount, Death, 1);\n            return(\"Ticket is now closed\");\n        }\n    }\n\n    function _CloseTMM(uint256 _id) public\n            IdCheck(isTMM, _id)\n            OnlyPayer(_TMM_Tickets[_id].Creator)\n            StatusCheck(_TMM_Tickets[_id].Status, isTMM)\n            returns(string memory locked)\n        {\n\n        if (_LockTMM(_id) != false)\n            return (\"Ticket is timelocked!\");\n\n        uint256 _amount;\n\n        if (_TMM_Tickets[_id].LossPercent == 0)\n            _amount = Percentage(ClosPercent, _TMM_Tickets[_id].Amount, ClosDivider);\n        else\n            _amount = Percentage(_TMM_Tickets[_id].LossPercent, _TMM_Tickets[_id].Amount, 100);\n\n        UpdateStatsTMM(_id, Unlocked, _amount, Death, 1);\n        payable(_TMM_Tickets[_id].Creator).transfer(_amount);\n\n        return(\"Ticket is now losed.\");\n\n    }\n\n//------------------------------------------------- Lock functions\n\n    function _LockCE(uint256 _id) public\n        IdCheck(isCE, _id)\n        StatusCheck(_CE_Tickets[_id].Status, isCE)\n        returns(bool) {\n\n        if (_CE_Tickets[_id].TimeLock > 0 && _CE_Tickets[_id].TimeLock <= block.timestamp) {\n\n            uint256 _amount;\n\n            if (_CE_Tickets[_id].LossPercent == 0)\n                _amount = Percentage(ClosPercent, _CE_Tickets[_id].Amount, ClosDivider);\n            else\n                _amount = Percentage(_CE_Tickets[_id].LossPercent, _CE_Tickets[_id].Amount, 100);\n\n            if (_CE_Tickets[_id].Aty == true)\n                _amount = _amount.div(2);\n            UpdateStatsCE(_id, Unlocked, _amount, _amount, Death, 3);\n\n            payable(_CE_Tickets[_id].Payer).transfer(_amount);\n            return (true);\n        }\n        else\n            return (false);\n    }\n\n    function _LockTMM(uint256 _id) public\n        IdCheck(isTMM, _id)\n        StatusCheck(_TMM_Tickets[_id].Status, isTMM)\n        returns(bool) {\n\n        if (_TMM_Tickets[_id].TimeLock > 0 && _TMM_Tickets[_id].TimeLock <= block.timestamp) {\n\n            uint256 _amount;\n\n            if (_TMM_Tickets[_id].LossPercent == 0)\n                _amount = Percentage(ClosPercent, _TMM_Tickets[_id].Amount, ClosDivider);\n            else\n                _amount = Percentage(_TMM_Tickets[_id].LossPercent, _TMM_Tickets[_id].Amount, 100);\n\n            UpdateStatsTMM(_id, Unlocked, _amount, Death, 2);\n\n            payable(_TMM_Tickets[_id].Creator).transfer(_amount);\n            return (true);\n        }\n        else\n            return (false);\n    }\n\n}",
  "sourcePath": "/home/ange/delivery/P2P/Sikker/contracts/UseTickets.sol",
  "compiler": {
    "name": "solc",
    "version": "0.8.11+commit.d7f03943.Emscripten.clang"
  },
  "schemaVersion": "3.4.4",
  "updatedAt": "2022-02-11T15:39:03.756Z",
  "devdoc": {
    "kind": "dev",
    "methods": {
      "changeOwner(address)": {
        "details": "Change owner",
        "params": {
          "newOwner": "address of new owner"
        }
      },
      "getOwner()": {
        "details": "Return owner address",
        "returns": {
          "_0": "address of owner"
        }
      }
    },
    "version": 1
  },
  "userdoc": {
    "kind": "user",
    "methods": {},
    "version": 1
  }
}