{
  "contractName": "UseTickets",
  "abi": [
    {
      "anonymous": false,
      "inputs": [
        {
          "indexed": false,
          "internalType": "uint256",
          "name": "_id",
          "type": "uint256"
        },
        {
          "indexed": false,
          "internalType": "string",
          "name": "_type",
          "type": "string"
        },
        {
          "indexed": false,
          "internalType": "uint256",
          "name": "_amount",
          "type": "uint256"
        },
        {
          "indexed": false,
          "internalType": "address",
          "name": "_payer",
          "type": "address"
        },
        {
          "indexed": false,
          "internalType": "bool",
          "name": "_isTimeBlocked",
          "type": "bool"
        },
        {
          "indexed": false,
          "internalType": "uint8",
          "name": "_lostPercent",
          "type": "uint8"
        }
      ],
      "name": "ClosedTicket",
      "type": "event"
    },
    {
      "anonymous": false,
      "inputs": [
        {
          "indexed": false,
          "internalType": "uint256",
          "name": "_id",
          "type": "uint256"
        },
        {
          "indexed": false,
          "internalType": "string",
          "name": "_type",
          "type": "string"
        },
        {
          "indexed": false,
          "internalType": "uint256",
          "name": "_amount",
          "type": "uint256"
        },
        {
          "indexed": false,
          "internalType": "address",
          "name": "_creator",
          "type": "address"
        },
        {
          "indexed": false,
          "internalType": "bool",
          "name": "_designatedReceiver",
          "type": "bool"
        },
        {
          "indexed": false,
          "internalType": "address",
          "name": "_receiver",
          "type": "address"
        },
        {
          "indexed": false,
          "internalType": "uint8",
          "name": "_lossPercent",
          "type": "uint8"
        }
      ],
      "name": "CreatedTicket",
      "type": "event"
    },
    {
      "anonymous": false,
      "inputs": [
        {
          "indexed": false,
          "internalType": "uint256",
          "name": "_id",
          "type": "uint256"
        },
        {
          "indexed": false,
          "internalType": "uint256",
          "name": "_amount",
          "type": "uint256"
        },
        {
          "indexed": false,
          "internalType": "address",
          "name": "_creator",
          "type": "address"
        },
        {
          "indexed": false,
          "internalType": "address",
          "name": "_payer",
          "type": "address"
        },
        {
          "indexed": false,
          "internalType": "address",
          "name": "_receiver",
          "type": "address"
        }
      ],
      "name": "FilledCE",
      "type": "event"
    },
    {
      "anonymous": false,
      "inputs": [
        {
          "indexed": true,
          "internalType": "address",
          "name": "oldOwner",
          "type": "address"
        },
        {
          "indexed": true,
          "internalType": "address",
          "name": "newOwner",
          "type": "address"
        }
      ],
      "name": "OwnerSet",
      "type": "event"
    },
    {
      "anonymous": false,
      "inputs": [
        {
          "indexed": false,
          "internalType": "uint256",
          "name": "_id",
          "type": "uint256"
        },
        {
          "indexed": false,
          "internalType": "uint256",
          "name": "_totalAmount",
          "type": "uint256"
        },
        {
          "indexed": false,
          "internalType": "uint256",
          "name": "_sentAmount",
          "type": "uint256"
        },
        {
          "indexed": false,
          "internalType": "address",
          "name": "_creator",
          "type": "address"
        },
        {
          "indexed": false,
          "internalType": "address",
          "name": "_payer",
          "type": "address"
        },
        {
          "indexed": false,
          "internalType": "address",
          "name": "_receiver",
          "type": "address"
        }
      ],
      "name": "SentHalfATY",
      "type": "event"
    },
    {
      "inputs": [],
      "name": "CE_Stats",
      "outputs": [
        {
          "internalType": "string",
          "name": "",
          "type": "string"
        },
        {
          "internalType": "uint256",
          "name": "",
          "type": "uint256"
        },
        {
          "internalType": "string",
          "name": "",
          "type": "string"
        },
        {
          "internalType": "uint256",
          "name": "",
          "type": "uint256"
        },
        {
          "internalType": "string",
          "name": "",
          "type": "string"
        },
        {
          "internalType": "uint256",
          "name": "",
          "type": "uint256"
        },
        {
          "internalType": "string",
          "name": "",
          "type": "string"
        },
        {
          "internalType": "uint256",
          "name": "",
          "type": "uint256"
        },
        {
          "internalType": "string",
          "name": "",
          "type": "string"
        },
        {
          "internalType": "uint256",
          "name": "",
          "type": "uint256"
        },
        {
          "internalType": "string",
          "name": "",
          "type": "string"
        },
        {
          "internalType": "uint256",
          "name": "",
          "type": "uint256"
        }
      ],
      "stateMutability": "view",
      "type": "function"
    },
    {
      "inputs": [
        {
          "internalType": "uint256",
          "name": "_triggerAmount",
          "type": "uint256"
        },
        {
          "internalType": "uint8",
          "name": "_discount",
          "type": "uint8"
        }
      ],
      "name": "ChangeDiscount",
      "outputs": [],
      "stateMutability": "nonpayable",
      "type": "function"
    },
    {
      "inputs": [
        {
          "internalType": "uint8",
          "name": "_when",
          "type": "uint8"
        },
        {
          "internalType": "uint8",
          "name": "_percent",
          "type": "uint8"
        },
        {
          "internalType": "uint8",
          "name": "_divider",
          "type": "uint8"
        }
      ],
      "name": "ChangeFees",
      "outputs": [],
      "stateMutability": "nonpayable",
      "type": "function"
    },
    {
      "inputs": [
        {
          "internalType": "uint256",
          "name": "_amount",
          "type": "uint256"
        },
        {
          "internalType": "address payable",
          "name": "_receiver",
          "type": "address"
        }
      ],
      "name": "PayTheDevs",
      "outputs": [],
      "stateMutability": "nonpayable",
      "type": "function"
    },
    {
      "inputs": [],
      "name": "Sikker_Stats",
      "outputs": [
        {
          "internalType": "uint256",
          "name": "",
          "type": "uint256"
        },
        {
          "internalType": "uint256",
          "name": "",
          "type": "uint256"
        },
        {
          "internalType": "uint256",
          "name": "",
          "type": "uint256"
        },
        {
          "internalType": "uint256",
          "name": "",
          "type": "uint256"
        },
        {
          "internalType": "uint256",
          "name": "",
          "type": "uint256"
        },
        {
          "internalType": "uint256",
          "name": "",
          "type": "uint256"
        },
        {
          "internalType": "uint256",
          "name": "",
          "type": "uint256"
        },
        {
          "internalType": "uint256",
          "name": "",
          "type": "uint256"
        },
        {
          "internalType": "uint256",
          "name": "",
          "type": "uint256"
        }
      ],
      "stateMutability": "view",
      "type": "function"
    },
    {
      "inputs": [],
      "name": "TMM_Stats",
      "outputs": [
        {
          "internalType": "string",
          "name": "",
          "type": "string"
        },
        {
          "internalType": "uint256",
          "name": "",
          "type": "uint256"
        },
        {
          "internalType": "string",
          "name": "",
          "type": "string"
        },
        {
          "internalType": "uint256",
          "name": "",
          "type": "uint256"
        },
        {
          "internalType": "string",
          "name": "",
          "type": "string"
        },
        {
          "internalType": "uint256",
          "name": "",
          "type": "uint256"
        },
        {
          "internalType": "string",
          "name": "",
          "type": "string"
        },
        {
          "internalType": "uint256",
          "name": "",
          "type": "uint256"
        },
        {
          "internalType": "string",
          "name": "",
          "type": "string"
        },
        {
          "internalType": "uint256",
          "name": "",
          "type": "uint256"
        },
        {
          "internalType": "string",
          "name": "",
          "type": "string"
        },
        {
          "internalType": "uint256",
          "name": "",
          "type": "uint256"
        }
      ],
      "stateMutability": "view",
      "type": "function"
    },
    {
      "inputs": [
        {
          "internalType": "uint256",
          "name": "",
          "type": "uint256"
        }
      ],
      "name": "_CE_Tickets",
      "outputs": [
        {
          "internalType": "uint256",
          "name": "Amount",
          "type": "uint256"
        },
        {
          "internalType": "uint256",
          "name": "TimeLock",
          "type": "uint256"
        },
        {
          "internalType": "uint8",
          "name": "Status",
          "type": "uint8"
        },
        {
          "internalType": "uint8",
          "name": "LossPercent",
          "type": "uint8"
        },
        {
          "internalType": "bool",
          "name": "Aty",
          "type": "bool"
        },
        {
          "internalType": "address",
          "name": "Payer",
          "type": "address"
        },
        {
          "internalType": "address",
          "name": "Receiver",
          "type": "address"
        },
        {
          "internalType": "address",
          "name": "Creator",
          "type": "address"
        },
        {
          "internalType": "bytes32",
          "name": "Hash",
          "type": "bytes32"
        }
      ],
      "stateMutability": "view",
      "type": "function"
    },
    {
      "inputs": [
        {
          "internalType": "bool",
          "name": "_aty",
          "type": "bool"
        },
        {
          "internalType": "uint8",
          "name": "_lossPercent",
          "type": "uint8"
        },
        {
          "internalType": "uint256",
          "name": "_amount",
          "type": "uint256"
        },
        {
          "internalType": "address",
          "name": "_receiver",
          "type": "address"
        },
        {
          "internalType": "uint256",
          "name": "_timeLock",
          "type": "uint256"
        },
        {
          "internalType": "bytes32",
          "name": "_hash",
          "type": "bytes32"
        }
      ],
      "name": "_CreateCE",
      "outputs": [],
      "stateMutability": "nonpayable",
      "type": "function"
    },
    {
      "inputs": [
        {
          "internalType": "bytes32",
          "name": "_hash",
          "type": "bytes32"
        },
        {
          "internalType": "uint8",
          "name": "_lossPercent",
          "type": "uint8"
        },
        {
          "internalType": "uint256",
          "name": "_timeLock",
          "type": "uint256"
        },
        {
          "internalType": "bool",
          "name": "_designatedReceiver",
          "type": "bool"
        },
        {
          "internalType": "address",
          "name": "_receiver",
          "type": "address"
        }
      ],
      "name": "_CreateTMM",
      "outputs": [],
      "stateMutability": "payable",
      "type": "function"
    },
    {
      "inputs": [
        {
          "internalType": "uint256",
          "name": "",
          "type": "uint256"
        }
      ],
      "name": "_TMM_Tickets",
      "outputs": [
        {
          "internalType": "uint256",
          "name": "Amount",
          "type": "uint256"
        },
        {
          "internalType": "uint256",
          "name": "TimeLock",
          "type": "uint256"
        },
        {
          "internalType": "uint8",
          "name": "Status",
          "type": "uint8"
        },
        {
          "internalType": "uint8",
          "name": "LossPercent",
          "type": "uint8"
        },
        {
          "internalType": "bool",
          "name": "DeRe",
          "type": "bool"
        },
        {
          "internalType": "address payable",
          "name": "Receiver",
          "type": "address"
        },
        {
          "internalType": "address",
          "name": "Creator",
          "type": "address"
        },
        {
          "internalType": "bytes32",
          "name": "Hash",
          "type": "bytes32"
        }
      ],
      "stateMutability": "view",
      "type": "function"
    },
    {
      "inputs": [
        {
          "internalType": "address",
          "name": "newOwner",
          "type": "address"
        }
      ],
      "name": "changeOwner",
      "outputs": [],
      "stateMutability": "nonpayable",
      "type": "function"
    },
    {
      "inputs": [],
      "name": "getOwner",
      "outputs": [
        {
          "internalType": "address",
          "name": "",
          "type": "address"
        }
      ],
      "stateMutability": "view",
      "type": "function"
    },
    {
      "inputs": [
        {
          "internalType": "string",
          "name": "_password",
          "type": "string"
        },
        {
          "internalType": "uint256",
          "name": "_id",
          "type": "uint256"
        }
      ],
      "name": "_FillCE",
      "outputs": [
        {
          "internalType": "string",
          "name": "timelocked",
          "type": "string"
        }
      ],
      "stateMutability": "payable",
      "type": "function"
    },
    {
      "inputs": [
        {
          "internalType": "uint256",
          "name": "_id",
          "type": "uint256"
        }
      ],
      "name": "_ApproveCE",
      "outputs": [
        {
          "internalType": "string",
          "name": "locked",
          "type": "string"
        }
      ],
      "stateMutability": "nonpayable",
      "type": "function"
    },
    {
      "inputs": [
        {
          "internalType": "uint256",
          "name": "_id",
          "type": "uint256"
        }
      ],
      "name": "_CloseCE",
      "outputs": [
        {
          "internalType": "string",
          "name": "locked",
          "type": "string"
        }
      ],
      "stateMutability": "nonpayable",
      "type": "function"
    },
    {
      "inputs": [
        {
          "internalType": "string",
          "name": "_password",
          "type": "string"
        },
        {
          "internalType": "uint256",
          "name": "_id",
          "type": "uint256"
        }
      ],
      "name": "_UseTMM",
      "outputs": [
        {
          "internalType": "string",
          "name": "timelocked",
          "type": "string"
        }
      ],
      "stateMutability": "nonpayable",
      "type": "function"
    },
    {
      "inputs": [
        {
          "internalType": "uint256",
          "name": "_id",
          "type": "uint256"
        }
      ],
      "name": "_CloseTMM",
      "outputs": [
        {
          "internalType": "string",
          "name": "locked",
          "type": "string"
        }
      ],
      "stateMutability": "nonpayable",
      "type": "function"
    },
    {
      "inputs": [
        {
          "internalType": "uint256",
          "name": "_id",
          "type": "uint256"
        }
      ],
      "name": "_LockCE",
      "outputs": [
        {
          "internalType": "bool",
          "name": "",
          "type": "bool"
        }
      ],
      "stateMutability": "nonpayable",
      "type": "function"
    },
    {
      "inputs": [
        {
          "internalType": "uint256",
          "name": "_id",
          "type": "uint256"
        }
      ],
      "name": "_LockTMM",
      "outputs": [
        {
          "internalType": "bool",
          "name": "",
          "type": "bool"
        }
      ],
      "stateMutability": "nonpayable",
      "type": "function"
    }
  ],
  "bytecode": "0x60806040526000600960006101000a81548160ff021916908360ff1602179055506001600960016101000a81548160ff021916908360ff1602179055506000600960026101000a81548160ff021916908360ff1602179055506001600960036101000a81548160ff021916908360ff1602179055506000600960046101000a81548160ff021916908360ff1602179055506001600960056101000a81548160ff021916908360ff1602179055506003600960066101000a81548160ff021916908360ff1602179055506001600960076101000a81548160ff0219169083151502179055506000600960086101000a81548160ff02191690831515021790555061dead6009806101000a81548173ffffffffffffffffffffffffffffffffffffffff021916908373ffffffffffffffffffffffffffffffffffffffff1602179055506000600f60006101000a81548160ff021916908360ff1602179055506001600f60016101000a81548160ff021916908360ff1602179055506002600f60026101000a81548160ff021916908360ff1602179055503480156101a057600080fd5b50336000806101000a81548173ffffffffffffffffffffffffffffffffffffffff021916908373ffffffffffffffffffffffffffffffffffffffff16021790555060008054906101000a900473ffffffffffffffffffffffffffffffffffffffff1673ffffffffffffffffffffffffffffffffffffffff16600073ffffffffffffffffffffffffffffffffffffffff167f342827c97908e5e2f71151c08502a66d44b6f758e3ac2f1de95f02eb95f0a73560405160405180910390a361270f600f60036101000a81548163ffffffff021916908363ffffffff160217905550612710600f60076101000a81548163ffffffff021916908363ffffffff1602179055506063600f600b6101000a81548163ffffffff021916908363ffffffff1602179055506064600f806101000a81548163ffffffff021916908363ffffffff16021790555061595180620002f56000396000f3fe6080604052600436106101145760003560e01c8063a25dbe5c116100a0578063cad68b0411610064578063cad68b041461040b578063d115745114610434578063d9f5b9dc14610471578063e9eaecdd146104ae578063fb891f9d146104ca57610114565b8063a25dbe5c146102f5578063a6f9dae114610332578063b162144d1461035b578063c26a649014610398578063c843a8a4146103d557610114565b80633bf91428116100e75780633bf91428146102035780633e4db85d1461023357806372e402c51461025c578063893d20e8146102855780638a521c60146102b057610114565b806306e2335d1461011957806322a023aa1461014c57806329573143146101825780632a69d6af146101c6575b600080fd5b34801561012557600080fd5b5061012e6104f3565b60405161014399989796959493929190614619565b60405180910390f35b34801561015857600080fd5b506101616105de565b6040516101799c9b9a9998979695949392919061473f565b60405180910390f35b34801561018e57600080fd5b506101a960048036038101906101a49190614863565b61078b565b6040516101bd989796959493929190614942565b60405180910390f35b3480156101d257600080fd5b506101ed60048036038101906101e89190614863565b61084a565b6040516101fa91906149c0565b60405180910390f35b61021d60048036038101906102189190614b17565b610e4a565b60405161022a91906149c0565b60405180910390f35b34801561023f57600080fd5b5061025a60048036038101906102559190614b9f565b61146d565b005b34801561026857600080fd5b50610283600480360381019061027e9190614bf2565b611717565b005b34801561029157600080fd5b5061029a611820565b6040516102a79190614c32565b60405180910390f35b3480156102bc57600080fd5b506102d760048036038101906102d29190614863565b611849565b6040516102ec99989796959493929190614c4d565b60405180910390f35b34801561030157600080fd5b5061031c60048036038101906103179190614863565b61192e565b6040516103299190614cda565b60405180910390f35b34801561033e57600080fd5b5061035960048036038101906103549190614d21565b611e5a565b005b34801561036757600080fd5b50610382600480360381019061037d9190614863565b611fa5565b60405161038f91906149c0565b60405180910390f35b3480156103a457600080fd5b506103bf60048036038101906103ba9190614863565b61250d565b6040516103cc91906149c0565b60405180910390f35b3480156103e157600080fd5b506103ea612ab4565b6040516104029c9b9a9998979695949392919061473f565b60405180910390f35b34801561041757600080fd5b50610432600480360381019061042d9190614d7a565b612c68565b005b34801561044057600080fd5b5061045b60048036038101906104569190614b17565b612e13565b60405161046891906149c0565b60405180910390f35b34801561047d57600080fd5b5061049860048036038101906104939190614863565b613486565b6040516104a59190614cda565b60405180910390f35b6104c860048036038101906104c39190614e12565b61395b565b005b3480156104d657600080fd5b506104f160048036038101906104ec9190614e8d565b613ca6565b005b600080600080600080600080600080600061051b600754600354613fcc90919063ffffffff16565b9150610534600854600454613fcc90919063ffffffff16565b90506105498183613fe290919063ffffffff16565b8282600c54600d54600f60039054906101000a900463ffffffff16600f60079054906101000a900463ffffffff16600f600b9054906101000a900463ffffffff16600f8054906101000a900463ffffffff168363ffffffff1693508263ffffffff1692508163ffffffff1691508063ffffffff1690509a509a509a509a509a509a509a509a509a505050909192939495969798565b606060006060600060606000606060006060600060606000600154610610600254600154613fe290919063ffffffff16565b6002546004546003546106239190614f49565b6003546004546040518060400160405280601981526020017f546f74616c204345207469636b65747320637265617465643a000000000000008152509594939291906040518060400160405280601881526020017f546f74616c20616374697665204345207469636b6574733a000000000000000081525094939291906040518060400160405280601a81526020017f546f74616c20696e616374697665204345207469636b6574733a000000000000815250939291906040518060600160405280602281526020016158fa602291399291906040518060400160405280601e81526020017f546f74616c2076616c75652065766572206c6f636b6564206f6e2043453a000081525091906040518060400160405280601b81526020017f546f74616c2076616c756520756e6c6f636b6564206f6e2043453a0000000000815250909b509b509b509b509b509b509b509b509b509b509b509b50909192939495969798999a9b565b600b818154811061079b57600080fd5b90600052602060002090600502016000915090508060000154908060010154908060020160009054906101000a900460ff16908060020160019054906101000a900460ff16908060020160029054906101000a900460ff16908060020160039054906101000a900473ffffffffffffffffffffffffffffffffffffffff16908060030160009054906101000a900473ffffffffffffffffffffffffffffffffffffffff16908060040154905088565b6060600960009054906101000a900460ff1682600960019054906101000a900460ff1660ff168260ff1614806108945750600960009054906101000a900460ff1660ff168260ff16145b6108d3576040517f08c379a00000000000000000000000000000000000000000000000000000000081526004016108ca90614fc9565b60405180910390fd5b6000811015610917576040517f08c379a000000000000000000000000000000000000000000000000000000000815260040161090e90615035565b60405180910390fd5b600960009054906101000a900460ff1660ff168260ff16141561097d576001548110610978576040517f08c379a000000000000000000000000000000000000000000000000000000000815260040161096f906150a1565b60405180910390fd5b6109c2565b60055481106109c1576040517f08c379a00000000000000000000000000000000000000000000000000000000081526004016109b89061510d565b60405180910390fd5b5b600a84815481106109d6576109d561512d565b5b906000526020600020906006020160020160039054906101000a900473ffffffffffffffffffffffffffffffffffffffff163373ffffffffffffffffffffffffffffffffffffffff168173ffffffffffffffffffffffffffffffffffffffff1614610a76576040517f08c379a0000000000000000000000000000000000000000000000000000000008152600401610a6d906151ce565b60405180910390fd5b600a8581548110610a8a57610a8961512d565b5b906000526020600020906006020160020160009054906101000a900460ff16600960009054906101000a900460ff16600960009054906101000a900460ff1660ff168160ff161480610af05750600960019054906101000a900460ff1660ff168160ff16145b610b2f576040517f08c379a0000000000000000000000000000000000000000000000000000000008152600401610b269061523a565b60405180910390fd5b60008260ff161480610b64575060018260ff16148015610b635750600960009054906101000a900460ff1660ff168160ff16145b5b610ba3576040517f08c379a0000000000000000000000000000000000000000000000000000000008152600401610b9a906152cc565b60405180910390fd5b600080600a8981548110610bba57610bb961512d565b5b906000526020600020906006020160020160019054906101000a900460ff1660ff161415610c3b57610c34600f600b9054906101000a900463ffffffff16600a8a81548110610c0c57610c0b61512d565b5b906000526020600020906006020160000154600f8054906101000a900463ffffffff16613ff8565b9050610ca4565b610ca1600a8981548110610c5257610c5161512d565b5b906000526020600020906006020160020160019054906101000a900460ff1660ff16600a8a81548110610c8857610c8761512d565b5b9060005260206000209060060201600001546064613ff8565b90505b60001515610cb18961192e565b151514610cf6576040518060400160405280601581526020017f5469636b65742069732074696d656c6f636b6564210000000000000000000000815250965050610e40565b60011515600a8981548110610d0e57610d0d61512d565b5b906000526020600020906006020160020160029054906101000a900460ff1615151415610d4c57610d496002826140a290919063ffffffff16565b90505b610d7a88600960029054906101000a900460ff16836000600960059054906101000a900460ff1660026140b8565b600a8881548110610d8e57610d8d61512d565b5b906000526020600020906006020160020160039054906101000a900473ffffffffffffffffffffffffffffffffffffffff1673ffffffffffffffffffffffffffffffffffffffff166108fc829081150290604051600060405180830381858888f19350505050158015610e05573d6000803e3d6000fd5b506040518060400160405280601581526020017f5469636b6574206973206e6f77206c6f636b65642e00000000000000000000008152509650505b5050505050919050565b6060600960009054906101000a900460ff1682600960019054906101000a900460ff1660ff168260ff161480610e945750600960009054906101000a900460ff1660ff168260ff16145b610ed3576040517f08c379a0000000000000000000000000000000000000000000000000000000008152600401610eca90614fc9565b60405180910390fd5b6000811015610f17576040517f08c379a0000000000000000000000000000000000000000000000000000000008152600401610f0e90615035565b60405180910390fd5b600960009054906101000a900460ff1660ff168260ff161415610f7d576001548110610f78576040517f08c379a0000000000000000000000000000000000000000000000000000000008152600401610f6f906150a1565b60405180910390fd5b610fc2565b6005548110610fc1576040517f08c379a0000000000000000000000000000000000000000000000000000000008152600401610fb89061510d565b60405180910390fd5b5b600a8481548110610fd657610fd561512d565b5b906000526020600020906006020160020160009054906101000a900460ff16600960009054906101000a900460ff16600960009054906101000a900460ff1660ff168160ff16148061103c5750600960019054906101000a900460ff1660ff168160ff16145b61107b576040517f08c379a00000000000000000000000000000000000000000000000000000000081526004016110729061523a565b60405180910390fd5b60008260ff1614806110b0575060018260ff161480156110af5750600960009054906101000a900460ff1660ff168160ff16145b5b6110ef576040517f08c379a00000000000000000000000000000000000000000000000000000000081526004016110e6906152cc565b60405180910390fd5b86600a87815481106111045761110361512d565b5b9060005260206000209060060201600501548180519060200120811461115f576040517f08c379a000000000000000000000000000000000000000000000000000000000815260040161115690615338565b60405180910390fd5b6000806111b6600f60039054906101000a900463ffffffff16600a8c8154811061118c5761118b61512d565b5b906000526020600020906006020160000154600f60079054906101000a900463ffffffff16613ff8565b9050600015156111c58b61192e565b15151461120b576040518060400160405280601581526020017f5469636b65742069732074696d656c6f636b656421000000000000000000000081525098505050611461565b600a8a8154811061121f5761121e61512d565b5b9060005260206000209060060201600001543373ffffffffffffffffffffffffffffffffffffffff163111611289576040517f08c379a0000000000000000000000000000000000000000000000000000000008152600401611280906153ca565b60405180910390fd5b33600a8b8154811061129e5761129d61512d565b5b906000526020600020906006020160020160036101000a81548173ffffffffffffffffffffffffffffffffffffffff021916908373ffffffffffffffffffffffffffffffffffffffff16021790555060011515600a8b815481106113055761130461512d565b5b906000526020600020906006020160020160029054906101000a900460ff16151514156113e257600f60029054906101000a900460ff169150600a8a815481106113525761135161512d565b5b906000526020600020906006020160030160009054906101000a900473ffffffffffffffffffffffffffffffffffffffff1673ffffffffffffffffffffffffffffffffffffffff166108fc6113b16002846140a290919063ffffffff16565b9081150290604051600060405180830381858888f193505050501580156113dc573d6000803e3d6000fd5b506113f5565b600960039054906101000a900460ff1691505b6114268a838361140f6002866140a290919063ffffffff16565b600960069054906101000a900460ff1660016140b8565b6040518060400160405280601581526020017f5469636b6574206973206e6f772066696c6c65642e0000000000000000000000815250985050505b50505050505092915050565b60008054906101000a900473ffffffffffffffffffffffffffffffffffffffff1673ffffffffffffffffffffffffffffffffffffffff163373ffffffffffffffffffffffffffffffffffffffff16146114fb576040517f08c379a00000000000000000000000000000000000000000000000000000000081526004016114f290615436565b60405180910390fd5b600f60009054906101000a900460ff1660ff168360ff1614806115325750600f60019054906101000a900460ff1660ff168360ff16145b806115515750600f60029054906101000a900460ff1660ff168360ff16145b611590576040517f08c379a0000000000000000000000000000000000000000000000000000000008152600401611587906154c8565b60405180910390fd5b600f60009054906101000a900460ff1660ff168360ff1614156115fa578160ff16600f60036101000a81548163ffffffff021916908363ffffffff1602179055508060ff16600f60076101000a81548163ffffffff021916908363ffffffff160217905550611712565b600f60019054906101000a900460ff1660ff168360ff161415611663578160ff16600f600b6101000a81548163ffffffff021916908363ffffffff1602179055508060ff16600f806101000a81548163ffffffff021916908363ffffffff160217905550611711565b600f60029054906101000a900460ff1660ff168360ff161415611710578160ff16600f60036101000a81548163ffffffff021916908363ffffffff1602179055508060ff16600f60076101000a81548163ffffffff021916908363ffffffff1602179055508160ff16600f600b6101000a81548163ffffffff021916908363ffffffff1602179055508060ff16600f806101000a81548163ffffffff021916908363ffffffff1602179055505b5b5b505050565b60008054906101000a900473ffffffffffffffffffffffffffffffffffffffff1673ffffffffffffffffffffffffffffffffffffffff163373ffffffffffffffffffffffffffffffffffffffff16146117a5576040517f08c379a000000000000000000000000000000000000000000000000000000000815260040161179c90615436565b60405180910390fd5b620186a0821180156117bb575060008160ff1610155b6117fa576040517f08c379a00000000000000000000000000000000000000000000000000000000081526004016117f190615534565b60405180910390fd5b8160108190555080601160006101000a81548160ff021916908360ff1602179055505050565b60008060009054906101000a900473ffffffffffffffffffffffffffffffffffffffff16905090565b600a818154811061185957600080fd5b90600052602060002090600602016000915090508060000154908060010154908060020160009054906101000a900460ff16908060020160019054906101000a900460ff16908060020160029054906101000a900460ff16908060020160039054906101000a900473ffffffffffffffffffffffffffffffffffffffff16908060030160009054906101000a900473ffffffffffffffffffffffffffffffffffffffff16908060040160009054906101000a900473ffffffffffffffffffffffffffffffffffffffff16908060050154905089565b6000600960009054906101000a900460ff1682600960019054906101000a900460ff1660ff168260ff1614806119785750600960009054906101000a900460ff1660ff168260ff16145b6119b7576040517f08c379a00000000000000000000000000000000000000000000000000000000081526004016119ae90614fc9565b60405180910390fd5b60008110156119fb576040517f08c379a00000000000000000000000000000000000000000000000000000000081526004016119f290615035565b60405180910390fd5b600960009054906101000a900460ff1660ff168260ff161415611a61576001548110611a5c576040517f08c379a0000000000000000000000000000000000000000000000000000000008152600401611a53906150a1565b60405180910390fd5b611aa6565b6005548110611aa5576040517f08c379a0000000000000000000000000000000000000000000000000000000008152600401611a9c9061510d565b60405180910390fd5b5b600a8481548110611aba57611ab961512d565b5b906000526020600020906006020160020160009054906101000a900460ff16600960009054906101000a900460ff16600960009054906101000a900460ff1660ff168160ff161480611b205750600960019054906101000a900460ff1660ff168160ff16145b611b5f576040517f08c379a0000000000000000000000000000000000000000000000000000000008152600401611b569061523a565b60405180910390fd5b60008260ff161480611b94575060018260ff16148015611b935750600960009054906101000a900460ff1660ff168160ff16145b5b611bd3576040517f08c379a0000000000000000000000000000000000000000000000000000000008152600401611bca906152cc565b60405180910390fd5b6000600a8781548110611be957611be861512d565b5b906000526020600020906006020160010154118015611c2d575042600a8781548110611c1857611c1761512d565b5b90600052602060002090600602016001015411155b15611e4c57600080600a8881548110611c4957611c4861512d565b5b906000526020600020906006020160020160019054906101000a900460ff1660ff161415611cca57611cc3600f600b9054906101000a900463ffffffff16600a8981548110611c9b57611c9a61512d565b5b906000526020600020906006020160000154600f8054906101000a900463ffffffff16613ff8565b9050611d33565b611d30600a8881548110611ce157611ce061512d565b5b906000526020600020906006020160020160019054906101000a900460ff1660ff16600a8981548110611d1757611d1661512d565b5b9060005260206000209060060201600001546064613ff8565b90505b60011515600a8881548110611d4b57611d4a61512d565b5b906000526020600020906006020160020160029054906101000a900460ff1615151415611d8957611d866002826140a290919063ffffffff16565b90505b611db687600960029054906101000a900460ff168384600960059054906101000a900460ff1660036140b8565b600a8781548110611dca57611dc961512d565b5b906000526020600020906006020160020160039054906101000a900473ffffffffffffffffffffffffffffffffffffffff1673ffffffffffffffffffffffffffffffffffffffff166108fc829081150290604051600060405180830381858888f19350505050158015611e41573d6000803e3d6000fd5b506001955050611e51565b600094505b50505050919050565b60008054906101000a900473ffffffffffffffffffffffffffffffffffffffff1673ffffffffffffffffffffffffffffffffffffffff163373ffffffffffffffffffffffffffffffffffffffff1614611ee8576040517f08c379a0000000000000000000000000000000000000000000000000000000008152600401611edf90615436565b60405180910390fd5b8073ffffffffffffffffffffffffffffffffffffffff1660008054906101000a900473ffffffffffffffffffffffffffffffffffffffff1673ffffffffffffffffffffffffffffffffffffffff167f342827c97908e5e2f71151c08502a66d44b6f758e3ac2f1de95f02eb95f0a73560405160405180910390a3806000806101000a81548173ffffffffffffffffffffffffffffffffffffffff021916908373ffffffffffffffffffffffffffffffffffffffff16021790555050565b6060600a8281548110611fbb57611fba61512d565b5b906000526020600020906006020160020160039054906101000a900473ffffffffffffffffffffffffffffffffffffffff163373ffffffffffffffffffffffffffffffffffffffff168173ffffffffffffffffffffffffffffffffffffffff161461205b576040517f08c379a0000000000000000000000000000000000000000000000000000000008152600401612052906151ce565b60405180910390fd5b600960009054906101000a900460ff1683600960019054906101000a900460ff1660ff168260ff1614806120a35750600960009054906101000a900460ff1660ff168260ff16145b6120e2576040517f08c379a00000000000000000000000000000000000000000000000000000000081526004016120d990614fc9565b60405180910390fd5b6000811015612126576040517f08c379a000000000000000000000000000000000000000000000000000000000815260040161211d90615035565b60405180910390fd5b600960009054906101000a900460ff1660ff168260ff16141561218c576001548110612187576040517f08c379a000000000000000000000000000000000000000000000000000000000815260040161217e906150a1565b60405180910390fd5b6121d1565b60055481106121d0576040517f08c379a00000000000000000000000000000000000000000000000000000000081526004016121c79061510d565b60405180910390fd5b5b600a85815481106121e5576121e461512d565b5b906000526020600020906006020160020160009054906101000a900460ff16600960009054906101000a900460ff16600960009054906101000a900460ff1660ff168160ff16148061224b5750600960019054906101000a900460ff1660ff168160ff16145b61228a576040517f08c379a00000000000000000000000000000000000000000000000000000000081526004016122819061523a565b60405180910390fd5b60008260ff1614806122bf575060018260ff161480156122be5750600960009054906101000a900460ff1660ff168160ff16145b5b6122fe576040517f08c379a00000000000000000000000000000000000000000000000000000000081526004016122f5906152cc565b60405180910390fd5b6000151561230b8861192e565b15151461234f576040518060400160405280601581526020017f5469636b65742069732074696d656c6f636b65642100000000000000000000008152509550612503565b60006123a5600f60039054906101000a900463ffffffff16600a8a8154811061237b5761237a61512d565b5b906000526020600020906006020160000154600f60079054906101000a900463ffffffff16613ff8565b905060011515600a89815481106123bf576123be61512d565b5b906000526020600020906006020160020160029054906101000a900460ff16151514156123fd576123fa6002826140a290919063ffffffff16565b90505b61243d88600960029054906101000a900460ff16836124266002866140a290919063ffffffff16565b600960059054906101000a900460ff1660026140b8565b600a88815481106124515761245061512d565b5b906000526020600020906006020160030160009054906101000a900473ffffffffffffffffffffffffffffffffffffffff1673ffffffffffffffffffffffffffffffffffffffff166108fc829081150290604051600060405180830381858888f193505050501580156124c8573d6000803e3d6000fd5b506040518060400160405280601581526020017f5469636b6574206973206e6f7720636c6f7365642e00000000000000000000008152509650505b5050505050919050565b6060600960019054906101000a900460ff1682600960019054906101000a900460ff1660ff168260ff1614806125575750600960009054906101000a900460ff1660ff168260ff16145b612596576040517f08c379a000000000000000000000000000000000000000000000000000000000815260040161258d90614fc9565b60405180910390fd5b60008110156125da576040517f08c379a00000000000000000000000000000000000000000000000000000000081526004016125d190615035565b60405180910390fd5b600960009054906101000a900460ff1660ff168260ff16141561264057600154811061263b576040517f08c379a0000000000000000000000000000000000000000000000000000000008152600401612632906150a1565b60405180910390fd5b612685565b6005548110612684576040517f08c379a000000000000000000000000000000000000000000000000000000000815260040161267b9061510d565b60405180910390fd5b5b600b84815481106126995761269861512d565b5b906000526020600020906005020160030160009054906101000a900473ffffffffffffffffffffffffffffffffffffffff163373ffffffffffffffffffffffffffffffffffffffff168173ffffffffffffffffffffffffffffffffffffffff1614612739576040517f08c379a0000000000000000000000000000000000000000000000000000000008152600401612730906151ce565b60405180910390fd5b600b858154811061274d5761274c61512d565b5b906000526020600020906005020160020160009054906101000a900460ff16600960019054906101000a900460ff16600960009054906101000a900460ff1660ff168160ff1614806127b35750600960019054906101000a900460ff1660ff168160ff16145b6127f2576040517f08c379a00000000000000000000000000000000000000000000000000000000081526004016127e99061523a565b60405180910390fd5b60008260ff161480612827575060018260ff161480156128265750600960009054906101000a900460ff1660ff168160ff16145b5b612866576040517f08c379a000000000000000000000000000000000000000000000000000000000815260040161285d906152cc565b60405180910390fd5b6000151561287388613486565b1515146128b7576040518060400160405280601581526020017f5469636b65742069732074696d656c6f636b65642100000000000000000000008152509550612aaa565b600080600b89815481106128ce576128cd61512d565b5b906000526020600020906005020160020160019054906101000a900460ff1660ff16141561294f57612948600f600b9054906101000a900463ffffffff16600b8a815481106129205761291f61512d565b5b906000526020600020906005020160000154600f8054906101000a900463ffffffff16613ff8565b90506129b8565b6129b5600b89815481106129665761296561512d565b5b906000526020600020906005020160020160019054906101000a900460ff1660ff16600b8a8154811061299c5761299b61512d565b5b9060005260206000209060050201600001546064613ff8565b90505b6129e488600960029054906101000a900460ff1683600960059054906101000a900460ff166001614313565b600b88815481106129f8576129f761512d565b5b906000526020600020906005020160030160009054906101000a900473ffffffffffffffffffffffffffffffffffffffff1673ffffffffffffffffffffffffffffffffffffffff166108fc829081150290604051600060405180830381858888f19350505050158015612a6f573d6000803e3d6000fd5b506040518060400160405280601481526020017f5469636b6574206973206e6f77206c6f7365642e0000000000000000000000008152509650505b5050505050919050565b606060006060600060606000606060006060600060606000600554612ae6600654600554613fe290919063ffffffff16565b600654612b00600854600754613fe290919063ffffffff16565b6007546008546040518060400160405280601a81526020017f546f74616c20544d4d207469636b65747320637265617465643a0000000000008152509594939291906040518060400160405280601981526020017f546f74616c2061637469766520544d4d207469636b6574733a0000000000000081525094939291906040518060400160405280601b81526020017f546f74616c20696e61637469766520544d4d207469636b6574733a0000000000815250939291906040518060600160405280602381526020016158ad602391399291906040518060400160405280601f81526020017f546f74616c2076616c75652065766572206c6f636b6564206f6e20544d4d3a0081525091906040518060400160405280601c81526020017f546f74616c2076616c756520756e6c6f636b6564206f6e20544d4d3a00000000815250909b509b509b509b509b509b509b509b509b509b509b509b50909192939495969798999a9b565b60008054906101000a900473ffffffffffffffffffffffffffffffffffffffff1673ffffffffffffffffffffffffffffffffffffffff163373ffffffffffffffffffffffffffffffffffffffff1614612cf6576040517f08c379a0000000000000000000000000000000000000000000000000000000008152600401612ced90615436565b60405180910390fd5b6000600e541415612d1f57612d18600d54600c54613fe290919063ffffffff16565b600e819055505b600082118015612d315750600e548211155b612d70576040517f08c379a0000000000000000000000000000000000000000000000000000000008152600401612d67906155c6565b60405180910390fd5b60098054906101000a900473ffffffffffffffffffffffffffffffffffffffff1673ffffffffffffffffffffffffffffffffffffffff168173ffffffffffffffffffffffffffffffffffffffff161415612dc8573390505b8073ffffffffffffffffffffffffffffffffffffffff166108fc839081150290604051600060405180830381858888f19350505050158015612e0e573d6000803e3d6000fd5b505050565b6060600960019054906101000a900460ff1682600960019054906101000a900460ff1660ff168260ff161480612e5d5750600960009054906101000a900460ff1660ff168260ff16145b612e9c576040517f08c379a0000000000000000000000000000000000000000000000000000000008152600401612e9390614fc9565b60405180910390fd5b6000811015612ee0576040517f08c379a0000000000000000000000000000000000000000000000000000000008152600401612ed790615035565b60405180910390fd5b600960009054906101000a900460ff1660ff168260ff161415612f46576001548110612f41576040517f08c379a0000000000000000000000000000000000000000000000000000000008152600401612f38906150a1565b60405180910390fd5b612f8b565b6005548110612f8a576040517f08c379a0000000000000000000000000000000000000000000000000000000008152600401612f819061510d565b60405180910390fd5b5b600b8481548110612f9f57612f9e61512d565b5b906000526020600020906005020160020160039054906101000a900473ffffffffffffffffffffffffffffffffffffffff16600b8581548110612fe557612fe461512d565b5b906000526020600020906005020160020160029054906101000a900460ff168560001515821515148061304357503373ffffffffffffffffffffffffffffffffffffffff168373ffffffffffffffffffffffffffffffffffffffff16145b613082576040517f08c379a00000000000000000000000000000000000000000000000000000000081526004016130799061567e565b60405180910390fd5b600b87815481106130965761309561512d565b5b906000526020600020906005020160020160009054906101000a900460ff16600960019054906101000a900460ff16600960009054906101000a900460ff1660ff168160ff1614806130fc5750600960019054906101000a900460ff1660ff168160ff16145b61313b576040517f08c379a00000000000000000000000000000000000000000000000000000000081526004016131329061523a565b60405180910390fd5b60008260ff161480613170575060018260ff1614801561316f5750600960009054906101000a900460ff1660ff168160ff16145b5b6131af576040517f08c379a00000000000000000000000000000000000000000000000000000000081526004016131a6906152cc565b60405180910390fd5b89600b8a815481106131c4576131c361512d565b5b9060005260206000209060050201600401548180519060200120811461321f576040517f08c379a000000000000000000000000000000000000000000000000000000000815260040161321690615338565b60405180910390fd5b6000151561322c8c613486565b151514613270576040518060400160405280601581526020017f5469636b65742069732074696d656c6f636b65642100000000000000000000008152509950613477565b60006132c6600f60039054906101000a900463ffffffff16600b8e8154811061329c5761329b61512d565b5b906000526020600020906005020160000154600f60079054906101000a900463ffffffff16613ff8565b905060001515600b8d815481106132e0576132df61512d565b5b906000526020600020906005020160020160029054906101000a900460ff16151514156133ca5733600b8d8154811061331c5761331b61512d565b5b906000526020600020906005020160020160036101000a81548173ffffffffffffffffffffffffffffffffffffffff021916908373ffffffffffffffffffffffffffffffffffffffff1602179055506001600b8d815481106133815761338061512d565b5b906000526020600020906005020160020160026101000a81548160ff0219169083151502179055506040518060600160405280602a81526020016158d0602a91399a5050613477565b3373ffffffffffffffffffffffffffffffffffffffff166108fc829081150290604051600060405180830381858888f19350505050158015613410573d6000803e3d6000fd5b5061343d8c600960029054906101000a900460ff1683600960059054906101000a900460ff166001614313565b6040518060400160405280601481526020017f5469636b6574206973206e6f7720636c6f7365640000000000000000000000008152509a50505b50505050505050505092915050565b6000600960019054906101000a900460ff1682600960019054906101000a900460ff1660ff168260ff1614806134d05750600960009054906101000a900460ff1660ff168260ff16145b61350f576040517f08c379a000000000000000000000000000000000000000000000000000000000815260040161350690614fc9565b60405180910390fd5b6000811015613553576040517f08c379a000000000000000000000000000000000000000000000000000000000815260040161354a90615035565b60405180910390fd5b600960009054906101000a900460ff1660ff168260ff1614156135b95760015481106135b4576040517f08c379a00000000000000000000000000000000000000000000000000000000081526004016135ab906150a1565b60405180910390fd5b6135fe565b60055481106135fd576040517f08c379a00000000000000000000000000000000000000000000000000000000081526004016135f49061510d565b60405180910390fd5b5b600b84815481106136125761361161512d565b5b906000526020600020906005020160020160009054906101000a900460ff16600960019054906101000a900460ff16600960009054906101000a900460ff1660ff168160ff1614806136785750600960019054906101000a900460ff1660ff168160ff16145b6136b7576040517f08c379a00000000000000000000000000000000000000000000000000000000081526004016136ae9061523a565b60405180910390fd5b60008260ff1614806136ec575060018260ff161480156136eb5750600960009054906101000a900460ff1660ff168160ff16145b5b61372b576040517f08c379a0000000000000000000000000000000000000000000000000000000008152600401613722906152cc565b60405180910390fd5b6000600b87815481106137415761374061512d565b5b906000526020600020906005020160010154118015613785575042600b87815481106137705761376f61512d565b5b90600052602060002090600502016001015411155b1561394d57600080600b88815481106137a1576137a061512d565b5b906000526020600020906005020160020160019054906101000a900460ff1660ff1614156138225761381b600f600b9054906101000a900463ffffffff16600b89815481106137f3576137f261512d565b5b906000526020600020906005020160000154600f8054906101000a900463ffffffff16613ff8565b905061388b565b613888600b88815481106138395761383861512d565b5b906000526020600020906005020160020160019054906101000a900460ff1660ff16600b898154811061386f5761386e61512d565b5b9060005260206000209060050201600001546064613ff8565b90505b6138b787600960029054906101000a900460ff1683600960059054906101000a900460ff166002614313565b600b87815481106138cb576138ca61512d565b5b906000526020600020906005020160030160009054906101000a900473ffffffffffffffffffffffffffffffffffffffff1673ffffffffffffffffffffffffffffffffffffffff166108fc829081150290604051600060405180830381858888f19350505050158015613942573d6000803e3d6000fd5b506001955050613952565b600094505b50505050919050565b346000811161399f576040517f08c379a0000000000000000000000000000000000000000000000000000000008152600401613996906156ea565b60405180910390fd5b6139a76144eb565b34816000018181525050338160c0019073ffffffffffffffffffffffffffffffffffffffff16908173ffffffffffffffffffffffffffffffffffffffff168152505083816080019015159081151581525050600115158415151415613a4357828160a0019073ffffffffffffffffffffffffffffffffffffffff16908173ffffffffffffffffffffffffffffffffffffffff1681525050613a9c565b60098054906101000a900473ffffffffffffffffffffffffffffffffffffffff168160a0019073ffffffffffffffffffffffffffffffffffffffff16908173ffffffffffffffffffffffffffffffffffffffff16815250505b868160e00181815250506000816040019060ff16908160ff168152505060008514613adb578442613acd919061570a565b816020018181525050613ae7565b60008160200181815250505b60058660ff1610158015613aff575060648660ff1611155b15613b1b5785816060019060ff16908160ff1681525050613b2f565b6046816060019060ff16908160ff16815250505b613b61600554600960039054906101000a900460ff168360000151600960049054906101000a900460ff166000614313565b600b819080600181540180825580915050600190039060005260206000209060050201600090919091909150600082015181600001556020820151816001015560408201518160020160006101000a81548160ff021916908360ff16021790555060608201518160020160016101000a81548160ff021916908360ff16021790555060808201518160020160026101000a81548160ff02191690831515021790555060a08201518160020160036101000a81548173ffffffffffffffffffffffffffffffffffffffff021916908373ffffffffffffffffffffffffffffffffffffffff16021790555060c08201518160030160006101000a81548173ffffffffffffffffffffffffffffffffffffffff021916908373ffffffffffffffffffffffffffffffffffffffff16021790555060e08201518160040155505050505050505050565b8360008111613cea576040517f08c379a0000000000000000000000000000000000000000000000000000000008152600401613ce1906156ea565b60405180910390fd5b613cf2614567565b85816000018181525050338160e0019073ffffffffffffffffffffffffffffffffffffffff16908173ffffffffffffffffffffffffffffffffffffffff1681525050848160c0019073ffffffffffffffffffffffffffffffffffffffff16908173ffffffffffffffffffffffffffffffffffffffff168152505082816101000181815250506000816040019060ff16908160ff168152505060008414613dac578342613d9e919061570a565b816020018181525050613db8565b60008160200181815250505b60008760ff16118015613dcf575060648760ff1611155b15613deb5786816060019060ff16908160ff1681525050613dff565b6000816060019060ff16908160ff16815250505b87816080019015159081151581525050613e3e6000600960069054906101000a900460ff16600080600960049054906101000a900460ff1660006140b8565b600a819080600181540180825580915050600190039060005260206000209060060201600090919091909150600082015181600001556020820151816001015560408201518160020160006101000a81548160ff021916908360ff16021790555060608201518160020160016101000a81548160ff021916908360ff16021790555060808201518160020160026101000a81548160ff02191690831515021790555060a08201518160020160036101000a81548173ffffffffffffffffffffffffffffffffffffffff021916908373ffffffffffffffffffffffffffffffffffffffff16021790555060c08201518160030160006101000a81548173ffffffffffffffffffffffffffffffffffffffff021916908373ffffffffffffffffffffffffffffffffffffffff16021790555060e08201518160040160006101000a81548173ffffffffffffffffffffffffffffffffffffffff021916908373ffffffffffffffffffffffffffffffffffffffff160217905550610100820151816005015550505050505050505050565b60008183613fda919061570a565b905092915050565b60008183613ff09190614f49565b905092915050565b6000808463ffffffff161180156140115750620186a083115b8015614023575060008263ffffffff16115b614062576040517f08c379a0000000000000000000000000000000000000000000000000000000008152600401614059906157d2565b60405180910390fd5b60006140958363ffffffff16614087868863ffffffff166144b890919063ffffffff16565b6140a290919063ffffffff16565b9050809150509392505050565b600081836140b09190615821565b905092915050565b60008411156141145761410d6140fc85600a89815481106140dc576140db61512d565b5b906000526020600020906006020160000154613fe290919063ffffffff16565b600c54613fcc90919063ffffffff16565b600c819055505b600960029054906101000a900460ff1660ff168560ff1614156141a35761414684600454613fcc90919063ffffffff16565b60048190555061419861418785600b89815481106141675761416661512d565b5b906000526020600020906005020160000154613fe290919063ffffffff16565b600c54613fcc90919063ffffffff16565b600c81905550614288565b600960039054906101000a900460ff1660ff168560ff1614156141e0576141d584600354613fcc90919063ffffffff16565b600381905550614287565b600f60029054906101000a900460ff1660ff168560ff1614156142865761421284600354613fcc90919063ffffffff16565b60038190555061422d83600454613fcc90919063ffffffff16565b60048190555061427f61426e84600b898154811061424e5761424d61512d565b5b906000526020600020906005020160000154613fe290919063ffffffff16565b600c54613fcc90919063ffffffff16565b600c819055505b5b5b600960049054906101000a900460ff1660ff168260ff1614156142bb576142b06001546144ce565b6001819055506142cd565b6142c66002546144ce565b6002819055505b80600a87815481106142e2576142e161512d565b5b906000526020600020906006020160020160006101000a81548160ff021916908360ff160217905550505050505050565b61435f61434e84600b888154811061432e5761432d61512d565b5b906000526020600020906005020160000154613fe290919063ffffffff16565b600c54613fcc90919063ffffffff16565b600c81905550600960029054906101000a900460ff1660ff168460ff1614156143f45761439783600854613fcc90919063ffffffff16565b6008819055506143e96143d884600b88815481106143b8576143b761512d565b5b906000526020600020906005020160000154613fe290919063ffffffff16565b600c54613fcc90919063ffffffff16565b600c81905550614410565b61440983600754613fcc90919063ffffffff16565b6007819055505b600960049054906101000a900460ff1660ff168260ff161415614443576144386005546144ce565b600581905550614473565b600960059054906101000a900460ff1660ff168260ff1614156144725761446b6006546144ce565b6006819055505b5b80600b86815481106144885761448761512d565b5b906000526020600020906005020160020160006101000a81548160ff021916908360ff1602179055505050505050565b600081836144c69190615852565b905092915050565b60006144e4600183613fcc90919063ffffffff16565b9050919050565b6040518061010001604052806000815260200160008152602001600060ff168152602001600060ff168152602001600015158152602001600073ffffffffffffffffffffffffffffffffffffffff168152602001600073ffffffffffffffffffffffffffffffffffffffff168152602001600080191681525090565b6040518061012001604052806000815260200160008152602001600060ff168152602001600060ff168152602001600015158152602001600073ffffffffffffffffffffffffffffffffffffffff168152602001600073ffffffffffffffffffffffffffffffffffffffff168152602001600073ffffffffffffffffffffffffffffffffffffffff168152602001600080191681525090565b6000819050919050565b61461381614600565b82525050565b60006101208201905061462f600083018c61460a565b61463c602083018b61460a565b614649604083018a61460a565b614656606083018961460a565b614663608083018861460a565b61467060a083018761460a565b61467d60c083018661460a565b61468a60e083018561460a565b61469861010083018461460a565b9a9950505050505050505050565b600081519050919050565b600082825260208201905092915050565b60005b838110156146e05780820151818401526020810190506146c5565b838111156146ef576000848401525b50505050565b6000601f19601f8301169050919050565b6000614711826146a6565b61471b81856146b1565b935061472b8185602086016146c2565b614734816146f5565b840191505092915050565b600061018082019050818103600083015261475a818f614706565b9050614769602083018e61460a565b818103604083015261477b818d614706565b905061478a606083018c61460a565b818103608083015261479c818b614706565b90506147ab60a083018a61460a565b81810360c08301526147bd8189614706565b90506147cc60e083018861460a565b8181036101008301526147df8187614706565b90506147ef61012083018661460a565b8181036101408301526148028185614706565b905061481261016083018461460a565b9d9c50505050505050505050505050565b6000604051905090565b600080fd5b600080fd5b61484081614600565b811461484b57600080fd5b50565b60008135905061485d81614837565b92915050565b6000602082840312156148795761487861482d565b5b60006148878482850161484e565b91505092915050565b600060ff82169050919050565b6148a681614890565b82525050565b60008115159050919050565b6148c1816148ac565b82525050565b600073ffffffffffffffffffffffffffffffffffffffff82169050919050565b60006148f2826148c7565b9050919050565b614902816148e7565b82525050565b6000614913826148c7565b9050919050565b61492381614908565b82525050565b6000819050919050565b61493c81614929565b82525050565b600061010082019050614958600083018b61460a565b614965602083018a61460a565b614972604083018961489d565b61497f606083018861489d565b61498c60808301876148b8565b61499960a08301866148f9565b6149a660c083018561491a565b6149b360e0830184614933565b9998505050505050505050565b600060208201905081810360008301526149da8184614706565b905092915050565b600080fd5b600080fd5b7f4e487b7100000000000000000000000000000000000000000000000000000000600052604160045260246000fd5b614a24826146f5565b810181811067ffffffffffffffff82111715614a4357614a426149ec565b5b80604052505050565b6000614a56614823565b9050614a628282614a1b565b919050565b600067ffffffffffffffff821115614a8257614a816149ec565b5b614a8b826146f5565b9050602081019050919050565b82818337600083830152505050565b6000614aba614ab584614a67565b614a4c565b905082815260208101848484011115614ad657614ad56149e7565b5b614ae1848285614a98565b509392505050565b600082601f830112614afe57614afd6149e2565b5b8135614b0e848260208601614aa7565b91505092915050565b60008060408385031215614b2e57614b2d61482d565b5b600083013567ffffffffffffffff811115614b4c57614b4b614832565b5b614b5885828601614ae9565b9250506020614b698582860161484e565b9150509250929050565b614b7c81614890565b8114614b8757600080fd5b50565b600081359050614b9981614b73565b92915050565b600080600060608486031215614bb857614bb761482d565b5b6000614bc686828701614b8a565b9350506020614bd786828701614b8a565b9250506040614be886828701614b8a565b9150509250925092565b60008060408385031215614c0957614c0861482d565b5b6000614c178582860161484e565b9250506020614c2885828601614b8a565b9150509250929050565b6000602082019050614c47600083018461491a565b92915050565b600061012082019050614c63600083018c61460a565b614c70602083018b61460a565b614c7d604083018a61489d565b614c8a606083018961489d565b614c9760808301886148b8565b614ca460a083018761491a565b614cb160c083018661491a565b614cbe60e083018561491a565b614ccc610100830184614933565b9a9950505050505050505050565b6000602082019050614cef60008301846148b8565b92915050565b614cfe81614908565b8114614d0957600080fd5b50565b600081359050614d1b81614cf5565b92915050565b600060208284031215614d3757614d3661482d565b5b6000614d4584828501614d0c565b91505092915050565b614d57816148e7565b8114614d6257600080fd5b50565b600081359050614d7481614d4e565b92915050565b60008060408385031215614d9157614d9061482d565b5b6000614d9f8582860161484e565b9250506020614db085828601614d65565b9150509250929050565b614dc381614929565b8114614dce57600080fd5b50565b600081359050614de081614dba565b92915050565b614def816148ac565b8114614dfa57600080fd5b50565b600081359050614e0c81614de6565b92915050565b600080600080600060a08688031215614e2e57614e2d61482d565b5b6000614e3c88828901614dd1565b9550506020614e4d88828901614b8a565b9450506040614e5e8882890161484e565b9350506060614e6f88828901614dfd565b9250506080614e8088828901614d0c565b9150509295509295909350565b60008060008060008060c08789031215614eaa57614ea961482d565b5b6000614eb889828a01614dfd565b9650506020614ec989828a01614b8a565b9550506040614eda89828a0161484e565b9450506060614eeb89828a01614d0c565b9350506080614efc89828a0161484e565b92505060a0614f0d89828a01614dd1565b9150509295509295509295565b7f4e487b7100000000000000000000000000000000000000000000000000000000600052601160045260246000fd5b6000614f5482614600565b9150614f5f83614600565b925082821015614f7257614f71614f1a565b5b828203905092915050565b7f4964436865636b3a2057726f6e67207479706520656e74657265640000000000600082015250565b6000614fb3601b836146b1565b9150614fbe82614f7d565b602082019050919050565b60006020820190508181036000830152614fe281614fa6565b9050919050565b7f4964436865636b3a205f6964206d757374206265203e20300000000000000000600082015250565b600061501f6018836146b1565b915061502a82614fe9565b602082019050919050565b6000602082019050818103600083015261504e81615012565b9050919050565b7f4964436865636b3a20496e76616c6964204345205f6964000000000000000000600082015250565b600061508b6017836146b1565b915061509682615055565b602082019050919050565b600060208201905081810360008301526150ba8161507e565b9050919050565b7f4964436865636b3a20496e76616c696420544d4d205f69640000000000000000600082015250565b60006150f76018836146b1565b9150615102826150c1565b602082019050919050565b60006020820190508181036000830152615126816150ea565b9050919050565b7f4e487b7100000000000000000000000000000000000000000000000000000000600052603260045260246000fd5b7f4f6e6c7950617965723a20596f752068617665206e6f2072696768747320746f60008201527f20646f20746869732e0000000000000000000000000000000000000000000000602082015250565b60006151b86029836146b1565b91506151c38261515c565b604082019050919050565b600060208201905081810360008301526151e7816151ab565b9050919050565b7f537461747573436865636b3a2057726f6e672074797065000000000000000000600082015250565b60006152246017836146b1565b915061522f826151ee565b602082019050919050565b6000602082019050818103600083015261525381615217565b9050919050565b7f537461747573206572726f722c2074686973207469636b657420697320636c6f60008201527f7365642e00000000000000000000000000000000000000000000000000000000602082015250565b60006152b66024836146b1565b91506152c18261525a565b604082019050919050565b600060208201905081810360008301526152e5816152a9565b9050919050565b7f57726f6e672070617373776f726420656e74657265642e000000000000000000600082015250565b60006153226017836146b1565b915061532d826152ec565b602082019050919050565b6000602082019050818103600083015261535181615315565b9050919050565b7f5f55736543453a204e6f7420656e6f7567682076616c7565207761732073656e60008201527f7400000000000000000000000000000000000000000000000000000000000000602082015250565b60006153b46021836146b1565b91506153bf82615358565b604082019050919050565b600060208201905081810360008301526153e3816153a7565b9050919050565b7f43616c6c6572206973206e6f74206f776e657200000000000000000000000000600082015250565b60006154206013836146b1565b915061542b826153ea565b602082019050919050565b6000602082019050818103600083015261544f81615413565b9050919050565b7f4368616e6765466565733a205f7768656e206973206e6569746865722030206f60008201527f7220310000000000000000000000000000000000000000000000000000000000602082015250565b60006154b26023836146b1565b91506154bd82615456565b604082019050919050565b600060208201905081810360008301526154e1816154a5565b9050919050565b7f4368616e6765446973636f756e743a2077726f6e6720617267756d656e747300600082015250565b600061551e601f836146b1565b9150615529826154e8565b602082019050919050565b6000602082019050818103600083015261554d81615511565b9050919050565b7f506179546865446576733a205f616d6f756e74206973206e756c6c206f72206860008201527f6967686572207468616e2053696b6b657227732070726f666974000000000000602082015250565b60006155b0603a836146b1565b91506155bb82615554565b604082019050919050565b600060208201905081810360008301526155df816155a3565b9050919050565b7f4f6e6c7952656365697665723a20596f7520617265206e6f7420746865206c6560008201527f676974696d61746520726563656976657220666f722074686973207469636b6560208201527f742e000000000000000000000000000000000000000000000000000000000000604082015250565b60006156686042836146b1565b9150615673826155e6565b606082019050919050565b600060208201905081810360008301526156978161565b565b9050919050565b7f596f75206d75737420656e746572206120706f73697469766520616d6f756e74600082015250565b60006156d46020836146b1565b91506156df8261569e565b602082019050919050565b60006020820190508181036000830152615703816156c7565b9050919050565b600061571582614600565b915061572083614600565b9250827fffffffffffffffffffffffffffffffffffffffffffffffffffffffffffffffff0382111561575557615754614f1a565b5b828201905092915050565b7f53696b6b65724d6174682f50657263656e746167653a206f6e65206f6620746860008201527f6520617267756d656e7473206973206e756c6c00000000000000000000000000602082015250565b60006157bc6033836146b1565b91506157c782615760565b604082019050919050565b600060208201905081810360008301526157eb816157af565b9050919050565b7f4e487b7100000000000000000000000000000000000000000000000000000000600052601260045260246000fd5b600061582c82614600565b915061583783614600565b925082615847576158466157f2565b5b828204905092915050565b600061585d82614600565b915061586883614600565b9250817fffffffffffffffffffffffffffffffffffffffffffffffffffffffffffffffff04831182151516156158a1576158a0614f1a565b5b82820290509291505056fe546f74616c2076616c75652061637475616c6c79206c6f636b6564206f6e20544d4d3a6d73672e73656e646572206973206e6f77207468652064657369676e617465642072656365697665722e546f74616c2076616c75652061637475616c6c79206c6f636b6564206f6e2043453aa2646970667358221220a7beb50348cfe716681860bf549c0d36b5d55e8037756a883fcbc6749fbc7bcf64736f6c634300080a0033",
  "immutableReferences": {},
  "source": "// SPDX-License-Identifier: MIT\n\npragma solidity >=0.7.0 <0.9.0;\n\n//@title Basically Sikker\"s user interface, to be used by tickets users\n//@dev Functions to use and close tickets\n\n\n/**\n * @title Use tickets smart contract\n * @dev Functions to use a payment ticket\n**/\n\nimport \"./SikkerStats.sol\";\nimport \"./CreateTickets.sol\";\n\ncontract UseTickets is SikkerStats, CreateTickets {\n    using SafeMath for uint256;\n    using SafeMath for uint32;\n\n//------------------------------------------------------   Modifiers  --------------------------------------------------------\n\n    modifier IdCheck(uint8 _type, uint256 _id) {\n\n        require(_type == isTMM || _type == isCE, \"IdCheck: Wrong type entered\");\n        require(_id >= 0, \"IdCheck: _id must be > 0\");\n        if (_type == isCE)\n            require(_id < CE_Ticket_Number, \"IdCheck: Invalid CE _id\");\n        else\n            require(_id < TMM_Ticket_Number, \"IdCheck: Invalid TMM _id\");\n        _;\n    }\n\n    modifier OnlyReceiver(address _receiver, bool _designated, uint256 _id) {\n\n        require(_designated == false || _receiver == msg.sender, \"OnlyReceiver: You are not the legitimate receiver for this ticket.\");\n        _;\n    }\n\n    modifier OnlyPayer(address _payer) {\n\n        require(_payer == msg.sender, \"OnlyPayer: You have no rights to do this.\");\n        _;\n    }\n\n    modifier PasswordCheck(string memory _password, bytes32 hash) {\n        require(hash == keccak256(bytes(_password)), \"Wrong password entered.\");\n        // Compare password hash to stored hash\n        _;\n    }\n\n    modifier StatusCheck(uint8 _status, uint8 _type) {\n        require(_type == isCE || _type == isTMM, \"StatusCheck: Wrong type\");\n        require(_status == 0 || (_status == 1 && _type == isCE), \"Status error, this ticket is closed.\");\n        // Verify that the ticket status is correct\n        _;\n    }\n\n    modifier TimeCheck(uint256 _lock, uint8 _type, uint256 _id) {\n        if (_lock != 0) {\n            if (_type == isCE)\n                require(_CE_Tickets[_id].TimeLock > block.timestamp, \"TimeCheck: CE Ticket is locked\");\n            else if (_type == isTMM)\n                require(_TMM_Tickets[_id].TimeLock > block.timestamp, \"TimeCheck: TMM Ticket is locked\");\n        }\n        _;\n    }\n\n//------------------------------------------------------   Functions  --------------------------------------------------------\n\n    function _FillCE(string memory _password, uint _id) public payable\n        IdCheck(isCE, _id)\n        StatusCheck(_CE_Tickets[_id].Status, isCE)\n        PasswordCheck(_password, _CE_Tickets[_id].Hash)\n        returns(string memory timelocked)\n    {\n\n        uint8 _lockUnlock;\n        uint256 _amount = Percentage(SendPercent, _CE_Tickets[_id].Amount, SendDivider);\n\n        if (_LockCE(_id) != false)\n            return (\"Ticket is timelocked!\");\n\n        require(msg.sender.balance > _CE_Tickets[_id].Amount, \"_UseCE: Not enough value was sent\");\n        _CE_Tickets[_id].Payer = msg.sender;\n\n        if (_CE_Tickets[_id].Aty == true) {\n            _lockUnlock = Both;\n            payable(_CE_Tickets[_id].Receiver).transfer(_amount.div(2));\n        } else\n            _lockUnlock = Locked;\n\n        UpdateStatsCE(_id, _lockUnlock, _amount, _amount.div(2), NONE, 1);\n        return(\"Ticket is now filled.\");\n    }\n\n    function _ApproveCE(uint _id) public\n        OnlyPayer(_CE_Tickets[_id].Payer)\n        IdCheck(isCE, _id)\n        StatusCheck(_CE_Tickets[_id].Status, isCE)\n        returns(string memory locked)\n    {\n\n        if (_LockCE(_id) != false)\n            return (\"Ticket is timelocked!\");\n\n        uint256 _amount = Percentage(SendPercent, _CE_Tickets[_id].Amount, SendDivider);\n\n        if (_CE_Tickets[_id].Aty == true)\n            _amount = _amount.div(2);\n\n        UpdateStatsCE(_id, Unlocked, _amount, _amount.div(2), Death, 2);\n\n        payable(_CE_Tickets[_id].Receiver).transfer(_amount);\n\n        return(\"Ticket is now closed.\");\n    }\n\n    function _CloseCE(uint256 _id) public\n        IdCheck(isCE, _id)\n        OnlyPayer(_CE_Tickets[_id].Payer)\n        StatusCheck(_CE_Tickets[_id].Status, isCE)\n        returns(string memory locked)\n    {\n\n        uint256 _amount;\n\n        if (_CE_Tickets[_id].LossPercent == 0)\n            _amount = Percentage(ClosPercent, _CE_Tickets[_id].Amount, ClosDivider);\n        else\n            _amount = Percentage(_CE_Tickets[_id].LossPercent, _CE_Tickets[_id].Amount, 100);\n\n        if (_LockCE(_id) != false)\n            return (\"Ticket is timelocked!\");\n\n        if (_CE_Tickets[_id].Aty == true)\n            _amount = _amount.div(2);\n\n        UpdateStatsCE(_id, Unlocked, _amount, 0, Death, 2);\n\n        payable(_CE_Tickets[_id].Payer).transfer(_amount);\n        return (\"Ticket is now locked.\");\n    }\n\n    function _UseTMM(string memory _password, uint256 _id)\n        public\n        IdCheck(isTMM, _id)\n        OnlyReceiver(_TMM_Tickets[_id].Receiver, _TMM_Tickets[_id].DeRe, _id)\n        StatusCheck(_TMM_Tickets[_id].Status, isTMM)\n        PasswordCheck(_password, _TMM_Tickets[_id].Hash)\n        returns(string memory timelocked) {\n\n        if (_LockTMM(_id) != false)\n            return (\"Ticket is timelocked!\");\n\n        uint256 _amount = Percentage(SendPercent, _TMM_Tickets[_id].Amount, SendDivider);\n\n        if (_TMM_Tickets[_id].DeRe == false) {\n            _TMM_Tickets[_id].Receiver = payable(msg.sender);\n            _TMM_Tickets[_id].DeRe = true;\n            return (\"msg.sender is now the designated receiver.\");\n        } else {\n            payable(msg.sender).transfer(_amount);\n            UpdateStatsTMM(_id, Unlocked, _amount, Death, 1);\n            return(\"Ticket is now closed\");\n        }\n    }\n\n    function _CloseTMM(uint256 _id) public\n            IdCheck(isTMM, _id)\n            OnlyPayer(_TMM_Tickets[_id].Creator)\n            StatusCheck(_TMM_Tickets[_id].Status, isTMM)\n            returns(string memory locked)\n        {\n\n        if (_LockTMM(_id) != false)\n            return (\"Ticket is timelocked!\");\n\n        uint256 _amount;\n\n        if (_TMM_Tickets[_id].LossPercent == 0)\n            _amount = Percentage(ClosPercent, _TMM_Tickets[_id].Amount, ClosDivider);\n        else\n            _amount = Percentage(_TMM_Tickets[_id].LossPercent, _TMM_Tickets[_id].Amount, 100);\n\n        UpdateStatsTMM(_id, Unlocked, _amount, Death, 1);\n        payable(_TMM_Tickets[_id].Creator).transfer(_amount);\n\n        return(\"Ticket is now losed.\");\n\n    }\n\n//------------------------------------------------- Lock functions\n\n    function _LockCE(uint256 _id) public \n        IdCheck(isCE, _id)\n        StatusCheck(_CE_Tickets[_id].Status, isCE)\n        returns(bool) {\n\n        if (_CE_Tickets[_id].TimeLock > 0 && _CE_Tickets[_id].TimeLock <= block.timestamp) {\n\n            uint256 _amount;\n\n            if (_CE_Tickets[_id].LossPercent == 0)\n                _amount = Percentage(ClosPercent, _CE_Tickets[_id].Amount, ClosDivider);\n            else\n                _amount = Percentage(_CE_Tickets[_id].LossPercent, _CE_Tickets[_id].Amount, 100);\n\n            if (_CE_Tickets[_id].Aty == true)\n                _amount = _amount.div(2);\n            UpdateStatsCE(_id, Unlocked, _amount, _amount, Death, 3);\n\n            payable(_CE_Tickets[_id].Payer).transfer(_amount);\n            return (true);\n        }\n        else\n            return (false);\n    }\n\n    function _LockTMM(uint256 _id) public\n        IdCheck(isTMM, _id)\n        StatusCheck(_TMM_Tickets[_id].Status, isTMM)\n        returns(bool) {\n\n        if (_TMM_Tickets[_id].TimeLock > 0 && _TMM_Tickets[_id].TimeLock <= block.timestamp) {\n\n            uint256 _amount;\n\n            if (_TMM_Tickets[_id].LossPercent == 0)\n                _amount = Percentage(ClosPercent, _TMM_Tickets[_id].Amount, ClosDivider);\n            else\n                _amount = Percentage(_TMM_Tickets[_id].LossPercent, _TMM_Tickets[_id].Amount, 100);\n\n            UpdateStatsTMM(_id, Unlocked, _amount, Death, 2);\n\n            payable(_TMM_Tickets[_id].Creator).transfer(_amount);\n            return (true);\n        }\n        else\n            return (false);\n    }\n\n}",
  "sourcePath": "/home/steph/CRYPTO/Sikker/repo/contracts/UseTickets.sol",
  "compiler": {
    "name": "solc",
    "version": "0.8.10+commit.fc410830.Emscripten.clang"
  },
  "schemaVersion": "3.4.4",
  "updatedAt": "2021-12-19T15:42:31.625Z",
  "devdoc": {
    "kind": "dev",
    "methods": {
      "changeOwner(address)": {
        "details": "Change owner",
        "params": {
          "newOwner": "address of new owner"
        }
      },
      "getOwner()": {
        "details": "Return owner address ",
        "returns": {
          "_0": "address of owner"
        }
      }
    },
    "version": 1
  },
  "userdoc": {
    "kind": "user",
    "methods": {},
    "version": 1
  }
}